:020000040800F2
:1000000040300020A12C0008DD2400088D2C0008C1
:100010008D2C00088D2C00088D2C0008000000009D
:10002000000000000000000000000000CD2D0008CE
:100030008D2C000800000000852D0008995E000846
:10004000D12F0008D12F0008D12F0008D12F000890
:10005000D12F0008D12F0008D12F0008D12F000880
:10006000D12F0008D12F0008D12F0008D12F000870
:10007000D12F0008D12F0008D12F0008D12F000860
:10008000D12F0008D12F0008D12F0008D12F000850
:10009000D12F0008D12F0008D12F0008D12F000840
:1000A000D12F0008D12F0008D12F0008D12F000830
:1000B000D12F0008D12F0008D12F0008D12F000820
:1000C000D12F0008D12F0008D12F0008D12F000810
:1000D000D12F0008D12F0008D12F0008D12F000800
:1000E000D12F0008D12F0008D12F0008D12F0008F0
:1000F000D12F0008D12F0008D12F0008D12F0008E0
:10010000D12F0008D12F0008D12F0008D12F0008CF
:10011000D12F0008D12F0008D12F0008D12F0008BF
:10012000D12F0008D12F0008D12F0008D12F0008AF
:10013000D12F0008D12F0008D12F0008D12F00089F
:10014000D12F0008D12F0008D12F0008D12F00088F
:10015000D12F0008D12F0008D12F0008D12F00087F
:10016000D12F0008D12F0008D12F0008D12F00086F
:10017000D12F0008D12F0008D12F0008D12F00085F
:10018000D12F0008D12F0008D12F0008D12F00084F
:10019000D12F0008D12F0008D12F0008D12F00083F
:1001A000D12F0008D12F0008D12F0008D12F00082F
:1001B000D12F0008D12F0008D12F0008D12F00081F
:1001C000D12F0008D12F0008D12F0008D12F00080F
:0801D000D12F0008D12F000817
:1001D80053B94AB9002908BF00281CBF4FF0FF31A6
:1001E8004FF0FF3000F00CB8ADF1080C6DE904CE0B
:1001F80000F008F8DDF804E0DDE9022304B07047F8
:10020800704700BF2DE9F04786468C460846089E91
:10021800154674461946002B40F0C2808542B2FA52
:1002280082F245D94AB1C2F1200300FA02FC2EFA43
:1002380003F3954043EA0C0C94404FEA154EA8B2DC
:10024800BCFBFEF8230C0EFB18CC08FB00F943EAB4
:100258000C43994528D9EB1808F1FF3704D2994582
:1002680002D9A8F102072B44A3EB0903A4B2B3FBFC
:10027800FEFC0EFB1C330CFB00F044EA0344A042D6
:1002880014D92C190CF1FF3304D2A04202D9ACF1D5
:1002980002032C44241A43EA07401EB1D440002329
:1002A80034607360BDE8F0874746DDE76346F1E7F1
:1002B80092BB431B01214FEA154EAFB2B3FBFEFCC4
:1002C800200C0EFB1C330CFB07F840EA034398454F
:1002D80062D9EB180CF1FF3004D2984502D9ACF181
:1002E80002002B44A3EB0803A4B2B3FBFEFC0EFBF5
:1002F8001C330CFB07F744EA0344A7424ED92C19D8
:100308000CF1FF3304D2A74202D9ACF102032C440A
:10031800E41B43EA0040C0E7C2F1200320FA03F1DE
:10032800954090402EFA03F303434FEA154EAFB2BF
:10033800B1FBFEFC0EFB1C10190C0CFB07F841EA84
:100348000041884504FA02F422D969180CF1FF30FB
:1003580004D2884502D9ACF102002944A1EB080176
:100368009BB2B1FBFEFC0EFB1C110CFB07F743EA2A
:1003780001439F420ED9EB180CF1FF3104D29F4282
:1003880002D9ACF102012B44DB1B41EA004192E7A0
:100398006046E3E76146F7E76046A3E76346B7E7E9
:1003A800834206D916B9002108467BE7C6E900E072
:1003B800F9E7B3FA83F78FB9834201D3724508D8B6
:1003C800BEEB020460EB030301209C461EB900212A
:1003D80068E73846FAE7C6E9004CF8E7C7F1200CA9
:1003E800BB4022FA0CF41C432EFA0CF120FA0CF351
:1003F800B84001434FEA14490EFA07F5B3FBF9F880
:100408001FFA84FE09FB18300B0C08FB0EFA43EAAE
:1004180000439A4502FA07F240D9E31808F1FF3081
:1004280004D29A4502D9A8F102002344A3EB0A0397
:1004380089B2B3FBF9F809FB183308FB0EFE41EA51
:1004480003418E452CD9611808F1FF3304D28E453B
:1004580002D9A8F10203214443EA0040A0FB029814
:10046800A1EB0E014145CE46434602D306D14D4588
:1004780004D2B9EB020E68EB04030138002EA6D0B3
:10048800B5EB0E0261EB030101FA0CFC22FA07F34B
:100498004CEA0303F940C6E9003198E74046C5E74E
:1004A8004346D9E7034613F8012B002AFBD1181A53
:1004B8000138704700B585B0074B029300200190C2
:1004C800009003460322054908F00BFE00F0A6FA47
:1004D80005B05DF804FB00BF74B300084CB3000816
:1004E80000B585B0084B02930020019000900346A8
:1004F8000322064908F0F5FD00F04EFB4FF47A7030
:10050800002108F073F8F7E788B300084CB3000837
:1005180000B585B0154B029300200190009003466A
:100528000322134908F0DDFD06E000F0E5FA4FF478
:100538007A70002108F05AF80E4B1B889BB20E4ABD
:10054800128892B2B42BF0D9B2F5AF7FEDD20B4B33
:10055800029300200190009003460122044908F00C
:10056800C0FD00F06FFA00F0F3FADEE7A4B300086C
:100578004CB30008D4080020D6080020BCB30008FB
:10058800F0B589B03B4B02930020019000900346E0
:100598000322394908F0A5FD00F0AEF9002848D03B
:1005A80000F0C8FA002851D000F0EEF9002857D022
:1005B80000F078FA00260027CDE9066700240494A5
:1005C800052503950294019400942C4B4FF4006286
:1005D8002B492C4806F050FFCDE906670494039593
:1005E800029401940094284B4FF40062274928484C
:1005F80006F042FFCDE9066704940395029401943E
:100608000094244B4FF480622349244806F034FFB9
:10061800234B029301940094234603221649204653
:1006280008F05FFD4FF0FF304FF0FF3107F0DEFFBD
:10063800F8E71C4B029301900090034601220E49F3
:1006480008F04FFD4FF0FF3009B0F0BD164B029394
:100658000190009003460122074908F042FDF1E7A6
:10066800124B02930190009003460122024908F0C0
:1006780038FDE7E7FCB300084CB30008BD040008E8
:10068800801500206802002019050008400D002090
:10069800A8010020E904000800090020E800002063
:1006A80050B4000818B400082CB4000840B400087E
:1006B800F8B586684768046912F0FC6F33D11346B1
:1006C80002F03002302A3ED0504A1A40504DAA4219
:1006D80049D003F00602042A55D013F4402202D070
:1006E80013F4003F5CD0B2F5402F69D013F4801F9B
:1006F80005D022B113F0010F01D083F4402323F475
:1007080080123D684FF0010C0CFA01FC15EA0C0F41
:1007180066D013F0010F73D023684CEA03032360FB
:1007280033689847F8BD3B4C4FF4747322463A49F6
:100738003A4808F057FF3A4808F054FF4FF47471EC
:10074800204608F046FF334C40F2D3332246354961
:10075800324808F047FF344808F044FF40F2D331EC
:10076800204608F036FF2B4C40F2D73322462F495B
:100778002A4808F037FF2E4808F034FF40F2D731F6
:10078800204608F026FF234C40F2DA332246294956
:10079800224808F027FF40F2DA31204608F019FF16
:1007A8001C4C40F2DD33224623491C4808F01AFF4E
:1007B800224808F017FF40F2DD31204608F009FF13
:1007C800144C40F2E13322461D49144808F00AFF50
:1007D8001C4808F007FF40F2E131204608F0F9FE16
:1007E8000C4C40F2ED33224617490C4808F0FAFE4B
:1007F800164808F0F7FE40F2ED31204608F0E9FE11
:10080800236823EA0C0323608AE700BF0200030081
:100818000200010078B40008ACB400080CB5000868
:100828002CB5000850B500088CB50008CCB50008F8
:1008380014B6000864B6000898B60008E0B60008C8
:100848001CB7000860B700088CB70008CCB70008D0
:1008580010B543681C68012303FA01F10C4204D067
:100868009AB18368DB68984710BD0A4C40F22F6341
:1008780022460949094808F0B5FE094808F0B2FEC1
:1008880040F22F61204608F0A4FE83681B69984750
:10089800EAE700BF78B400088CB700080CB5000878
:1008A800CCB7000838B5436805691C6801238B403C
:1008B8001C4208D02C68234202D0B2FA82F25209B4
:1008C800FFF7C6FF38BD084C4FF4CB6322460749F3
:1008D800074808F087FE074808F084FE4FF4CB610C
:1008E800204608F076FE00BF78B400088CB70008F0
:1008F8000CB50008CCB7000838B5104B1C780CB103
:10090800204638BD0E4B18680E4B18600AF0A5F843
:10091800054608B90446F3E74FF4B011084808F053
:10092800EFFB0028ECD1064B002219791868FFF775
:10093800B9FF024B01221A702C46E1E7D8080020C3
:1009480000000020D805002008B5054B1B7803B926
:1009580008BD044B012219791868FFF7A3FFF7E7D0
:10096800D80800200000002008B5054B1B7803B903
:1009780008BD044B002219791868FFF793FFF7E7C1
:10098800D80800200000002010B584B00D480AF0F7
:1009980064F8044628B10B4883685B68984718B127
:1009A8000024204604B010BD002301930293039352
:1009B80001AA0549034802F0B7FF0028F1DA00242C
:1009C800EFE700BFA4AF0008B800002008B5B0F5F5
:1009D800407F18D009D8B0F5007F11D040F201232C
:1009E80098420FD100F072F80CE040F201339842BF
:1009F80008D10B784A7843EA0223064A138001E0BB
:100A080000F05EF808BD0B784A7843EA0223024AF0
:100A18001380F7E7D6080020D408002000B593B06B
:100A28000A2200236946064806F0DAF80028F7D1BA
:100A38009DF8042002A90098FFF7C8FFF0E700BF5F
:100A4800B800002000B595B04822002102A80AF09D
:100A5800B1F94FF4807302930023019300930A22A3
:100A6800002302A9024802F0F1FE15B05DF804FB6C
:100A7800A4AF000800B595B04822002102A80AF0EA
:100A880099F940F2011302930023019300930A227B
:100A9800002302A9024802F0D9FE15B05DF804FB54
:100AA800A4AF00080023034A1370034A1370034AD3
:100AB80013707047DB080020DA080020D9080020EE
:100AC800014B00221A707047DB080020014B0022FE
:100AD8001A707047DA08002008B5064B1B7803B176
:100AE80008BD044B01221A70FFF7C4FF00F030F86C
:100AF800F6E700BFD908002008B50C4B1B78022B7D
:100B080002D80133094A1370094B1B78022B02D80B
:100B18000133074A1370054B1B78022B03D8044B8B
:100B28001B78022B01D9FFF7D7FF08BDDB0800208F
:100B3800DA08002008B5044B00221A70FFF714FFEA
:100B48000120024B187008BDDD080020DC080020D9
:100B58000D4B1B78B3B10D4B1B78012B12D010B580
:100B680084B00124094B1C70FFF7EEFE084B02937A
:100B780000200190009003462246064908F0CBFA6F
:100B880004B010BD704700BFDC080020DD0800205D
:100B9800E0B70008F4B20008034B1878012814BF26
:100BA80000200120704700BFDD08002070B5B2F5B5
:100BB800802F1FD20346042A2CD9043AC81D20F0DE
:100BC80007000A4422F00702121AD508172A31D959
:100BD800186085600023C360B5FA85F1C1F1200E65
:100BE800C1F124018900CE1DF1084B1CAB4231D85C
:100BF800002345E0344C40F2EB1322463349344895
:100C080008F0F0FC334808F0EDFC40F2EB11204608
:100C180008F0DFFC2C4C4FF4F97322462E492C487F
:100C280008F0E0FC2D4808F0DDFC4FF4F97120468F
:100C380008F0CFFC244C40F2FB13224628492448F4
:100C480008F0D0FC254808F0CDFC40F2FB11204606
:100C580008F0BFFC1C4C4FF40373224621491C4882
:100C680008F0C0FC1D4808F0BDFC4FF40371204695
:100C780008F0AFFC03F1040C002440F82C400133C9
:100C88007345F7DB4C00A4B244804FF0000CA0F889
:100C980000C044F0010444806B1A4FEA430E26F06A
:100CA8000704A51C20F805E0015322F00704951C51
:100CB80020F805C002440353538843F001035380CE
:100CC80008F05FFA70BD00BF28B80008FCB800083B
:100CD8000CB5000814B900082CB9000850B9000870
:100CE8006CB9000898B900082DE9F04F91B0059249
:100CF8000393134602F004020092C3F3C20210F0F9
:100D08000303019340F0708280468A460132041D35
:100D1800002850D0B8F1000F05D0A4EB0803043325
:100D2800534500F26482039B5D1E019B0493069366
:100D3800029300264FF0FF3B0427B946B8F1000F95
:100D480001D0039B2360531E0793002A40F361815F
:100D5800059B13F0020229D00120A4EB08018B089F
:100D68001AB1B1F5007F80F06881029A0F2A00F26B
:100D78007481B8F1000F00F08481DBB2029901F1AF
:100D880040026A4402F8103C02F820BC002800F037
:100D9800748163F07F0301F140026A4402F8103C59
:100DA800049B01330493029B013302930434002211
:100DB800CC4640463DE001F0070A5444CAF1080A0F
:100DC800A8E7002634E0002632E0002630E00827B5
:100DD800BC462DE025292BD10BF1010B0126042758
:100DE800BC4625E04729EED82A2914D32A39C9B2A6
:100DF8004FF0010E0EFA01F14FF6DA7E11EA0E0FEE
:100E080016D111F0625F40F0C28011F0010F40F07E
:100E18008D8000260CE0252903D10BF1FF3B00262D
:100E280006E001D9002603E0202901D02329CCD1EE
:100E38001D466B1C6978002900F04E81002EC9D030
:100E48007A29BED84C29CDD34C392E2962D80FF235
:100E5800080E5EF821F000BF390E00081D0F0008CB
:100E68001D0F00081D0F00081D0F00081D0F0008AA
:100E78001D0F00081D0F00081D0F00081D0F00089A
:100E88001D0F00081D0F00082D0F00081D0F00087A
:100E98001D0F00081D0F00081D0F00081D0F00087A
:100EA8001D0F00081D0F00081D0F0008970F0008F0
:100EB8001D0F00082D0F00082D0F0008970F0008C0
:100EC800970F0008970F0008390E00082D0F00082B
:100ED800D70D00081D0F0008390E00081D0F000867
:100EE800F30F00082D0F0008F30F00081D0F00086E
:100EF8001D0F0008FB0F0008270F00082D0F000822
:100F08001D0F00081D0F00082D0F00081D0F0008F9
:100F1800210F000800268BE70427BC4688E7042732
:100F2800BC4685E729786C2925D000263C44013C3D
:100F3800B4FBF7F407FB04F4254620B1211A6144F9
:100F4800514500F25781002A58D1BCF1040F00F036
:100F5800A980BCF1080F40F0AD801A99073121F043
:100F6800070101F108051A95D1E9008908B1C4E91A
:100F7800008908345CE713F8021C6C2903D00026AA
:100F88000427BC46D2E700260827BC46CEE72978C6
:100F98004C291AD01A99073121F0070101F10806E6
:100FA8001A96D1E90067073424F0070440B1211AE2
:100FB8000831514513D829784C2913D0C4E9006762
:100FC800083400260827BC4632E71A99073121F071
:100FD800070101F108061A96D1E90067E3E76FF007
:100FE8001B00FEE0C4E90067EAE700260427BC46C8
:100FF8009CE7324600260427BC4697E72C46E14684
:1010080080461A9A111D1A9112680392079A1D4672
:1010180094E67D4B039A9A4204D37C4B9A420AD3B6
:10102800002300E00023002B7FF492AE059B03F021
:101038000202002091E60123F5E7754C4FF41F7377
:1010480022467449744808F0CDFA744808F0CAFA80
:101058004FF41F71204608F0BCFA6D4C40F2812312
:1010680022466C496C4808F0BDFA6D4808F0BAFA97
:1010780040F28121204608F0ACFA069B0133069322
:1010880091E610B10AF1010A8DE6009B13B10AF14D
:10109800020A88E60398FFF705FA00EB0A0303F152
:1010A800020A80E61A990D1D1A95096800B1216097
:1010B8000434BDE6E146564C40F2C6232246554963
:1010C800554808F08FFA4946564808F08BFA40F21E
:1010D800C621204608F07DFA8046231AB3F5806FB2
:1010E80013D210B3002202609B080370009B03B365
:1010F800069BC370049B88F802309BBB019DDDF8FA
:101108000890DDF810B0039F4DE0414C40F2D22327
:1011180022464049404808F065FA434808F062FA18
:1011280040F2D221204608F054FA5344A3F10800B3
:1011380057E0069B4370DDE701339842DED903F19F
:1011480040026A4412F8101C12F9102C002AF3DA33
:1011580001F07F01A4EB0802013252454DD804F892
:10116800011BE9E7019B0298E7E7009B43B305F100
:1011780040036B4413F8203C04F8013B019EA4EBA8
:1011880008033344013353453AD805F140036B440F
:1011980013F8103C04F8013B32463946204609F062
:1011A800FBFD34440135A94519D9BBF1000FDCD04A
:1011B80005F140036B4413F9103C002BD5DAF1E735
:1011C80005F140036B4413F8103C58F823700022D3
:1011D80048F823203846FFF765F9461CCFE7A4EB0B
:1011E800080011B0BDE8F08F6FF00D00F9E76FF05F
:1011F8001B00F6E76FF01B00F3E76FF01B00F0E74A
:101208006FF01B00EDE700BF14AE0008E4E3000830
:10121800C4B90008DCB600080CB500080CBA000810
:1012280030BA00084CBA000864BA0008014B1860CC
:10123800704700BF0800002084460268002006E0CE
:1012480000EB8000013203EB4003A3F13000137878
:101258000349C95C11F0040FF2D1CCF800207047A3
:10126800E2E2000884460846012226E09CF80030A5
:1012780043F004038CF80030F2B101301CE09CF814
:10128800003043F008038CF80030F5E79CF8003094
:1012980043F010038CF80030EEE79CF8003043F080
:1012A80020038CF80030E7E79CF8003043F0400357
:1012B8008CF80030E0E7002242B30378203B102B83
:1012C800F9D801A151F823F095120008BF120008BF
:1012D800BF120008A3120008BF120008BF120008BE
:1012E800BF120008BF120008BF120008BF12000892
:1012F800BF12000887120008BF1200087512000804
:10130800BF120008BF120008B11200089CF8003094
:1013180003F04403442B00D070479CF800306FF36F
:1013280086138CF80030F7E72DE9F84F05460C4690
:10133800934699460A9ED078254B13F800A00AF0E8
:10134800030A08F0FAF8074614E0BAF1010F20D0B2
:10135800D2B25732D2B232703A4643462846214674
:10136800FEF736FFBD4274F1000416D34E4514D97A
:1013780005460C464FF000083A46434628462146A3
:10138800FEF726FF013E092ADFD8D2B23032D2B2A8
:10139800E1E7D2B23732D2B2DDE79BF8003013F082
:1013A800200F03D0082F04D0102F09D03046BDE8F5
:1013B800F88F9BF8023043F008038BF80230F5E70A
:1013C8009BF8023043F010038BF80230EEE700BFC1
:1013D800E2E200082DE9F04F91B006460D4691462D
:1013E8000393002499F80000002800F0B98225280A
:1013F80008D02946B0470028C0F2B382013409F169
:101408000109EFE7002304930593069307930893D4
:101418000993494606A808F06EF802909DF819301D
:1014280013F0010F00F09780039B1A1D03921F68A9
:10143800002FC0F288809DF8193013F0040F00F0D7
:101448009C80039B1A1D0392D3F800A0BAF1000FE9
:10145800C0F28A800023079308939DF81A3003F09E
:1014680007039DF81910C1F3C301012B00F08E800A
:10147800022B00F0D380042B00F02481032B00F012
:101488003B819DF8188018F0030B40F03B819DF8D4
:101498001B30253B532B00F2CA81DFE813F04001D3
:1014A800C801C801C801C801C801C801C801C801EC
:1014B800C801C801C801C801C801C801C801C801DC
:1014C800C801C801C801C801C801C801C801C801CC
:1014D800C801C801C801C801C801C801C801C801BC
:1014E800C801C801C801C801C801C801C801C801AC
:1014F800C801C801C801C801C801C801C801C8019C
:10150800C801C8019D01C801C801C801C801C801B6
:10151800C801C801C801C801C8017A018301C8010E
:10152800C801C801C8018301C801C801C801C801B0
:10153800BD019D015E01C801C8014D01C8019D01A1
:10154800C801C8019D019DF8183043F004038DF8C7
:1015580018307F426FE79DF91830002B02DB4FF0FF
:10156800FF3768E7079F66E79DF819306FF3410377
:101578008DF819304FF0FF3A6CE713F0020F02D0E4
:10158800DDF820A066E74FF0FF3A63E7CB1E042B97
:1015980004D8DFE803F00B1D29353500039B1A1D1D
:1015A80003921B68DA170493059206E0039B1A1D41
:1015B80003921B68DA1704930592012928D002299F
:1015C8007FF45FAFBDF91030DA170493059258E73E
:1015D800039B073323F0070303F108020392D3E9BF
:1015E8000023CDE90423E8E7039B073323F007032F
:1015F80003F108020392D3E90023CDE90423DCE7D1
:10160800039B1A1D03921B68DA1704930592D4E70B
:101618009DF91030DA170493059232E7CB1E042B9C
:1016280004D8DFE803F00B1F35414100039B1A1D66
:1016380003921B680493002305931EE09DF81B305A
:10164800632B07D0039B1A1D03921B680493002386
:10165800059312E0039B1A1D03921B680493002351
:1016680005930AE0039B073323F0070303F10802FD
:101678000392D3E90023CDE9042301291CD00229D0
:101688007FF4FFAEBDF81030049300230593F8E60D
:10169800039B073323F0070303F108020392D3E9FE
:1016A8000023CDE90423E8E7039B1A1D03921B6876
:1016B800049300230593E0E79DF81030049300237A
:1016C8000593DEE608290BD0039B073323F00703B5
:1016D80003F108020392D3E90023CDE90423D0E6FD
:1016E800039B073323F0070303F108020392D3E9AE
:1016F8000023CDE90423C4E6039B1A1D03921B684B
:101708000493BEE6029F3B464A462946304607F008
:1017180048FF0028C0F225810444B94662E62946FC
:101728002520B0470028C0F21C810134D8460DF1AD
:101738003E0A4FF000097FE0DDF81090BAF1000F83
:1017480006DA4846FEF7AEFE09EB000AD84673E013
:101758005146484609F049FBF6E7049828B9D846A7
:10176800DFF804A2AAF1050966E00DF13E03009333
:101778000AAB06AA0021FFF7D7FD81469DF81A306B
:1017880043F010038DF81A3078238DF81B30D846B3
:101798002DE0049B8DF82830D8460DF1290A0DF16B
:1017A800280949E018F0080F05D118F0100804D0EE
:1017B8004FF0200801E04FF02B08049A059B002BFE
:1017C80002DB0492059308E0524263EB4303049260
:1017D80005934FF02D0800E0D8460DF13E03009325
:1017E8000AAB06AADDE90401FFF79EFD8146BAF1BE
:1017F800000F50DB0DF13E03A3EB09039DF8182001
:101808006FF386128DF818209A4547D9AAEB03037F
:1018180007930DF13E0A0FE02246049906A807F047
:10182800A1FED8460DF13E0A4FF0000904E0D84663
:101838000DF13E0A4FF00009B9F1000F00F08D805C
:10184800AAEB0902B8F1000F00D001329DF81A1076
:1018580011F0100F25D00232079B134411F0400FEE
:1018680001D0089A1344002F31DDFF1A9DF8183073
:1018780013F0040F2BD113F0400F17D0B8F1000F5D
:1018880017D029464046B04700286ADB0134D846BD
:101898004FF0300B0FE00DF13E0ACDE70DF13E0A97
:1018A800CAE711F0080FD7D00132D5E74FF0200B67
:1018B80001E04FF0300B3B465F1E002B07DD294649
:1018C8005846B04700284CDB01343B46F4E7B8F1F2
:1018D800000F05D029464046B047002841DB0134B7
:1018E8009DF81A30C3F30012C3F3C0031A4305D09E
:1018F80029463020B047002833DB01349DF81A30E0
:1019080013F0100F06D029469DF81B00B047002899
:1019180027DB0134079B03F1FF38002B07DD29463D
:101928003020B04700281CDB01344346F3E7534618
:101938004A462946304607F034FE002811DB0444A5
:10194800002F07DD29462020B047002809DB013495
:10195800013FF5E7DDF8089044E5DDF8089041E53A
:10196800204611B0BDE8F08F95BA0008034A5368C5
:1019780043F0020353600020704700BF002004E0DA
:1019880082B0134B1A6842F400721A601A6842F463
:1019980080621A601A6842F480721A600D4B0E4A0F
:1019A8001A600E4A536843F0010353600C4B9A6D5A
:1019B80042F080529A659B6D03F080530193019B1E
:1019C800084A936843F480439360002002B070474C
:1019D80000200240500000200024F400002004E011
:1019E800001002400070004010B1436858797047F9
:1019F80010B5064C40F2331322460549054807F056
:101A0800F1FD40F23311204607F0E3FD98BA0008D3
:101A1800D0BA00080CB5000810B520B10268D26829
:101A280002B1904710BD054C8B2322460449054856
:101A380007F0D8FD8B21204607F0CBFD98BA0008A7
:101A4800D0BA00080CB5000810B520B102681269B8
:101A580062B1904710BD064C9E23224605490648B0
:101A680007F0C0FD9E21204607F0B3FD0020F1E7F6
:101A780098BA0008D0BA00080CB5000810B518B11B
:101A880002689268904710BD054CD023224605494C
:101A9800054807F0A7FDD021204607F09AFD00BFB2
:101AA80098BA0008D0BA00080CB5000810B520B1E3
:101AB80071B102681268904710BD0B4CB2232246E0
:101AC8000A490B4807F08EFDB221204607F081FD38
:101AD800054CB32322460749054807F083FDB32187
:101AE800204607F076FD00BF98BA0008D0BA000873
:101AF8000CB50008E8BA000838B50546144C00E0F3
:101B08001034144B9C4212D8124B9C421FD22046D0
:101B1800FFF76AFF0028F3D02946204607F073FD37
:101B28000028EDD029462046FFF7C0FFE8E70A4C19
:101B380040F2F31322460949094807F053FD0948C2
:101B480007F050FD40F2F311204607F042FD38BD82
:101B58005CB300086CB30008FCBA00082CBB000892
:101B68000CB5000850BB00082DE9F04107460546B2
:101B7800EDB195FAA5F6B6FA86F60E4C04EB061406
:101B88000123B3406FEA030825EA0305237B002BF2
:101B9800EED02046FFF758FF0028E9D107EA0807EA
:101BA800636804221968204600F068F9E0E73846BF
:101BB800BDE8F0815CB300082DE9F041314B324AB1
:101BC8009B1A8F2B12D880460F46304BBFF35B8F82
:101BD80053E8006F721C43E800210029F8D1BFF3D5
:101BE8005B8F002E4AD1284C002514E0284C40F287
:101BF8003F1322462749284807F0F4FC40F23F11DA
:101C0800204607F0E6FC636804221968204600F0C5
:101C180035F9013510341B4B9C4211D8194B9C42A5
:101C28001ED2237B002BF4D02046FFF7F5FE20467A
:101C3800FFF70AFF0028E6D00123AB401E43E8E780
:101C4800134C4FF4A67322461449134807F0CAFCF4
:101C5800134807F0C7FC4FF4A671204607F0B9FCFB
:101C6800B8F1000F0BD056B13046FFF77DFF06469E
:101C7800002FF8D00A2007F0D1FCF4E70026304600
:101C8800BDE8F0816CB300085CB30008E8050020EB
:101C9800FCBA000870BB00080CB500082CBB000893
:101CA80050BB0008014B53F820007047A0BB000848
:101CB80048B108B5054A1060054B1960084600F0A0
:101CC8004FFB002008BD6FF0150070470C00002086
:101CD800DC05002008B50023054A1370054A136087
:101CE800054A13604FF47A710448FFF7E1FF08BD15
:101CF800DF080020E0050020E40500201D9600080C
:101D0800174B1B7803B1704710B500210120FFF76E
:101D180053FF144C00E01034134B9C420BD8124B69
:101D28009C4218D22046FFF75FFE0028F3D02046D9
:101D3800FFF7A4FEEFE70D4C4FF4DC7322460C4985
:101D48000C4807F04FFC0C4807F04CFC4FF4DC71D2
:101D5800204607F03EFC024B01221A7010BD00BF5E
:101D6800DF0800205CB300086CB30008FCBA000868
:101D78002CBB00080CB5000850BB0008014B012221
:101D88001A707047DE0800200D4BBFF35B8F53E8D5
:101D9800001F013143E80012002AF8D1BFF35B8F1E
:101DA80000B97047074BBFF35B8F53E8001F013939
:101DB80043E80012002AF8D1BFF35B8FF1E700BFB8
:101DC800E0050020E405002010B50446044B1B681C
:101DD8009847A0602146034807F017FC10BD00BFD4
:101DE8000C0000207800002010B14368197170477A
:101DF80010B5054CDF2322460449054807F0F2FBDD
:101E0800DF21204607F0E5FB98BA0008D0BA0008A1
:101E18000CB5000828B142681160436801225A7164
:101E2800704710B5064C4FF48C7322460549064896
:101E380007F0D8FB4FF48C71204607F0CAFB00BFAF
:101E480098BA0008D0BA00080CB500080248034B3D
:101E5800C01AC008704700BF5CB30008F4B200089D
:101E680010B50C46FFF7F2FFA04203D9024B53F816
:101E7800340010BD0020FCE7F4B2000870B5044639
:101E88000D461646074BC31A1B110133D9B2FFF78B
:101E9800ABFF63689E7129462046FFF7BBFFFFF73B
:101EA8006DFF70BD5CB300082DE9F04F87B004AF3B
:101EB80081460D4690461E46D7F830B0D7F838A070
:101EC800BAF1000F28D0FB6B7B60009353467A6B06
:101ED80010210020FEF708FF002810DBB0F5006F86
:101EE8001BD340F2FF7303932B4B02930020019006
:101EF800009003460222294907F0C6FB3BE0284C24
:101F080040F2651322462749274807F06BFB40F249
:101F18006511204607F05DFB0020014600EB0B032E
:101F2800173300246FF300046FF341046FF3820446
:101F380069F3C50468F3881460F353246BF31F54E2
:101F480023F00703ADEB030D0DF110086B4613F1F9
:101F580020000AD0BAF1000F07D0FB6B009353465C
:101F68007A6BFEF7C1FE002809DB33462246294674
:101F7800404607F072FB0C37BD46BDE8F08F084CB1
:101F880040F2851322460749074807F02BFB40F229
:101F98008511204607F01DFB44BC00081CB300084F
:101FA8000CBC000838BC00080CB50008406820B11B
:101FB800034BC01A40F3CF0070474FF0FF30704713
:101FC800F4B200080EB400B584B0014605AB53F86E
:101FD800042B0393002000900348FFF7FBF904B09B
:101FE8005DF804EB03B07047AF96000830B585B0D4
:101FF80011F0440F05D01A4B1C6834B9002005B005
:1020080030BD1849FFF7DEFFF9E7174B1968B2FB37
:10201800F1F1B1FBF4FC154AA2FB0C32D20A4FF4E1
:10202800616E0EFB12CE124BA3FB0E535B0904FB31
:102038001C114FF47A7C0CFB01F1B1FBF4F504FBA5
:1020480015110CFB01F1B1FBF4F102910195C3EB01
:102058000311AEEB810100910649FFF7B3FFCEE70C
:10206800F00500207CBC0008EC050020C5B3A29157
:102078008988888888BC000861B108B52AB1064AF1
:1020880052F8232012B9054A00E0044A0449FFF730
:1020980099FF08BD704700BF4CBD0008A4BC0008EC
:1020A800ACBC00082DE9F04105461746069EDDF850
:1020B8001C8081B900242EB1324611492846FFF709
:1020C80081FF0444B8F1000F14D06FB1099B042BB1
:1020D80013D00C4909E00C4B099A53F822200B49FC
:1020E800FFF770FF0446E6E7064942462846FFF731
:1020F80069FF04442046BDE8F0810549F5E700BFC3
:10210800C4BC0008B4BC000860BD0008BCBC000822
:10211800B0BC00082DE9F04F87B0049205939DF8F4
:102128004C60042E30D805460C4601F0020B01F035
:10213800010AC1F3C00801F4807907F08CFA02465D
:1021480078B31C492846FFF73DFF0746BBF1000F4F
:1021580029D132465146284607F0DAFAB9F1000F7C
:1021680001D0002311930396129B0293119B0193B4
:10217800109B00930023049A41462846FFF792FFDC
:10218800384407B0BDE8F08F0B4C40F2622322467A
:102198000A490B4807F026FA40F26221204607F068
:1021A80018FA0027D2E7059A21462846FFF71EFFAE
:1021B8000744CEE704BD0008C8BC0008F8BC000806
:1021C8000CB5000811F0100F0BD108B511F0200F55
:1021D80003D00449FFF7F6FE08BD0349FFF7F2FEF6
:1021E800FAE77047C0C5000808BD00082DE9F041AE
:1021F80005460F46164698460699FFF7E3FF002462
:10220800444505DA24492846FFF7DCFE0134F7E7A0
:10221800002409E020492846FFF7D4FE0BE01F49B7
:102228002846FFF7CFFE01340F2C0CDC002C02DD12
:1022380014F0070FEED0B442F1D23A5D184928469F
:10224800FFF7C0FEEFE717492846FFF7BBFE00245B
:1022580009E011492846FFF7B5FE0BE01249284668
:10226800FFF7B0FE01340F2C13DC002C02DD14F054
:10227800070FEED0B44207D23A5D0C4B9B5C13F0CB
:10228800970FEBD12E22E9E703492846FFF79AFE7C
:10229800E8E7BDE8F08100BFC0BC000814BD000835
:1022A8000CBD000818BD00081CBD0008E2E20008CB
:1022B8002DE9F04184B004469DF82C500C9F0E9EE9
:1022C800A5B9012B20D020484FF0000837B13B4674
:1022D80022461E4906F068FF002819DB2EBB6DBB9D
:1022E800204607F048FA04B0BDE8F08103950A9843
:1022F8000290019300920B4600220F992046FFF7A7
:1023080009FF80461248E1E711484FF00008DDE771
:10231800104C4FF42F7322460F49104807F062F90A
:102328004FF42F71204607F054F90F9B0093434652
:1023380032460D99204607F003FAD0E72A460F994E
:10234800204607F0F1F9CBE7CD9600080997000879
:10235800AF960008C8BC000820BD00080CB50008EE
:10236800074B01221A6004E04008054A13685B0025
:102378001360044B9842F7D8034B1860704700BFAE
:10238800EC05002040420F00F005002070B506461D
:102398000D46002405E0315D044883685B68984772
:1023A8000134AC42F7D3284670BD00BF7CAF0008AB
:1023B80010B543681C68094808F04FFB18B123683A
:1023C8005B685C6010BD064C9923224605490648A7
:1023D80007F008F99921204607F0FBF87CAF0008C0
:1023E80074BD0008B4BD00080CB50008014B0360BB
:1023F8000020704724BE000870B586B00546036803
:10240800426881681C4E0591049203931B4B02930A
:10241800002401940094234601223146204607F007
:1024280008FAEB682A696969059104920393144BC9
:10243800029301940094234601223146204607F076
:10244800F8F9EB6903930F4B029301940094234628
:1024580001223146204607F0ECF9AB6903930A4B99
:10246800029301940094234601223146204607F046
:10247800E0F906B070BD00BF3CB3000824BE0008F8
:1024880054BE000884BE000894BE000830B585B06C
:1024980004460D4611B10846FFF7AEFF012C05D0E2
:1024A8002946204604F07CF805B030BDEFF30583DB
:1024B800103B0393054B02930020019000900346C4
:1024C8000122034907F0B5F9EAE700BFC4BE0008D6
:1024D8003CB3000808B5034B1B68984700F008F8A0
:1024E80008BD00BF1800002030BFFFF7FDBF00BFC8
:1024F800074B9B6893F90E20002A08DB044AD2692F
:10250800934204D0034A536843F0805353607047A2
:10251800B804002000ED00E081690D4B5A6942F4CF
:1025280080725A61BFF34F8FBFF36F8F31F8021C6F
:102538005A6922F480725A61BFF34F8FBFF36F8FCD
:102548004DF60273994201D0002070470120704770
:1025580000ED00E010B584B000241C7002F07F4448
:10256800B4F17F4F19D102F00C04082C05D012F0F9
:10257800080F0FD0084604B010BD094B0293002481
:1025880001940094234601220649204607F068F981
:102598002046F0E701221A70EDE70020EBE700BFC4
:1025A800D8BE00083CB30008F0B585B005460F4614
:1025B80014464C4B029300200190009003460122E0
:1025C800494907F04DF9494B9B6A13F4805F26D1BE
:1025D8001626464B9B6A13F4006F2CD1434B9B6A1B
:1025E80013F4007F33D1414B9B6A13F4806F55D1AC
:1025F8003E4B9B6A13F4807F5CD13C4B9B6A13F47F
:10260800005F63D1394A936A43F47F43936201219F
:10261800284607F023F92070304605B0F0BD344B4A
:102628000293002001900090034601222E4907F0F2
:1026380017F91726CDE72F4B029300200190009041
:1026480003460122284907F00BF91826C6E72A4B4A
:10265800029300200190009003460122224907F0CE
:10266800FFF8224B9A6B9B6A13F4004F01D119268D
:10267800B9E70392214B0293002001900090034692
:102688000122194907F0ECF837B1184A936A23F484
:10269800004393621926A6E71926A4E7184B02936C
:1026A800002001900090034601220F4907F0D8F856
:1026B8001A269DE7134B02930020019000900346D1
:1026C8000122094907F0CCF81B269BE70E4B029321
:1026D80000200190009003460122034907F0C0F84A
:1026E8001C268FE704BF00083CB3000800ED00E09B
:1026F8001CBF000830BF000844BF000860BF0008C6
:1027080078BF000894BF0008ACBF000800B585B0CA
:102718003D4B0293002001900090034601223B4963
:1027280007F09EF83A4B9B6A13F0007F23D11D20D7
:10273800374B9B6A13F0807F29D1354B9B6A13F482
:10274800002F30D1324B9B6A13F4802F37D1304B96
:102758009B6A13F4003F3ED12D4B9B6A13F4803FD4
:1027680045D12B4A936A6FEA03436FEA1343936296
:1027780005B05DF804FB274B029300200190009000
:1027880003460122214907F06BF81E20D0E7224BAF
:102798000293002001900090034601221B4907F094
:1027A8005FF81F20C9E71D4B02930020019000909D
:1027B80003460122154907F053F82120C2E7184BB8
:1027C8000293002001900090034601220F4907F070
:1027D80047F82220BBE7134B02930020019000909A
:1027E80003460122094907F03BF82320B4E70E4BC2
:1027F800029300200190009003460122034907F04C
:102808002FF82420ADE700BFDCBF00083CB3000868
:1028180000ED00E0F4BF000808C0000824C000086C
:1028280044C000086CC0000888C0000800B585B026
:1028380000200870054B0293019000900346012286
:10284800034907F00DF805B05DF804FBB4C00008B3
:102858003CB3000800B587B00F2910DC094B1039CC
:1028680004910393084B02930020019000900346C3
:102878000122064906F0F4FF07B05DF804FB044B9B
:10288800EDE700BFD8C000080CC100083CB3000841
:10289800F0C000082DE9F04184B004460F46154603
:1028A800624B029300200190009003460122604988
:1028B80006F0D6FF5F4B9B6A13F0100F3DD1102630
:1028C8005C4B9B6A13F0080F43D15A4B9B6A13F079
:1028D800020F4AD16FF01508564B9B6A13F0010F8F
:1028E8006ED1544B9B6A13F0200F75D1514B9B6AE4
:1028F80013F0100F04D14F4B9B6A13F0020F04D052
:102908004C4B5B6813F4006F72D14A4B9B6A13F00F
:10291800200F04D0474A536A23F400535362454AB0
:10292800936A43F0FF0393620121204606F096FF65
:102938002870304604B0BDE8F0813F4B0293002078
:102948000190009003460122394906F089FF1126BB
:10295800B6E73A4B0293002001900090034601220B
:10296800334906F07DFF1226AFE7354B029300206E
:1029780001900090034601222D4906F071FF2D4B6E
:10298800D3F834809B6A13F0800F03D16FF01508D9
:102998001326A1E7CDF80C802A4B02930020019062
:1029A800009003460122224906F05AFF37B1214A16
:1029B800936A23F08003936213268DE713268BE72F
:1029C800214B0293002001900090034601221849F0
:1029D80006F046FF142684E71C4B02930020019062
:1029E800009003460122124906F03AFF15267DE7BA
:1029F8002146404600F082FAA0B90E4B9B6A13F0BC
:102A0800100F82D0124C40F25D1322461149124831
:102A180006F0E8FD114806F0E5FD40F25D1120469C
:102A280006F0D7FD80F3098802266EE720C100086A
:102A38003CB3000800ED00E038C1000830BF0008D2
:102A48006CC1000884C100089CC10008ACBF000824
:102A5800BCC10008F0C100080CB500083CC2000861
:102A680070B584B006460D46484B02930024019485
:102A78000094234601224649204606F0F1FE2C70B8
:102A8800444BDC6A14F002042AD1424BDB6A002B67
:102A980034DB404BDB6A13F0804F66D03E4B029329
:102AA80000200190009003460122394906F0D8FE23
:102AB8003046FFF731FD60BB364B9B6A13F0FF0FC2
:102AC80035D1344B9B6A13F47F4F37D1314B9B6A16
:102AD800B3F5803F39D33046FFF718FE04460AE0C5
:102AE8002E4B029300240194009423460122284986
:102AF800204606F0B5FE204604B070BD284B029370
:102B080000200190009003460122214906F0A8FE0A
:102B1800F1E733680393234B029300200190009060
:102B2800034601221A4906F09BFE3468E3E72A4669
:102B380001213046FFF7AEFE0446DCE72A460121B4
:102B48003046FFF731FD0446D5E7174C40F22A33EB
:102B580022461649164806F045FD164806F042FD7D
:102B680040F22A31204606F034FD0F4C40F22E3355
:102B780022460E490E4806F035FD0F4806F032FD94
:102B880040F22E31204606F024FD00BF60C2000846
:102B98003CB3000800ED00E0ACC2000878C20008B1
:102BA8009CC20008CCC20008BCC10008DCB6000802
:102BB8000CB50008E8C200080CC3000830B58BB09B
:102BC800274B5D68C5F30805002383F31188BFF31D
:102BD8006F8F0DF12603FFF7BDFC58B104460DF1C8
:102BE8002702294606F04BFE05469DF827308BB193
:102BF8000BB030BD1B4C4FF48B6322461A491B485F
:102C080006F0F0FC1A4806F0EDFC4FF48B61204604
:102C180006F0DFFC0DF1040C20686168A268E36827
:102C2800ACE80F0020696169A269E369ACE80F00AC
:102C38009DF826304BB1089BC3F308025AB96FEAD6
:102C480053236FEA4323089305E0089B23F4FF739B
:102C580023F00103089301A92846FFF717FCC7E7EB
:102C680000ED00E0BCC100083CC300080CB500083A
:102C780050C30008024A536943F010035361704778
:102C880000ED00E0EFF30880EFF3098101B572462B
:102C9800FFF794FF01BD00BF102080F311880B4897
:102CA8004FF0AA014FF4046207F016FF07484FF4EB
:102CB8000461401880F30988EFF314800221084367
:102CC80080F31488BFF36F8F00F0D2F8C01D002086
:102CD80008B50A4B9B68834202D005F0BBFC08BDCF
:102CE800EFF30583002BF8D0054B5A6842F0805269
:102CF8005A605A6A22F400425A62EEE7B804002089
:102D080000ED00E00A4A9368C3F8B8006FF00A01C2
:102D1800C3F8BC1007494B6843F080534B6000234D
:102D280083F31188BFF36F8F9368D3F8BC007047A3
:102D3800B804002000ED00E010B50446EFF311835D
:102D4800102383F31288BFF36F8F0A4BD8699860FA
:102D5800094B4FF000625A60D0F8B8300022C0F832
:102D6800B82083F31188BFF36F8F00F04BF920462A
:102D780010BD00BFB804002000ED00E001B507F069
:102D88001BFFBDE801400E498A684FF0400010441F
:102D9800EFF3098C80E8F01F74467046FFF7CCFF0C
:102DA800A64607498A6802F1400090E8F01F8CF3B4
:102DB800098801B504F09EFBBDE80140704700009A
:102DC800B80400201EF0040F0CBFEFF30880EFF3E7
:102DD8000980816911F8021C0229FFD001B506F0AB
:102DE80037FD01BD002807DB00F01F024009012361
:102DF8009340024A42F82030704700BF00E100E0EB
:102E0800002808DB0901C9B200F1604000F5614003
:102E180080F80013704700F00F000901C9B2014B98
:102E28001954704714ED00E070B505460C460131A1
:102E38000F2903D840B2FFF7E3FF70BD084E5823AF
:102E480032460849084806F0CDFB0F232A4621469A
:102E5800064806F0C7FB5821304606F0BAFB00BF0B
:102E680090C30008C8C300080CB50008E4C30008F4
:102E780008B50F4B0F4A22F07F029A60BFF34F8FBD
:102E8800BFF36F8FD3F8882022F47002C3F888202C
:102E9800EFF3148323F0040383F31488BFF36F8FD5
:102EA80003F0CEFC05F0F6FD00F074F803F02EFDFB
:102EB80000ED00E00000000810B4A2F120040E4963
:102EC80042F8081C21F0010142F8081C42F8203C95
:102ED800019B42F81C3C029B42F8183C039B42F8B9
:102EE800143C4FF0807342F8043C04660023C0F899
:102EF800B83010BC704700BF39920008104B9B686F
:102F0800BBB110F1160F0BD0D3F8A820A2F1400CDA
:102F1800844510D8824210D98A4207D800207047C9
:102F2800D3F8A8208A4201D800207047D3F8A80017
:102F3800704700207047002070470020704700BF8E
:102F4800B804002008B504460E4615460B4B986099
:102F580004F0D0FA204600F055F82C4686F309888C
:102F68004FF00000064B984720464FF000014FF005
:102F780000024FF00003034C204700BFB8040020B4
:102F8800E798000839920008014B10221A6170472F
:102F980000ED00E0002206E003F00F0309491944A0
:102FA80010230B760132652A0ADC53B2002BF3DBBF
:102FB80003F1604303F56143102183F80013F1E73F
:102FC800704700BFFCEC00E008B5EFF30583103B49
:102FD800044A02EBC301496852F833008847FFF7F7
:102FE80087FA08BDB8AF000808B5034B034A0121AA
:102FF800034800F0BFF908BD0000022000000020CF
:1030080024C4000808B5D0F8A830403B0448036041
:1030180040234360034B8360012100F0CDF908BDD4
:103028001C06002000000B15084AC2F898000B681F
:1030380023F01F03034343F01003C2F89C308B684E
:1030480043F00103C2F8A030704700BF00ED00E074
:1030580010B584B004460D4BD3F89030C3F3072362
:10306800013B984204D8FFF7DFFF204604B010BDAB
:103078000390074B02930020019000900346012221
:10308800044906F051FC6FF01500EFE700ED00E091
:1030980034C4000834B300082DE9F04385B08046F5
:1030A8000F4699461646002509E02146F0B206F07B
:1030B8004AFC064610F1160F1ED001360135BD42F6
:1030C8001ADA05EB450408EB84046268002AF5D097
:1030D800B9F1000FE9D0204606F015FC0028E4D12C
:1030E8000395074B0293019000900346012205497E
:1030F80006F01AFC6FF01506304605B0BDE8F083FF
:103108005CC4000834B3000810B5034C01232278CE
:10311800FFF7C2FF207010BDE008002008B50023AB
:103128000B4A1278FFF7B8FF10F1160F0FD00246BE
:1031380006E0084BC3F898200021C3F8A01001321C
:10314800044BD3F89030C3F307239342F1DC08BD56
:10315800E008002000ED00E0F0B585B0054603A8C2
:10316800FFF744F90646002425E0B3F5801F21D176
:10317800506851F80C109368202B67D9B3F1004FB1
:1031880066D8013BB3FA83F3C3F11F035B0003F076
:103198003E0343F0885343F4302300900191029397
:1031A80069462878FFF754FF0028C0F2BE802B78C4
:1031B80001332B700134B44280F0BA804FEA041C0A
:1031C800039901EB0412D068030D1B05B3F5000F3A
:1031D80071D01ED8B3F5001F3CD0B3F5800FC4D111
:1031E800506851F80C109368202B60D9B3F1004F48
:1031F8005FD8013BB3FA83F3C3F11F035B0003F00D
:103208003E0343F0E06343F40033009001910293DE
:10321800C6E7B3F1807F69D0B3F1007FCAD15068A7
:1032280051F80C109368202B7BD9B3F1004F7AD852
:10323800013BB3FA83F3C3F11F035B0003F03E03C2
:1032480043F48023009001910293A9E70823A0E7A3
:103258003E239EE7576851F80C109368202B22D91B
:10326800B3F1004F21D8013BB3FA83F3C3F11F0335
:103278005B0003F03E0343F0885343F400230097B8
:103288000191029310F0010F8AD02B4C6D23224636
:103298002A492B4806F0A6F92A4806F0A3F96D2119
:1032A800204606F096F90823E5E73E23E3E70823DE
:1032B800A7E73E23A5E7506851F80C109368202B28
:1032C80010D9B3F1004F0FD8013BB3FA83F3C3F120
:1032D8001F035B0003F03E0343F0827300900191EB
:1032E80002935DE70823F7E73E23F5E7506851F8B6
:1032F8000C109368202B10D9B3F1004F0FD8013B65
:10330800B3FA83F3C3F11F035B0003F03E0343F0FA
:10331800887300900191029342E70823F7E73E2360
:10332800F5E708238CE73E238AE76FF0150000E0F5
:10333800002005B0F0BD00BF80C40008B0C400087C
:103348000CB50008D8C40008044B0522C3F8942023
:10335800BFF34F8FBFF36F8F704700BF00ED00E0E2
:10336800BFF35F8F024B0022C3F89420704700BF61
:1033780000ED00E038B50C46FFF7C6FE10F1160F59
:1033880000D038BD084D4FF4B4732A4607490848A1
:1033980006F028F92146074806F024F94FF4B471DD
:1033A800284606F016F900BF80C40008DCB60008FD
:1033B8000CB5000808C5000838B50C46FFF7AEFE86
:1033C80010F1160F00D038BD084D40F287132A4679
:1033D8000749084806F006F92146074806F002F9A9
:1033E80040F28711284606F0F4F800BF80C40008B0
:1033F800DCB600080CB5000834C5000838B5394BF0
:103408001D68394BD3F89030C3F307239D4203D886
:10341800FFF7A6FF00241FE0344C40F29F1322461A
:103428003349344806F0DEF82F4BD3F89020C2F326
:1034380007222946304806F0D5F840F29F11204669
:1034480006F0C7F8274B5B6804EB440103EB8101E6
:103458002046FFF7E9FD0134A542F3D82748057057
:10346800FFF77AFE10F1160F02D0244B1A7816E0F7
:103478001E4C40F2C91322461D491E4806F0B2F8F8
:103488001F4806F0AFF840F2C911204606F0A1F82F
:10349800154BC3F898200021C3F8A0100132124B35
:1034A800D3F89030C3F307239A42F1DBFFF74CFFC0
:1034B8000D4BD3F89030C3F30723082B01D100201C
:1034C80038BD0A4C40F20F2322460E49094806F03F
:1034D80089F80D4806F086F840F20F21204606F0DC
:1034E80078F800BF38C6000800ED00E080C4000886
:1034F800DCB600080CB5000864C50008E008002028
:1035080098C50008C4C5000814C600080C4BC3F1D0
:10351800005303F50033B3F5006F01D30020704763
:1035280010B5084C892322460749084806F05AF87E
:10353800074806F057F88921204606F04AF800BFE8
:103548005033002068C6000898C600080CB500086B
:10355800E4C60008014B1860704700BF1C0000203B
:1035680038B50546002401E00134E4B26B78A34283
:1035780016D3287820441F28F6DC01238340094A03
:10358800526933EA0202EFD1064A5361064B53F8F7
:103598003020002AE8D003EBC00359689047E3E7DE
:1035A80038BD00BF000401402806002000239942CE
:1035B8000ADD10B400EB030C044C04F80C200133B2
:1035C8009942F7DC10BC7047704700BF200000200C
:1035D80008B50246054B185601239340044A116862
:1035E8000B43136006F070F908BD00BF20000020EF
:1035F800000401401F2806DC0122824002490B68B2
:1036080023EA02030B6070470004014003292ED807
:10361800DFE801F0020E192401228240144B996858
:1036280021EA02019960D96821EA0202DA6070474A
:10363800012282400E4B996811439960D96821EAAA
:103648000202DA60704701228240094BD9681143AF
:10365800D960996821EA02029A6070470123834081
:10366800034A916819439160D1680B43D36070474E
:103678000004014010B40D4B53F830308B4209D090
:103688008BB90A4B43F8301003EBC0035A60002093
:1036980010BC7047054C04EBC00CDCF804409442A5
:1036A800EED10020F4E76FF00F00F1E728060020C4
:1036B800034B002243F8302003EBC0035A607047E5
:1036C800280600202DE9F041069CB4F804C065885E
:1036D800AC441FFA8CFC9D885E883544ADB286B236
:1036E80001FB00FE364FA7FB0E7ECEF38F1EA6EB26
:1036F8000E0E1FFA8EFEDF88774541D2B4F8068099
:10370800F04528BFF046A6EB080E1FFA8EFE0EF114
:10371800FF3E1FFA8EFEF44534D2A6EB0C081FFAC2
:1037280088F808F1FF381FFA88F8E588454540D33E
:10373800A2F806804FEA5C05B3F802E0BEEB5C0F26
:1037480004D2B4F802E0AE4528BFAE46A2F802E0C3
:10375800ACEB0E0E1FFA8EFEA2F804E0A488A64574
:103768001DD99480ACEB040454804FF47A730CFB9D
:103778000333B3FBF0F0814219D2401ABDE8F0815F
:10378800B846C0E7754508D9761BB6B2013E1FFAA0
:1037980086F8474510D8AC46CAE7F446C8E79B8880
:1037A8009E45E2D29380ACEB03035380DDE7081A11
:1037B800E4E76FF08500E1E76FF08500DEE700BF22
:1037C800D34D6210074B984205D8074B984205D94C
:1037D8004FF44870704740F2EE20704740F26B306B
:1037E800704700BF00350C0020A1070030B587B036
:1037F8004AB10C46154600220023284603F032F948
:1038080060B907B030BD0C4C712322460B490C48F7
:1038180005F0E8FE7121204605F0DBFE23680493DD
:103828000395084B02930020019000900346012263
:10383800054906F0D7F9E4E7A8C70008D4C7000887
:103848000CB50008DCC70008FCB200082DE9F043FD
:103858008FB01646169AD0F80880002957D004462B
:103868001D460F46497911F0010113D06FF06043EE
:10387800386830EA030310D162B3D8F81480179B74
:103888000193009232462B4639462046C0470FB076
:10389800BDE8F08340F2FF73EAE7A9B11D4BA9B177
:1038A8001D22A9B1082106900591049203931A4B91
:1038B800029300200190009003460122174906F068
:1038C80091F96FF01500E2E7154BE8E70B22E8E7FE
:1038D8000321E8E70DF1240901220021484607F0F9
:1038E80026F9D8F81480CDF804900E4B0093324690
:1038F8002B4639462046C0470028C8D14FF0FF3232
:103908004FF0FF33484603F047FC0D98BFE76FF0D0
:103918001500BCE700C8000818C80008FCB2000879
:103928000CC80008E19B000810B51346826894692A
:103938000A460149A04710BDF537000870B582B0A6
:1039480014461D4682688368064EB44207D8303252
:103958003A330195009406F061F802B070BD6FF03B
:103968001500FAE740420F0070B582B014461D46B4
:1039780082688368064EB44207D8483252330195AC
:10398800009406F04BF802B070BD6FF01500FAE72E
:1039980000127A002DE9F04786B00646894690461F
:1039A800D0F804A0DAF81C500769002404940594A0
:1039B8001968224661F31C0204925A68234662F38E
:1039C8001C0305939DF81730022262F387138DF8C4
:1039D800173010374FF0FF324FF0FF33384603F0FF
:1039E800C9F900E00134AB7BA34205DDAB6853F8AD
:1039F8003430002BF6D101E06FF01B0414F11C0FDA
:103A08002AD014F0010F35D002229DF8133062F34A
:103A180047138DF81330BAF8341001EBC4017368FA
:103A28009B69D3F80CA0082304AA89B23046D04772
:103A3800064608BB384603F0B5FAAB7B9C4228DA49
:103A4800AB6843F83490AB6803EBC403C3F8048055
:103A5800204606B0BDE8F087144B02930020019081
:103A6800009003460222124906F0F1F8384603F0A6
:103A780099FAEDE70122C8E703900E4B0293002064
:103A88000190009003460122094906F0E0F8344607
:103A9800DEE7094C40F28A4322460849084805F007
:103AA800A1FD40F28A41204605F093FD54C8000864
:103AB80004B3000874C80008A0C80008CCC80008EF
:103AC8000CB5000830B587B00C4643689B691B6885
:103AD8009847054610B9284607B030BD04900394AE
:103AE800054B0293002001900090034601220349F0
:103AF80006F0ADF8EFE700BFE8C8000804B3000817
:103B080030B587B00C4643689B695B6898470546A3
:103B180010B9284607B030BD04900394054B0293B2
:103B280000200190009003460122034906F08FF817
:103B3800EFE700BF0CC9000804B300082DE9F04FF7
:103B480089B00546D0F80480D8F81C70D0F81090D9
:103B580005AAF421FFF7B6FF002842D1059C14F00E
:103B68003F0F3ED0C4F30424B8F83C1001EBC40165
:103B78006B689B699E68082306AA89B22846B047E5
:103B880020BB9DF81F602246F8212846FFF7B8FFA2
:103B980038BB3B7B9E4227D23B6803EBC60253F8F7
:103BA80036A0D2F804B0002443F8364009F12400C6
:103BB80003F094FA5A4621462846D04705AAF4212C
:103BC8002846FFF77FFF0028C8D00AE003900D4B76
:103BD8000293002001900090034601220A4906F052
:103BE80036F809B0BDE8F08F084C4FF40A73224646
:103BF8000749084805F0F6FC4FF40A71204605F01D
:103C0800E8FC00BF30C9000804B30008A0C80008D9
:103C180058C900080CB500082DE9F04F9BB00646BE
:103C2800894617469A464368D3F81C8048220021E3
:103C380006A807F0BFF805AA39463046FFF742FF45
:103C480000283FD01BB0BDE8F08F0390764B02935D
:103C580000200190009003460122744905F0F7FF07
:103C6800F0E79DF81D1041F010018DF81D1069E076
:103C7800BDF86220C2F38A02069278E09DF81D30F2
:103C880013F0010F00F0AB8098F80E309B4580F0E0
:103C98009980D8F8083003EBCB0253F83B305268D0
:103CA80013B106A930469847224651463046FFF7D9
:103CB80027FF0028C6D105AA39463046FFF702FF7C
:103CC8000028BFD1059C14F07F0FBBD0C4F3052496
:103CD80004EBC40509EBC505ADB273689B69D3F85D
:103CE80008B0082318AA29463046D8470028ACD17E
:103CF8009DF86630C3F3030203F00F038DF81C2010
:103D08009DF8632012F0200F05D09DF81D1041F09A
:103D180002018DF81D109DF8661011F0200F05D0D6
:103D28009DF81D0040F004008DF81D0011F0100FE3
:103D380005D09DF81D1041F008018DF81D1012F0F6
:103D4800800F8ED1BDF86410ADF81E109DF867B0D5
:103D58000BF07F0B12F0400F8AD0189AC2F31C02A6
:103D680006929DF81D2042F001028DF81D200F2BB0
:103D780028BF0F232E4AD35C402B49D89DF81D201D
:103D880012F0020F7FF47AAF002B3FF477AF05F102
:103D98000801033372689269956803F4FE7308AAF0
:103DA80089B23046A84700283FF468AF0390214BFA
:103DB8000293002001900090034601221B4905F060
:103DC80046FF3FE71C4C40F2F92322461B491C489A
:103DD80005F008FC40F2F921204605F0FAFB98F8B6
:103DE8000D309B4507D2D8F8043003EBCB0253F8CB
:103DF8003B30526854E7104C40F2FE2322461149EA
:103E08000F4805F0EFFB40F2FE21204605F0E1FBEC
:103E18000D4B0293002001900090034601220349B4
:103E280005F015FF40E700BF70C9000804B300089B
:103E380078CF000898C90008A0C80008C0C90008C1
:103E48000CB50008D8C90008F0C90008F0B583B05F
:103E58000446056910354FF0FF324FF0FF3328460E
:103E680002F088FF01AA18212046FFF72BFE06461C
:103E780028B1284603F096F8304603B0F0BD019A01
:103E880022F01002019218212046FFF739FE06465B
:103E98000028EED102F04CF9074601AA1821204665
:103EA800FFF710FE06460028E3D1019B13F0080F28
:103EB800DFD002F03DF9C01B0C4B984208D801AA8C
:103EC80018212046FFF7FEFD06460028EDD0D0E772
:103ED800019A42F01002019218212046FFF710FEC5
:103EE80006460028C5D16FF00A06C2E740660301FE
:103EF80070B505692B793BBB06460C4610354FF06B
:103F0800FF324FF0FF33284602F034FF2288013A8F
:103F1800A388013B1B0203F47F4343EA4263E28820
:103F2800013A02F07F02134321890139084A02EA63
:103F380001421A431C213046FFF7E2FD0446284699
:103F480003F030F8204670BD6FF00F04FAE700BFA9
:103F58000000FF01F0B585B0476806693379002B8A
:103F680032D10446386828B183681B68316898479D
:103F7800054658B964220023204605F07DFE054613
:103F880080B901233371284605B0F0BD0390104B6A
:103F98000293002001900090034601220D4905F08C
:103FA80056FEF0E70C4B0293002001900090034668
:103FB8000122084905F04BFE386810B183685B6838
:103FC80098476FF00405DEE76FF07705DBE700BF81
:103FD80004CA000804B3000830CA00082DE9F041FB
:103FE80086B00D46066907291AD804463379002B8E
:103FF80066D106F110084FF0FF324FF0FF3340460C
:1040080002F0B8FE05AA18212046FFF75BFD074617
:10401800A0B1404602F0C6FF384606B0BDE8F081C0
:104028000391294B0293002001900090034601223E
:10403800264905F00CFE6FF08507EDE704AA10216C
:104048002046FFF73FFD07460028E2D115F0010F93
:1040580027D0059B43F080030593049B43F010038E
:10406800049315F0020F21D0059B43F0200305931C
:1040780015F0040F1FD0059B43F440730593059A70
:1040880018212046FFF73CFD07460028C1D1049AB5
:1040980010212046FFF734FD07460028B9D13560C6
:1040A800B7E7059B23F080030593DAE7059B23F028
:1040B80020030593DCE7059B23F440730593DEE7B3
:1040C8006FF00F07A8E700BF4CCA000804B3000848
:1040D80030B587B00446456805AA5021FFF7F2FCC1
:1040E80008B307B030BDA823A422E98E2046FFF705
:1040F80093FD26E0B823B422298F2046FFF78CFDD4
:1041080023E01B4B029300200190009003460122FC
:10411800184905F09CFD1CE005AA50212046FFF730
:10412800D1FC0028DDD1059A12F09902D9D050218E
:104138002046FFF7E5FC0028D3D1059B13F0010FBB
:10414800D1D1059B13F0100FD4D1059B13F0080FA4
:10415800D7D1059B13F0800FDED0074B02930020C8
:104168000190009003460122024905F070FDD3E753
:1041780068CA000804B3000880CA000830B587B0D0
:104188000446056905AA5021FFF79CFC50B307B007
:1041980030BD204605F09EFE32E02046FFF7CEFCFB
:1041A80032E0254B02930020019000900346012243
:1041B800224905F04CFD05F1240002F08FFF27E0AD
:1041C8001F4B0293002001900090034601221B49D7
:1041D80005F03DFD20E005AA50212046FFF772FCBE
:1041E8000028D4D1174A059B1A40D0D05021204628
:1041F800FFF786FC0028CAD1059B13F0607FC8D161
:10420800059B13F4805FC8D1059B13F4004FC8D1F8
:10421800059B13F0005FD3D1059B13F4003FDAD060
:10422800094B0293002001900090034601220349A4
:1042380005F00DFDCFE700BF98CA000804B30008D9
:10424800B0CA00080090823BCCCA00082DE9F04FA4
:104258008DB00746884691460693D0F804A0DAF850
:104268001C50066909790B460F2928BF0F23AE4A4F
:1042780012F803B000230A930B9398F80530C3F3A0
:1042880040009DF82B2060F345128DF82B20D2B208
:1042980063F386128DF82B209DF82E2061F303021C
:1042A8008DF82E20C3F3C001D2B261F304128DF849
:1042B8002E20C3F38001D2B261F345128DF82E206F
:1042C800D2B242F080028DF82E200F2B37D83268F8
:1042D80012F0040F02D113F00C0F3ED1BBF1400FC6
:1042E80048D813F0040F64D098F804300F2B52D834
:1042F8003379002B00F00E8109A9384605F0B6FC89
:104308000446002840F0D080099B13F0800F40F04D
:10431800048106F12403184607934A46069B02F0D7
:104328003BFF0446002840F0FB8006F134094FF0BB
:10433800FF324FF0FF33484602F01CFD4CE0039378
:104348007A4B02930020019000900346012278499D
:1043580005F07DFC6FF08504A6E0764B0293002003
:104368000190009003460122714905F070FC6FF03E
:10437800850499E040230493CDF80CB06E4B02936A
:1043880000200190009003460122694905F05FFC76
:104398006FF0150488E00393684B029300200190A6
:1043A800009003460122624905F051FC6FF01504A4
:1043B8007AE098F80430082B9AD90393604B02935B
:1043C80000200190009003460122594905F03FFC66
:1043D8006FF0150468E001342B7BA34206DD2B68DF
:1043E800264653F83430002BF5D101E04FF0FF3664
:1043F8008DF82F6098F8053013F0010F58D0D8F8D1
:1044080000200A9B62F31C030A93BAF83E1006EBDD
:10441800C603DB009BB2069319447B689B69DC6882
:1044280008230AAA89B23846A0470446002848D17A
:1044380098F8053013F0020F17D1BBF1000F14D014
:10444800BAF83E300699194489B208310BF10303D2
:104458007A689269D46803F4FE7308F1080289B295
:104468003846A0470446002837D12B7B9E4240D2CD
:104478002B68169A43F836202B6803EBC603179A65
:104488005A600122B240D0213846FFF739FB044672
:1044980000283BD02B68002243F83620484602F01B
:1044A80081FD079802F01AFE20460DB0BDE8F08F96
:1044B800D8F80020BDF82A3062F38C03ADF82A3012
:1044C800A3E703901F4B029300200190009003463E
:1044D8000122174905F0BBFBE0E703901A4B029352
:1044E80000200190009003460122114905F0AFFB1E
:1044F800D4E7164C40F2044322461549154805F006
:1045080071F840F20441204605F063F8484602F08D
:1045180049FDC9E76FF07204C6E76FF07104C3E79D
:104528006FF00A04C0E700BF78CF0008E8CA0008A7
:1045380004B300080CCB000838CB000868CB00088F
:104548008CCB0008B0CB0008DCCB0008A0C8000862
:1045580004CC00080CB500082DE9F04786B00646E3
:1045680089469046D0F804A0DAF81C500769002460
:1045780005945968BDF8142061F30A02ADF81420B7
:104588001A68BDF8163062F30A03ADF816309DF8C4
:104598001730022262F387138DF8173010374FF067
:1045A800FF324FF0FF33384602F0E4FB00E00134FD
:1045B8006B7BA34205DD6B6853F83430002BF6D1D2
:1045C80001E06FF01B0414F11C0F2AD014F0010F46
:1045D80035D002229DF8173062F3C5038DF81730E5
:1045E800BAF8321001EB840173689B69D3F80CA008
:1045F800042305AA89B23046D047064608BB384688
:1046080002F0D0FC6B7B9C4228DA6B6843F834904C
:104618006B6803EBC403C3F80480204606B0BDE80A
:10462800F087154B02930020019000900346022268
:10463800124905F00CFB384602F0B4FCEDE7012204
:10464800C8E703900E4B02930020019000900346A8
:1046580001220A4905F0FBFA3446DEE7094C40F22C
:10466800564322460849094804F0BCFF40F2564127
:10467800204604F0AEFF00BF1CCC000804B30008BD
:1046880074C80008A0C800083CCC00080CB5000895
:1046980030B585B04468E4691D7A012D09D815F054
:1046A800010F14D0FFF776F9002812DB637B18445A
:1046B8000FE00395084B02930020019000900346F9
:1046C8000122064905F0C3FA6FF0850001E0FFF703
:1046D80043FF05B030BD00BF58CC000804B3000844
:1046E8002DE9F04184B0D0F80480D8F81C70066930
:1046F8000C1E30DB054610364FF0FF324FF0FF330B
:10470800304602F037FB7B7BA3423FDCE31ABA7BDF
:104718009A422CDDBA68002142F83310BA6802EBDD
:10472800C3025160B8F8341001EBC3016B689B6990
:104738001B69082289B22846984700283AD0039076
:10474800254B029300200190009003460122234943
:1047580005F07DFA2EE00394214B0293002001908E
:104768000090034601221D4905F071FA25E00393E4
:104778001B4B029300200190009003460122174929
:1047880005F065FA304602F00DFC16E07B68002261
:1047980043F834207B6803EBC4035A60B8F832103E
:1047A80001EB84016B689B691B69042289B2284666
:1047B800984728B9304602F0F5FB04B0BDE8F0810F
:1047C8000390084B029300200190009003460122B9
:1047D800024905F03CFAEDE798CC000804B300085C
:1047E8007CCC0008C4CC00082DE9F04385B04468AF
:1047F800E56907693B79002B4AD006466422002305
:1048080005F088FA804660B9206820B183685B6843
:104818009847044690B9304605F0B9FB00243C712E
:104828002BE01D4B029300200190009003460122CB
:104838001A4905F00CFA6FF004080BE00390184BC6
:10484800029300200190009003460122134905F0CD
:10485800FEF9A046404605B0BDE8F083002143F8C4
:1048680034102B6813445A686FF072013046C847F9
:1048780007F1240002F032FC01342B7B9C42E9D280
:104888002B68E20053F83490B9F1000FE6D1F3E752
:104898006FF07708DEE700BFF0CC000804B300082B
:1048A8000CCD0008F0B58DB04568EE6907690023A6
:1048B80009930A93ADF82C3006930793ADF820308E
:1048C800AB691A68002A50D004465A68002A59D0A1
:1048D8009A68002A63D0DA68002A6DD01B69002B19
:1048E80077D0002E00F08280327BEB8D9A4200F266
:1048F8008A80727B6B8C9A4200F29280B27BAB8C7E
:104908009A4200F29A8007F1100006F009F907F1BF
:10491800340006F005F907F12400317B0A4606F059
:1049280006F9286820B106F098F8002800F092806F
:104938002046FFF78BFA002840F098806422002375
:10494800204605F0E7F9002840F09D80204605F054
:104958001EFB05AA18212046FFF7B4F803460028D5
:1049680000F09E8018460DB0F0BDAD4C40F2655386
:104978002246AC49AC4804F035FE40F26551204669
:1049880004F027FEA64C40F266532246A749A648E3
:1049980004F028FE40F26651204604F01AFEA04CAE
:1049A80040F267532246A2499F4804F01BFE40F29A
:1049B8006751204604F00DFE994C4FF4AD63224632
:1049C8009C49994804F00EFE4FF4AD61204604F06E
:1049D80000FE934C40F2695322469749924804F0EE
:1049E80001FE40F26951204604F0F3FD8C4C40F280
:1049F8006A53224691498C4804F0F4FD40F26A510A
:104A0800204604F0E6FD864C40F26C5322468C4961
:104A1800854804F0E7FD40F26C51204604F0D9FDCA
:104A28007F4C40F26D53224686497F4804F0DAFDF8
:104A380040F26D51204604F0CCFD794C40F26E53A3
:104A480022468149784804F0CDFD40F26E51204657
:104A580004F0BFFD7D4B02930190009003460122B4
:104A68007B4905F0F4F86FF012037BE7794B02936A
:104A780000200190009003460122754905F0E7F8EF
:104A88006FF004036EE7744B0293002001900090CE
:104A9800034601226E4905F0DAF86FF0040361E776
:104AA800059A22F46972059218212046FFF728F822
:104AB800034600287FF456AF05AA10212046FFF7C9
:104AC80001F8034600287FF44DAF059A22F0100242
:104AD800059210212046FFF713F8034600287FF4BB
:104AE80041AF05AA80212046FEF7ECFF03460028C7
:104AF8007FF438AF059A42F02803059342F02B0261
:104B0800059280212046FEF7FBFF034600287FF42C
:104B180029AFEA682B8A09A92046FEF70FFF10F192
:104B2800160F46D06A696B8A06A92046FEF71CFF55
:104B380010F1160F4AD009A9204605F062F800289E
:104B480051D106A9204605F06DF8002859D1434AED
:104B5800059254212046FEF7D3FF034600287FF430
:104B680001AF9922059258212046FEF7C9FF034656
:104B780000287FF4F7AE032205925C212046FEF759
:104B8800BFFF034600287FF4EDAE4FF0FF320592D9
:104B9800E0212046FEF7B4FF034600287FF4E2AE8A
:104BA80063689B691B692A6C002120469847034665
:104BB800D8E62B4B02930020019000900346012277
:104BC800234905F044F86FF00403CBE6254B029324
:104BD800002001900090034601221D4905F037F896
:104BE8006FF00403BEE603901F4B02930020019070
:104BF800009003460122164905F029F86FF01203C8
:104C0800B0E60390194B02930020019000900346F0
:104C180001220F4905F01BF86FF01203A2E600BF4E
:104C2800A0C8000854CD00080CB500087CCD0008C9
:104C3800A4CD0008CCCD0008F4CD00081CCE000897
:104C480040CE000868CE000894CE0008C0CE000808
:104C580004B3000838CD0008F0CC0008999082030E
:104C6800DCCE000800CF00082CCF00084CCF00088D
:104C780010B584B00C464FF0407001F067FB38B1B6
:104C88000E4AD2F800257AB92060002004B010BD81
:104C98000B4B02930190009003460122094905F04D
:104CA80096F96FF00400F1E7044AD2F800255200A3
:104CB800B0FBF2F323600020E8E700BF006000408B
:104CC80094CF00080CB3000810B50B1810F0030FB0
:104CD80016D1940811F0030F22D112F0030F33D02C
:104CE8001C4C40F2B95322461B491C4804F07AFC7C
:104CF8001B4804F077FC40F2B951204604F069FCE7
:104D0800144C40F2B75322461649144804F06AFC82
:104D1800154804F067FC40F2B751204604F059FCEE
:104D28000C4C4FF4B763224610490C4804F05AFC67
:104D38000F4804F057FC4FF4B761204604F049FCD3
:104D4800002143F8041B1446621E002CF8D10020F1
:104D580010BD00BFACCF000850D000080CB500084B
:104D680060D00008E8CF0008F8CF000818D0000885
:104D78002CD0000810B59C460B1810F0030F1AD160
:104D88004FEA9C0411F0030F25D112F0030F32D122
:104D98001CF0030F44D0254C40F297532246244977
:104DA800244804F01FFC244804F01CFC40F29751EE
:104DB800204604F00EFC1D4C40F2945322461F4935
:104DC8001C4804F00FFC1E4804F00CFC40F29451FF
:104DD800204604F0FEFB154C40F295532246194933
:104DE800144804F0FFFB184804F0FCFB40F295510E
:104DF800204604F0EEFB0D4C40F296532246134930
:104E08000C4804F0EFFB124804F0ECFB40F296511A
:104E1800204604F0DEFB52F8040B43F8040B0C4662
:104E2800611E002CF7D1002010BD00BFACCF0008D8
:104E380050D000080CB5000860D00008E8CF000882
:104E4800F8CF000818D000082CD0000880D000083F
:104E5800A0D0000810B59C460B1810F0030F1AD10B
:104E68004FEA9C0411F0030F25D112F0030F32D141
:104E78001CF0030F44D0254C40F26E5322462449BF
:104E8800244804F0AFFB244804F0ACFB40F26E5118
:104E9800204604F09EFB1D4C40F26B5322461F49EE
:104EA8001C4804F09FFB1E4804F09CFB40F26B5129
:104EB800204604F08EFB154C40F26C5322461949EB
:104EC800144804F08FFB184804F08CFB40F26C5136
:104ED800204604F07EFB0D4C40F26D5322461349E8
:104EE8000C4804F07FFB124804F07CFB40F26D5143
:104EF800204604F06EFB53F8040B42F8040B0C46F2
:104F0800611E002CF7D1002010BD00BFACCF0008F7
:104F180050D000080CB5000860D00008E8CF0008A1
:104F2800F8CF000818D000082CD00008C0D000081E
:104F3800E0D00008F82845D8A8282ED3A0F1A80367
:104F4800502B3FD8DFE803F0403E3E3E443E3E3E15
:104F5800443E3E3E643E3E3E503E3E3E443E3E3E25
:104F68003E3E3E3E3E3E3E3E443E3E3E523E3E3E3F
:104F7800543E3E3E563E3E3E583E3E3E5A3E3E3EE5
:104F88005C3E3E3E5E3E3E3E3E3E3E3E3E3E3E3EFB
:104F9800443E3E3E603E3E3E6200842818D011D317
:104FA800A4280FD888280ED3A0F1880292B2012332
:104FB8009340194A13420BD113F4807F2AD113F07E
:104FC800805F03D1704770479420704790207047E6
:104FD80010B5124CCB2322461149124804F002FBAB
:104FE800CB21204604F0F5FA9C207047C820704772
:104FF800CC207047D0207047D4207047D820704705
:10500800DC207047E0207047E4207047E8207047B4
:10501800982070478420D5E70100110100D10008CD
:10502800DCB600080CB5000870B584B006464368C5
:105038005D6C1D4805F011FD002831D0AB68012BCF
:105048000AD9E9680831184B9B689B698BB1002223
:1050580015489847041E0EDB134883681B68E968E7
:105068009847041E02DB2B7E83B90024204604B037
:1050780070BD6FF057040D4B029300200190009013
:10508800034601220A4904F0A2FFEFE7304604F084
:105098007EFF2B7E5B08074AC2F800350024E5E74F
:1050A8006FF01204E2E700BFB4AE000834D1000884
:1050B8000CB300080060004070B586B00546436830
:1050C8005E6C0021706905F046F8041E11DB284665
:1050D800FFF7AAFF041E18DB284604F058FF05AAAC
:1050E80080212846FEF7EEFC0446D0B1204606B0E3
:1050F80070BD03941A4B0293002001900090034660
:105108000122184904F063FFF0E70394164B029359
:1051180000200190009003460122124904F057FF35
:10512800E4E7059A42F0016242F4402205928021A8
:105138002846FEF7E5FC04460028D7D14FF08072D8
:10514800C0212846FEF7DCFC04460028CED12846BC
:10515800FFF7A8FB04460028C8D133699847C5E77C
:1051680060D100080CB3000880D10008104B1B6800
:1051780013F4806F0ED10E4A136843F480731360E2
:1051880001E0012B06D00A4B1B6813F48063F8D0AA
:105198000123F6E7064A936823F0030343F001036B
:1051A8009360034B9B6803F00C03042BF9D1704701
:1051B800001002401B4B1A6822F480221A601A68F9
:1051C80042F480321A6001E0012A06D0154B1A68B1
:1051D80012F40032F8D00122F6E71249D1F89430DF
:1051E80043F00103C1F8943001E0012B07D00D4BC7
:1051F800D3F8943013F00203F7D01346F5E70949C2
:10520800D1F8982042F00102C1F8982001E0012A63
:1052180007D0044AD2F8982012F00202F7D01A46B2
:10522800F5E770470010024010B51C4B9B6803F06F
:105238000C030C2B1FD0194C236823F080732360B8
:10524800E36823F0605323F4003343F06053E360D2
:10525800E36843F48033E360E36823F4C003E36066
:10526800E36843F48013E36000F018F9236843F01F
:105278008073236009E0FFF779FF084A936823F0F9
:10528800F0039360D7E7012B06D0044B1B6813F09B
:105298000073F8D00123F6E710BD00BF00100240EC
:1052A80039B133B1B0FBF1F002FB00F0B0FBF3F021
:1052B800704710B5054C5B2322460549054804F0A4
:1052C80091F95B21204604F084F900BFD4D200088C
:1052D80018D300080CB5000870B50C461546444BA9
:1052E8001E680121304604F046FF2368082B79D058
:1052F800013B5F2B79D8DFE803F03C5D6065716D99
:1053080068783F49537878787878787878787878B2
:105318007878787878787878787878787878787805
:1053280078787878787878787878787878787878F5
:1053380078787878787878787878787878787878E5
:1053480078307878783078787833787878787878AA
:10535800783678787836787878392E60002046E084
:105368002E60002043E02860002040E028600020F4
:105378003DE02E6000203AE000F08CF8072355222B
:105388000621FFF78DFF2860002030E000F082F84A
:10539800022355220621FFF783FF2860002026E01C
:1053A80000F078F8022355220621FFF779FF2860DC
:1053B80000201CE00020286019E04FF4FA432B601D
:1053C800002014E00020286011E004F0D7FE2860D7
:1053D80000200CE0074B2B60002008E0064B2B60F8
:1053E800002004E06FF0850001E06FF0850070BDDB
:1053F8005000002000366E01006CDC0238B500F069
:105408006DF8204C204604F03DFF00F0E1FE1E4BF5
:105418009B68C3F303131D4AD35C03F01F0320FAF0
:1054280003F5137803F01F031C41A54222D3FFF7AD
:10543800C1FEFFF7F9FE144B9A6822F0F0029A6059
:105448009A6842F003029A600F4B9B6803F00C03C2
:105458000C2BF9D1A54211D20D4B0A4A1A600A4BFE
:105468009A6822F4E0629A609A6822F460529A601C
:10547800002038BD204600F097FFD8E7204600F00E
:1054880093FFE9E780FE210A00100240E0D80008F7
:10549800500000200048704700366E0108B50C4ADD
:1054A800D2F8803023F48073C2F8803004F0EBFE29
:1054B800084AD168084B0B4040F4AA4040F050001D
:1054C8000343D360D36843F08073D36008BD00BF43
:1054D80000700040001002400C80FFF982B0064BBB
:1054E8009A6D42F080529A659B6D03F08053019348
:1054F800019B02B0704700BF0010024010B504467F
:105508000A2806D0E1B2064883685B6898472046B7
:1055180010BD034883685B680D219847F2E700BF18
:105528007CAF000810B5044C2046FEF713F820465F
:10553800FBF77CFE10BD00BF0555000808B50548FF
:1055480005F08BFA18B1FFF7EDFF002008BD6FF0EA
:105558001200FBE77CAF000808B5436831B1074883
:105568008268126803F10C01904708BD03488268FD
:10557800526803F10C019047F7E700BFB4AE00088A
:1055880001F0030C0CF102020B4B53F822200B0C18
:1055980022EA114193FAA3F35BB1B3FA83F303F060
:1055A8001F03984001430CF1020C034A42F82C10E7
:1055B80070472023F3E700BF0000014070B582B0B8
:1055C80004460D460A4A6B4692E8030083E8030046
:1055D80008488268126819469047064610B1304656
:1055E80002B070BD2946204604F0C4FFF7E700BFAB
:1055F8006CB30008B4AE000800F003030233084A95
:1056080052F82320030C02EA104093FAA3F32BB1BB
:10561800B3FA83F303F01F03D84070472023F9E758
:105628000000014070B569B1044616460D464B6846
:10563800B3B1036813B304F03BFE50BBFEB96FF07F
:10564800150022E0164C3A2322461649164803F064
:10565800C9FF164803F0C6FF3A21204603F0B9FFF8
:105668000F4C3B23224612490F4803F0BBFF114859
:1056780003F0B8FF3B21204603F0ABFF32B12368AB
:105688002B602560636843B1002070BD6FF0150082
:10569800FBE7002EF3D10020F7E765600020F4E770
:1056A8005CD3000898D300080CB50008A4D3000800
:1056B800B4D30008C8D3000870B50E461546016873
:1056C80021B10C68ACB1A1B90C4612E00C4610E04F
:1056D800114C5D2322461149114803F083FF1148FC
:1056E80003F080FF5D21204603F073FF2346214627
:1056F8001C4681B18A682A4004D04B68002BE7D049
:1057080030469847002CF1D02368002BEFD0002CAE
:10571800EDD12346EBE770BD5CD30008E0D3000869
:105728000CB50008C8D30008F8B50C461146476800
:105738000269B1F5001F15D01D46B1F5800F36D0AE
:105748001E492046FDF796FF064698BBB5F1806FC7
:1057580029D0B5F1C06F28D0B5F1007F15D06FF012
:1057680015061EE0204604F01CFFBB68984201D0D5
:10577800002616E02046FDF73DFF2046FDF798FF7E
:1057880000212046FDF742FFF2E702252146B868CE
:10579800FFF714FF29462046FDF738FF2046FDF79E
:1057A80017FF3046F8BD0125F0E70325EEE76FF057
:1057B8008506F6E76FF00F06F3E700BFE5A50008DA
:1057C80010B5044603695860074805F046F938B132
:1057D80001212046FFF7C0FE002800DB002010BD95
:1057E8006FF01200FBE700BFB4AE0008FF2817D81F
:1057F800F8B504460D46164603090B4A52F82370BD
:105808005FB1384605F029F938B133462A4604F025
:105818000F01384604F0ECFEF8BD6FF01200FBE70C
:105828006FF01500704700BF60D50008F8B5064650
:105838000F460024254616E002F01F0110292ED03D
:1058480011291DD0F1B1530A1B0103F4F873C2F3F7
:10585800431002F01F0229461843FFF7C7FF00282C
:1058680020DB0134E4B2BC421BD206EBC40356F879
:10587800342012F0100FDFD15D6845F02005E2E713
:105888005D68E0E7084C4FF48873224607490848EA
:1058980003F0A8FE4FF48871204603F09AFE3025E5
:1058A800D1E70020F8BD00BF14D5000848D500088E
:1058B8000CB50008EBB170B504461E46002592B23F
:1058C8000C4B33F812202B4608462946FAF780FC81
:1058D8000346090241EA13611B027208981832460E
:1058E8002B4641F10001FAF773FCC0F31300E060A6
:1058F80070BD704730D80008012913D002290AD09A
:1059080011B14FF40050704702680A4B9A420BD00D
:105918004FF4805070470268064B9A4206D04FF405
:105928004050704700207047002070474FF40050E7
:10593800704700BF0080004008B5024A04F040FFED
:1059480008BD00BF29A8000800B583B08DF807106E
:10595800034A0DF1070104F046FF03B05DF804FBAC
:105968002FA8000830B585B0456804691248206042
:1059780005F073F848B1206883681B68E9689847A0
:10598800044670B9204605B030BD0C4B0293019017
:105998000090034601220A4904F082FF6FF01204C6
:1059A800F0E7084B02930020019000900346012283
:1059B800034904F075FFE5E7B4AE0008C8D5000850
:1059C80054B30008E8D5000838B51C460025094B33
:1059D80033F812202B46FAF7FBFB090241EA106163
:1059E80000026308181822462B4641F10001FAF715
:1059F800EFFB38BD30D800082DE9F04188B00746E4
:105A08000E464368D3F8008002691068D968836835
:105A1800DB68E3B107AA9847002818DB424B984592
:105A280020D0D8F8003023F40043C8F80030079B92
:105A380036B103EB5603B3FBF6F39BB2C8F80C3050
:105A4800D8F80C300F2B61D908B0BDE8F081374B7E
:105A5800029300200190009003460122344904F08B
:105A68001FFFF1E700240B2C0DD833462246079878
:105A78000021FFF7A9FFA0F540722E4DAA4202D9D6
:105A88000134E4B2EFE70C2C24D0D8F82C3023F002
:105A98000F032343C8F82C30334622460799404663
:105AA800FFF708FFD8F80C30B3F5407F20D3D8F8BB
:105AB8000C20214B9A42C7D9204CBF2322462049AB
:105AC800204803F08FFD204803F08CFDBF212046BD
