:020000040800F2
:100000004033002039390008E93300082539000859
:1000100025390008253900082539000800000000AE
:100020000000000000000000000000005D3A000831
:100030002539000800000000153A0008896E000804
:10004000193C0008193C0008193C0008193C00083C
:10005000193C0008193C0008193C0008193C00082C
:10006000193C0008193C0008193C0008193C00081C
:10007000193C0008193C0008193C0008193C00080C
:10008000193C0008193C0008193C0008193C0008FC
:10009000193C0008193C0008193C0008193C0008EC
:1000A000193C0008193C0008193C0008193C0008DC
:1000B000193C0008193C0008193C0008193C0008CC
:1000C000193C0008193C0008193C0008193C0008BC
:1000D000193C0008193C0008193C0008193C0008AC
:1000E000193C0008193C0008193C0008193C00089C
:1000F000193C0008193C0008193C0008193C00088C
:10010000193C0008193C0008193C0008193C00087B
:10011000193C0008193C0008193C0008193C00086B
:10012000193C0008193C0008193C0008193C00085B
:10013000193C0008193C0008193C0008193C00084B
:10014000193C0008193C0008193C0008193C00083B
:10015000193C0008193C0008193C0008193C00082B
:10016000193C0008193C0008193C0008193C00081B
:10017000193C0008193C0008193C0008193C00080B
:10018000193C0008193C0008193C0008193C0008FB
:10019000193C0008193C0008193C0008193C0008EB
:1001A000193C0008193C0008193C0008193C0008DB
:1001B000193C0008193C0008193C0008193C0008CB
:1001C000193C0008193C0008193C0008193C0008BB
:0801D000193C0008193C00086D
:1001D800FFFFFFFFFFFFFFFFFFFFFFFFFFFFFFFF27
:1001E800FFFFFFFFFFFFFFFFFFFFFFFFFFFFFFFF17
:0801F800FFFFFFFFFFFFFFFF07
:1002000090F800F06DE9024520F007016FF0000C56
:1002100010F0070491F820F040F049804FF00004FE
:100220006FF00700D1E9002391F840F000F10800D9
:1002300082FA4CF2A4FA8CF283FA4CF3A2FA8CF311
:100240004BBBD1E9022382FA4CF200F10800A4FA78
:100250008CF283FA4CF3A2FA8CF3E3B9D1E90423CC
:1002600082FA4CF200F10800A4FA8CF283FA4CF303
:10027000A2FA8CF37BB9D1E9062301F1200182FABD
:100280004CF200F10800A4FA8CF283FA4CF3A2FAC3
:100290008CF3002BC6D0002A04BF04301A4612BAD1
:1002A000B2FA82F2FDE8024500EBD2007047D1E9D4
:1002B000002304F00305C4F100004FEAC50514F063
:1002C000040F91F840F00CFA05F562EA05021CBF34
:1002D00063EA050362464FF00004A9E753B94AB93F
:1002E000002908BF00281CBF4FF0FF314FF0FF303E
:1002F00000F00CB8ADF1080C6DE904CE00F0B5F8D3
:10030000DDF804E0DDE9022304B07047704700BF68
:10031000844641EA000313F003036DD1403A41D310
:1003200051F8043B40F8043B51F8043B40F8043BCF
:1003300051F8043B40F8043B51F8043B40F8043BBF
:1003400051F8043B40F8043B51F8043B40F8043BAF
:1003500051F8043B40F8043B51F8043B40F8043B9F
:1003600051F8043B40F8043B51F8043B40F8043B8F
:1003700051F8043B40F8043B51F8043B40F8043B7F
:1003800051F8043B40F8043B51F8043B40F8043B6F
:1003900051F8043B40F8043B51F8043B40F8043B5F
:1003A000403ABDD2303211D351F8043B40F8043BFF
:1003B00051F8043B40F8043B51F8043B40F8043B3F
:1003C00051F8043B40F8043B103AEDD20C3205D30F
:1003D00051F8043B40F8043B043AF9D2043208D007
:1003E000D2071CBF11F8013B00F8013B01D30B8879
:1003F00003806046704700BF082A13D38B078DD057
:1004000010F003038AD0C3F10403D21ADB071CBF28
:1004100011F8013B00F8013B80D331F8023B20F892
:10042000023B7BE7043AD9D3013A11F8013B00F8CB
:10043000013BF9D20B7803704B7843708B78837053
:1004400060467047430803F05533C01A00F0333359
:10045000800800F03330184400EB10104FF00133E7
:1004600000F00F305843000E70472DE9F0478646E4
:100470008C460846089E154674461946002B40F0E7
:10048000C2808542B2FA82F245D94AB1C2F1200354
:1004900000FA02FC2EFA03F3954043EA0C0C944058
:1004A0004FEA154EA8B2BCFBFEF8230C0EFB18CC8D
:1004B00008FB00F943EA0C43994528D9EB1808F1E9
:1004C000FF3704D2994502D9A8F102072B44A3EBC8
:1004D0000903A4B2B3FBFEFC0EFB1C330CFB00F0C3
:1004E00044EA0344A04214D92C190CF1FF3304D27E
:1004F000A04202D9ACF102032C44241A43EA07407B
:100500001EB1D440002334607360BDE8F0874746D5
:10051000DDE76346F1E792BB431B01214FEA154E2D
:10052000AFB2B3FBFEFC200C0EFB1C330CFB07F838
:1005300040EA0343984562D9EB180CF1FF3004D22E
:10054000984502D9ACF102002B44A3EB0803A4B2F6
:10055000B3FBFEFC0EFB1C330CFB07F744EA034421
:10056000A7424ED92C190CF1FF3304D2A74202D96D
:10057000ACF102032C44E41B43EA0040C0E7C2F1A3
:10058000200320FA03F1954090402EFA03F3034331
:100590004FEA154EAFB2B1FBFEFC0EFB1C10190C5E
:1005A0000CFB07F841EA0041884504FA02F422D91D
:1005B00069180CF1FF3004D2884502D9ACF1020071
:1005C0002944A1EB08019BB2B1FBFEFC0EFB1C1100
:1005D0000CFB07F743EA01439F420ED9EB180CF1DD
:1005E000FF3104D29F4202D9ACF102012B44DB1B44
:1005F00041EA004192E76046E3E76146F7E760467B
:10060000A3E76346B7E7834206D916B90021084637
:100610007BE7C6E900E0F9E7B3FA83F78FB98342D5
:1006200001D3724508D8BEEB020460EB030301203E
:100630009C461EB9002168E73846FAE7C6E9004C37
:10064000F8E7C7F1200CBB4022FA0CF41C432EFA49
:100650000CF120FA0CF3B84001434FEA14490EFAAA
:1006600007F5B3FBF9F81FFA84FE09FB18300B0CF1
:1006700008FB0EFA43EA00439A4502FA07F240D912
:10068000E31808F1FF3004D29A4502D9A8F102001C
:100690002344A3EB0A0389B2B3FBF9F809FB18332F
:1006A00008FB0EFE41EA03418E452CD9611808F182
:1006B000FF3304D28E4502D9A8F10203214443EA54
:1006C0000040A0FB0298A1EB0E014145CE464346F7
:1006D00002D306D14D4504D2B9EB020E68EB0403F8
:1006E0000138002EA6D0B5EB0E0261EB030101FA32
:1006F0000CFC22FA07F34CEA0303F940C6E9003187
:1007000098E74046C5E74346D9E70000014608B5EB
:10071000044809F017FD002142F2107008F0CEFBEA
:10072000F9E700BFB8C4000807B500F041F910B9F7
:100730001248FFF7EBFF09F048FC08B91048F8E74A
:1007400009F045FC08B90F48F3E709F05AFC08B96D
:100750000D48EEE70D480E4C09F0F4FC00F052FA9B
:1007600000F06EFA09F04FFCD4E90023CDE9002334
:10077000DDE9000108F0A2FBF0E700BFBDC40008FE
:10078000CEC40008DEC40008EEC4000804C500089A
:1007900048BE00082DE9F04112F0FC6FD0E9014796
:1007A000066913460ED04249424A43484FF47473D7
:1007B00009F00CFD414809F009FD4FF474713D4802
:1007C00009F0FBFC02F03002302A0CD13C49394AD6
:1007D000394840F2D33309F0F9FC3A4809F0F6FC05
:1007E00040F2D331EBE7384A384D1A40AA420CD1D7
:1007F0003749304A304840F2D73309F0E7FC3548F2
:1008000009F0E4FC40F2D731D9E703F00602042AEC
:1008100009D13149274A284840F2DA3309F0D6FC99
:1008200040F2DA31CBE713F4402216D09D030CD40A
:100830002A49204A204840F2DD3309F0C7FC284805
:1008400009F0C4FC40F2DD31B9E7B2F5402F18D011
:10085000244A9A4301D183F44023246801258D4022
:10086000254223F4801219D11F49124A124840F23E
:10087000ED3309F0ABFC1D4809F0A8FC40F2ED3166
:100880009DE71B490B4A0C4840F2E13309F09EFCFE
:10089000184809F09BFC40F2E13190E73468DB072F
:1008A0004CBF2C43AC4334603B68BDE8F041184773
:1008B0004BC500081AC50008A8C50008C5C5000832
:1008C000E9C5000822C6000802000300020001007A
:1008D0005FC60008A6C60008F5C6000828C70008BD
:1008E0006EC700080100100016C8000854C80008B0
:1008F000A9C70008EAC70008064BBFF35B8F53E89F
:10090000001F013143E80012002AF8D1BFF35B8FCA
:10091000704700BF6009002010B586B00DF10703D5
:100920000393012202238DF8070004928DF81430FE
:100930000348836803A99C682723A04706B010BD1D
:1009400014BA000870B50546144C20460AF061FE42
:1009500018B3626823691268D2060ED41049114A8E
:1009600011484FF4CB6309F031FC104809F02EFC1C
:100970000C484FF4CB6109F020FC1B68DB0648BF34
:1009800085F0010535B1A368DB680448BDE8704017
:1009900010211847A3681B69F7E770BD9CB90008D0
:1009A00016C800081AC50008A8C5000854C80008E1
:1009B00070B52B4C20460AF02CFE10B900242046BE
:1009C00070BDA36827491B68204698470028F5D1C9
:1009D000254C20460AF01DFE0028EFD0234A0221B4
:1009E0002046FFF7D7FE0028E8D1D4E90135AE69EB
:1009F000002EE3D01B685B070ED41D491D4A1E481C
:100A000040F28B3309F0E2FB1C4809F0DFFB194888
:100A100040F28B3109F0D1FB4FF080634FF0A072B0
:100A200002212046B0470028C8D11549154B4B601C
:100A300004238B60EB6913B10122204698470A48D2
:100A40000AF0E7FD04460028B8D007484FF4D0125A
:100A50000421FFF79FFE0028B0D1FFF773FFAEE738
:100A600000BA00089AC400089CB9000820000100E0
:100A700016C800081AC50008A8C5000854C8000810
:100A800064090020F908000810B50B4C20460AF054
:100A9000C0FD08B9002010BD084B094900222046BE
:100AA00003F0DEFF0028F5DBA36820465B6898476B
:100AB000B0FA80F04009EEE728BA0008A80000204C
:100AC000C39E000810B51E480AF0A3FD0446A0B35B
:100AD00000214FF4FA7009F0FCF9382009F0FBF915
:100AE0000021322009F0F5F9382009F0F4F900214D
:100AF000322009F0EEF9382009F0EDF9002132201A
:100B000009F0E7F9282009F0E6F93220002109F080
:100B1000E0F90021282009F0F5F900210C2009F066
:100B2000F1F90021062009F0EDF90021012009F07A
:100B3000E9F91420002109F0CCF9204610BD00BFCE
:100B400014BA000808B50548054983685B689847EA
:100B500010B9044B188808BD0020FCE700BA000853
:100B6000B4000020C00C00200020064BBFF35B8FB8
:100B7000014653E8000F43E80012002AF9D1BFF301
:100B80005B8F70476009002070B5064694B014462C
:100B90000D46D9B1E2B14422002103A809F02CF995
:100BA0002246294604A802968DF80C40FFF7B0FBB8
:100BB0000023CDE9003307486422002302A903F093
:100BC000E1FEB0FA80F0400914B070BD0846FBE7C2
:100BD0001046F9E728BA000808B509480AF019FDD7
:100BE00060B10120FFF7AEFE41F28830002109F02C
:100BF00070F9BDE808400020FFF7A4BE08BD00BFA3
:100C00009CB9000808B509F0B0F9054B188009F047
:100C1000C6F9044B1880BDE8084009F0DAB900BFF6
:100C2000C40C0020C20C0020014B1888704700BF84
:100C3000C40C0020014B1888704700BFC20C002074
:100C400070B5164BBFF35B8F1C68BFF35B8F8AB028
:100C50000CBBFFF7E9FF0646FFF7ECFF104A05461D
:100C600033461121684609F07AFA0E4A2B461121C3
:100C700005A809F074FA09F058F92146204609F050
:100C80005FF9684609F066F90120214609F058F934
:100C900005A809F05FF90AB070BD00BF7009002017
:100CA00066C8000870C8000810B50446B0B1BFF3AC
:100CB0005B8F0B4B012253E8001F43E80020002804
:100CC000F9D1BFF35B8F09F030F90021084609F034
:100CD00037F92046BDE8104009F03CB910BD00BF0F
:100CE0007009002002490A224FF40070FFF74CBF40
:100CF00090C8000832B140F20113984202D1024874
:100D0000FFF7D2BF704700BF7CC80008B2F5802F44
:100D10002DE9F0410ED33C493C4A3D4840F2EB13EB
:100D200009F054FA3B4809F051FA40F2EB11374808
:100D300009F043FA042A0CD83749344A34484FF4AE
:100D4000F97309F043FA354809F040FA4FF4F971A4
:100D5000EDE7043ACD1D8E1825F0070526F00706AD
:100D6000761B172E4FEAD6070CD82D49274A28485C
:100D700040F2FB1309F02AFA284809F027FA40F25A
:100D8000FB11D4E7B7FA87F4C4F12002C4F12404BC
:100D9000A4000734E408631C4FF00008BB42056060
:100DA000AF60C5F80C800CD91E49184A18484FF49A
:100DB000037309F00BFA194809F008FA4FF40371AC
:100DC000B5E74146920005F1100009F015F86300FF
:100DD00043F001036B8005EBC4023B1B5900A5F8EF
:100DE00000805180AA1925F83440A2F80280AB5344
:100DF00005EBC70321465A8842F001025A80284673
:100E0000BDE8F04109F00BB968C900089AC80008AC
:100E1000A8C500087EC9000895C90008B6C9000821
:100E2000CFC90008F8C900082DE9F04F91B0840738
:100E3000009302F004030293C2F3C20303F101031F
:100E4000DDF86880039205460E46059340F0F58173
:100E5000041D30B1072909D86FF01B0011B0BDE89F
:100E6000F08F01F00706341DC6F10806009B4FF015
:100E70000009013B4FF0040B0193CDF810904F4651
:100E80004B464FF0FF32DA460DB1009921600598CC
:100E9000002800F3D78098480099814203D39748EF
:100EA0008142C0F0CF800399A4EB050E89074FEA79
:100EB0009E0040F1E2804FF0000CCCE07A285AD836
:100EC0004B280CD8472856D829282AD8252851D06D
:100ED00051D8202877D023384342434173E04C381F
:100EE0002E2848D8DFE800F06F4747474747474775
:100EF000474747474947474747474747475947496C
:100F0000495959596F496C476F47184918474780E5
:100F10007D49474749477D00002000234FF0040BDF
:100F200039E02A38C0B2012101FA00F010EA0E0FB0
:100F300049D110F0625C30D110EA010343D0604621
:100F4000013C5C44B4FBFBF40BFB04F4002D60D0CB
:100F5000AAEB050CA444B4453FF67EAF00286AD145
:100F6000BAF1040F45D158F8040B206004344FF057
:100F7000040A28E0013A002325E0019B13F8013C14
:100F80006C2B33D1019B13F8023C00206C2B0346E1
:100F9000C4D14FF0080BDA46D2E708F1070828F071
:100FA00007080734F8E802AB24F0070435B10698C7
:100FB0002044B0423FF650AFC4E900AB08340023F0
:100FC0004FF0080BDA46019911F8010F0191002842
:100FD00000F0BB80002B7FF471AF2528F3D10132E4
:100FE00001234FF0040BEDE7184696E70020034677
:100FF000A6E7BAF1080F40F09A8008F1070828F038
:101000000708F8E80201C4E9000108344FF0080AB3
:10101000D9E780B9BAF1040F02D108F10408A5E7B5
:10102000BAF1080F40F0838008F1070828F007089C
:1010300008F10808E9E705990139059158F8041BFA
:10104000009121E7039988074AD5A4EB050E4FEAE2
:101050009E004FF0010CBEF5007F1ED32849294A9F
:1010600029484FF41F7309F0B1F8284809F0AEF889
:101070004FF41F71234809F0A0F80F2F0FD8002D4F
:1010800048D007F140010DEB010C0CF8200C0CF8D6
:10109000102C04980130049021E00F2F0CD918492E
:1010A000184A194840F2812309F090F8184809F0CD
:1010B0008DF840F28121DDE7CDB107F140010DEB64
:1010C000010EC0B20EF8200C0EF8102CBCF1000F6F
:1010D000DFD060F07F000EF8200C09F10109013724
:1010E000C5F10801043406914FF6DA7E6BE7BCF1D6
:1010F000000F0FD00136F2E760B800087CF200085C
:101100006CC7000823CA0008A8C5000851CA000817
:1011100072CA0008029802360028E0D10098CDE992
:101120000632FFF76DF8DDE906320644D7E7444A98
:101130004449454840F2C62309F048F8514643481F
:1011400009F044F840F2C62194E7631BB3F5806FC1
:101150000CD33C493A4A3C4840F2D22309F036F8D5
:101160003B4809F033F840F2D22183E71DB9A6F1DC
:101170000804E01872E6029A28609B082B709DF81C
:101180001030C2B1EB7085F80290B9F1000F05D0B4
:1011900008A80022C5F1010C97420ED1C5F1010348
:1011A0000DF120084FF0000A01930DF1300B574567
:1011B00012D1601B52E66B70E5E710F8013B19068F
:1011C00008D504EB0C0EB64503F07F033FF644AEA2
:1011D00004F8013B0132DFE7B9F1000F03D098F9C1
:1011E0000020002A17DB029BD3B11AF80B2004F869
:1011F000012B0022019B98182044B0423FF62CAEF0
:1012000098F8000004F8010B009903922046FFF7BC
:101210007FF8039A14440AF1010A08F10108C6E7AD
:1012200098F8002055F822300093029B45F82230B0
:101230000098FEF7E5FF421CDCE76FF00D000DE6BD
:1012400023CA00086CC70008A8C500088CCA00089B
:10125000A1CA00082DE9F04F97B000AF8946D7F832
:1012600080B0FA623B62044658B9A849A84AA94826
:101270004FF4667308F0AAFF4FF46671A44808F0B3
:101280009CFFCBF3C00390F802A0BB6141B9457845
:1012900000780AEB800020444D4517D8A0EB0409E4
:1012A000E378FB61BAF1000F02D01BF0010F16D1F9
:1012B000FB6953BBFB6A1BB13A6A49462046984713
:1012C0004D4628465C37BD46BDE8F08F461C30468B
:1012D000FEF796FF0130304409F10109DCE723787D
:1012E00062687A62FA6A9900796104EB8301002AE4
:1012F00040F001814D460E4601EB0A094FF000080F
:101300004E454CD101EB0A0610E01BF0020FD1D084
:1013100023789A007A6162687A62FA6A04EB830140
:10132000002A77D14D4601EB0A0690461BF0050FC7
:101330000CBF02230123FB62FB6906EB430A0BF09F
:101340000203BB625645BCD016F8021B16F8013CDE
:1013500054F82390704B994502D3704B994536D37E
:10136000BB69002B40D0786A08F0B1FE00283BD062
:10137000E9468AB06A466A4B53617B6AC2E9063124
:101380004FF400731384674B42F8103F6648002304
:101390004FF4125101F060FC023DCD46D2E716F841
:1013A000013BF96254F82300FEF72AFFD7F8843096
:1013B000F96A01304BB1D7F8883098453EBFD7F86D
:1013C000843023F8180008F10108054498E7BB6948
:1013D00023B1786A08F07BFE0028C9D11BF0010F09
:1013E00005D1FB6AED1AADE7BB6A002BAAD04846CF
:1013F000FEF706FFD7F8843053B1D7F88830984508
:101400003FBFD7F88420431C22F8183008F10108A8
:10141000054497E7BAF1000F73D01BF0040673D0B0
:10142000D046002607F1480052463B61B962FEF7FC
:101430006FFFB96A3B6901EB0A02BA62FA69F9699E
:101440005200FA60BA6A02EB41023A610BF0020202
:10145000BA60BA6A39698A4268D162787A621BF0E6
:10146000020F32440CBF4FEA580100211BF0010F5C
:10147000D2B240F0E4801BF0040F14BF40460020BD
:10148000BB616270A070E1703A6A7969FB6A2046BC
:101490009847051EFFF615AFBB6923707B6A637022
:1014A000FB69E37041463A6AFB6A84F802A007F1DF
:1014B00048009847B0F10008C0F2EF807B693A6AB3
:1014C000A9EB0A01C91AFB68C91AD7E90A039847A8
:1014D0000028C0F2E480A84408EB00054FF0000BA0
:1014E00007F1380AB345C0F0AC8000213A6AFB6AC4
:1014F00008469847E5E656464FF0000807F13800E1
:1015000092E75646D04696E7B04694E7B8CA000838
:1015100023CA0008A8C5000860B800087CF20008CB
:10152000D3CA000804000001CCBD0008BA6A12F852
:10153000021BBA6212F8015C5A4A54F82500904224
:1015400002D3594A904218D3BA693AB1786A7B609B
:1015500008F0BDFD7B6800287FF47BAFBA68002AE5
:101560004CD00F2E40D95149514A524840F24C4379
:1015700008F02CFE40F24C4180E6BA693AB1786A34
:101580007B6008F0A4FD7B6800287FF462AF1BF04D
:10159000010F0BD00F2E27D94449454A454840F248
:1015A000424308F013FE40F2424167E61BF0040F8D
:1015B0003FF44FAFB8F10F0F09D93F493C4A3D48BE
:1015C00040F2454308F002FE40F2454156E608F17C
:1015D000280207F1300008F1010102EB000808F8C9
:1015E000105C5FFA81F834E706F1280207F1300059
:1015F000711C161806F8205CCEB22AE7B8F10F0F5E
:1016000009D92D492A4A2B4840F24F4308F0DEFD04
:1016100040F24F4132E608F1280207F1300C08F1A0
:101620000100944407F1580252FA80F008F10208D0
:101630000CF8101C5FFA88F800F8105C09E700202D
:101640001EE71BF80A3087F8373054F82390D7F894
:101650008430FBB133F81B803A6AFB6A012107F141
:101660003700984700281ADB0544B8F1000F06D16F
:101670004846FEF7C5FD00F101081FFA88F83A6AEE
:10168000FB6A414648469847002808DB05440BF1B1
:10169000010B27E7D7F88480DEE7454611E60546CB
:1016A0000FE600BF60B800087CF2000876CB0008A7
:1016B00023CA0008A8C5000895CB0008014B186094
:1016C000704700BFC800002030B587B00025CDE9C5
:1016D00003010446009503A90548059500F06EF83E
:1016E000DDE904309842B8BF255407B030BD00BFD3
:1016F0001DA10008F0B5094E016802460A27002026
:101700000B4601311C78355D6D0701D41360F0BDC7
:1017100007FB0043A3F13000F2E700BF99C30008C4
:101720002DE9F84F15469A46D378234A12F803B0AC
:101730006F2B81460F460BF0030B2BD026D8582B6E
:101740000CBF10260A26DDF82880324600234846C2
:101750003946FEF7C3FD092A08F1FF38D4B21ED876
:101760003034B145E4B277F1000788F8004001D386
:10177000D04511D82B789B0605D5082E15D1AB780E
:1017800043F00803AB704046BDE8F88F03F0F70361
:10179000702BD5E70826D6E781460F46D5E7BBF183
:1017A000010F0CBF37345734DBE7102EEBD1AB7889
:1017B00043F01003E6E700BF99C300082DE9F04F9E
:1017C00097B08A46039016461C460025307808B923
:1017D000284656E325280AD0039B514698470028FF
:1017E000C0F24F83731C01350493049EEEE7182268
:1017F000002110A808F000FB7378252B00F0A380CF
:101800000023711C98469E469C4618460F4611F8C8
:10181000012B2B2A00F0C68000F2BD80202A00F0A8
:10182000C480232A00F0C4802BB19DF8483043F0D7
:1018300040038DF84830B8F1000F05D09DF84830CE
:1018400043F020038DF84830BEF1000F05D09DF81D
:10185000483043F010038DF84830BCF1000F05D03C
:101860009DF8483043F008038DF8483028B19DF8C2
:10187000483043F004038DF848309DF8483003F0B9
:101880004401442903D16FF386138DF848309DF845
:101890004830099743F080032A2A8DF8483040F0F9
:1018A0008C809DF8493043F001038DF849307B1C52
:1018B0001A782E2A9DF849200CBF0121002161F3DE
:1018C00041028DF849200CD15A1C09925A782A2AD3
:1018D00040F083809DF8492042F004028DF84920B1
:1018E00002331A786C2A00F0A48000F28680682AFD
:1018F00000F08C806A2A00F0A5804C2A00F0AA80B3
:101900001A4612F8013B0492782B9DF849208DF875
:101910004B3000F217816D2B00F2A980692B00F289
:101920001181572B00F2BE80412B03D0453B022B87
:1019300000F208819DF84A30042262F302038DF818
:101940004A300123CAE08DF84B30B31C04939DF854
:101950004930D90740F1FD8054F8048BB8F1000FED
:1019600007DA9DF8482042F004028DF84820C8F1BB
:1019700000085A0740F1F68054F804BBBBF1000F91
:1019800080F2F5809DF849306FF341038DF84930BE
:101990004FF0FF3BEBE02D2A0DD0302A7FF444AF0F
:1019A000012333E74FF0010C30E74FF0010E2DE734
:1019B0004FF001082AE7012028E709A8FFF79AFE5F
:1019C000099BBB423FF474AF9DF848201390C00FB1
:1019D00060F341028DF848206AE709A8FFF78AFE04
:1019E0009DF848301490C3F3400242EAD07262F38B
:1019F00041038DF84830099B73E7742A26D07A2A70
:101A00007FF47EAF9DF8492006210CE05A78682AC1
:101A10009DF8492006D1012161F3C6028DF84920C5
:101A200002336DE7022161F3C6028DF849200133CC
:101A300066E75A786C2A9DF8492001D10421EBE72A
:101A40000321F0E79DF849200521ECE79DF84920A6
:101A50000721E8E7BDF8482022F4F04222F0020214
:101A600042F4804242F00202ADF84820DFE76E3BCC
:101A7000D9B201238B4040F282410B4238D113F09E
:101A8000240F52D1DF075DD59DF84A30032161F361
:101A900002038DF84A3002F07803A3F1400043427C
:101AA00043411BE0A3F15801C9B2012000FA01F142
:101AB00011F4624F7FF43EAF40F6010739421DD169
:101AC00011F4043F3ED09DF84A3060F3020302F067
:101AD0007802402A8DF84A3034D000239DF84820FF
:101AE000C2F340010B4363F341028DF848202EE717
:101AF0009DF84A30022161F30203E8E79DF84A109D
:101B0000022002F0780260F30201402A8DF84A10A8
:101B100002BF9DF8481041F001018DF84810632B79
:101B2000DBD1131E18BF0123D8E79DF84A300321EB
:101B300061F3020312F0780F8DF84A3014BF0123CD
:101B40000023CBE79DF8483043F001038DF848307F
:101B5000C3E79DF94820002AB4BFDDF84C804FF060
:101B6000FF3806E79F077FF513AFDDF850B09DF80B
:101B700049100023CDE913339DF84A3003F00703E1
:101B8000012BC1F3C30132D1CB1E042B04D8DFE8F3
:101B900003F0204545202000236801294FEAE37225
:101BA000CDE910321BD19DF94030DA17CDE9103262
:101BB00004349DF8483013F003074FD0049B03987A
:101BC0003246514608F0E2FA0028C0F25A81054434
:101BD0000BE654F8043BDA17CDE91032E9E70229A5
:101BE000E6D11AB243F3C033CDE91023E0E7022B6C
:101BF00024D1CB1E042B04D8DFE803F018101018F2
:101C00001800012954F8043B4FF0000214D00229B7
:101C1000CDE91032CDD19BB21093CAE7073424F03E
:101C20000704F4E80223CDE91023C2E754F8043B8B
:101C3000109300231193BCE7DBB2CDE7042B08D14E
:101C4000073424F00704D4E900230834CDE9102335
:101C5000AFE7032BADD154F8043BDDE79DF84B0013
:101C600078283FF6C2AD62281ED8252850D05828C3
:101C70007FF4BBAD0DF13E030093DDE910010AAB2B
:101C800012AAFFF74DFDBBF1000F814680F2C28022
:101C9000B9F1000F3FF4A9AD0DF13E06A6EB090323
:101CA000002F7BD0013379E0633815283FF69DADD6
:101CB00001A252F820F000BF8B1D0008E91D0008AA
:101CC000EB170008EB170008EB170008EB170008EC
:101CD000E91D0008EB170008EB170008EB170008D8
:101CE000EB170008371E00080F1E0008491D0008EA
:101CF000EB170008EB170008211D0008EB17000880
:101D00000F1E0008EB170008EB1700080F1E000855
:101D1000039B514698470028C0F2B380013564E523
:101D2000BBF1000FDDF840900ADB5946484608F049
:101D3000B5F8B9F1000F3FF458AD09EB000620E00B
:101D40004846FEF75DFAF8E71098002800F0878013
:101D50000DF13E060AAB009612AA0021FFF7E0FC47
:101D6000BDF84A3003F0EF0343F4F04343F01003AF
:101D7000BBF1000F8146ADF84A304ADA00283FF443
:101D800034ADA6EB0903002708E0109B8DF828303E
:101D900000270DF129060DF1280901239DF84A10AD
:101DA00011F01002069260D00233139A0592134488
:101DB0004A0644BF14995B18B8F1000F6EDDA8EB1A
:101DC00003089DF848305807C3F3800B66D45906C2
:101DD0005AD53FB1039B514638469847002850DBFF
:101DE00001355F46302350E01E075CBFC3F300138C
:101DF0005F01DDE9102348BF2B27002BBFF63AAF68
:101E0000524263EB4303CDE910232D2732E700272D
:101E100030E700279DF848100DF13E03A3EB0903BE
:101E20006FF386119B458DF848107FF631AFABEB11
:101E3000030313932CE7109B07293FF6D6ACDFE88A
:101E400001F00C04060C08080C0C1D70CDE41D807C
:101E5000CBE4EA17C3E90052C7E41D60C5E4314E84
:101E60000746A6F10509052398E7080748BF01338F
:101E70009BE7184607935146039B98470028079B0A
:101E800004DA17B0BDE8F08F2023C3465946002975
:101E90000BF1FF3BEDDC45446D1AD84637B1039B8F
:101EA0005146384698470028EBDB01359DF84A300B
:101EB000DA0601D41B0706D5039B5146302098470C
:101EC0000028DEDB0135069B3BB19DF84B00039BF0
:101ED000514698470028D4DB0135059F2F4406E082
:101EE000039B5146302098470028CADB01357B1BF5
:101EF000002BF5DC039833464A46514608F046F974
:101F00000028BEDB0544A844A8EB0503002B7FF79F
:101F10006CAC039B5146202098470028B1DB01356B
:101F2000F2E700BFCBCB000838B50D4604462022AF
:101F3000002107F061FFEB68E361AB68A3612B68E8
:101F400023626B6863620022A2622A6923B1591E70
:101F5000194208BF42F0010222610122002104F16E
:101F60002C0009F09BFB48B105490648064A2F237F
:101F700008F02CF904482F2108F01FF938BD00BFE4
:101F8000F2CB0008A8C50008CCCB00082DE9F04F23
:101F900089B0CDE90123436A00278B420446884675
:101FA00005970797BA4655D300F114064FF0100B6A
:101FB000EFF3118300938BF31288BFF36F8F3046DA
:101FC000DDF8009007F0FEF858B94B4A4B494C48F1
:101FD000882308F0FBF831464A4808F0F7F88821D2
:101FE00060E0304607F012F9079A2AB139462046D8
:101FF00008F0CBF90023079306A9204608F0F3F870
:102000000699414505462ED32268236A13F822100B
:1020100021F0030103F8221003EB820A21684246F3
:10202000204608F004F9E3682060984216D00025A5
:10203000304607F0D5F840B389F31188BFF36F8FAE
:10204000059929B1A2690AB120469047002305935A
:10205000002DADD1504609B0BDE8F08F236943F0A3
:1020600008032361E3E718B1204608F0FAF8DFE738
:10207000DDE90132134337D0039109F01BFB0399CB
:1020800090BB304607F0ACF878B91B4A1E491C4893
:1020900040F2311308F09AF831461C4808F096F8DF
:1020A00040F23111144808F088F8009B83F311883E
:1020B000BFF36F8FDDE9012304F12C0005F0B6FDBD
:1020C0000546EFF311898BF31288BFF36F8F30460B
:1020D00007F078F800283FF478AF3046B5FA85F578
:1020E00007F094F86D09A3E707AB05AA2046276817
:1020F00008F0D4F805469BE7FBCB000828CC000885
:10210000A8C500083DCC000853CC00086ACC0008E4
:102110002DE9F0410446C36908460E46984704F18C
:1021200014050746EFF31188102383F31288BFF3D9
:102130006F8F284607F046F868B91B4A1B491C48B0
:10214000882308F043F829461A4808F03FF8882108
:10215000154808F032F8284607F058F8337843F06D
:102160000103337061683A46204608F060F8606009
:10217000204608F025F9284607F032F868B90A4ADF
:102180000D490B4840F2311308F020F829460B485E
:1021900008F01CF840F23111DAE788F31188BFF338
:1021A0006F8FBDE8F08100BFFBCB000828CC000892
:1021B000A8C500083DCC000853CC00086ACC000834
:1021C0002DE9F843044600F11407EFF311881023BA
:1021D00083F31288BFF36F8F384606F0F3FF05468E
:1021E00068B9354A35493648882307F0EFFF394644
:1021F000344807F0EBFF88212F4807F0DEFF384610
:1022000007F004F82369A26813F0080F02D163688D
:102210009A4200D9636A9B1A002B3FD0216A11F8B9
:10222000223013F0030001EB82093AD0022803D1D7
:1022300051F82260B60805D1D8071FD4E369484693
:1022400098470646A1683246204607F0F0FF31461F
:10225000A060204607F0F9FF384606F0C1FF10BB2A
:10226000154A1949164840F2311307F0AFFF3946B5
:10227000164807F0ABFF40F23111BDE743F002030F
:1022800001F822304846E369A56898472946024686
:10229000204607F0CCFF0025A060DDE71D46A946DB
:1022A000DAE70546FBE788F31188BFF36F8F002D4F
:1022B0008BD14846BDE8F883FBCB000828CC00084A
:1022C000A8C500083DCC000853CC00086ACC000823
:1022D0002DE9F0410446C36908460D46984704F1CC
:1022E00014060746EFF31188102383F31288BFF317
:1022F0006F8F304606F066FF68B9284A284929489A
:10230000882307F063FF3146274807F05FFF8821E5
:10231000224807F052FF304606F078FF2B786FF323
:1023200000032B7023699B0705D5E268236A03EB42
:1023300082039D4222D12B786FF341032B70D4E9A5
:102340000231994204D13A46204607F070FFA0605E
:102350003946204607F079FF304606F041FF90B934
:102360000E4A12490F4840F2311307F02FFF314651
:102370000F4807F02BFF40F23111C9E72B6867F3D4
:102380009F032B60E8E788F31188BFF36F8F04F198
:102390002C00BDE8F04105F0F1BB00BFFBCB00080D
:1023A00028CC0008A8C500083DCC000853CC000884
:1023B0006ACC0008034A536843F0020353600020CC
:1023C000704700BF002004E0134B1A6842F400720B
:1023D0001A601A6842F480621A601A6842F48072C5
:1023E0001A600E4B0E4A1A600E4A536843F00103FE
:1023F00053600D4B9A6D42F080529A659B6D0B4A6B
:1024000082B003F080530193019B9368002043F452
:102410008043936002B0704700200240000100201A
:102420000024F400002004E000100240007000408E
:102430001FB5D0E90123C168029164215943B1FB62
:10244000F2F1CDE90021044601680648D21A07F0EE
:1024500079FED4E90623044804B0BDE8104007F033
:1024600071BE00BF7FCC0008BFCC0008F0B595B0AE
:10247000D0F88C6005460F4609F025F9044608B1EE
:10248000037833B91A4A2B460B2101A807F067FEDF
:1024900001AC6946284609F026F9024628B11548DC
:1024A000214607F04FFE00230093009BCDE90A462A
:1024B0000EA9F61A28460C9609F01CF980B904A852
:1024C00009F022F978B90E980F9D6424A0FB04014D
:1024D000DDE9042304FB0511FDF700FF0D9002E088
:1024E00004A809F011F90AA8B84715B0F0BD00BF5B
:1024F000E4CC0008E7CC00087FB501460E4806F0A2
:10250000E5FE05AA0D484FF4006109F0E0F8024627
:1025100070B9059B6421C3F500604143C90A02916B
:102520004FF40061CDE900010549064807F00AFEB5
:1025300007B05DF804FB00BF6D240008C01900203F
:102540000FCD000813CD000808B5044807F0FAFDC8
:10255000BDE808400248FFF7CFBF00BF49CD0008E3
:102560003124000838B5044C0025FFF7EDFF204664
:10257000294606F0A3FCF8E7E093040030B51049C3
:10258000104889B0002209F026F90F4D0F490022AA
:102590000023CDE9062300240E23CDE90334CDE941
:1025A00001440B4B00944FF40062284605F07EFC7A
:1025B0000849284609F084F8204609B030BD00BF1C
:1025C00019270008D8060020300200204011002002
:1025D000FD2900086ACD00082DE9F047DFF8588092
:1025E000044607464FF0010914B93846BDE8F087A4
:1025F00094FAA4F5B5FA85F509FA05F32E0108EB6E
:1026000005156FEA030A24EA03042B7B002BEBD0A9
:1026100058F806301B694BB94644042273682846B3
:10262000196807EA0A0700F0F1FADDE7284698473B
:102630000028D9D1F0E700BF2CBE00082DE9F047F3
:10264000DFF8B4902D4CA9EB04038F2B80460F4686
:102650000BD92B492B4A2C4840F23F1307F0B6FD0B
:1026600040F23F11274807F0A8FD284807F0D5FEA3
:10267000064660B300252846BDE8F087237B6BB192
:102680002368DB680BB12046984723681B69B3B900
:10269000636804221968204600F0B8FA0136103445
:1026A0004C4518D91A49174A17484FF4A67307F032
:1026B0008DFD184807F08AFD4FF4A671D2E7204639
:1026C00098470028E4D00AFA06F31D43E6E70546DA
:1026D0004FF0010AE4E7D1D3B8F1000FCBD0002DC1
:1026E000C8D02846FFF778FF0546002FF7D0002115
:1026F000642006F0E3FBF2E73CBE00082CBE0008B5
:102700009FCD000872CD0008A8C5000888090020E8
:10271000CFCD0008F0CD0008014805F02FBA00BF6A
:102720007C010020014B53F82000704764BE000874
:1027300008B5034608462BB1044A136000F0ACFD0F
:10274000002008BD6FF01500FBE700BFCC000020A3
:1027500010B5044C237813B9034805F00FFA012390
:10276000237010BDC60C00207C01002010B504466B
:10277000084807F052FE5CB1BFF35B8F064B53E88D
:10278000001F013943E80012002AF8D1BFF35B8F24
:1027900010BD00BF80090020840900200020064BE6
:1027A000BFF35B8F014653E8000F43E80012002A95
:1027B000F9D1BFF35B8F70478009002070B5FFF738
:1027C000EDFF104C104E0546B44219D90F49104A7E
:1027D000104840F2FF1307F0F9FC0F4807F0F6FC31
:1027E0000B4840F2FF1107F0E8FC63685B792BB1FE
:1027F00023685B6813B12946204698471034E3E705
:10280000F3D370BD2CBE00083CBE0008CFCD00083D
:1028100072CD0008A8C50008F0CD000810B5044C22
:1028200004492046FFF780FB034B1C6010BD00BF2E
:102830003C01002050BE000878090020084A0948E1
:1028400008B500231370084A1360084A4FF47A71E0
:102850001360FFF76DFFBDE80840FFF7DFBF00BF63
:10286000C70C002035A4000880090020840900203E
:102870000146002201480023FFF788BB3C010020ED
:102880000148FFF79DBC00BF3C010020024B014600
:102890001868FFF71DBD00BF78090020014807F048
:1028A0009CBD00BF3C01002070B52D4B187800285E
:1028B00054D0FFF7E5FF054660B3BFF35B8F294BAC
:1028C00053E8001F013943E80012002AF8D1BFF392
:1028D0005B8F254C254EB44218D92549254A2648F8
:1028E00040F2F31307F072FC244807F06FFC214814
:1028F00040F2F31107F061FC63685B7923B1236850
:1029000029461B68204698471034E4E7F4D328464C
:10291000FFF7BCFF1A4B1B4C1B68002B12DD08F0A5
:1029200058FF0A220023FDF7D9FCD4E90032C01A6F
:1029300040F2E93361EB0201984271F1000101D3E9
:10294000FFF73CFFD4E9003213F57A7342F100023D
:10295000C4E90032BDE87040FFF7A0BF70BD00BF02
:10296000C60C0020840900202CBE00083CBE0008D4
:10297000CFCD000872CD0008A8C50008F0CD000832
:1029800080090020D006002070B5154D297829BB9C
:102990000120FFF753FE134C134EB44217D91349CD
:1029A000134A14484FF4DC7307F010FC124807F088
:1029B0000DFC0F484FF4DC7107F0FFFB63685B7997
:1029C0001BB1236820469B6898471034E5E7F5D390
:1029D000FFF76AFF0028FBD101232B7070BD00BFF9
:1029E000C70C00202CBE00083CBE0008CFCD00085C
:1029F00072CD0008A8C50008F0CD00082DE9F04709
:102A00002F4B304FFB1A1B090BD12F492F4A30484F
:102A100040F28D3307F0DAFB40F28D312B4807F09E
:102A2000CCFB00210846FFF709FE044640B34FF4F3
:102A3000FA784FF0000906F079FA264B186030B1A9
:102A4000254B1B68092B02DD244805F097F8DFF8B9
:102A50008CA0002544B12046FFF7BEFD044618B9FE
:102A60004FF0FF384FF0FF39FFF71EFF064628B939
:102A70005DB942464B46504605F0D8F83546E9E781
:102A80004FF0FF384FF0FF39D5E70D4D08E0F0D299
:102A90002B689B691BB100221146284698471035C8
:102AA000BD42F4D90E49094A094840F2813307F082
:102AB0008DFB0C4807F08AFB40F28131AEE700BF86
:102AC0002CBE00083CBE00080FCE000872CD0008E6
:102AD000A8C500087C090020840900207C01002092
:102AE000CFCD0008F0CD000813B52C4807F095FCB9
:102AF0002B4B1B78002B35D0EFF31184102383F37D
:102B00001288BFF36F8F274806F05CFB68B9264A2E
:102B100026492748882307F059FB2249254807F012
:102B200055FB8821204807F048FB1E4806F06EFB45
:102B3000FFF7BAFE1B4806F053FB68B91A4A1E4954
:102B40001B4840F2311307F041FB16491B4807F0C0
:102B50003DFB40F23111E5E784F31188BFF36F8F3D
:102B600002B010BD164B1B68002BF9D050B90022E3
:102B70000023CDE90023134842F21072002306F02F
:102B800049FFEDE70928EBD10E4808F030FE0E486A
:102B900002B0BDE8104004F0F1BF00BF840900207E
:102BA000C70C002074090020FBCB000828CC0008CB
:102BB000A8C500083DCC000853CC00086ACC00082A
:102BC0007C090020D80600207C01002010B5064BAF
:102BD0001B68044698472146A0600448FFF798FA0E
:102BE000BDE81040FFF780BFCC0000203C01002072
:102BF000044A054B9B1AB1EBD30F34BF52F8310096
:102C000000207047ACBD00082CBE00080E4BC31A54
:102C10001B11013310B5DBB248B90C490C480D4A01
:102C2000DF2307F0D3FA0B48DF2107F0C6FA446828
:102C3000237143689A7143681960436801225A718D
:102C4000BDE81040FFF784BD2CBE0008AFCE0008E1
:102C5000A8C5000877CE00082DE9F04F8FB004AF6B
:102C6000C1F34A28B8600D4691467B600C0DB8F15F
:102C7000000F68D0002607F114034FF0040B4FF04B
:102C80000A0AC7F80C80C7E907667E620193CDF88F
:102C900008B0CDF800A007F11C03F9683246484699
:102CA000FEF7D8FAB0F5006F03461CD36C468AB025
:102CB000D9F8041004AB2C48C3E9050140F2FF71B8
:102CC000D9611A464FF400711984284B42F8103F1D
:102CD000274833464FF41251FFF7BEFFA5462C3765
:102CE000BD46BDE8F08FC0F30A0804F11700184490
:102CF00020F0070080083B60FFF7BAFD68F353251A
:102D0000044640B33B681B4AC7E9083600F110018E
:102D100007F11403F961CDE900A3CDF808B0F96813
:102D200007F11C034846FEF795FA002813DA12490A
:102D30001248134A4FF4A37307F048FA10484FF4AF
:102D4000A37107F03AFA04F1170020F00700800899
:102D5000FFF78EFD044668F353257B68B9682A4661
:102D6000204607F098FBBAE7CFCE00080400000128
:102D7000ECBD00086BA400083BCF0008A8C5000804
:102D80000ECF00082DE9F04F87B0DDE91279DDE9BB
:102D9000106A044603919346984627B3CDF80090F5
:102DA0003B46524610210020CDF81490FEF73CF827
:102DB000051E0BDA2649274A274840F2651307F01B
:102DC00005FA40F26511234807F0F7F9B5F5006FF1
:102DD0000ADB224A224840F2FF73022107B0BDE815
:102DE000F04F07F0B1BB3D4606F11700284420F034
:102DF000070004F007048008FFF73AFD0BF0070B0B
:102E0000E40044EA8B1444EA452444EA06540646A6
:102E1000A0B19FB1CDF800903B46524629461030F4
:102E2000FEF702F8002809DA09490A4A0A4840F27E
:102E3000851307F0CBF940F28511C4E703994346A7
:102E40002246304607B0BDE8F04F07F024BB00BF74
:102E50003ACF00080ECF0008A8C5000844CF0008EC
:102E6000ECBD0008406820B1034BC01A40F3CF000E
:102E700070474FF0FF307047ACBD00080EB403B58B
:102E800003AB014653F8042B0448019307F080FB81
:102E900002B05DF804EB03B0704700BFBD2E000820
:102EA000CA0605D48B064CBF02490349FFF7E6BFAB
:102EB000704700BFA3EC000817C5000838B54B6881
:102EC0001A68CB689A4205460C4602D1084607F0BC
:102ED00066FB6368BFF35B8F53E8002F511C43E828
:102EE00000100028F8D1BFF35B8FA3689D5463687E
:102EF0001A68E3689A4209D905490648064A7A23BE
:102F000007F064F904487A2107F057F9002038BD2A
:102F1000ABCF0008A8C500087CCF00082DE9F04F12
:102F200089B09A46149B06939DF84CB0159B059367
:102F3000169B179E049304460D469046BBF1000F66
:102F400000F0AD80BBF1040F0BD9A449A44AA548F9
:102F500040F2622307F03AF940F26221A04807F0FC
:102F60002CF906F48073079307F07DFA06F0020946
:102F7000024600283FD09C492046FFF77FFF0746C6
:102F8000B9F1000F08D016F0440F36D197492A4600
:102F90002046FFF773FF074406F0010353B1944B3B
:102FA000944953F82B20944B2046002A08BF1A4618
:102FB000FFF764FF06F48073002B4AD006F0080385
:102FC000002B64D1B8F1000F67D08C4942462046EF
:102FD000FFF754FF0546069B3D44002B6ED1049B32
:102FE000002B40F08380F30700F1F180314620464A
:102FF000FFF756FFE5E00746C2E7814B1868002857
:10300000C9D0804B4FF47A791B68B5FBF3F54FF4C8
:103010006161B5FBF0F300FB135509FB05F54FF0BB
:103020003C0CB3FBF1F201FB1231B5FBF0FEB1FB3E
:10303000FCF300FB1E550CFB131109FB05F5009179
:10304000B5FBF0F57049CDE901E52046FFF716FF25
:10305000A1E706F00803EBB16C4B6D4953F82B2048
:103060002046FFF70BFF0546B8F1000F05D0634976
:1030700042462046FFF702FF0544BAF1000FAAD0EE
:10308000644952462046FFF7F9FE0544A3E74FF096
:10309000000AE1E706F00805E6E745469BE7BAF1D6
:1030A000010F069B06D1DBB9049B002B00F0898041
:1030B00000251BE0002BF7D0574812E05748069B2D
:1030C0005749224606F0D2FF00280CDA5549444AF7
:1030D00044484FF42F7307F079F84FF42F713DE710
:1030E0004E485D46EBE7049B002B66D0DFF8388145
:1030F000DFF83891049F3146102F204628BF102753
:10310000FFF7CEFE4FF0000A554543DC059B4946CC
:103110001A782046FFF7B2FE4FF0010A1AF0070FA7
:1031200003D141462046FFF7A9FE574539D9059BF3
:10313000494613F80A202046FFF7A0FE0AF1010ACB
:10314000BAF1100FEAD13A4920464FF0000AFFF7D2
:1031500095FE5246059B9A5C364B995C11F0970F91
:1031600008BF2E2234492046FFF788FE0AF1010AE3
:10317000BAF1100F1AD01AF0070F03D141462046BA
:10318000FFF77CFE57455246E4D841462046FFF7FC
:1031900075FEEBE741462046FFF770FE0AF1010A93
:1031A000B2E726492046FFF769FEC7E7059B3B4487
:1031B0000593049BDB1B04939CD1BBF1000F7FF4B0
:1031C00012AF204609B0BDE8F04F07F0E8B90A4A4F
:1031D00008492046FFF752FE08E700BFE0CF00088D
:1031E0007CCF0008A8C50008ECCF0008F0CF00088D
:1031F00074BE000815D00008DBCF000818D0000806
:10320000900900208C090020F9CF000888BE000832
:103210001CD0000822D00008B9A50008BD2E000867
:1032200091A5000827D0000838D0000830D0000849
:103230003AD0000899C300083CD0000836D00008F6
:1032400073B542F20F738B4228BF0B4605680F4AD5
:1032500004460521684606F082FF63680C495B68F6
:1032600006460B22284607F085F963683246694610
:1032700028465B6807F07EF9636806495B681B2295
:10328000284607F077F902B070BD00BFA4D100084E
:103290005BD000083FD00008074A0021012390427C
:1032A00006D8064A01B901231360054B1860704720
:1032B00040085B000121F2E740420F008C0900202A
:1032C00090090020F8B5074F0D4604464618B44251
:1032D00001D12846F8BD14F8011BBB6801485B68A2
:1032E0009847F4E7D8B9000810B543681C68094846
:1032F00008F08FF948B908490848094A992306F0A7
:1033000065FF0748992106F058FF23685B685C60F9
:1033100010BD00BFD8B90008C5D00008A8C5000876
:1033200087D00008014B036000207047D0BE000822
:103330002DE9F047064600AF0C46002936D0E94695
:103340008AB0D1E90012A3686D462148A8464FF023
:10335000050AC5E90501C5E9072348F810AF1D486E
:10336000424600234FF42151FFF776FCCD46D4E9C5
:1033700003126369AD461848C5F810A0C5E90501F8
:10338000C5E907231348002342464FF42151FFF7B4
:1033900063FCCD46E369114A0E48012107F0D4F8D9
:1033A000A3690F4A0B48012107F0CEF8012E07D17F
:1033B000EFF305830B4A0748103B314607F0C4F88A
:1033C0002146304604F056F8BD46BDE8F08700BF00
:1033D000F9D000080CBE000828D1000857D1000819
:1033E00066D1000894D1000808B5034B1B689847C4
:1033F000BDE8084000F006B8D800002030BFFFF755
:10340000FDBF00BF074A936893F90E10002907DB40
:10341000D26993421FBF044A536843F080535360FC
:10342000704700BF6008002000ED00E070B5294C37
:1034300006460D462848294907F027F9A36AD9040A
:103440003CD52548264907F020F91720A36A1A051C
:1034500004D52148234907F018F918201D4CA36A08
:103460009B0512D51C48204907F00FF9A36BA26AEF
:10347000100409D51D4A1848012107F065F81EB14E
:10348000A36A23F40043A3621920124CA36A5905CE
:1034900004D51148164907F0F8F81A20A36ADA058E
:1034A0000ED50D48134907F0F0F81B20094A936A1E
:1034B00043F47F43936200232B7070BD1620C5E751
:1034C000A36A9B04F2D504480B4907F0DEF81C20E0
:1034D000ECE700BF00ED00E00CBE0008A7D100083B
:1034E000BDD10008CED10008E1D10008FAD1000812
:1034F0000FD200082AD2000842D2000810B5204C92
:103500002049214807F0C1F8A36A990136D51E4821
:103510001E4907F0BAF81E20A36ADA0104D51A483A
:103520001B4907F0B2F81F20154CA36A1B0304D5F2
:103530001548184907F0A9F82120A36A590304D5B2
:103540001148154907F0A1F822200D4CA36A9A03EF
:1035500004D50D48114907F098F82320A36ADB032E
:1035600004D509480E4907F090F82420044A936ACC
:103570006FEA03436FEA1343936210BD1D20CBE74C
:1035800000ED00E071D200080CBE000889D20008EE
:103590009CD20008B6D20008D4D20008F9D20008A4
:1035A00013D300082DE9F8433F4D804689463F4834
:1035B0003F49174607F069F8AB6ADA0627D53D4957
:1035C0003A4807F062F81124AB6A1B0704D53A4960
:1035D000364807F05AF81224334DAB6A9E0718D5C7
:1035E0003649324807F051F86E6BAB6A1C0646D577
:1035F000334A2E483346012106F0A6FFB9F1000FE9
:1036000003D0AB6A23F08003AB62132403E01024E1
:10361000DAE76FF01506244DAB6AD80704D52949BF
:10362000224807F032F81424AB6A990604D52649DB
:103630001E4807F02AF815241B4DAB6ADA0602D49F
:10364000AB6A9B070AD56B68180507D5414630461B
:1036500000F096FAB0B180F309880224124B9A6AFE
:10366000920642BF5A6A22F400525A629A6A42F0A3
:10367000FF029A6200233B702046BDE8F8836FF09A
:103680001506C2E7AB6AD906E8D51049104A1148B9
:1036900040F25D1306F09AFD0F4806F097FD0C48C6
:1036A00040F25D1106F089FD00ED00E00CBE00085F
:1036B0003ED3000854D30008CED1000887D30008B9
:1036C0009FD30008B5D3000842D2000806D40008F2
:1036D000D4D30008A8C5000850D40008F0B5794B31
:1036E0008BB00446586800AFC0F30803002686F389
:1036F0001188BFF36F8F02F07F45B5F17F4F07D17F
:1037000002F00C05082D12D16F49704806F0BDFF7C
:103710006F49704A70484FF48B6306F057FD6F484D
:1037200006F054FD4FF48B616A4806F046FD15071C
:103730004CBF0C460126002CEAD00022FA71DA1E9A
:10374000092A00F29E80DFE802F0059497779C9C9E
:103750009C9C9C9A62495D485A4D06F096FF002356
:10376000FB71EB6A9A0705D55E49584806F08DFF54
:10377000002329E0EB6A002B01DA5B49F5E7EB6AED
:103780005B0069D55949514806F07FFF6B69A26912
:1037900043F480736B61BFF34F8FBFF36F8F6B691F
:1037A00032F8022C23F480736B61BFF34F8FBFF3A9
:1037B0006F8F4DF602739A4227D123684C4A4348D3
:1037C000012106F0C1FE2368FA79DAB907F108058C
:1037D00004F1200C206861682A4603C2083464455D
:1037E0001546F7D17A6A002E67D0C2F3080121B9D5
:1037F0006FEA52226FEA42227A6207F10801184604
:10380000FFF796FD2C37BD46F0BDAB6ADBB233B196
:10381000FA1D01212046FFF7C5FE0346D4E7AB6A37
:1038200013F47F4F04D0F91D0120FFF7FFFDF4E7EB
:10383000AB6AB3F5803F02D3FFF760FEEDE72D4999
:10384000244A254840F22A3306F0C0FC2A4806F0F4
:10385000BDFC40F22A3167E726491E4A1E4840F265
:103860002E3306F0B3FC254806F0B0FC40F22E31B2
:103870005AE7FA1D0021CDE7F91D0020D5E72049C0
:1038800073E7204A204910F4F87F6D468AB018BFCC
:1038900011466A46103BD3611C484FF400731384F1
:1038A0001B4BC2E9050142F8103F084800234FF4C2
:1038B0001151FFF7D1F9AD465AE722F4FF7222F019
:1038C000010299E700ED00E0A1D400080CBE000859
:1038D000CCD40008D4D30008A8C50008DFD4000861
:1038E0001DD5000834D5000855D5000863D500085B
:1038F00082D500086CC700089ED50008C2D5000814
:10390000F2D5000888D4000873D4000816D6000841
:1039100004000001024A536943F0100353617047E9
:1039200000ED00E0EFF30880EFF3098101B5724686
:10393000FFF7D4FE01BD00BF102080F311880B48B3
:103940004FF0AA014FF4046207F08EFE07484FF4CF
:103950000461401880F30988EFF3148002210843C2
:1039600080F31488BFF36F8F00F0CAF8801900202D
:10397000084B9B6883420BD1EFF3058343B1064BA1
:103980005A6842F080525A605A6A22F400425A62DF
:1039900005F0D2BA6008002000ED00E00A4A936802
:1039A0006FF00A01C3F89C100849C3F898004B68EF
:1039B00043F080534B60002383F31188BFF36F8F74
:1039C0009368D3F89C0070476008002000ED00E089
:1039D00010B50446EFF31183102383F31288BFF36D
:1039E0006F8F0A4BD8699860094B4FF000625A609C
:1039F0000022D0F89830C0F8982083F31188BFF3E4
:103A00006F8F00F027F9204610BD00BF600800202E
:103A100000ED00E001B507F06BFEBDE801400E4986
:103A20008A684FF040001044EFF3098C80E8F01FE3
:103A300074467046FFF7CCFFA64607498A6802F134
:103A4000400090E8F01F8CF3098801B504F074FA87
:103A5000BDE8014070470000600800201EF0040F20
:103A60000CBFEFF30880EFF30980816911F8021CA5
:103A70000229FFD001B506F004FE01BD40B20028C6
:103A800007DB044A4109012300F01F00834042F88C
:103A90002130704700E100E038B54B1C0F2B044685
:103AA0000D460FD9114A12491248582306F08EFBD1
:103AB000114829460F23224606F088FB0B4858215F
:103AC00006F07BFB40B20028ACBF00F160400B4A1F
:103AD0004FEA0313B8BF00F00F00DBB2AABF00F536
:103AE0006140135480F8003338BD00BF29D6000868
:103AF00060D60008A8C500087BD6000814ED00E0D9
:103B00000F4A08B50F4B22F07F029A60BFF34F8F28
:103B1000BFF36F8FD3F8882022F47002C3F8882097
:103B2000EFF3148323F0040383F31488BFF36F8F40
:103B300003F0C6FD05F046FC00F062F803F010FE4D
:103B40000000000800ED00E042F8203C009B42F835
:103B50001C3C0A49019B42F8183C029B42F8143C69
:103B600021F001014FF0807342F8043C42F8081C38
:103B70000023203A0266C0F89830704779A1000807
:103B80000A4A0346906878B113F1160FD0F88800FE
:103B900005D0A0F140029A4205D8834203D2814267
:103BA00028BF002070470020704700BF6008002039
:103BB00008B50D4B044698600E46154604F0BCF956
:103BC000204600F047F82C4686F309884FF00000A5
:103BD000064B984720464FF000014FF000024FF08F
:103BE0000003034C204700BF600800209BA600088C
:103BF00079A10008014B10221A61704700ED00E026
:103C0000044800231021C2180133662B82F80013E8
:103C1000F9D1704700E100E008B5EFF30583064AEB
:103C2000103B02EBC30152F8330049688847BDE8F6
:103C30000840FFF7E7BB00BF3CBA0008024B034A4D
:103C40000348012100F08CB8000002200000002091
:103C5000D0BE0008D0F88820054B403A1A60054ACB
:103C60004021C3E901121846012100F09FB800BFAE
:103C7000B809002000000B1508B503461048D0F81D
:103C80009020C2F30722013A934207D90D480E4A09
:103C9000012106F059FC6FF0150008BDC0F89830FE
:103CA0000A6822F01F021A4342F01002C0F89C205A
:103CB0008A6842F00102C0F8A0201846EDE700BF74
:103CC00000ED00E004BE0008BFD60008F0B50E46C7
:103CD00085B01F4604460025B5420DDA606810B372
:103CE00097B1431E18420AD0104A11482B460121B1
:103CF00006F02AFC6FF01502104605B0F0BD1F2833
:103D0000F2D921680B42EFD12368019306F0D9FC68
:103D1000A36801A90343D0B20393FFF7ADFF10F1ED
:103D2000160FE7D0421C01350C34D5E7E5D6000864
:103D300004BE0008044B0522C3F89420BFF34F8F44
:103D4000BFF36F8F704700BF00ED00E0BFF35F8FE0
:103D5000024B0022C3F89420704700BF00ED00E042
:103D600038B50D4D01232A780C46FFF7AFFF2870B8
:103D700016300FD1094A0A490A484FF4B47306F0C5
:103D800025FA0948214606F021FA04484FF4B47197
:103D900006F013FA38BD00BFC90C002008D7000890
:103DA0006CC70008A8C5000837D7000810B5144A2A
:103DB000002312780C46FFF789FF10F1160F08D088
:103DC000104A0021D2F89030C3F30723984210DB49
:103DD00010BD0D4A0D490E4840F2871306F0F6F962
:103DE0000C48214606F0F2F9074840F2871106F028
:103DF000E4F9C2F89800C2F8A0100130E2E700BF71
:103E0000C90C002000ED00E008D700086CC70008CE
:103E1000A8C5000863D700082DE9F04F7B4C7C490A
:103E2000D4F890300D68C3F307239D4285B013D9B1
:103E3000784A7949794840F29F1306F0C7F9D4F8D7
:103E4000902077482946C2F3072206F0BFF940F2D6
:103E50009F11704806F0B1F9FFF778FF496800221A
:103E6000954201F10C012DD16E4C6F4F25706846C3
:103E7000FFF758FADFF8B481DFF8B4910646002561
:103E8000AE4232D1237861490020D1F89020C2F3AC
:103E900007229342C0F2AF80FFF74CFFD1F8903079
:103EA000C3F30723082B00F0AC806249594A5B48F2
:103EB00040F20F2306F08AF95F4806F087F940F2D6
:103EC0000F21C6E7C4F8982051F80C3C23F01F03DB
:103ED000134343F01003C4F89C3051F8043C43F002
:103EE0000103C4F8A0300132BAE7009A02EB0513CF
:103EF0002901D3F80CA00AEA0700B0F5000F60D042
:103F00000AD8B0F5001F38D0B0F5800F4ED0B0F50C
:103F1000801F12D00135B3E7B0F1807F5CD0B0F1E3
:103F2000007FF7D19868D3F804A0525806F0C9FB77
:103F3000CDE901A240F480200BE09868D3F804A0FA
:103F4000525806F0BEFBCDE901A240F0885040F483
:103F500030200390207801A9FFF78EFE002846DA72
:103F60002D492C4A2D4840F2C91306F02FF9334849
:103F700006F02CF940F2C9116BE79868D3F804B049
:103F8000525806F09EFB1AF0010F40EA0800CDE9F6
:103F900001B20390DED02A491E4A20486D2306F064
:103FA00015F9284806F012F96D2152E79868D3F800
:103FB00004A0525806F085FBCDE901A240EA0900B1
:103FC000C7E79868D3F804A0525806F07AFBCDE909
:103FD00001A240F08270BCE79868D3F804A0525860
:103FE00006F06FFBCDE901A240F08870B1E72378BD
:103FF000013323708EE7C1F89830C1F8A000013377
:1040000043E7002005B0BDE8F08F00BF00ED00E001
:10401000DCBE000808D700086CC70008A8C5000867
:1040200090D70008C90C00200000F0FF0000081124
:104030000000020743D8000893D8000819D80008E8
:10404000C4D70008EAD7000808B50B4BC3F10053EA
:1040500003F50033B3F5005F0CD20849084A09485C
:10406000892306F0B3F8084806F0B0F8044889211F
:1040700006F0A3F8002008BD80330020F3D8000824
:10408000C3D80008A8C500083CD90008014B186037
:10409000704700BFDC0000202DE9F0410F4E104FAB
:1040A000054600244FF001082B7853FA84F01F28AE
:1040B0000DDC726908FA00F333EA020207D173617A
:1040C00057F830301BB107EBC002516898476A7847
:1040D0000134E3B29A42E7D2BDE8F0810004014026
:1040E000C4090020044B184400230133994200F80E
:1040F000012BFADC704700BF0C01002010B4064B06
:10410000064902460C6818560123934023430B606E
:1041100010BCFFF7B3BC00BF0C010020000401403D
:104120001F2806DC034901220B68824023EA0203B0
:104130000B6070470004014003292AD8DFE801F032
:10414000020E141F134B01229968824021EA0201DA
:104150009960D96821EA0202DA6070470D4B0122AA
:10416000996882401143F3E70A4B0122D9688240E3
:104170001143D960996821EA02029A6070470123CD
:1041800003FA00F0034B9A6802439A60DA6810431E
:10419000D86070470004014030B50A4B53F83040F6
:1041A0008C4204D103EBC0056D68954205D034B94B
:1041B00043F8301003EBC0035A60002030BD6FF0AD
:1041C0000F00FBE7C4090020034B002243F8302016
:1041D00003EBC0035A607047C4090020F8B50C799E
:1041E00014F0200206D02D492D4806F0D1FA6FF0C8
:1041F0001500F8BD0B78082B01D02A49F4E74B785D
:10420000042B01D02849EFE74D88406804F01F04D3
:104210000168ADB143F6FF739D421BD0234F00F1FF
:10422000160636F8023F3B439BB29D4209D001324D
:10423000082AF6D11E491A4806F0AAFA1D49D3E702
:104240002A4690F928303BB1013BDBB2012B22D941
:104250001949F0E70722F4E7012304EB4400092C95
:1042600003FA04F343EA846385BF1E3843EA00532C
:1042700043EA005343F00073D80D00F0040001F14D
:104280001404C3F30453215807259D4021EA050176
:104290009A400A4322500020ABE700BFEFD9000844
:1042A000ACBD000817DA00082CDA000800C0FFFFD8
:1042B00046DA00089FDA000869DA000838B54FF0DE
:1042C000A0431A68520745D52A4C1A6CD4F894308A
:1042D000991CC4F894101A8094F8A53094F8A4207E
:1042E0000133DBB29A4284F8A530254632D100234F
:1042F00084F8A530636E9BB3E36FB4F888203BB1BC
:104300001D4804F164019847012811D0022822D0E9
:10431000B4F88830B4F884209A421CD90133A4F848
:104320008830A36F4BB9BDE83840124806F034BA64
:10433000D4F89830C4F89430F3E7BFF35B8F55E8B6
:10434000003F5A1E45E800210029F8D1BFF35B8FDA
:10435000012BE8DC38BDA36F13B1084807F047FA1A
:104360004FF6FF73A4F8A6300548BDE8384003F0C7
:1043700005BC00BF0000002000BA000808000020B3
:104380005000002037B543681D680446284606F0F3
:1043900042FA63681A68936823F0404323F03F03AE
:1043A00043F0004393609368002BFCDB63680D4887
:1043B00099688368DB687BB90B490C4806F0E8F91B
:1043C000019B1BB90A49094806F0E2F9284603B0E7
:1043D000BDE8304006F006BA01AA98470028EFDA97
:1043E000EAE700BF10B90008B5DA0008ACBD000864
:1043F000CFDA00082DE9F347D0F804800769D8F830
:1044000000600546DFF8D490484607F002F948B945
:104410003349344806F0BCF96FF01204204602B06C
:10442000BDE8F0874FF6FF73A7F8A630C7F89050A5
:104430006C68D9F80830A1681B68D4F800A0484619
:10444000984770B9BAF1A04F22D02749274B284A84
:104450008A4508BF13469A68216922F47C120A43F0
:104460009A60D8F8140001AA002106F028FF041E63
:1044700007DB019B00221979186802F017FA041E65
:1044800008DA1C4A17482346012106F05DF8C5E703
:10449000174BE0E7B36823F0204323F03F03B360FA
:1044A000B36823F0104323F03F0343F08053B3601D
:1044B000142007F0A0F8D8F8043003B19847284634
:1044C000FFF760FFF36823F47E63F360BB6C1BB9F6
:1044D00007F1400003F052FB00249FE710B90008E9
:1044E000E3DA0008ACBD00080001005000070050EE
:1044F0000003005002DB00082DE9F04F036987B08C
:10450000403307460E4603934FF0FF324FF0FF3320
:10451000039803F08BFB7B683C691D68B368C4F8A3
:104520009430D6F80490C4F8A0904846FBF78AFF70
:10453000002384F8A40084F8A530B9F1000F04D159
:104540009649974806F024F907E010280EDD954AB1
:1045500093481023012105F0F7FF6FF0150403982D
:1045600003F00CFB204607B0BDE8F08F7A681068B6
:1045700092F92AC02832634502DB13D18A49E0E769
:1045800052F8041F96F810E0BEEBD14F2AD15FFA23
:1045900081F9B9F1FF0FC1F30428C1F3423BC1F324
:1045A000024A21D17B680493D3F800E03B69D3F839
:1045B000A0004FF000090EF1300870BB94F8A42061
:1045C0003368520013B19B8903FB0222F3689342C4
:1045D00066D2734800920121744A05F0BFFF6FF064
:1045E0000B04BCE70133C6E750F8093023FA08F39F
:1045F0000BEA03039A45D5D006F00DF97B681968DC
:1046000051F809300BFA08FB23EA0B030AFA08FAFF
:1046100043EA0A0341F80930C4E790FAA0F2B2FA7B
:1046200082F2012303FA02FB092A4BEA826302EBBE
:104630004201049A88BF1E3992F929208ABF43EAB1
:10464000015343EA015343F00073012A059322D139
:10465000574A5FFA89FA52F82A104FEA911C0CF077
:104660000C0C01F01F0158F80C2013461F228A4041
:1046700023EA0202059BC3F384638B401A4348F884
:104680000C204C4ADEF8303052F82A2023F00F0379
:104690001343CEF8303020EA0B0009F101098CE712
:1046A000727C002A4FD12B6923F4806323F003032B
:1046B0002B61B37C13B13846FFF764FE284606F041
:1046C00091F810232B606B6843F004036B6037464E
:1046D0000FCF04F164050FC53B682B6000272766E8
:1046E0003368002B56D00FCB04F1780585E80F0016
:1046F0006566A4F8887000284CD0BFF35B8F54E83F
:10470000003F44E80072002AF9D1BFF35B8FA06F2D
:10471000633047F1000164220023FBF7DFFD002234
:10472000CDE90001002304F1080005F073F94FF012
:10473000FF324FF0FF3304F1500003F077FA00B17D
:104740002066246E0BE7082A22D82B6923F48063A5
:1047500023F0030343F001032B61174B53F822901E
:10476000164B53F822A02B6903F01C039A4504D181
:104770002B6903F4F07399459BD0284606F04BF85B
:104780002B6949EA0A0923F4FE7343EA09038FE718
:104790000B49D6E6204605F0FFFFC8E720DB0008FE
:1047A000ACBD000835DB00085EDB000871DB0008EB
:1047B000ECBF0008ACBF000888BF000864BF000859
:1047C00096DB00082DE9F04F5D881F469B88013578
:1047D00087B01D44FB88BDF844901D44109B88465B
:1047E0009246002B00F0C480B9F57A7F80F0C0803B
:1047F000836805A99B6A9847002840F0BC80B9F1FE
:10480000000F0AD15D4B109A9A4239D85C4B40F2A6
:104810006B399A4288BF4FF44879059B0093109BEF
:104820005D43009BB3FBF5F5BAF808309D4238BFF5
:104830001D46109B03FB05FB6FF0004301933B8972
:10484000AB4220DA0198B8F80630B8F804205B08CB
:10485000934228BF1346A8F80030BAF800209342CC
:1048600003D93A889A4228BF1A466FF0004398420B
:10487000A8F8002008BF6FF0850007B0BDE8F08FF2
:1048800040F2EE29C9E7009BB3FBFBF00BFB1033B2
:104890003BBB81B27B88B7F804E003934FF47A7690
:1048A00000FB09F2B2FBF6F2BAF80660BAF804C0EF
:1048B00002968A1A92B20EEB0304B242BAF80230A0
:1048C000A4B212D9FE88964228BF16464A1E921BF1
:1048D00092B294420BD20E1BFA88013EB6B2B2429B
:1048E00010D2109B01359B44A9E7029EEEE70CEB2A
:1048F0000304A4B2944232D9091B029A01398EB240
:10490000B242EED8B3EB540F4FEA540203D2039BEA
:10491000934228BF1346E21A92B2964521D2A4EBE5
:104920000E039BB272464FF47A7104FB0114019995
:10493000B4FBF0F4A14534BFA4EB0900A9EB0400DB
:104940008842CED2A8F80230A8F80420A8F8066061
:10495000A8F8085000283FF476AF0190C1E714464C
:10496000D0E7944582BFA4EB0C039BB26246DAE722
:104970006FF0150081E76FF004007EE700350C0052
:1049800020A107002DE9F04788B002AF1E46D0F8FD
:1049900008A0BB6B054690460C4631B362790968A6
:1049A000D20706D5B1F1005F25D3274C1D2008237F
:1049B00005E0B1F5006F1ED3244C0B2003236D4698
:1049C0008CB002AA224E5162C2E907034FF4007371
:1049D0001385204BC2E9056442F8103F1E480023AE
:1049E0004FF45151FEF738F9AD466FF01500183706
:1049F000BD46BDE8F087E3B907F104091946012275
:104A0000484606F04BFE154B0093CDF80490DAF8BB
:104A100014A04246334621462846D0470028E6D116
:104A20004FF0FF324FF0FF33484603F0FFF878694C
:104A3000DDE7FA6BCDE900322146DAF81490424600
:104A400033462846C847D2E7C2DB0008CBDB000864
:104A5000D4DB000806000001B4BD0008CBA80008A4
:104A6000F8B5856800AF41B33BB31C7A1E6814F0FB
:104A7000010F5C6825D0B6F1005F02D2B4F1005F8F
:104A800029D316481D2108236D468EB06A46DFF8EB
:104A900050C0D462C2E90713C2E909634FF400733E
:104AA0001386104BC2E905C042F8103F0E480023A0
:104AB00044F24041FEF7D0F8AD466FF01500BD4618
:104AC000F8BDB6F5006F02D2B4F5006F03D3074806
:104AD0000B210323D8E7AC69A047F0E7C2DB00084D
:104AE00001DC000808000001B4BD0008CBDB0008B1
:104AF00073B514461E4682683032074D8368AC4257
:104B000003F13A0305D8CDE90046FFF75BFE02B09A
:104B100070BD6FF01500FAE740420F0073B5144600
:104B20001E4682684832074D8368AC4203F1520347
:104B300005D8CDE90046FFF745FE02B070BD6FF025
:104B40001500FAE700127A0037B543689B691B68C5
:104B50000D469847044630B1044A00902B4604485D
:104B6000012105F0FBFC204603B030BD4EDC0008FF
:104B7000BCBD000837B543689B695B680D46984724
:104B8000044630B1044A00902B460448012105F048
:104B9000E5FC204603B030BD71DC0008BCBD000858
:104BA0002DE9F04F9B4699B04368044690468946EC
:104BB0004822002106A8DF6905F01EF903AA414634
:104BC0002046FFF7C1FFC0B9DFF86CA1039D6B065B
:104BD00013D0C5F3052505EBC50109EBC10189B269
:104BE00004AA08232046019105F09DFE0199024682
:104BF00030B15249524805F0AAFE19B0BDE8F08F15
:104C00009DF81630C3F303008DF81C009DF81300C7
:104C1000860642BF9DF81D6046F002068DF81D60B5
:104C20009E0642BF9DF81D6046F004068DF81D608B
:104C300003F00F02DB0642BF9DF81D3043F008036E
:104C40008DF81D30060648BF9DF81D309DF8176091
:104C500044BF43F010038DF81D30400606F07F0678
:104C60001FD5049BC3F31C0306939DF81D3043F02E
:104C700001038DF81D301AF80230402B56D89DF8EC
:104C80001D20920713D493B10333083108AA03F40B
:104C9000FE7389B2204605F046FE024638B1294926
:104CA000A8E7BDF81230C3F38A030693E3E79DF843
:104CB0001D3013F0010F33B229D0BA7BB2420BD8AA
:104CC0002149224A224840F2F92305F07FFA40F2B6
:104CD000F9211E4805F071FABA6802EBC30152F8D7
:104CE00033304A6813B106A9204698472A465946E8
:104CF0002046FFF73FFF00287FF47FAF03AA41461D
:104D00002046FFF721FF00283FF460AF75E77A7B6C
:104D1000B24209D80F490D4A0D4840F2FE2305F072
:104D200055FA40F2FE21D4E77A68D6E70A4A0448E9
:104D3000012105F00AFED9E722E3000895DC00080E
:104D4000BCBD0008BCDC00080BDD0008E1DC00088D
:104D5000A8C5000823DD00083BDD00082DE9F3416C
:104D60000669103605464FF0FF324FF0FF333046EC
:104D700005F0F2FD01AA18212846FFF7E5FE0446DA
:104D800048BB019A182122F0100228460192FFF731
:104D9000F1FE0446F8B902F0A5F901AA0746182168
:104DA0002846FFF7D1FE0446A8B9DFF84C80019BE6
:104DB0001B0710D502F096F9C01B404512D9019A85
:104DC000182142F0100228460192FFF7D3FE041E7C
:104DD00008BF6FF00A04304605F0C0FD204602B05F
:104DE000BDE8F08101AA18212846FFF7ADFE002892
:104DF000DDD00446EFE700BF4066030170B50469EB
:104E0000237905460E462BBB10344FF0FF324FF08E
:104E1000FF33204605F0A0FDF38832883189013B3D
:104E2000013A03F07F0343EA4263B288013A120277
:104E300002F47F421343094A013902EA014228463B
:104E40001A431C21FFF796FE0546204605F086FD15
:104E5000284670BD6FF00F05FAE700BF0000FF01A4
:104E60002DE9F74FD0F81080D0F804A098F804305E
:104E70000546002B6BD1DAF8000078B18368D8F8CA
:104E800000101B689847044640B102463149324839
:104E900005F05DFD204603B0BDE8F08F2E691036A9
:104EA0004FF0FF3230464FF0FF3305F055FD01AAB9
:104EB00018212846FFF748FE80B1304605F04EFD28
:104EC0002548264A012105F040FDDAF8000010B11E
:104ED00083685B6898476FF00404DBE7019A182148
:104EE00022F0010228460192FFF744FE0028E4D197
:104EF00006F06FFC01AA0746894628461821FFF7ED
:104F000023FE04460028D8D140F2E93B019BDB0791
:104F100008D4304605F022FD002CD1D1012388F8B9
:104F20000430B7E706F055FCC01B61EB090158459A
:104F300071F1000108DA01AA18212846FFF704FEE2
:104F40000028E3D00446E4E76FF00A04E1E76FF0DD
:104F500077049FE74CDD0008BCBD000876DD000843
:104F60002DE9F3410729066980460D460AD90A460C
:104F70002B482C4905F0EBFC6FF08504204602B06D
:104F8000BDE8F0813379002B46D106F110074FF0D0
:104F9000FF324FF0FF33384605F0DEFC6A46182139
:104FA0004046FFF7D1FD0446002831D101AA102167
:104FB0004046FFF7C9FD044650BB009BE80745BFCC
:104FC00043F08003009323F08003019B58BF0093BC
:104FD000009A44BF43F010030193A9074CBF42F06D
:104FE000200222F020026B074CBF42F4407222F4F0
:104FF0004072182140460092FFF7BCFD044638B9C4
:10500000019A10214046FFF7B5FD044600B935600E
:10501000384605F0A3FCB1E76FF00F04AEE700BF20
:10502000BCBD000890DD00082DE9F341502101AA24
:1050300045680446FFF788FD002835D11C4F1D4EFA
:10504000DFF87480019A12F099022DD05021204689
:10505000FFF790FD40BB019BD80705D5E98EA8233B
:10506000A4222046FFF79CFD019BD90605D5298F78
:10507000B823B4222046FFF793FD019B1A0704D5FD
:105080003A460121304605F060FC019B1B0604D521
:1050900042460121304605F058FC01AA5021204625
:1050A000FFF752FD0028CDD002B0BDE8F08100BF6F
:1050B000A9DD0008BCBD0008BFDD00082DE9F04FE8
:1050C00089B004AA5021D0F810900446FFF73CFDA7
:1050D000002840F08B806A4E049A324000F08680AF
:1050E00050212046FFF746FD00287FD1049B13F096
:1050F000607F34D02769636805AA0DF10F0120464F
:10510000D7E902ABD3F81C8005F0C7FC38BB9DF88B
:105110000F50BAF1000F04D0059A5B46294620468D
:10512000D047032D1BD14FF0FF32D4212046FFF78B
:1051300021FD054698B98246243798F80C309D42E7
:1051400057D306AA18212046FFF7FEFC38B9069A65
:10515000182122F0010220460692FFF70BFD049B66
:10516000DD041FD56768D4F810A0D7F81C8005AA05
:10517000F4212046FFF7E8FCA0B9059DA80611D050
:10518000B98FC5F3042501EBC50106AA082389B22E
:10519000204605F0C8FB0246002841D039493A486C
:1051A00005F0D5FB049B190408D5384A364801217F
:1051B00005F0CBFB09F1240002F0E0FC049B9A000F
:1051C00004D5334A3048012105F0BFFB049B9B0303
:1051D00004D5304A2C48012105F0B7FB04AA502120
:1051E0002046FFF7B1FC00283FF476AF09B0BDE8D8
:1051F000F08FD8F8003053F835B0EA00BBF1000F5B
:105200000CD043F835A0D8F8003013446FF071018A
:105210005A682046D847384602F0B0FC01358CE782
:105220002A46F82120469DF81FB0FFF7A3FC05464B
:105230000028B7D198F80C309B450BD31649174876
:10524000174A4FF40A7304F0C1FF15484FF40A716E
:1052500004F0B3FFD8F8001001EBCB030FFA8BF08A
:105260005A6851F830B0019241F830500AF12400E8
:1052700002F084FC019A29462046D84777E700BF10
:105280000090823BD5DD0008BCBD000810DE0008A0
:1052900025DE000840DE0008FBDD0008A8C5000888
:1052A000E1DC00082DE9F04F14460A79D0F804A09B
:1052B0000569DAF81C800F2A0F4606461146844815
:1052C00028BF0F2189B010F801900021CDE9061107
:1052D00079798801C1F3400C00F0400040EA4C109D
:1052E0008DF81B0002F00F00C1F3C00C60F07F00CE
:1052F00040EA0C10C1F3800C40EA4C100F298DF8E5
:105300001E000AD90A467348734905F020FB6FF066
:10531000850B584609B0BDE8F08F2868400708D4CF
:1053200011F00C0F05D06D4A6A48012105F00DFB04
:10533000EDE7B9F1400F0AD940230093684A654868
:105340004B46012105F00AF96FF0150BE1E749071B
:1053500006D50F2A08D963495E4805F0F8FAF3E745
:10536000082A01D96049F7E72A790293002A00F058
:10537000A58005AA44213046FFF7E6FB83460028B6
:10538000C7D1059A100600F19C8005F12403039310
:10539000029B224605F1240002F048FC83460028C7
:1053A00040F0928034354FF0FF334FF0FF32284603
:1053B00005F0D2FA98F80C305B452EDC4FF0FF3444
:1053C0007B793A688DF81F40D9074CBF069BBDF822
:1053D0001A30BAF83E104BBF62F31C0362F38C0321
:1053E0000693ADF81A3004EBC403DB009BB21944FA
:1053F000029306AA082389B2304605F09BFA834639
:10540000A8B13A490246334805F0A1FA284605F00A
:10541000A5FA039802F0B2FB7BE7D8F8002052F817
:105420003B205C46002ACBD00BF1010BC4E77B7913
:105430009B0716D4B9F1000F13D0BAF83E20029999
:105440000832114409F1030303F4FE7307F1080263
:1054500089B2304605F06EFA834610B124490246FF
:10546000D1E798F80C309C420BD322492248234ABA
:1054700040F2044304F0AAFE204840F2044104F044
:105480009CFED8F80030129A43F83420D8F8003047
:10549000E2001344139A5A600122A240D021304600
:1054A000FFF768FB834628B1D8F80030002143F8A5
:1054B0003410ABE7284605F051FA2AE76FF0720B7B
:1054C00027E76FF0710B24E76FF00A0B21E700BFAD
:1054D00022E30008BCBD00085BDE00087EDE000899
:1054E000A9DE0008D9DE0008FBDE00081DDF000889
:1054F00047DF00086FDF0008A8C50008E1DC0008EE
:105500002DE9F347884619685B68D0F804A006695E
:10551000DAF81C709146314AC3F30A0302EA0142E9
:1055200043F0004313431036019305464FF0FF3319
:105530004FF0FF32304605F00FFA7B7B0024A34288
:105540000ADC274A2748022105F0FFF9304605F01A
:1055500005FA6FF01B053DE07A6852F83420EAB195
:105560000134ECE7304605F0F9F97B7B9C420BDB1C
:105570001D491E481E4A40F2564304F027FE1C48AF
:1055800040F2564104F019FE7B6843F834807B6892
:1055900003EBC4032546C3F804901BE09DF80720E5
:1055A00004F00103013363F3C5028DF80720BAF854
:1055B0003210042301EB840128460DEB030289B26B
:1055C00005F0B8F905460028CCD00A4905482A4616
:1055D00005F0BDF9284602B0BDE8F0870000FF07DE
:1055E000CADF0008BCBD0008B1DF0008A8C500087C
:1055F000E1DC000885DF00082DE9F74F1C7AD0F8C0
:1056000004B0012CDBF81C600546884691469C4698
:105610000AD940494048224605F099F96FF08505BE
:10562000284603B0BDE8F08F002C4CD00024CDF804
:105630000340009A1B688DF8074063F31C02DCF8F6
:1056400004300092019A076923F0604302F000528F
:1056500043F000431343103701934FF0FF324FF0F4
:10566000FF33384605F078F9B37B9C420ADB2B4ABE
:105670002948022105F069F9384605F06FF96FF005
:105680001B05CDE7B26852F834200AB30134ECE7C9
:10569000384605F063F9B37B9C420BDB2049214877
:1056A000214A40F28A4304F091FD1F4840F28A41AA
:1056B00004F083FDB36843F83480B368534425464F
:1056C000C3F8049023E003B0BDE8F04FFFF718BF24
:1056D0009DF80320BBF8341004F00103013363F399
:1056E000471201EBC4018DF80320284608236A46BF
:1056F00089B205F01FF94FEAC40A05460028C7D051
:105700000A4905482A4605F022F9002D88DB737BFB
:105710001D4485E7EADF0008BCBD000827E000085B
:105720000EE00008A8C50008E1DC000885DF0008DD
:105730002DE9F041D0F804800769D8F81C600C1EF0
:10574000054606DA224625492548BDE8F04105F020
:10575000FEB810374FF0FF324FF0FF33384605F0F8
:10576000FBF8727B944222DBB37BA21A934208DCE3
:105770001A491B4805F0EBF83846BDE8F04105F042
:10578000EDB8B368002143F83210B36803EBC203ED
:1057900028465960B8F8341001EBC20189B20822DA
:1057A00005F0CFF802460028E6D00E49E1E773681D
:1057B000002243F83420736803EBC40328465A6080
:1057C000B8F8321001EB8401042289B205F0B9F86F
:1057D00002460028D0D00449CBE700BF47E00008CC
:1057E000BCBD000862E000088EE000082DE9F0472B
:1057F000076944683B79D4F81C800646002B40D0EA
:105800004FF47A72002305F0ABF8054648B11E4A02
:105810001E48012105F099F86FF004052846BDE8FF
:10582000F087206858B183685B689847044630B1B8
:1058300002461749154805F08AF82546EEE7002488
:10584000304605F063F9A1463C71243798F80C30D6
:105850009C42E3D2D8F8003053F834A0E200BAF109
:10586000000F0CD043F83490D8F8003013446FF098
:1058700072015A683046D047384602F07FF9013449
:10588000E4E76FF07705C9E7BAE00008BCBD00089F
:10589000D4E00008F0B5002389B04568ADF81030B9
:1058A000CDE90233CDE90533ADF81C30AB69EE69C3
:1058B0001A68076904465AB99349944A944840F2D1
:1058C000655304F083FC40F26551904804F075FC88
:1058D0005A684AB98F498D4A8D4840F2665304F0A0
:1058E00075FC40F26651F0E79A684AB98A49874ADE
:1058F000874840F2675304F069FC40F26751E4E7DF
:10590000DA684AB98549814A81484FF4AD6304F0A9
:105910005DFC4FF4AD61D8E71B694BB980497B4A08
:105920007B4840F2695304F051FC40F26951CCE7E6
:105930004EB97C49754A764840F26A5304F046FCF9
:1059400040F26A51C1E7327BEB8D9A4209D9764920
:105950006E4A6F4840F26C5304F038FC40F26C51D0
:10596000B3E7727B6B8C9A4209D97049674A6848E1
:1059700040F26D5304F02AFC40F26D51A5E7B27B72
:10598000AB8C9A4209D96A49604A614840F26E5329
:1059900004F01CFC40F26E5197E707F1100005F08F
:1059A00076FE07F1340005F072FE327B114607F1F6
:1059B000240005F073FE286850B105F02AFE38B9BE
:1059C0005C4A5D48012104F0C0FF6FF012000AE05C
:1059D0002046FFF7C3F940B1584A5748012104F067
:1059E000B4FF6FF0040009B0F0BD4FF47A720023E9
:1059F000204604F0B5FF08B1514AEEE7204605F015
:105A000085F801AA18212046FFF79EF80028EAD160
:105A1000019A182122F4697220460192FFF7AAF830
:105A20000028E0D101AA10212046FFF78DF80028B8
:105A3000D9D1019A102122F0100220460192FFF7DD
:105A400099F80028CFD101AA80212046FFF77CF8E1
:105A50000028C8D1019A802142F02B0220460192F1
:105A6000FFF788F80028BED1EA682B8A02A92046F1
:105A7000FFF73EF8163001D1324AAEE76A696B8A09
:105A800005A92046FFF74AF8163001D12E4AA4E7AF
:105A900002A9204604F01DFF024620B12B492648EA
:105AA00004F055FF91E705A9204604F025FF0246C2
:105AB00008B12749F3E7274A019254212046FFF70E
:105AC00059F800288FD19922582120460192FFF7DA
