:020000040800F2
:10000000402E0020E12C000825260008CD2C0008F9
:10001000CD2C0008CD2C0008CD2C000800000000DD
:10002000000000000000000000000000052E000895
:10003000CD2C000800000000BD2D0008315E000836
:10004000C12F0008C12F0008C12F0008C12F0008D0
:10005000C12F0008C12F0008C12F0008C12F0008C0
:10006000C12F0008C12F0008C12F0008C12F0008B0
:10007000C12F0008C12F0008C12F0008C12F0008A0
:10008000C12F0008C12F0008C12F0008C12F000890
:10009000C12F0008C12F0008C12F0008C12F000880
:1000A000C12F0008C12F0008C12F0008C12F000870
:1000B000C12F0008C12F0008C12F0008C12F000860
:1000C000C12F0008C12F0008C12F0008C12F000850
:1000D000C12F0008C12F0008C12F0008C12F000840
:1000E000C12F0008C12F0008C12F0008C12F000830
:1000F000C12F0008C12F0008C12F0008C12F000820
:10010000C12F0008C12F0008C12F0008C12F00080F
:10011000C12F0008C12F0008C12F0008C12F0008FF
:10012000C12F0008C12F0008C12F0008C12F0008EF
:10013000C12F0008C12F0008C12F0008C12F0008DF
:10014000C12F0008C12F0008C12F0008C12F0008CF
:10015000C12F0008C12F0008C12F0008C12F0008BF
:10016000C12F0008C12F0008C12F0008C12F0008AF
:10017000C12F0008C12F0008C12F0008C12F00089F
:10018000C12F0008C12F0008C12F0008C12F00088F
:10019000C12F0008C12F0008C12F0008C12F00087F
:1001A000C12F0008C12F0008C12F0008C12F00086F
:1001B000C12F0008C12F0008C12F0008C12F00085F
:1001C000C12F0008C12F0008C12F0008C12F00084F
:0801D000C12F0008C12F000837
:1001D800FFFFFFFFFFFFFFFFFFFFFFFFFFFFFFFF27
:1001E800FFFFFFFFFFFFFFFFFFFFFFFFFFFFFFFF17
:0801F800FFFFFFFFFFFFFFFF07
:1002000090F800F06DE9024520F007016FF0000C56
:1002100010F0070491F820F040F049804FF00004FE
:100220006FF00700D1E9002391F840F000F10800D9
:1002300082FA4CF2A4FA8CF283FA4CF3A2FA8CF311
:100240004BBBD1E9022382FA4CF200F10800A4FA78
:100250008CF283FA4CF3A2FA8CF3E3B9D1E90423CC
:1002600082FA4CF200F10800A4FA8CF283FA4CF303
:10027000A2FA8CF37BB9D1E9062301F1200182FABD
:100280004CF200F10800A4FA8CF283FA4CF3A2FAC3
:100290008CF3002BC6D0002A04BF04301A4612BAD1
:1002A000B2FA82F2FDE8024500EBD2007047D1E9D4
:1002B000002304F00305C4F100004FEAC50514F063
:1002C000040F91F840F00CFA05F562EA05021CBF34
:1002D00063EA050362464FF00004A9E77BB972B9EF
:1002E0000029BEBF00204FF0004106E008BF0028F3
:1002F0001CBF6FF000414FF0FF3000F057B8ADF178
:10030000080C6DE904CE002909DB002B1ADB00F094
:10031000E9F8DDF804E0DDE9022304B0704740426B
:1003200061EB4101002B1BDB00F0DCF8DDF804E0A1
:10033000DDE9022304B0404261EB4101524263EB2C
:1003400043037047524263EB430300F0CBF8DDF800
:1003500004E0DDE9022304B0404261EB4101704753
:10036000524263EB430300F0BDF8DDF804E0DDE941
:10037000022304B0524263EB4303704753B94AB9B6
:10038000002908BF00281CBF4FF0FF314FF0FF309D
:1003900000F00CB8ADF1080C6DE904CE00F0A2F845
:1003A000DDF804E0DDE9022304B07047704700BFC8
:1003B000844641EA000313F003036DD1403A41D370
:1003C00051F8043B40F8043B51F8043B40F8043B2F
:1003D00051F8043B40F8043B51F8043B40F8043B1F
:1003E00051F8043B40F8043B51F8043B40F8043B0F
:1003F00051F8043B40F8043B51F8043B40F8043BFF
:1004000051F8043B40F8043B51F8043B40F8043BEE
:1004100051F8043B40F8043B51F8043B40F8043BDE
:1004200051F8043B40F8043B51F8043B40F8043BCE
:1004300051F8043B40F8043B51F8043B40F8043BBE
:10044000403ABDD2303211D351F8043B40F8043B5E
:1004500051F8043B40F8043B51F8043B40F8043B9E
:1004600051F8043B40F8043B103AEDD20C3205D36E
:1004700051F8043B40F8043B043AF9D2043208D066
:10048000D2071CBF11F8013B00F8013B01D30B88D8
:1004900003806046704700BF082A13D38B078DD0B6
:1004A00010F003038AD0C3F10403D21ADB071CBF88
:1004B00011F8013B00F8013B80D331F8023B20F8F2
:1004C000023B7BE7043AD9D3013A11F8013B00F82B
:1004D000013BF9D20B7803704B7843708B788370B3
:1004E000604670472DE9F04786468C460846089ED0
:1004F000154674461946002B40F0C2808542B2FA78
:1005000082F245D94AB1C2F1200300FA02FC2EFA68
:1005100003F3954043EA0C0C94404FEA154EA8B201
:10052000BCFBFEF8230C0EFB18CC08FB00F943EAD9
:100530000C43994528D9EB1808F1FF3704D29945A7
:1005400002D9A8F102072B44A3EB0903A4B2B3FB21
:10055000FEFC0EFB1C330CFB00F044EA0344A042FB
:1005600014D92C190CF1FF3304D2A04202D9ACF1FA
:1005700002032C44241A43EA07401EB1D44000234E
:1005800034607360BDE8F0874746DDE76346F1E716
:1005900092BB431B01214FEA154EAFB2B3FBFEFCE9
:1005A000200C0EFB1C330CFB07F840EA0343984574
:1005B00062D9EB180CF1FF3004D2984502D9ACF1A6
:1005C00002002B44A3EB0803A4B2B3FBFEFC0EFB1A
:1005D0001C330CFB07F744EA0344A7424ED92C19FD
:1005E0000CF1FF3304D2A74202D9ACF102032C4430
:1005F000E41B43EA0040C0E7C2F1200320FA03F104
:10060000954090402EFA03F303434FEA154EAFB2E4
:10061000B1FBFEFC0EFB1C10190C0CFB07F841EAA9
:100620000041884504FA02F422D969180CF1FF3020
:1006300004D2884502D9ACF102002944A1EB08019B
:100640009BB2B1FBFEFC0EFB1C110CFB07F743EA4F
:1006500001439F420ED9EB180CF1FF3104D29F42A7
:1006600002D9ACF102012B44DB1B41EA004192E7C5
:100670006046E3E76146F7E76046A3E76346B7E70E
:10068000834206D916B9002108467BE7C6E900E097
:10069000F9E7B3FA83F78FB9834201D3724508D8DB
:1006A000BEEB020460EB030301209C461EB900214F
:1006B00068E73846FAE7C6E9004CF8E7C7F1200CCE
:1006C000BB4022FA0CF41C432EFA0CF120FA0CF376
:1006D000B84001434FEA14490EFA07F5B3FBF9F8A5
:1006E0001FFA84FE09FB18300B0C08FB0EFA43EAD4
:1006F00000439A4502FA07F240D9E31808F1FF30A7
:1007000004D29A4502D9A8F102002344A3EB0A03BC
:1007100089B2B3FBF9F809FB183308FB0EFE41EA76
:1007200003418E452CD9611808F1FF3304D28E4560
:1007300002D9A8F10203214443EA0040A0FB029839
:10074000A1EB0E014145CE46434602D306D14D45AD
:1007500004D2B9EB020E68EB04030138002EA6D0D8
:10076000B5EB0E0261EB030101FA0CFC22FA07F370
:100770004CEA0303F940C6E9003198E74046C5E773
:100780004346D9E7014B186808F043BD580C0020D8
:100790001FB50023CDE900330C796A460731D8B282
:1007A000844206D9013311F8010F02F8010B082B1E
:1007B000F5D1694602A808F057FD9DF80C20054BBD
:1007C00002991868B2FA82F2520908F010FD04B0DA
:1007D00010BD00BF580C002008B5044C206800F084
:1007E000D9F94FF47A7009F007FFF7E7580C0020A9
:1007F00008B5054C206808F0B1FC00214FF4FA6000
:1008000007F0EEFAF6E700BF540C00202DE9F041A6
:1008100088B00024434B444E4449029303222346AC
:100820002046CDE9004408F03EFC304600F038F99F
:10083000034660B93E4A3D490093CDE901320122A9
:1008400008F031FC4FF0FF3008B0BDE8F081394FBF
:10085000394DDFF8E8803168384600F055FA2F60EE
:1008600031463748374F00F08DF93549404608F09A
:10087000B8FCC7F80080DFF8D0802A6831464046CF
:1008800008F066FC314B2868C3F8008000F0FCF9E2
:10089000034608B92E4ACEE723462E4A28684FF46D
:1008A000807100F093F92C4A286823464FF4806148
:1008B00000F08CF9386808F0ACFC0026002704230F
:1008C000CDE90243CDE90667CDE90044234B244935
:1008D00004944FF48062234806F010FB224921481B
:1008E00006F026FA0523CDE90243CDE90667CDE9F6
:1008F00000441E4B1E4904944FF480621D4806F0CC
:10090000FDFA1D491B4806F013FA1C4B07490094D9
:10091000CDE9014320462346032208F0C4FB2046CC
:1009200092E700BFA6B10008600C0020E4AB00080D
:10093000B9B100084C0C00205C0C0020300C0020E9
:10094000400C0020580C0020200C0020540C0020EB
:10095000DCB100088507000891070008D9070008E6
:1009600000140020F0070020FAB10008F107000889
:10097000C00F00203007002005B2000815B20008A3
:1009800010B503460A46006819790469012303FA81
:1009900001F143681B6819420ED10E490E4A0F48F7
:1009A0004FF4CB6308F01EFD0D4808F01BFD0A480C
:1009B0004FF4CB6108F00DFD2368194218BF82F097
:1009C000010222B18368DB68BDE8104018478368E4
:1009D0001B69F9E769B2000838B20008A7B200083D
:1009E000C4B200082DE9F041034600681979DB889C
:1009F00003F03002302AD0E9014706690ED12149BF
:100A0000214A224840F2D33308F0ECFC204808F099
:100A1000E9FC40F2D3311C4808F0DBFC03F006028D
:100A2000042A09D11B49184A184840F2DA3308F061
:100A3000D9FC40F2DA31EEE724680125DA0705FA3D
:100A400001F554BF43F4B01383F4D013254223F4CB
:100A500080120CD110490C4A0C4840F2ED3308F0DA
:100A6000C1FC0E4808F0BEFC40F2ED31D3E734681B
:100A7000DB074CBF2C43AC4334603B68BDE8F0411E
:100A8000184700BFD6B2000838B20008A7B2000865
:100A90000FB300084CB3000869B20008C4B20008E4
:100AA000334B344A2DE9F0430546044693E80300EE
:100AB00045F8042B85E80300D3E9020104F10C0991
:100AC00089E80300D3E9040104F1140888E803006D
:100AD000D3E9060104F11C0785B087E8030010463E
:100AE00009F0A7FC70B9244B02930023CDE9003331
:100AF00022490122184608F0E5FA0026304605B0E2
:100B0000BDE8F083606809F094FC0028EBD0E06851
:100B100009F08FFC0028E6D0606909F08AFC002803
:100B2000E1D0E06909F085FC06460028DBD02846C4
:100B3000FFF758FF05464846FFF754FF0543404678
:100B4000FFF750FF05433846FFF74CFF05430BD036
:100B50000B4B02930023CDE9003308490395012292
:100B6000184608F0AFFAC8E7012384F82430C5E737
:100B700024AC000814A800087FB30008DCAB000810
:100B8000ACB30008024AC0E900210022027270479B
:100B900054AC00080379012B15D182689AB14FF447
:100BA0007A714A4308498A4298BFB1FBF2F3C2689E
:100BB00001329A4201D2C26070470023C3600068CC
:100BC00003685B691847704740420F0030B54068C2
:100BD0000D4689B011461A46B0B1A9B140F2FF7373
:100BE0000693002405AB0794059502F065FE0028E6
:100BF0000DDA084B0390CDE90143074900942346E1
:100C00000122204608F017FB002009B030BD01206A
:100C1000FBE700BFDDB30008D4AB0008F0B54768C0
:100C200097B00E4615461C462FB322B3082B22D888
:100C30004422002105A808F033F82246294606A8D8
:100C400004968DF81440FFF7B3FB0024CDE900446F
:100C50004FF47A72002304A9384602F0C7FD68B148
:100C6000074B0390CDE90143064900942346022235
:100C7000204608F0E0FA002017B0F0BD0120FBE7A5
:100C8000FAB30008D4AB00087FB50646406868B9DF
:100C9000194B02930023CDE900331849012218466D
:100CA00008F0C9FA0025284604B070BD09F0C1FB60
:100CB00005460028ECD0706883680421DB689847FB
:100CC000044658B10E4B02930023CDE90033039044
:100CD0000A490122184608F0AEFAE3E77068836813
:100CE0005B6898470028DED0064B0390CDE90143AE
:100CF00000942346ECE700BF0EB40008D4AB000814
:100D000023B400083BB40008014AC0E90021704741
:100D100078AC0008B2F5802F2DE9F0410ED33C49A4
:100D20003C4A3D4840F2EB1308F05CFB3B4808F0BE
:100D300059FB40F2EB11374808F04BFB042A0CD862
:100D40003749344A34484FF4F97308F04BFB3548BF
:100D500008F048FB4FF4F971EDE7043ACD1D8E1809
:100D600025F0070526F00706761B172E4FEAD60753
:100D70000CD82D49274A284840F2FB1308F032FBD3
:100D8000284808F02FFB40F2FB11D4E7B7FA87F4AC
:100D9000C4F12002C4F12404A4000734E408631C55
:100DA0004FF00008BB420560AF60C5F80C800CD95D
:100DB0001E49184A18484FF4037308F013FB1948EA
:100DC00008F010FB4FF40371B5E74146920005F1BE
:100DD000100007F065FF630043F001036B8005EB33
:100DE000C4023B1B5900A5F800805180AA1925F8C0
:100DF0003440A2F80280AB5305EBC70321465A8862
:100E000042F001025A802846BDE8F04108F038BAA5
:100E100033B5000865B40008A7B2000849B500085A
:100E200060B5000881B500089AB50008C3B5000890
:100E30002DE9F04F91B08407009302F00403029370
:100E4000C2F3C20303F10103DDF868800392054693
:100E50000E46059340F0F581041D30B1072909D8ED
:100E60006FF01B0011B0BDE8F08F01F00706341DD4
:100E7000C6F10806009B4FF00009013B4FF0040B40
:100E80000193CDF810904F464B464FF0FF32DA46B3
:100E90000DB1009921600598002800F3D78098488B
:100EA0000099814203D397488142C0F0CF800399D3
:100EB000A4EB050E89074FEA9E0040F1E2804FF057
:100EC000000CCCE07A285AD84B280CD8472856D8A2
:100ED00029282AD8252851D051D8202877D023383E
:100EE0004342434173E04C382E2848D8DFE800F0F5
:100EF0006F47474747474747474747474947474758
:100F00004747474747594749495959596F496C47D6
:100F10006F471849184747807D49474749477D0033
:100F2000002000234FF0040B39E02A38C0B2012121
:100F300001FA00F010EA0E0F49D110F0625C30D1D6
:100F400010EA010343D06046013C5C44B4FBFBF46F
:100F50000BFB04F4002D60D0AAEB050CA444B445AF
:100F60003FF67EAF00286AD1BAF1040F45D158F898
:100F7000040B206004344FF0040A28E0013A0023F7
:100F800025E0019B13F8013C6C2B33D1019B13F836
:100F9000023C00206C2B0346C4D14FF0080BDA460C
:100FA000D2E708F1070828F007080734F8E802AB91
:100FB00024F0070435B106982044B0423FF650AF04
:100FC000C4E900AB083400234FF0080BDA4601995E
:100FD00011F8010F0191002800F0BB80002B7FF475
:100FE00071AF2528F3D1013201234FF0040BEDE757
:100FF000184696E700200346A6E7BAF1080F40F02E
:101000009A8008F1070828F00708F8E80201C4E907
:10101000000108344FF0080AD9E780B9BAF1040F8B
:1010200002D108F10408A5E7BAF1080F40F0838067
:1010300008F1070828F0070808F10808E9E705990A
:101040000139059158F8041B009121E7039988079D
:101050004AD5A4EB050E4FEA9E004FF0010CBEF5F9
:10106000007F1ED32849294A29484FF41F7308F0EE
:10107000B9F9284808F0B6F94FF41F71234808F071
:10108000A8F90F2F0FD8002D48D007F140010DEB24
:10109000010C0CF8200C0CF8102C04980130049072
:1010A00021E00F2F0CD91849184A194840F2812322
:1010B00008F098F9184808F095F940F28121DDE729
:1010C000CDB107F140010DEB010EC0B20EF8200CBE
:1010D0000EF8102CBCF1000FDFD060F07F000EF88E
:1010E000200C09F101090137C5F10801043406910A
:1010F0004FF6DA7E6BE7BCF1000F0FD00136F2E756
:1011000068A60008C4D900087DB30008EEB5000841
:10111000A7B200081CB600083DB6000802980236C7
:101120000028E0D10098CDE90632FFF769F8DDE943
:1011300006320644D7E7444A4449454840F2C623AC
:1011400008F050F95146434808F04CF940F2C621E6
:1011500094E7631BB3F5806F0CD33C493A4A3C4893
:1011600040F2D22308F03EF93B4808F03BF940F248
:10117000D22183E71DB9A6F10804E01872E6029AAD
:1011800028609B082B709DF81030C2B1EB7085F879
:101190000290B9F1000F05D008A80022C5F1010C9A
:1011A00097420ED1C5F101030DF120084FF0000A5E
:1011B00001930DF1300B574512D1601B52E66B7055
:1011C000E5E710F8013B190608D504EB0C0EB6450F
:1011D00003F07F033FF644AE04F8013B0132DFE742
:1011E000B9F1000F03D098F90020002A17DB029B09
:1011F000D3B11AF80B2004F8012B0022019B981898
:101200002044B0423FF62CAE98F8000004F8010BE1
:10121000009903922046FFF7CBF8039A14440AF191
:10122000010A08F10108C6E798F8002055F82230B5
:101230000093029B45F822300098FEF7E1FF421C24
:10124000DCE76FF00D000DE6EEB500087DB3000899
:10125000A7B2000857B600086CB60008014B18602A
:10126000704700BF9806002030B587B00025CDE953
:1012700003010446009503A90548059500F06EF8A2
:10128000DDE904309842B8BF255407B030BD00BF37
:1012900035930008F0B5094E016802460A27002080
:1012A0000B4601311C78355D6D0701D41360F0BD2C
:1012B00007FB0043A3F13000F2E700BF8DB0000848
:1012C0002DE9F84F15469A46D378234A12F803B011
:1012D0006F2B81460F460BF0030B2BD026D8582BD3
:1012E0000CBF10260A26DDF8288032460023484627
:1012F0003946FFF743F8092A08F1FF38D4B21ED85F
:101300003034B145E4B277F1000788F8004001D3EA
:10131000D04511D82B789B0605D5082E15D1AB7872
:1013200043F00803AB704046BDE8F88F03F0F703C5
:10133000702BD5E70826D6E781460F46D5E7BBF1E7
:10134000010F0CBF37345734DBE7102EEBD1AB78ED
:1013500043F01003E6E700BF8DB000082DE9F04F21
:1013600097B08A46039016461C460025307808B987
:10137000284656E325280AD0039B51469847002863
:10138000C0F24F83731C01350493049EEEE71822CC
:10139000002110A807F084FC7378252B00F0A380AF
:1013A0000023711C98469E469C4618460F4611F82D
:1013B000012B2B2A00F0C68000F2BD80202A00F00D
:1013C000C480232A00F0C4802BB19DF8483043F03C
:1013D00040038DF84830B8F1000F05D09DF8483033
:1013E00043F020038DF84830BEF1000F05D09DF882
:1013F000483043F010038DF84830BCF1000F05D0A1
:101400009DF8483043F008038DF8483028B19DF826
:10141000483043F004038DF848309DF8483003F01D
:101420004401442903D16FF386138DF848309DF8A9
:101430004830099743F080032A2A8DF8483040F05D
:101440008C809DF8493043F001038DF849307B1CB6
:101450001A782E2A9DF849200CBF0121002161F342
:1014600041028DF849200CD15A1C09925A782A2A37
:1014700040F083809DF8492042F004028DF8492015
:1014800002331A786C2A00F0A48000F28680682A61
:1014900000F08C806A2A00F0A5804C2A00F0AA8017
:1014A0001A4612F8013B0492782B9DF849208DF8DA
:1014B0004B3000F217816D2B00F2A980692B00F2EE
:1014C0001181572B00F2BE80412B03D0453B022BEC
:1014D00000F208819DF84A30042262F302038DF87D
:1014E0004A300123CAE08DF84B30B31C04939DF8B9
:1014F0004930D90740F1FD8054F8048BB8F1000F52
:1015000007DA9DF8482042F004028DF84820C8F11F
:1015100000085A0740F1F68054F804BBBBF1000FF5
:1015200080F2F5809DF849306FF341038DF8493022
:101530004FF0FF3BEBE02D2A0DD0302A7FF444AF73
:10154000012333E74FF0010C30E74FF0010E2DE798
:101550004FF001082AE7012028E709A8FFF79AFEC3
:10156000099BBB423FF474AF9DF848201390C00F15
:1015700060F341028DF848206AE709A8FFF78AFE68
:101580009DF848301490C3F3400242EAD07262F3EF
:1015900041038DF84830099B73E7742A26D07A2AD4
:1015A0007FF47EAF9DF8492006210CE05A78682A26
:1015B0009DF8492006D1012161F3C6028DF849202A
:1015C00002336DE7022161F3C6028DF84920013331
:1015D00066E75A786C2A9DF8492001D10421EBE78F
:1015E0000321F0E79DF849200521ECE79DF849200B
:1015F0000721E8E7BDF8482022F4F04222F0020279
:1016000042F4804242F00202ADF84820DFE76E3B30
:10161000D9B201238B4040F282410B4238D113F002
:10162000240F52D1DF075DD59DF84A30032161F3C5
:1016300002038DF84A3002F07803A3F140004342E0
:1016400043411BE0A3F15801C9B2012000FA01F1A6
:1016500011F4624F7FF43EAF40F6010739421DD1CD
:1016600011F4043F3ED09DF84A3060F3020302F0CB
:101670007802402A8DF84A3034D000239DF8482063
:10168000C2F340010B4363F341028DF848202EE77B
:101690009DF84A30022161F30203E8E79DF84A1001
:1016A000022002F0780260F30201402A8DF84A100D
:1016B00002BF9DF8481041F001018DF84810632BDE
:1016C000DBD1131E18BF0123D8E79DF84A30032150
:1016D00061F3020312F0780F8DF84A3014BF012332
:1016E0000023CBE79DF8483043F001038DF84830E4
:1016F000C3E79DF94820002AB4BFDDF84C804FF0C5
:10170000FF3806E79F077FF513AFDDF850B09DF86F
:1017100049100023CDE913339DF84A3003F0070345
:10172000012BC1F3C30132D1CB1E042B04D8DFE857
:1017300003F0204545202000236801294FEAE37289
:10174000CDE910321BD19DF94030DA17CDE91032C6
:1017500004349DF8483013F003074FD0049B0398DE
:101760003246514607F01EFE0028C0F25A81054459
:101770000BE654F8043BDA17CDE91032E9E7022909
:10178000E6D11AB243F3C033CDE91023E0E7022BD0
:1017900024D1CB1E042B04D8DFE803F01810101856
:1017A0001800012954F8043B4FF0000214D002291C
:1017B000CDE91032CDD19BB21093CAE7073424F0A3
:1017C0000704F4E80223CDE91023C2E754F8043BF0
:1017D000109300231193BCE7DBB2CDE7042B08D1B3
:1017E000073424F00704D4E900230834CDE910239A
:1017F000AFE7032BADD154F8043BDDE79DF84B0078
:1018000078283FF6C2AD62281ED8252850D0582827
:101810007FF4BBAD0DF13E030093DDE910010AAB8F
:1018200012AAFFF74DFDBBF1000F814680F2C28086
:10183000B9F1000F3FF4A9AD0DF13E06A6EB090387
:10184000002F7BD0013379E0633815283FF69DAD3A
:1018500001A252F820F000BF2B19000889190008D6
:101860008B1300088B1300088B1300088B130008E0
:10187000891900088B1300088B1300088B130008CC
:101880008B130008D7190008AF190008E9180008E1
:101890008B1300088B130008C11800088B13000875
:1018A000AF1900088B1300088B130008AF1900084C
:1018B000039B514698470028C0F2B380013564E588
:1018C000BBF1000FDDF840900ADB5946484607F0AF
:1018D0008BFAB9F1000F3FF458AD09EB000620E098
:1018E0004846FEF78DFCF8E71098002800F0878046
:1018F0000DF13E060AAB009612AA0021FFF7E0FCAC
:10190000BDF84A3003F0EF0343F4F04343F0100313
:10191000BBF1000F8146ADF84A304ADA00283FF4A7
:1019200034ADA6EB0903002708E0109B8DF82830A2
:1019300000270DF129060DF1280901239DF84A1011
:1019400011F01002069260D00233139A05921344EC
:101950004A0644BF14995B18B8F1000F6EDDA8EB7E
:1019600003089DF848305807C3F3800B66D4590626
:101970005AD53FB1039B514638469847002850DB63
:1019800001355F46302350E01E075CBFC3F30013F0
:101990005F01DDE9102348BF2B27002BBFF63AAFCC
:1019A000524263EB4303CDE910232D2732E7002792
:1019B00030E700279DF848100DF13E03A3EB090323
:1019C0006FF386119B458DF848107FF631AFABEB76
:1019D000030313932CE7109B07293FF6D6ACDFE8EF
:1019E00001F00C04060C08080C0C1D70CDE41D80E1
:1019F000CBE4EA17C3E90052C7E41D60C5E4314EE9
:101A00000746A6F10509052398E7080748BF0133F3
:101A10009BE7184607935146039B98470028079B6E
:101A200004DA17B0BDE8F08F2023C34659460029D9
:101A30000BF1FF3BEDDC45446D1AD84637B1039BF3
:101A40005146384698470028EBDB01359DF84A306F
:101A5000DA0601D41B0706D5039B51463020984770
:101A60000028DEDB0135069B3BB19DF84B00039B54
:101A7000514698470028D4DB0135059F2F4406E0E6
:101A8000039B5146302098470028CADB01357B1B59
:101A9000002BF5DC039833464A46514607F082FC9A
:101AA0000028BEDB0544A844A8EB0503002B7FF704
:101AB0006CAC039B5146202098470028B1DB0135D0
:101AC000F2E700BF99B600082DE9F84344690569BB
:101AD000C76840F26C73E1170135E41841F1000169
:101AE000022D8CBF00230123E41A61F100010029BB
:101AF000064607F1FF3751DA6FF4C77020184FF42C
:101B0000C8724FF0000361F10001FEF7E7FB264BBE
:101B100003FB0044D6E90083B6684FEAE37C4FF04C
:101B20003C0E99466346C6FB0E93A9FB0EC60EFB00
:101B30000366A30840F26D1E022D0EFB043302461D
:101B40003B448CBF6FF00200092064270544B4FBBE
:101B5000F7F499201B1B154C45431CEB080C4FF068
:101B6000050005F10205B5FBF0F5A2FB04202B44AE
:101B700004FB010146EBE87698180D4A41F1000399
:101B800080180C4A63F10003A0FB020102FB031161
:101B900010EB0C0041EB0601BDE8F8834FF4C8726E
:101BA00000232046B1E700BF70FEFFFFB13A0200FC
:101BB0009405F5FF80510100034A536823F00203A6
:101BC00053600020704700BF002004E0134B1A68E8
:101BD00042F400721A601A6842F480621A601A684D
:101BE00042F480721A600E4B0E4A1A600E4A536815
:101BF00043F0010353600D4B9A6D42F080529A6599
:101C00009B6D0B4A82B003F080530193019B936854
:101C1000002043F48043936002B0704700200240EC
:101C2000D00600200024F400002004E00010024050
:101C3000007000401FB5D0E90123C1680291642102
:101C40005943B1FBF2F1CDE9002104460168064891
:101C5000D21A07F083FBD4E90623044804B0BDE898
:101C6000104007F07BBB00BF9AB60008DAB6000848
:101C7000F0B595B0D0F8AC6005460F4608F03AFCD8
:101C8000044608B1037833B91A4A2B460B2101A840
:101C900007F071FB01AC6946284608F03BFC0246A0
:101CA00028B11548214607F059FB00230093009BFB
:101CB000CDE90A460EA9F61A28460C9608F031FC22
:101CC00080B904A808F037FC78B90E980F9D6424F9
:101CD000A0FB0401DDE9042304FB0511FEF74EFB24
:101CE0000D9002E004A808F026FC0AA8B84715B039
:101CF000F0BD00BFFFB6000802B700087FB501467F
:101D00000E4806F075FA05AA0D484FF4006108F078
:101D1000F5FB024670B9059B6421C3F500604143A1
:101D2000C90A02914FF40061CDE900010549064856
:101D300007F014FB07B05DF804FB00BF711C00083E
:101D4000C01C00202AB700082EB7000808B50448B8
:101D500007F004FBBDE808400248FFF7CFBF00BF13
:101D600064B70008351C000838B5044C0025FFF79F
:101D7000EDFF2046294606F033F8F8E7C0270900B2
:101D80002DE9F84FDFF8F8A03E4FAAEB07038F2BA1
:101D9000814688460BD93C493C4A3D4840F23F13B6
:101DA00007F020FB40F23F11384807F012FB39489A
:101DB00007F03CFB0646002834D13C4605464FF070
:101DC000010B544527D93449304A31484FF4A673A2
:101DD00007F008FB314807F005FB4FF4A671E3E775
:101DE000237B6BB12368DB680BB1204698472368DF
:101DF0001B6943B9636804221968204600F00AF998
:101E000001361034DDE7204698470028F2D00BFA5F
:101E100006F31D43F4E7E3D3B9F1000F02D04FF00E
:101E2000010A0DB9BDE8F88FA94695FAA5F4B4FAF0
:101E300084F40AFA04F3260107EB04146FEA030B97
:101E400025EA0305237B5BB1BB591B699BB93E4463
:101E5000042273682046196809EA0B0900F0DAF8D1
:101E6000002DE2D1B8F1000F03D06420002105F06D
:101E7000B7FF4D46D5E7204698470028F0D1E6E762
:101E800024AC000814AC0008B2B7000885B70008FD
:101E9000A7B20008900C0020E2B7000803B80008C1
:101EA000014B53F8200070478CAC000808B503467E
:101EB00008462BB1044A136000F006FB002008BD61
:101EC0006FF01500FBE700BF9C060020054A06489E
:101ED00000231370054A1360054A4FF47A711360AA
:101EE000FFF7E4BFB40F00201D940008880C002009
:101EF0008C0C002070B5134D297809BB0120FFF729
:101F00003FFF114C114EB44217D91149114A1248E2
:101F10004FF4DC7307F066FA104807F063FA0D48D7
:101F20004FF4DC7107F055FA63685B791BB12368E5
:101F300020469B6898471034E5E7F5D301232B70C2
:101F400070BD00BFB40F002014AC000824AC000822
:101F5000E2B7000885B70008A7B2000803B8000878
:101F600010B50446084807F061FA5CB1BFF35B8F17
:101F7000064B53E8001F013943E80012002AF8D14C
:101F8000BFF35B8F10BD00BF880C00208C0C0020BD
:101F900070B5124B124C1B68124E05469847A8604C
:101FA000B44218D91049114A114840F2F31307F00E
:101FB00019FA104807F016FA0C4840F2F31107F02E
:101FC00008FA63685B7923B1236829461B682046B9
:101FD00098471034E4E7F4D370BD00BF9C0600209E
:101FE00014AC000824AC0008E2B7000885B700086C
:101FF000A7B2000803B80008044A054B9B1AB1EBCE
:10200000D30F34BF52F831000020704794AB000862
:1020100014AC00080E4BC31A1B11013310B5DBB210
:1020200048B90C490C480D4ADF2307F0DBF90B488F
:10203000DF2107F0CEF94468237143689A71436841
:102040001960436801225A71BDE8104007F010BAC8
:1020500014AC0008A6B80008A7B200086EB80008C3
:102060002DE9F04F87B004AFD7E90EA93D6B0446C8
:102070000E4693469846BAF1000F2BD0C7F804904D
:10208000CDF8009010217A6B53460020FEF7D0FE69
:10209000011E0BDA2849294A294840F2651307F046
:1020A000A1F940F26511254807F093F9B1F5006FE9
:1020B00011DB40F2FF730393224B02930023CDE91F
:1020C000003321490222184607F0EEF90C37BD46CD
:1020D000BDE8F08F514604F007040BF0070BE40055
:1020E00044EA8B1444EA412444EA055417350D446C
:1020F00025F00705ADEB050D04ADBAF1000F13D0C7
:10210000CDF800907A6B534605F11000FEF790FE73
:10211000002809DA0849094A094840F2851307F0FE
:1021200061F940F28511BEE7434622463146284612
:1021300007F0A1F9CAE700BFF2B80008C6B8000866
:10214000A7B20008FCB80008BCAB0008406820B18A
:10215000034BC01A40F3CF0070474FF0FF30704779
:1021600094AB00080EB403B503AB014653F8042B3F
:102170000448019307F0D2F902B05DF804EB03B014
:10218000704700BFC9940008CA0605D48B064CBF2F
:1021900002490349FFF7E6BF704700BFEDD30008CF
:1021A00034B900082DE9F04F89B09A46149B069384
:1021B0009DF84CB0159B0593169B179E04930446FF
:1021C0000D469046BBF1000F00F0AD80BBF1040F4F
:1021D0000BD9A449A44AA54840F2622307F002F9AA
:1021E00040F26221A04807F0F4F806F480730793E8
:1021F00007F03FF906F00209024600283FD09C494B
:102200002046FFF7AFFF0746B9F1000F08D016F0E0
:10221000440F36D197492A462046FFF7A3FF0744CB
:1022200006F0010353B1944B944953F82B20944B7F
:102230002046002A08BF1A46FFF794FF06F4807371
:10224000002B4AD006F00803002B64D1B8F1000F30
:1022500067D08C4942462046FFF784FF0546069B1F
:102260003D44002B6ED1049B002B40F08380F3078C
:1022700000F1F18031462046FFF786FFE5E0074692
:10228000C2E7814B18680028C9D0804B4FF47A7997
:102290001B68B5FBF3F54FF46161B5FBF0F300FB90
:1022A000135509FB05F54FF03C0CB3FBF1F201FBB4
:1022B0001231B5FBF0FEB1FBFCF300FB1E550CFB2D
:1022C000131109FB05F50091B5FBF0F57049CDE957
:1022D00001E52046FFF746FFA1E706F00803EBB152
:1022E0006C4B6D4953F82B202046FFF73BFF05460A
:1022F000B8F1000F05D0634942462046FFF732FF90
:102300000544BAF1000FAAD0644952462046FFF7AF
:1023100029FF0544A3E74FF0000AE1E706F00805AE
:10232000E6E745469BE7BAF1010F069B06D1DBB90C
:10233000049B002B00F0898000251BE0002BF7D0C8
:10234000574812E05748069B5749224606F0BFFF00
:1023500000280CDA5549444A44484FF42F7307F0DB
:1023600041F84FF42F713DE74E485D46EBE7049B83
:10237000002B66D0DFF83881DFF83891049F3146B2
:10238000102F204628BF1027FFF7FEFE4FF0000A4F
:10239000554543DC059B49461A782046FFF7E2FE87
:1023A0004FF0010A1AF0070F03D141462046FFF70C
:1023B000D9FE574539D9059B494613F80A202046CE
:1023C000FFF7D0FE0AF1010ABAF1100FEAD13A493B
:1023D00020464FF0000AFFF7C5FE5246059B9A5C67
:1023E000364B995C11F0970F08BF2E2234492046D6
:1023F000FFF7B8FE0AF1010ABAF1100F1AD01AF06D
:10240000070F03D141462046FFF7ACFE5745524621
:10241000E4D841462046FFF7A5FEEBE741462046BB
:10242000FFF7A0FE0AF1010AB2E726492046FFF7AE
:1024300099FEC7E7059B3B440593049BDB1B049374
:102440009CD1BBF1000F7FF412AF204609B0BDE86C
:10245000F04F07F06AB80A4A08492046FFF782FEA3
:1024600008E700BF6BB900083CB90008A7B2000834
:1024700077B900087BB900089CAC0008A0B9000837
:1024800037B90008A3B90008980C0020940C00206C
:1024900084B90008B0AC0008A7B90008ADB90008BD
:1024A000E5940008C99400081D950008B2B9000819
:1024B000C3B90008BBB90008C5B900088DB0000851
:1024C000C7B90008C1B90008074A0021012390429A
:1024D00006D8064A01B901231360054B18607047FE
:1024E00040085B000121F2E740420F00940C0020FD
:1024F000980C0020F8B5074F0D4604464618B44224
:1025000001D12846F8BD14F8011BBB6801485B687F
:102510009847F4E7D8A7000810B543681C68094835
:1025200007F087FF48B908490848094A992306F087
:1025300059FF0748992106F04CFF23685B685C60EF
:1025400010BD00BFD8A7000828BA0008A7B200082D
:10255000EAB90008014B036000207047F8AC00089E
:1025600070B5064686B00D46002938D08B680593B5
:102570004B6804930B6803930024244B2449029373
:10258000012223462046CDE9004407F02DF86B696F
:1025900005932B690493EB6803931E4B1C4900942D
:1025A000CDE9014301222346204607F01DF8EB69DF
:1025B0000393194B16490094CDE9014301222346A8
:1025C000204607F011F8AB690393144B10490094AF
:1025D000CDE9014301222346204607F005F8012EEC
:1025E0000DD1EFF30583103B03930D4B02930023B2
:1025F000CDE9003306493246184606F0F5FF294674
:10260000304606B0BDE8704003F046BF5CBA000833
:10261000F4AB00088BBA0008BABA0008C9BA0008BF
:10262000F7BA000808B5034B1B689847BDE8084097
:1026300000F006B8A806002030BFFFF7FDBF00BFBE
:10264000074A936893F90E10002907DBD269934279
:102650001FBF044A536843F080535360704700BF64
:10266000000B002000ED00E0F0B585B00024434BE6
:102670000293CDE90044234607460E460122404915
:10268000204606F0C5FF3F4B9B6ADB0465D53E4BF9
:102690003B490094CDE9014320462346012206F040
:1026A000B7FF1720374B9B6A1D050AD5374B02939E
:1026B00000231846CDE900333149012206F0A8FF76
:1026C0001820304DAB6A9C051FD50024304B029377
:1026D000012223462046CDE90044294906F098FF0F
:1026E000AB6BAA6A10040FD503932A4B24490094BC
:1026F000CDE9014301222346204606F089FF1FB1A0
:10270000AB6A23F40043AB6219201E4B9B6A590548
:102710000AD5214B029300231846CDE9003318490E
:10272000012206F075FF1A20164A936A13F480738B
:1027300015D01A4B029300231846CDE900331049F7
:10274000012206F065FF1B200E4A936A43F47F4383
:1027500093620023337005B0F0BD1620A2E7926AA1
:102760009204F1D50E4A06490093CDE9013218468C
:10277000012206F04DFF1C20E6E700BF0ABB00085F
:10278000F4AB000800ED00E020BB000831BB0008FE
:1027900044BB00085DBB000872BB00088DBB00088D
:1027A000A5BB00081FB50024374B02930122234626
:1027B000CDE900443549204606F02AFF344B9B6A98
:1027C0009A015ED5334B31490094CDE9014320464F
:1027D0002346012206F01CFF1E202D4B9B6ADB01C5
:1027E0000AD52D4B029300231846CDE90033274923
:1027F000012206F00DFF1F20254B9B6A1C030AD502
:10280000264B029300231846CDE900331F490122CD
:1028100006F0FEFE21201E4B9B6A59030AD5204B71
:10282000029300231846CDE900331849012206F02F
:10283000EFFE2220164B9B6A9A030AD5194B02938E
:1028400000231846CDE900331049012206F0E0FECE
:1028500023200F4B9B6ADB030AD5134B0293002303
:102860001846CDE900330949012206F0D1FE2420A3
:10287000074A936A6FEA03436FEA1343936204B013
:1028800010BD1D20A9E700BFD4BB0008F4AB0008B1
:1028900000ED00E0ECBB0008FFBB000819BC00081D
:1028A00037BC00085CBC000876BC00082DE9F0438A
:1028B00085B00024564B0293CDE900442346804660
:1028C0008946204653491646012206F0A1FE524B86
:1028D0009B6AD80640D5514B0094CDE90143204670
:1028E00023464C49012206F093FE11244A4B9B6A71
:1028F00019070AD54A4B02930023CDE90033454915
:102900000122184606F084FE1224434DAB6A9A0752
:1029100024D50024434B0293CDE9004423463D498E
:102920000122204606F074FE6F6BAB6A1B0659D578
:102930003D4B38490397CDE90143009423460122DA
:10294000204606F065FEB9F1000F03D0AB6A23F014
:102950008003AB62132403E01024C7E76FF0150770
:102960002D4B9B6AD8070AD5304B02930023CDE943
:10297000003328490122184606F04AFE1424264B4B
:102980009B6A99060AD52A4B02930023CDE90033AE
:1029900020490122184606F03BFE15241E4DAB6A65
:1029A000DA0602D4AB6A9B070AD56B68180507D50F
:1029B0004146384600F0B8FAB8B180F309880224DD
:1029C000154B9A6A920642BF5A6A22F400525A6222
:1029D0009A6A42F0FF029A6220460023337005B0E3
:1029E000BDE8F0836FF01507B4E7AB6AD906E7D509
:1029F0001049114A114840F25D1306F0F3FC1048EB
:102A000006F0F0FC0C4840F25D1106F0E2FC00BF5D
:102A1000A1BC0008F4AB000800ED00E0B7BC000862
:102A200031BB0008EABC000802BD000818BD000860
:102A3000A5BB000869BD000837BD0008A7B20008A3
:102A4000B3BD00082DE9F041894B0446586890B0A9
:102A5000C0F30806002383F31188BFF36F8F02F0E1
:102A60007F45B5F17F4F0CD102F00C05082D17D131
:102A7000804A81490093CDE901321846012206F0CF
:102A8000C7FD7E497E4A7F484FF48B6306F0AAFC5F
:102A90007D4806F0A7FC4FF48B61794806F099FC5D
:102AA000120746BF0C461D460125002CE9D04FF009
:102AB0000008F31E8DF81F80092B00F2BF80DFE8AD
:102AC00003F005B3B796BDBDBDBDBDBB6F4B6A4935
:102AD000674FCDF80080CDE901830023012218461D
:102AE00006F096FD8DF81F80FE6A16F0020605D0EE
:102AF000674BCDF80080CDE9018306E0FB6A002B2F
:102B00000BDA644B0096CDE9016300235A49012298
:102B1000184606F07DFD002230E0FB6A5B0076D5AA
:102B20005D4B55490096CDE901630122334630469D
:102B300006F06EFD7B69A26943F480737B61BFF38D
:102B40004F8FBFF36F8F7B6932F8022C23F48073B1
:102B50007B61BFF34F8FBFF36F8F4DF602739A42C5
:102B60002CD1236803934D4B43490096CDE9016373
:102B700001223346304606F04BFD22689DF81F3097
:102B8000CBB908AE04F1200720686168334603C35F
:102B90000834BC421E46F7D10F9B002D62D0C3F310
:102BA000080121B96FEA53236FEA43230F9308A961
:102BB0001046FFF7D5FC10B0BDE8F081BB6ADBB270
:102BC0003BB10DF11F0201212046FFF76FFE0246C7
:102BD000D4E7BB6A13F47F4F05D00DF11F0101202C
:102BE000FFF742FDF3E7BB6AB3F5803F02D3FFF77F
:102BF000D9FDECE72A49224A224840F22A3306F05E
:102C0000F1FB284806F0EEFB40F22A3145E7244963
:102C10001B4A1C4840F22E3306F0E4FB224806F023
:102C2000E1FB40F22E3138E70DF11F020021CBE726
:102C30000DF11F010020D3E71C4B5AE71C4A1D4B26
:102C40000D4910F4F87F18BF1346103ECDE9033646
:102C5000194B02930023CDE900330122184606F0F8
:102C6000D7FC58E723F4FF7323F001039EE700BF6E
:102C700000ED00E004BE0008F4AB00082FBE000821
:102C800037BD0008A7B2000842BE000880BE000899
:102C900097BE0008B8BE0008C6BE0008E5BE000822
:102CA0007DB3000801BF000825BF000855BF00081C
:102CB000EBBD0008D6BD000879BF0008024A536981
:102CC00043F010035361704700ED00E0EFF308801C
:102CD000EFF3098101B57246FFF7B4FE01BD00BFF5
:102CE000102080F311880B484FF0AA014FF40462C2
:102CF00007F0DAFB07484FF40461401880F30988B5
:102D0000EFF314800221084380F31488BFF36F8F20
:102D100000F0CAF8801C0020084B9B6883420BD14E
:102D2000EFF3058343B1064B5A6842F080525A6074
:102D30005A6A22F400425A6205F090B8000B002053
:102D400000ED00E00A4A93686FF00A01C3F8BC1076
:102D50000849C3F8B8004B6843F080534B60002328
:102D600083F31188BFF36F8F9368D3F8BC0070476B
:102D7000000B002000ED00E010B50446EFF31183D6
:102D8000102383F31288BFF36F8F0A4BD8699860C2
:102D9000094B4FF000625A600022D0F8B830C0F8FA
:102DA000B82083F31188BFF36F8F00F027F9204616
:102DB00010BD00BF000B002000ED00E001B507F0E2
:102DC000AEFBBDE801400E498A684FF04000104458
:102DD000EFF3098C80E8F01F74467046FFF7CCFFD4
:102DE000A64607498A6802F1400090E8F01F8CF37C
:102DF000098801B504F0C8F8BDE80140704700003B
:102E0000000B00201EF0040F0CBFEFF30880EFF35F
:102E10000980816911F8021C0229FFD001B506F072
:102E2000F3FB01BD40B2002807DB044A410901233E
:102E300000F01F00834042F82130704700E100E0BD
:102E400038B54B1C0F2B04460D460FD9114A1249B9
:102E50001248582306F0C6FA114829460F23224685
:102E600006F0C0FA0B48582106F0B3FA40B2002829
:102E7000ACBF00F160400B4A4FEA0313B8BF00F04B
:102E80000F00DBB2AABF00F56140135480F8003395
:102E900038BD00BF8CBF0008C3BF0008A7B2000840
:102EA000DEBF000814ED00E00F4A08B50F4B22F01A
:102EB0007F029A60BFF34F8FBFF36F8FD3F88820E4
:102EC00022F47002C3F88820EFF3148323F0040384
:102ED00083F31488BFF36F8F03F0F8FB05F004FA57
:102EE00000F062F803F044FC0000000800ED00E090
:102EF00042F8203C009B42F81C3C0A49019B42F8E6
:102F0000183C029B42F8143C21F001014FF0807301
:102F100042F8043C42F8081C0023203A0266C0F83C
:102F2000B8307047919300080A4A0346906878B118
:102F300013F1160FD0F8A80005D0A0F140029A4274
:102F400005D8834203D2814228BF00207047002069
:102F5000704700BF000B002008B50D4B0446986079
:102F60000E46154604F010F8204600F047F82C46AF
:102F700086F309884FF00000064B984720464FF033
:102F800000014FF000024FF00003034C204700BF48
:102F9000000B00203996000891930008014B102285
:102FA0001A61704700ED00E0044800231021C218A8
:102FB0000133662B82F80013F9D1704700E100E07D
:102FC00008B5EFF30583064A103B02EBC30152F844
:102FD000330049688847BDE80840FFF731BB00BFB0
:102FE00028A80008024B034A0348012100F098B8C2
:102FF0000000022000000020F8AC0008D0F8A82053
:10300000054B403A1A60054A4021C3E901121846AF
:10301000012100F0ABB800BFC00C002000000B1570
:103020001FB5144AD2F89030C3F30723013B9842EE
:103030000FD9114B029300230390CDE900331846BA
:103040000E49012206F01CFB6FF0150005B05DF87B
:1030500004FBC2F898000B6823F01F03034343F0FE
:103060001003C2F89C308B6843F00103C2F8A03013
:10307000ECE700BF00ED00E022C00008ECAB000868
:10308000F0B50E4689B01F4604460025B54212DA57
:10309000606838B3BFB1431E18420FD0134B029380
:1030A0000023CDE90033124903950122184606F0AA
:1030B000E7FA6FF01502104609B0F0BD1F28EDD9F0
:1030C00021680B42EAD12368059306F0C9FAA36888
:1030D00005A90343D0B20793FFF7A2FF10F1160F23
:1030E000E7D0421C01350C34D0E700BF48C00008CF
:1030F000ECAB0008044B0522C3F89420BFF34F8FBC
:10310000BFF36F8F704700BF00ED00E0BFF35F8F2C
:10311000024B0022C3F89420704700BF00ED00E08E
:1031200038B50D4D01232A780C46FFF7A9FF28700A
:1031300016300FD1094A0A490A484FF4B47306F011
:1031400051F90948214606F04DF904484FF4B4718D
:1031500006F03FF938BD00BFB60F00206BC0000875
:103160007DB30008A7B200089AC0000810B5144A41
:10317000002312780C46FFF783FF10F1160F08D0DA
:10318000104A0021D2F89030C3F30723984210DB95
:1031900010BD0D4A0D490E4840F2871306F022F982
:1031A0000C48214606F01EF9074840F2871106F048
:1031B00010F9C2F89800C2F8A0100130E2E700BF91
:1031C000B60F002000ED00E06BC000087DB30008E2
:1031D000A7B20008C6C000082DE9F04F7B4C7C491F
:1031E000D4F890300D68C3F307239D4285B013D9FE
:1031F000784A7949794840F29F1306F0F3F8D4F8F9
:10320000902077482946C2F3072206F0EBF840F2F7
:103210009F11704806F0DDF8FFF778FF496800223B
:10322000954201F10C012DD16E4C6F4F257068460F
:10323000FFF790F9DFF8B481DFF8B4910646002576
:10324000AE4232D1237861490020D1F89020C2F3F8
:1032500007229342C0F2AF80FFF74CFFD1F89030C5
:10326000C3F30723082B00F0AC806249594A5B483E
:1032700040F20F2306F0B6F85F4806F0B3F840F2CC
:103280000F21C6E7C4F8982051F80C3C23F01F0327
:10329000134343F01003C4F89C3051F8043C43F04E
:1032A0000103C4F8A0300132BAE7009A02EB05131B
:1032B0002901D3F80CA00AEA0700B0F5000F60D08E
:1032C0000AD8B0F5001F38D0B0F5800F4ED0B0F559
:1032D000801F12D00135B3E7B0F1807F5CD0B0F130
:1032E000007FF7D19868D3F804A0525806F0B8F9D7
:1032F000CDE901A240F480200BE09868D3F804A047
:10330000525806F0ADF9CDE901A240F0885040F4E2
:1033100030200390207801A9FFF782FE002846DACA
:103320002D492C4A2D4840F2C91306F05BF833486A
:1033300006F058F840F2C9116BE79868D3F804B06A
:10334000525806F08DF91AF0010F40EA0800CDE955
:1033500001B20390DED02A491E4A20486D2306F0B0
:1033600041F8284806F03EF86D2152E79868D3F8F6
:1033700004A0525806F074F9CDE901A240EA090010
:10338000C7E79868D3F804A0525806F069F9CDE968
:1033900001A240F08270BCE79868D3F804A05258AC
:1033A00006F05EF9CDE901A240F08870B1E723781C
:1033B000013323708EE7C1F89830C1F8A0000133C3
:1033C00043E7002005B0BDE8F08F00BF00ED00E04E
:1033D00004AD00086BC000087DB30008A7B2000868
:1033E000F3C00008B60F00200000F0FF0000081135
:1033F00000000207A6C10008F6C100087CC1000851
:1034000027C100084DC1000808B50B4BC3F100539C
:1034100003F50033B3F5005F0CD20849084A0948A8
:10342000892305F0DFFF084805F0DCFF0448892107
:1034300005F0CFFF002008BD802E002056C20008F6
:1034400026C20008A7B200089FC20008014B1860FE
:10345000704700BFAC06002010B5074C2368C218A7
:103460000648C0F1005101F500318A423ABF22609E
:10347000C0184FF0FF3010BDCC0C0020802E002073
:1034800010B558B909490A480A4A40F2BB1305F079
:10349000A9FF084840F2BB1105F09BFF4FF0FF3237
:1034A000BDE810404FF0FF3303F010BA27C3000807
:1034B000A7B2000826C2000808B558B9074908484D
:1034C000084A40F2D71305F08DFF064840F2D711A5
:1034D00005F07FFFBDE8084003F0C8BA27C3000825
:1034E000A7B2000826C200082DE9F0410F4E104F88
:1034F000054600244FF001082B7853FA84F01F286A
:103500000DDC726908FA00F333EA020207D1736135
:1035100057F830301BB107EBC002516898476A7802
:103520000134E3B29A42E7D2BDE8F08100040140E1
:10353000D00C0020044B184400230133994200F8BA
:10354000012BFADC704700BFE806002010B4064BE0
:10355000064902460C6818560123934023430B602A
:1035600010BCFFF75FBC00BFE8060020000401406C
:103570001F2806DC034901220B68824023EA02036C
:103580000B6070470004014003292AD8DFE801F0EE
:10359000020E141F134B01229968824021EA020196
:1035A0009960D96821EA0202DA6070470D4B012266
:1035B000996882401143F3E70A4B0122D96882409F
:1035C0001143D960996821EA02029A607047012389
:1035D00003FA00F0034B9A6802439A60DA681043DA
:1035E000D86070470004014030B50A4B53F83040B2
:1035F0008C4204D103EBC0056D68954205D034B907
:1036000043F8301003EBC0035A60002030BD6FF068
:103610000F00FBE7D00C0020034B002243F83020C2
:1036200003EBC0035A607047D00C00202DE9F04F27
:103630005D881F469B88013587B01D44FB88BDF817
:1036400044901D44109B88469246002B00F0C48095
:10365000B9F57A7F80F0C080836805A99B6A984796
:10366000002840F0BC80B9F1000F0AD15D4B109AE0
:103670009A4239D85C4B40F26B399A4288BF4FF47A
:103680004879059B0093109B5D43009BB3FBF5F5C8
:10369000BAF808309D4238BF1D46109B03FB05FB5E
:1036A0006FF0004301933B89AB4220DA0198B8F8F0
:1036B0000630B8F804205B08934228BF1346A8F8E8
:1036C0000030BAF80020934203D93A889A4228BFC2
:1036D0001A466FF000439842A8F8002008BF6FF028
:1036E000850007B0BDE8F08F40F2EE29C9E7009BE6
:1036F000B3FBFBF00BFB10333BBB81B27B88B7F80D
:1037000004E003934FF47A7600FB09F2B2FBF6F281
:10371000BAF80660BAF804C002968A1A92B20EEBA2
:103720000304B242BAF80230A4B212D9FE8896421B
:1037300028BF16464A1E921B92B294420BD20E1B11
:10374000FA88013EB6B2B24210D2109B01359B44BA
:10375000A9E7029EEEE70CEB0304A4B2944232D92F
:10376000091B029A01398EB2B242EED8B3EB540F64
:103770004FEA540203D2039B934228BF1346E21A36
:1037800092B2964521D2A4EB0E039BB272464FF43F
:103790007A7104FB01140199B4FBF0F4A14534BF24
:1037A000A4EB0900A9EB04008842CED2A8F80230AD
:1037B000A8F80420A8F80660A8F8085000283FF4EC
:1037C00076AF0190C1E71446D0E7944582BFA4EBE1
:1037D0000C039BB26246DAE76FF0150081E76FF0E9
:1037E00004007EE700350C0020A107002DE9F0431E
:1037F00005468FB01E46D5F80890DDE9163017460D
:103800000C46F1B10A684979C90706D5B2F1005FE3
:103810001CD3244B1D21082005E0B2F5006F15D301
:10382000214B0B210320CDE90331204B02930023D0
:10383000CDE90502CDE900331D490122184605F006
:10384000B0FF6FF015000FB0BDE8F083E3B90DF1E4
:10385000240819460122404606F040FE154B00930D
:10386000CDF80480D9F814903A46334621462846CC
:10387000C8470028E7D14FF0FF324FF0FF334046F2
:1038800003F0DCF90D98DEE7CDE91630D9F814E045
:103890003A46334621462846F4460FB0BDE8F04389
:1038A000604700BF8EC3000897C30008A0C300088C
:1038B00094AB00089B97000870B586688AB0F9B190
:1038C000F3B11D7A1C6815F0010F5D681CD0B4F1CE
:1038D000005F02D2B5F1005F20D3134A1D210823F7
:1038E000CDE90735CDE90534104B02930023CDE92E
:1038F0000321CDE900330E490122184605F051FF9E
:103900006FF015000AB070BDB4F5006F02D2B5F5C6
:10391000006F03D3074A0B210323E1E7B469A446F0
:103920000AB0BDE8704060478EC30008CDC30008F0
:1039300094AB000897C3000873B514461E4682680E
:103940003032074D8368AC4203F13A0305D8CDE924
:103950000046FFF76BFE02B070BD6FF01500FAE78E
:1039600040420F0073B514461E4682684832074D28
:103970008368AC4203F1520305D8CDE90046FFF756
:1039800055FE02B070BD6FF01500FAE700127A0024
:1039900030B543689B6987B01B680D46984704465D
:1039A00058B1074B02930023CDE90350CDE9003312
:1039B00004490122184605F040FF204607B030BDFB
:1039C0001AC400089CAB000830B543689B6987B0F7
:1039D0005B680D469847044658B1074B0293002395
:1039E000CDE90350CDE9003304490122184605F022
:1039F00024FF204607B030BD3DC400089CAB000842
:103A00002DE9F04F9DB004460493436891468B46E0
:103A1000482200210AA8D3F81C8005F041F907AA22
:103A200049462046FFF7B4FFF0B9DFF898A1079D9B
:103A30006B0619D0C5F3052505EBC5010BEBC101DC
:103A400089B2082308AA2046059105F0E4FE0599ED
:103A500068B15D4B02930023CDE9003303905B49CD
:103A60000122184605F0E9FE1DB0BDE8F08F9DF873
:103A70002630C3F303008DF82C009DF82300870641
:103A800042BF9DF82D6046F002068DF82D609E061F
:103A900042BF9DF82D6046F004068DF82D60DF06CC
:103AA00003F00F0248BF9DF82D309DF8277044BFEA
:103AB00043F008038DF82D30060642BF9DF82D30E7
:103AC00043F010038DF82D30400607F07F0724D512
:103AD000089BC3F31C030A939DF82D3043F00103A8
:103AE0008DF82D301AF80230402B5FD89DF82D60EC
:103AF00016F0020617D1B3B10333083103F4FE7395
:103B00000CAA89B2204605F086FE60B1304B0390C6
:103B1000CDE9016300963346A1E7BDF82230C3F337
:103B20008A030A93DEE79DF82D3013F0010F3BB2B4
:103B30002BD098F80E2097420BD32649264A2748C7
:103B400040F2F92305F04EFC40F2F921224805F03D
:103B500040FCD8F8082002EBC30152F833304A6821
:103B600013B10AA92046984704992A462046FFF730
:103B70002BFF00287FF478AF07AA49462046FFF7BD
:103B800007FF00283FF453AF6EE798F80D209742E7
:103B900009D31349104A114840F2FE2305F022FCD4
:103BA00040F2FE21D2E7D8F80420D4E70D4B02936F
:103BB0000023CDE9003305490122184605F03DFEFA
:103BC000D2E700BFEECA000861C400089CAB000841
:103BD00088C40008D7C40008ADC40008A7B2000814
:103BE000EFC4000807C500082DE9F3410669103647
:103BF00005464FF0FF324FF0FF33304605F02CFE04
:103C000001AA18212846FFF7C3FE044648BB019AC3
:103C1000182122F0100228460192FFF7D5FE044633
:103C2000F8B902F033FA01AA074618212846FFF72F
:103C3000AFFE0446A8B9DFF84C80019B1B0710D5E6
:103C400002F024FAC01B404512D9019A182142F013
:103C5000100228460192FFF7B7FE041E08BF6FF05E
:103C60000A04304605F0FAFD204602B0BDE8F081B6
:103C700001AA18212846FFF78BFE0028DDD0044654
:103C8000EFE700BF4066030170B50469237905467C
:103C90000E462BBB10344FF0FF324FF0FF3320465F
:103CA00005F0DAFDF38832883189013B013A03F0EF
:103CB0007F0343EA4263B288013A120202F47F4270
:103CC0001343094A013902EA014228461A431C21DA
:103CD000FFF77AFE0546204605F0C0FD284670BD78
:103CE0006FF00F05FAE700BF0000FF012DE9F04F6C
:103CF000D0F81080D0F804A098F8046087B005468A
:103D0000002E76D1DAF80000A8B18368D8F8001048
:103D10001B689847044670B1374B0390CDE90163A7
:103D20003649009633460122304605F086FD20468E
:103D300007B0BDE8F08F2E6910364FF0FF323046E5
:103D40004FF0FF3305F088FD05AA18212846FFF73C
:103D50001FFEA8B1304605F081FD294B02930023D8
:103D60001846CDE900332549012205F066FDDAF851
:103D7000000010B183685B6898476FF00404D6E7D1
:103D8000059A182122F0010228460592FFF71CFE31
:103D90000028DFD106F045FC05AA074689462846DB
:103DA0001821FFF7F5FD04460028D3D140F2E93B86
:103DB000059BDB0708D4304605F050FD002CCCD124
:103DC000012388F80430B2E706F02BFCC01B61EB3E
:103DD0000901584571F1000108DA05AA18212846A1
:103DE000FFF7D6FD0028E3D00446E4E76FF00A04AD
:103DF000E1E76FF077049AE718C500089CAB00086C
:103E000042C500082DE9F0410729066986B08046C1
:103E10000D4610D92E4B029300230391CDE90033B8
:103E20002C490122184605F008FD6FF08504204654
:103E300006B0BDE8F0813379002B46D106F11007BA
:103E40004FF0FF324FF0FF33384605F005FD04AA6E
:103E500018214046FFF79CFD0446002831D105AAF1
:103E600010214046FFF794FD044650BB049BE80731
:103E700045BF43F08003049323F08003059B58BFA4
:103E80000493049A44BF43F010030593A9074CBF61
:103E900042F0200222F020026B074CBF42F4407235
:103EA00022F44072182140460492FFF78DFD04462B
:103EB00038B9059A10214046FFF786FD044600B93F
:103EC0003560384605F0CAFCB1E76FF00F04AEE785
:103ED0005CC500089CAB00082DE9F04186B005AA3E
:103EE000502145680446FFF753FD00283ED1214F7D
:103EF000214EDFF88880059A12F0990236D05021C1
:103F00002046FFF761FD88BB059BD80705D5E98EE4
:103F1000A823A4222046FFF773FD059BD90605D5EB
:103F2000298FB823B4222046FFF76AFD059B1A07A4
:103F300008D50023CDE90033029701223146184607
:103F400005F07BFC059B1B0609D50023CDE900335A
:103F5000CDF8088001223146184605F06EFC05AA0E
:103F600050212046FFF714FD0028C4D006B0BDE85C
:103F7000F08100BF75C500089CAB00088BC5000828
:103F80002DE9F04F8DB008AA5021D0F810900446CA
:103F9000FFF7FEFC002840F0A180754E089A3240E1
:103FA00000F09C8050212046FFF70EFD002840F0D5
:103FB0009580089B13F0607F34D02769636809AA55
:103FC0000DF11F012046D7E902ABD3F81C8005F0A4
:103FD000E4FC38BB9DF81F50BAF1000F04D0099AD9
:103FE0005B4629462046D047032D1BD14FF0FF32B8
:103FF000D4212046FFF7E8FC054698B982462437CD
:1040000098F80C309D426CD30AAA18212046FFF77D
:10401000BFFC38B90A9A182122F0010220460A9200
:10402000FFF7D2FC089BDD0425D56768D4F810A003
:10403000D7F81C8009AAF4212046FFF7A9FCD0B9C3
:10404000099DA80617D0B98FC5F3042501EBC5015A
:1040500008230AAA89B2204605F0DDFB002857D0C4
:10406000444B029300230390CDE9003342490122DF
:10407000184605F0E2FB089B19040DD53F4B02934F
:104080000023CDE900333C490122184605F0D5FB59
:1040900009F1240002F07AFD089B9A0009D5384BFB
:1040A00002930023CDE9003333490122184605F07D
:1040B000C4FB089B9B0309D5324B02930023CDE937
:1040C00000332D490122184605F0B7FB08AA5021FC
:1040D0002046FFF75DFC00283FF460AF0DB0BDE85F
:1040E000F08FD8F8003053F835B0EA00BBF1000F7C
:1040F0000CD043F835A0D8F8003013446FF07101AC
:104100005A682046D847384602F040FD013577E727
:104110002A46F82120469DF82FB0FFF755FC0546AA
:104120000028A8D198F80C305B450BD816491748E1
:10413000174A4FF40A7305F055F915484FF40A7100
:1041400005F047F9D8F8001001EBCB030FFA8BF01C
:104150005A6851F830B0059241F830500AF1240005
:1041600002F014FD059A29462046D84762E700BFB1
:104170000090823BA1C500089CAB0008DCC500088C
:10418000F1C500080CC60008C7C50008A7B20008A2
:10419000ADC400082DE9F04F074606699A4643680A
:1041A0000879D3F81C908FB00F2815460793984ACA
:1041B000034628BF0F23884612F803B04A799101BD
:1041C000C2F3400401F0400141EA44110023CDE96B
:1041D0000C338DF8331000F00F01C2F3C00461F00E
:1041E0007F0141EA0411C2F3800441EA44110F2A1D
:1041F0008DF836100FD90392864A87490093CDE98E
:1042000001321846012205F018FB6FF085042046A4
:104210000FB0BDE8F08F336813F004030CD112F037
:104220000C0F09D07D4A7C490093CDE90132184634
:10423000012205F002FBE8E7BBF1400F0FD9402354
:10424000CDE903B3764B02930023CDE900337249E5
:104250000122184605F0F1FA6FF01504D7E712F0C5
:1042600004030DD00F2811D96E4B02930390002345
:10427000CDE9003368490122184605F0DEFAEBE784
:10428000082803D9684A03900292F1E73379002B9A
:1042900000F0B4800BAA44213846FFF779FB0446AE
:1042A0000028B4D10B9B1A0600F1AB8006F1240361
:1042B00009932A46534606F1240002F0BFFC044647
:1042C000002840F0A18034364FF0FF334FF0FF322A
:1042D000304605F0C1FA99F80C30A34237DC4FF0B4
:1042E000FF3598F80530D8F800208DF83750DB07F7
:1042F0004BBF0C9BBDF8323062F31C0362F38C039E
:104300004CBF0C93ADF8323005EBC503DB009BB21C
:104310000893079BD98F089B19440CAA082389B2DC
:10432000384605F07FFA0446D0B1404B0293002393
:10433000CDE90033039038490122184605F07DFA93
:10434000304605F08BFA099802F020FC5FE7D9F8B7
:10435000002052F834202546002AC2D00134BCE7A0
:1043600098F805A01AF0020A1BD1BBF1000F18D073
:10437000079A0899D28F083211440BF1030303F412
:10438000FE7308F1080289B2384605F04BFA04467C
:1043900038B1274B0390CDE901A3CDF800A05346D7
:1043A000C9E799F80C309D420BD322492248234A91
:1043B00040F2044305F016F8204840F2044105F0AD
:1043C00008F8D9F80030189A43F83520D9F80030A9
:1043D000EA001344199A5A600122AA40D0213846B3
:1043E000FFF7F2FA044628B1D9F80030002243F86A
:1043F0003520A5E7304605F031FA08E76FF0720482
:1044000005E76FF0710402E76FF00A04FFE600BFF2
:10441000EECA000827C600089CAB00084AC6000880
:1044200075C60008A5C60008C7C60008E9C600088A
:1044300013C700083BC70008A7B20008ADC40008B6
:104440002DE9F04F894619685B68D0F804B0066919
:10445000DBF81C709246384AC3F30A0302EA0142B1
:1044600087B043F0004313431036059305464FF0E1
:10447000FF334FF0FF32304605F0EEF97B7B00242E
:10448000A3420FDC2D4B029300231846CDE90033E5
:104490002B49022205F0D1F9304605F0DFF96FF023
:1044A0001B0545E07A6852F83480B8F1000F1DD042
:1044B0000134E5E7304605F0D1F97B7B9C420BDB0C
:1044C00020492148214A40F2564304F08BFF1F48FF
:1044D00040F2564104F07DFF7B6843F834907B68DE
:1044E00003EBC4032546C3F804A021E09DF8172080
:1044F00004F00103013363F3C5028DF81720BBF804
:10450000321001EB84012846042305AA89B205F084
:1045100089F905460028CDD00D4B09490395CDE911
:104520000183CDF8008043460122404605F085F91D
:10453000284607B0BDE8F08F0000FF0796C70008C7
:104540009CAB00087DC70008A7B20008ADC40008F6
:1045500051C700082DE9F04F1C7AD0F804B089B09B
:10456000012CDBF81C500591064692469C4610D95A
:104570004B4B02930023CDE900334A4903940122B7
:10458000184605F05AF96FF08506304609B0BDE8C7
:10459000F08F002C55D00024CDF81B40069BDCF892
:1045A00000208DF81F4062F31C030693DCF80430F2
:1045B000079A076923F0604302F0005243F000437A
:1045C0001343103707934FF0FF324FF0FF33384655
:1045D00005F042F9AB7B9C420FDB334B0293002387
:1045E0001846CDE900332F49022205F026F9384656
:1045F00005F034F96FF01B06C7E7AA6852F834805B
:10460000B8F1000F22D00134E5E7384605F026F96D
:10461000AB7B9C420BDB25492548264A40F28A4366
:1046200004F0E0FE234840F28A4104F0D2FEAB6879
:10463000059A43F83420AB684B442646C3F804A0DF
:104640002BE009B0BDE8F04FFFF7FABE9DF81B2044
:10465000BBF8341004F00103013363F3471201EB9C
:10466000C4018DF81B203046082306AA89B205F044
:10467000D9F84FEAC40906460028C6D00E4B0949AE
:104680000396CDE90183CDF80080434601224046E0
:1046900005F0D3F8002EFFF678AF6B7B1E4474E76D
:1046A000B6C700089CAB0008F3C70008DAC70008CB
:1046B000A7B20008ADC4000851C700082DE9F043B7
:1046C000D0F804900769D9F81C600C1E85B0054627
:1046D0000DDA314B02930023CDE900332F490394C7
:1046E0000122184605F0A9F805B0BDE8F08310379F
:1046F0004FF0FF334FF0FF32384605F0ADF8737BD3
:10470000A3422BDCB27BE31A9A424FF0000410DC88
:104710000393214B0094CDE9014323461F49012215
:10472000184605F08AF8384605B0BDE8F04305F0B4
:1047300095B8B26842F83340B26802EBC30228462B
:104740005460B9F8341001EBC301082289B205F0B6
:1047500070F80028E7D0124B0390DBE773684FF046
:10476000000843F83480736803EBC4030422C3F8E1
:104770000480B9F8321001EB840189B2284605F0B3
:1047800058F80028CFD0074B0390CDE90183CDF82E
:1047900000804346C2E700BF13C800089CAB000876
:1047A0002EC800085AC800082DE9FF470769456868
:1047B0003B79D5F81C800646002B4CD04FF47A721A
:1047C000002305F04DF8044678B1244B02930023F2
:1047D000CDE9003322490122184605F02EF86FF08A
:1047E0000404204604B0BDE8F087286888B18368D7
:1047F0005B689847054660B11A4B0390CDE90143C9
:104800000094234620461649012205F016F82C464E
:10481000E7E70025304605F0F9F8A9463D71243751
:1048200098F80C309D42DCD2D8F8003053F835A00F
:10483000EA00BAF1000F0CD043F83590D8F80030F8
:1048400013446FF072015A683046D047384602F080
:104850009DF90135E4E76FF07704C2E786C80008E8
:104860009CAB0008A0C80008F0B500238DB04668D6
:10487000ADF82030CDE90633CDE90933ADF82C3061
:10488000B369F4691A68076905465AB9A649A74A7F
:10489000A74840F2655304F0A5FD40F26551A348D6
:1048A00004F097FD5A684AB9A249A04AA04840F2CC
:1048B000665304F097FD40F26651F0E79A684AB9F2
:1048C0009D499A4A9A4840F2675304F08BFD40F2A2
:1048D0006751E4E7DA684AB99849944A94484FF432
:1048E000AD6304F07FFD4FF4AD61D8E71B694BB9B0
:1048F00093498E4A8E4840F2695304F073FD40F2AA
:104900006951CCE74CB98F49884A894840F26A53CB
:1049100004F068FD40F26A51C1E7227BF38D9A42B0
:1049200009D98949814A824840F26C5304F05AFD02
:1049300040F26C51B3E7627B738C9A4209D9834988
:104940007A4A7B4840F26D5304F04CFD40F26D51C1
:10495000A5E7A27BB38C9A4209D97D49734A744872
:1049600040F26E5304F03EFD40F26E5197E707F1BE
:10497000100005F0ACFD07F1340005F0A8FD227B26
:10498000114607F1240005F0A9FD306870B105F06B
:1049900050FD034650B96F4A6F490090CDE90102BE
:1049A000012204F04AFF6FF012041DE02846FFF7D1
:1049B0001BF9044628B1694B02930023CDE900336B
:1049C0000BE04FF47A720023284604F049FF70B1DF
:1049D000634B0094CDE9014323465F490122184609
:1049E00004F02BFF6FF0040420460DB0F0BD284604
:1049F00005F00CF805AA18212846FEF7C9FF044661
:104A00000028F1D1059A182122F4697228460592EE
:104A1000FEF7DAFF04460028E6D105AA1021284651
:104A2000FEF7B6FF04460028DED1059A102122F0D9
:104A3000100228460592FEF7C7FF04460028D3D18E
:104A400005AA80212846FEF7A3FF04460028CBD103
:104A5000059A802142F02B0228460592FEF7B4FF0A
:104A600004460028C0D1F268338A06A92846FEF71A
:104A700063FF163001D13B4BABE77269738A09A91A
:104A80002846FEF76FFF163001D1374B94E706A991
:104A9000284604F096FE044658B1344B0293002396
:104AA000CDE9003303902C490122184604F0C5FEDD
:104AB00079E709A9284604F097FE30B12C4B039002
:104AC000CDE9014300942346EDE72A4A059254219B
:104AD0002846FEF779FF0446002885D199225821FF
:104AE00028460592FEF770FF044600287FF47CAF4D
:104AF00003225C2128460592FEF766FF0446002843
:104B00007FF472AF4FF0FF32E02128460592FEF7A6
:104B10005BFF044600287FF467AF0146326C2846ED
:104B200004F087FE04465FE7E5C80008ADC400084E
:104B3000A7B200080AC9000830C9000856C9000811
:104B40007DC90008A4C90008C5C90008EDC900084E
:104B500016CA00083FCA00089CAB0008CBC8000872
:104B600086C8000859CA00087BCA0008A7CA0008FE
:104B7000C5CA00089990820310B543685B6C5C68F5
:104B80000B19A4074FEA92000ED01B491B4A1C4880
:104B900040F2B75304F026FC1A4804F023FC40F21C
:104BA000B751164804F015FC89070CD01649134A72
:104BB00013484FF4B76304F015FC144804F012FCDA
:104BC0004FF4B761EDE712F0030205D103EB80016A
:104BD00099420ED1002010BD0D49084A084840F204
:104BE000B95304F0FFFB0B4804F0FCFB40F2B95151
:104BF000D7E743F8042BEBE740CB000807CB0008CE
:104C0000A7B2000850CB00086FCB000881CB00088A
:104C1000A2CB0008B1CB000838B54068406C4568AD
:104C20004C19AD074FEA93000ED02449244A254879
:104C300040F2945304F0D6FB234804F0D3FB40F237
:104C400094511F4804F0C5FB8D070CD01F491C4A26
:104C50001C4840F2955304F0C5FB1D4804F0C2FB0C
:104C600040F29551EDE791070CD01A49144A1548C6
:104C700040F2965304F0B6FB174804F0B3FB40F241
:104C80009651DEE79B0708D102EB8003A11A9342FD
:104C900002EB01000ED1002038BD1049084A094836
:104CA00040F2975304F09EFB0D4804F09BFB40F24A
:104CB0009751C6E752F8044B0460E8E740CB000880
:104CC00007CB0008A7B2000850CB00086FCB000844
:104CD00081CB0008CFCB0008EECB0008A2CB0008A8
:104CE000B1CB000838B54068406C45684C19AD0739
:104CF0004FEA93000ED02449244A254840F26B53D2
:104D000004F070FB234804F06DFB40F26B511F4828
:104D100004F05FFB8D070CD01F491C4A1C4840F271
:104D20006C5304F05FFB1D4804F05CFB40F26C51D7
:104D3000EDE791070CD01A49144A154840F26D531B
:104D400004F050FB174804F04DFB40F26D51DEE7D4
:104D50009B0708D102EB8003A11A934202EB0100EA
:104D60000ED1002038BD1049084A094840F26E5360
:104D700004F038FB0D4804F035FB40F26E51C6E7F5
:104D8000006842F8040BE8E740CB000807CB0008B6
:104D9000A7B2000850CB00086FCB000881CB0008F9
:104DA0000BCC00082ACC0008A2CB0008B1CB00082D
:104DB000D02808B546D02FD8A82845D011D88428A7
:104DC00019D0A0F188039BB21C2B09D828490122D5
:104DD0009A400A420FD11C2B38D0082B08BF8420E0
:104DE00008BDB82834D010D8B42833D0F8D8AC28AF
:104DF00001D0B028F4D11F491F48204ACB2304F02A
:104E0000F1FA1E48CB2104F0E4FACC2824D0E7D8EC
:104E1000BC28F0D0C828EDE7E0281FD007D8D82854
:104E20001ED0DC281ED0D42808BFD020D8E7F42814
:104E30001AD003D8E42819D0F028DBE7F82808BFF7
:104E4000E820CDE7CC20CBE79420C9E79020C7E746
:104E50009C20C5E79820C3E7C820C1E7DC20BFE756
:104E6000D420BDE7D820BBE7E420B9E7E020B7E7CE
:104E7000010011017DB30008A7B2000847CC00086B
:104E80001FB54FF040700C4601F0FAF9034658B9CF
:104E90000C4A0090CDE901020B49012204F069FEA1
:104EA0006FF0040004B010BD084AD2F8001511B923
:104EB00023600020F6E7D2F800255200B0FBF2F3A1
:104EC000F6E700BF78CC0008A4AB00080060004003
:104ED0002DE9F04143685E6C86B0054605AA70690D
:104EE000002104F0F6FF041E07DB059B0022197960
:104EF000186800F0BDFC041E0EDA3A4B03940293CE
:104F00000023CDE9003338490122184604F031FE70
:104F1000204606B0BDE8F0816B685F6C334C2046DC
:104F200005F087FA002859D0BB68F968D4F80880E2
:104F3000012B18D9D8F8183008318BB1204600223F
:104F40009847041E0FDA2A4B02930023CDE9003361
:104F500025490122184604F00CFE264B0394CEE7A7
:104F60006FF05704EFE7D8F80030F9681F4898470A
:104F7000041EF2DB3B7E3BB1284604F047FD3B7E3E
:104F80001D4A5B08C2F80035284604F03FFD05AA1B
:104F900080212846FEF7FCFC04460028B8D1059A7B
:104FA00042F0016242F44022802128460592FEF739
:104FB0000BFD04460028ABD14FF08072C02128467B
:104FC000FEF702FD04460028A2D12846FFF74CFC5C
:104FD000044600289CD13369984799E76FF0120482
:104FE000BBE700BF8ECC0008A4AB000810A70008E8
:104FF000ACCC0008D6CC00080060004010B5214BB6
:1050000018680B68082B144616D00B2B0BD89BB1D5
:10501000013B0A2B10D8DFE803F017162E163331A8
:10502000160F1A252500582B0ED008D84C2B0BD064
:10503000502B09D0482B07D06FF0850006E05C2B81
:1050400002D0602BF7E700202060002010BD00F0A8
:10505000C1F80623B0FBF3F0552358430723B0FBF8
:10506000F3F0F1E700F0B6F80623B0FBF3F05523B8
:1050700058434008E8E74FF4FA40E5E70248E3E721
:105080000248E1E7D006002000366E01006CDC0229
:10509000F8B54C4F4C4C00F0BBF8384604F0F6FD28
:1050A00001F03EF8A368494AC3F303131578D35CB3
:1050B00005F01F0503F01F0320FA03F647FA05F574
:1050C000AE4202D2284601F03BF9236823F4802344
:1050D0002360236843F48033236023689A03FCD55C
:1050E000D4F8943043F00103C4F89430D4F89430E9
:1050F0009B07FBD5D4F8983043F00103C4F89830EF
:10510000D4F898309807FBD5A36803F00C030C2B58
:1051100018D12368590506D4236843F480732360AB
:1051200023685A05FCD5A36823F0030343F0010369
:10513000A360A36803F00C03042BFAD1A36823F047
:10514000F003A360236823F080732360E36823F0F7
:10515000605323F4003343F06053E360E36843F4A7
:105160008033E360E36823F4C003E360E36843F45F
:105170008013E36000F032F8236843F0807323600B
:1051800023689B01FCD5A36823F0F003A360A36808
:1051900043F00303A360A36803F00C030C2BFAD1C4
:1051A000AE4202D3284601F0CBF8094B1F60A3683A
:1051B00023F4E063A360A36823F46053A36000209A
:1051C000F8BD00BF80FE210A00100240E0D00008B8
:1051D000D00600200048704700366E010A4AD2F817
:1051E000803023F48073C2F8803002F5D032074B50
:1051F000D1680B4043F4AA4343F05303D360D36810
:1052000043F08073D3607047007000400C80FFF95A
:10521000064B9A6D42F080529A659B6D82B003F006
:1052200080530193019B02B0704700BF0010024001
:1052300008B5074805F0FDF838B10648FEF706F94D
:105240000448FCF70BF8002008BD6FF01200FBE7E4
:10525000D8A70008595200080A2838B5074D044657
:1052600004D1AB680D215B6828469847AB680348BA
:105270005B68E1B29847204638BD00BFD8A7000858
:10528000044AD2F8903023F40043C2F89030002052
:10529000704700BF001002400B4B0169CA225A62DE
:1052A00053225A62DA6D42F00102DA659A6922F4F9
:1052B00080529A619A6922F480729A610020FF22DA
:1052C0005A620860704700BF002800400B4B5B68C3
:1052D00023F07F4323F0C00318041A0D00F47C1060
:1052E00040EA0210C3F303421043DA0202F0E06224
:1052F000104303F4F8531843704700BF00280040E0
:10530000F0B503694668002585B01D60354C204620
:1053100005F08FF8034660B9334A34490090CDE96F
:105320000102012204F0CDFC6FF01204204605B00A
:10533000F0BDA768B1693B6820469847024660B156
:105340002B4B0095CDE901532B46284901221846E5
:1053500004F0B7FC6FF00404E8E726490B6843F457
:1053600080730B60B169BB6908312BB9224B029382
:105370000023CDE90033E8E720469847044600289B
:10538000F4D11E4A1E4DD2F8903043F40043C2F8C7
:105390009030284600F0A2FF0028DBD106F10C0176
:1053A000284604F0DDFF0028D4D1CA236B625323C2
:1053B0006B62AB6943F02003AB61FF236B62114B5F
:1053C0001A6842F400321A609A6842F400329A6015
:1053D000214622462920FDF733FD2920FDF722FD35
:1053E000A4E700BF10A700081DCD0008B4AB00085B
:1053F0003CCD0008007000404DCD00080010024078
:105400000028004000040140024B186D00F001002C
:10541000704700BF00280040044AD2F8903043F49F
:105420000043C2F890300020704700BF00100240D7
:1054300070B58AB024220446002101A803F030FC94
:105440002B4A2C4E136843F480731360FFF73EFF22
:1054500031680546FFF73AFFA8420346F6D1C0F38C
:10546000031000EB800503F00F0000EB4500C0B215
:1054700064300690C3F3033000EB8005C3F30320D0
:1054800000EB4500C0B201380590C3F3035000EBB8
:105490008000194AC3F3034303EB40030A40DBB225
:1054A0000493130DC2F3034003EB830300EB4303A8
:1054B0000393C2F3023303EB8303C2F3032202EB31
:1054C0004302C1F3021303EB830301F00F0101EB6D
:1054D000430101A80292019103F091FF0546204685
:1054E00004F0D5FB054B2B4458430AB070BD00BFF8
:1054F00000700040002800407F7F3F0080BC92C7C2
:1055000070B5056904462E68FFF792FF104B196DC0
:10551000C907024617D5CA21596253215962D96D6C
:1055200041F00101D965996921F480519961996926
:1055300021F480719961FF21596226B10021AB6885
:1055400029602046B047034B4FF400325A6170BDCA
:1055500000280040000401402DE9F041D0F81080FF
:1055600090B015460746FFF763FFD8F800606C68F7
:10557000002E52D12B68C8F80030AB68C8F808304C
:10558000ED6815F0010542D101340444384604F0B9
:105590007EFBB4FBF0F0244C041945F1000607A98A
:1055A0006846CDE9004603F091FA099B8DF80C306E
:1055B0000021089B1D4C8DF80D30CDE90411079B8F
:1055C0008DF80E30CA270A9B029153268DF81830A9
:1055D00067626662A369FF2523F48073A36102AA50
:1055E0006562204604F021FED0B967626662A36955
:1055F00043F48073A361E36D43F00103E365A369A2
:1056000043F48053A361656210B0BDE8F081384671
:1056100004F03DFBB4FBF0F4C1E76FF00F00F3E7DB
:105620006FF00400F0E700BF80436D3800280040B1
:1056300010B5036961B92049204A21483A2303F093
:10564000D1FE204803F0CEFE3A211C4803F0C1FEF3
:10565000486850B91C49194A19483B2303F0C2FE57
:105660001A4803F0BFFE3B21EFE79868F8B1884283
:1056700019D1DC6808689860A14200D1D860002088
:1056800008602AB19A680A60DA68996002B9D9603C
:10569000002010E0814206D108682060D86881426D
:1056A000EDD1DC60EBE7044600680028F2D1002A67
:1056B000E8D16FF0150010BDC0CD000884CD000802
:1056C000A7B20008C9CD0008D8CD0008EACD00086F
:1056D00038B5036904465860084D284604F0A9FE11
:1056E00040B16168AB680C311B682846984700EAF6
:1056F000E07038BD6FF01200FBE700BF10A7000894
:1057000070B5D1E9016119B101250C68854001B975
:1057100070BD8A682A4010D04B6863B90A490B4AA9
:105720000B485D2303F05EFE0A4803F05BFE07486A
:105730005D2103F04EFE304698471CB12368214698
:105740001C46E4E72346FAE701CE000884CD0008B2
:10575000A7B20008EACD000873B50C461146B1F5B2
:10576000001F456802691E4628D104F00303043374
:105770009B000F229A4042EA940202F00303023394
:10578000374951F82310130C93FAA3F3B3FA83F3B8
:1057900001EA124203F01F0322FA03F3AA689A42B5
:1057A00009D12046FDF7E4FE2046FDF735FF002134
:1057B0002046FDF7E9FE002002B070BDB1F5800F74
:1057C00044D028492046FDF70FFF002841D1B6F10B
:1057D000806F37D0B6F1C06F36D0B6F1007F3BD1C5
:1057E0000226214AAD6892E803006B4683E8030075
:1057F0001E488268194612689047D8B904F003031E
:1058000004339B000F21994041EA940101F0030306
:105810009B0003F1804303F580330A0C986892FAE9
:10582000A2F2B2FA82F202F01F0220EA1141954080
:105830000D439D6020463146FDF7A6FE2046FDF74C
:1058400085FEB8E70126CCE70326CAE76FF085009E
:10585000B2E76FF00F00AFE76FF01500ACE700BFE5
:10586000000001400157000844AC000810A70008E0
:105870002DE9F047264F044600EBC1060025B4424F
:1058800001D1002014E02068C30600F01F0811D4E5
:10589000656845F02005C0F3481AC0F344200F287E
:1058A00032D857F82090B9F1000F1CD16FF01200D8
:1058B000BDE8F087B8F1100F13D0B8F1110F01D186
:1058C0006568E8E7B8F1000FE5D112491248134ABC
:1058D0004FF4887303F086FD10484FF4887103F08D
:1058E00078FD3025D7E7484604F0A3FD0028DDD039
:1058F00043462A460AF00F01484604F0D5FA00282C
:1059000004F10804BBDAD3E76FF01500D0E700BF5D
:1059100060AF0008A2CE0008A7B200086FCE000852
:10592000012912D0022907D089B90068094BC01A91
:1059300018BF0120000370470068064B984214BF4F
:105940004FF440504FF400507047002070474FF420
:10595000005070470080004070B51D46094B00267E
:1059600033F812203346FAF709FD090241EA1061C3
:105970006C08000220182A46334641F10001FAF76C
:10598000FDFC70BD8EB100082DE9F041026943684D
:10599000064610681D680C46D9688368DB6888B0C5
:1059A00063B9474B02930023CDE9003345490122F7
:1059B000184604F01BFB08B0BDE8F08107AA984721
:1059C0000028EEDB404B9D425FD1079FDFF8FC8053
:1059D00000252346AAB238460021FFF7BDFFA0F5F7
:1059E0004070404510D901350C2DF2D10494336834
:1059F0000393374B02930023CDE900333149012251
:105A0000184604F0F3FAD6E72F4EF36A23F00F039B
:105A10002B43F3628CB92C4BDA68B2F5407F25D268
:105A20002C492D4A2D48BB2303F0DCFC2C4803F005
:105A3000D9FCBB21284803F0CCFC2A4B33F81520B5
:105A4000002319463846FAF799FC090241EA106129
:105A500063080002C01822464FF0000341F1000124
:105A6000FAF78CFCC0F31300F060D4E7DA681E4B41
:105A70009A42A0D91D49184A1848BF2303F0B2FC26
:105A80001B4803F0AFFCBF21D4E72B6823F400438D
:105A90002B6034B1079B03EB5403B3FBF4F39BB2CD
:105AA000EB60EB680F2B86D812490B4A0B48D123C9
:105AB00003F098FC104803F095FCD121BAE700BF31
:105AC000CBCE00080CAC000800800040FFFC0F00AB
