:020000040800F2
:1000000000360020554A000899430008414A00087C
:10001000414A0008414A0008414A00080000000027
:10002000000000000000000000000000794B000804
:10003000414A000800000000314B00087D7D0008A7
:10004000354D0008354D0008354D0008354D000888
:10005000354D0008354D0008354D0008354D000878
:10006000354D0008354D0008354D0008354D000868
:10007000354D0008354D0008354D0008354D000858
:10008000354D0008354D0008354D0008354D000848
:10009000354D0008354D0008354D0008354D000838
:1000A000354D0008354D0008354D0008354D000828
:1000B000354D0008354D0008354D0008354D000818
:1000C000354D0008354D0008354D0008354D000808
:1000D000354D0008354D0008354D0008354D0008F8
:1000E000354D0008354D0008354D0008354D0008E8
:1000F000354D0008354D0008354D0008354D0008D8
:10010000354D0008354D0008354D0008354D0008C7
:10011000354D0008354D0008354D0008354D0008B7
:10012000354D0008354D0008354D0008354D0008A7
:10013000354D0008354D0008354D0008354D000897
:10014000354D0008354D0008354D0008354D000887
:10015000354D0008354D0008354D0008354D000877
:10016000354D0008354D0008354D0008354D000867
:10017000354D0008354D0008354D0008354D000857
:10018000354D0008354D0008354D0008354D000847
:10019000354D0008354D0008354D0008354D000837
:1001A000354D0008354D0008354D0008354D000827
:1001B000354D0008354D0008354D0008354D000817
:1001C000354D0008354D0008354D0008354D000807
:0801D000354D0008354D000813
:1001D800FFFFFFFFFFFFFFFFFFFFFFFFFFFFFFFF27
:1001E800FFFFFFFFFFFFFFFFFFFFFFFFFFFFFFFF17
:0801F800FFFFFFFFFFFFFFFF07
:1002000090F800F06DE9024520F007016FF0000C56
:1002100010F0070491F820F040F049804FF00004FE
:100220006FF00700D1E9002391F840F000F10800D9
:1002300082FA4CF2A4FA8CF283FA4CF3A2FA8CF311
:100240004BBBD1E9022382FA4CF200F10800A4FA78
:100250008CF283FA4CF3A2FA8CF3E3B9D1E90423CC
:1002600082FA4CF200F10800A4FA8CF283FA4CF303
:10027000A2FA8CF37BB9D1E9062301F1200182FABD
:100280004CF200F10800A4FA8CF283FA4CF3A2FAC3
:100290008CF3002BC6D0002A04BF04301A4612BAD1
:1002A000B2FA82F2FDE8024500EBD2007047D1E9D4
:1002B000002304F00305C4F100004FEAC50514F063
:1002C000040F91F840F00CFA05F562EA05021CBF34
:1002D00063EA050362464FF00004A9E7000000004E
:1002E00001F0FF01102A2BDB10F0070F08D010F8E7
:1002F000013B013A8B422DD010F0070F42B3F6D1EB
:10030000F0B441EA012141EA014122F007047FF003
:1003100000070023F0E80256083C85EA010586EA5A
:10032000010685FA47F5A3FA87F586FA47F6A5FA96
:1003300087F68EB9EED1F0BC01F0FF0102F00702A2
:1003400032B110F8013B013A83EA010313B1F8D14D
:100350000020704701387047002D06BF354603382E
:10036000073815F0010F07D1013015F4807F02BF67
:10037000013015F4C03F0130F0BC0138704700BFB8
:100380004FF0FF0C1CEAD0521EBF1CEAD15392EA78
:100390000C0F93EA0C0F6FD01A4480EA010C400254
:1003A00018BF5FEA41211ED04FF0006343EA5010AE
:1003B00043EA5111A0FB01310CF00040B1F5000FF0
:1003C0003EBF490041EAD3715B0040EA010062F19F
:1003D0007F02FD2A1DD8B3F1004F40EBC25008BF89
:1003E00020F00100704790F0000F0CF0004C08BFA7
:1003F00049024CEA502040EA51207F3AC2BFD2F174
:10040000FF0340EAC250704740F400004FF0000381
:10041000013A5DDC12F1190FDCBF00F000407047BB
:10042000C2F10002410021FA02F1C2F1200200FAF9
:1004300002FC5FEA310040F1000053EA4C0308BFC0
:1004400020EADC70704792F0000F00F0004C02BF11
:10045000400010F4000F013AF9D040EA0C0093F08C
:10046000000F01F0004C02BF490011F4000F013BE6
:10047000F9D041EA0C018FE70CEAD15392EA0C0F54
:1004800018BF93EA0C0F0AD030F0004C18BF31F0BF
:10049000004CD8D180EA010000F00040704790F095
:1004A000000F17BF90F0004F084691F0000F91F039
:1004B000004F14D092EA0C0F01D142020FD193EAFF
:1004C0000C0F03D14B0218BF084608D180EA010087
:1004D00000F0004040F0FE4040F40000704740F063
:1004E000FE4040F44000704781F0004102E000BF50
:1004F00083F0004330B54FEA41044FEA430594EAE4
:10050000050F08BF90EA020F1FBF54EA000C55EA1E
:10051000020C7FEA645C7FEA655C00F0E2804FEAEF
:100520005454D4EB5555B8BF6D420CDD2C4480EAD1
:10053000020281EA030382EA000083EA010180EA01
:10054000020281EA0303362D88BF30BD11F0004F4F
:100550004FEA01314FF4801C4CEA113102D0404285
:1005600061EB410113F0004F4FEA03334CEA1333C0
:1005700002D0524263EB430394EA050F00F0A780D8
:10058000A4F10104D5F1200E0DDB02FA0EFC22FAD3
:1005900005F2801841F1000103FA0EF2801843FAC7
:1005A00005F359410EE0A5F120050EF1200E012AB8
:1005B00003FA0EFC28BF4CF0020C43FA05F3C018F6
:1005C00051EBE37101F0004507D54FF0000EDCF16F
:1005D000000C7EEB00006EEB0101B1F5801F1BD318
:1005E000B1F5001F0CD349085FEA30004FEA3C0C1C
:1005F00004F101044FEA445212F5800F80F09A8012
:10060000BCF1004F08BF5FEA500C50F1000041EB15
:10061000045141EA050130BD5FEA4C0C404141EB19
:100620000101013C28BFB1F5801FE9D291F0000F14
:1006300004BF01460020B1FA81F308BF2033A3F1C3
:100640000B03B3F120020CDA0C3208DD02F1140CBA
:10065000C2F10C0201FA0CF021FA02F10CE002F1F5
:100660001402D8BFC2F1200C01FA02F120FA0CFCEE
:10067000DCBF41EA0C019040E41AA2BF01EB045137
:10068000294330BD6FEA04041F3C1CDA0C340EDC35
:1006900004F11404C4F1200220FA04F001FA02F378
:1006A00040EA030021FA04F345EA030130BDC4F136
:1006B0000C04C4F1200220FA02F001FA04F340EA2B
:1006C0000300294630BD21FA04F0294630BD94F0DC
:1006D000000F83F4801306BF81F480110134013DC3
:1006E0004EE77FEA645C18BF7FEA655C29D094EA34
:1006F000050F08BF90EA020F05D054EA000C04BFB2
:100700001946104630BD91EA030F1EBF002100209C
:1007100030BD5FEA545C05D14000494128BF41F03B
:10072000004130BD14F580043CBF01F5801130BD9F
:1007300001F0004545F0FE4141F470014FF000002A
:1007400030BD7FEA645C1ABF194610467FEA655CDB
:100750001CBF0B46024650EA013406BF52EA03357D
:1007600091EA030F41F4002130BD00BF90F0000F6B
:1007700004BF0021704730B54FF4806404F13204A7
:100780004FF000054FF0000150E700BF90F0000F60
:1007900004BF0021704730B54FF4806404F1320487
:1007A00010F0004548BF40424FF000013EE700BF57
:1007B00042004FEAE2014FEA31014FEA02701FBFE7
:1007C00012F07F4393F07F4F81F06051704732F019
:1007D0007F4208BF704793F07F4F04BF41F4002170
:1007E000704730B54FF4607401F0004521F00041CE
:1007F0001CE700BF50EA010208BF704730B54FF058
:1008000000050AE050EA010208BF704730B511F058
:10081000004502D5404261EB41014FF4806404F190
:1008200032045FEA915C3FF4D8AE4FF003025FEA16
:10083000DC0C18BF03325FEADC0C18BF033202EB9A
:10084000DC02C2F1200300FA03FC20FA02F001FAF4
:1008500003FE40EA0E0021FA02F11444BDE600BF97
:1008600070B54FF0FF0C4CF4E06C1CEA11541DBF46
:100870001CEA135594EA0C0F95EA0C0F00F0DEF811
:100880002C4481EA030621EA4C5123EA4C5350EAF6
:10089000013518BF52EA033541F4801143F4801347
:1008A00038D0A0FB02CE4FF00005E1FB02E506F0D8
:1008B0000042E0FB03E54FF00006E1FB03569CF02D
:1008C000000F18BF4EF0010EA4F1FF04B6F5007F33
:1008D00064F5407404D25FEA4E0E6D4146EB0606A5
:1008E00042EAC62141EA55514FEAC52040EA5E502E
:1008F0004FEACE2EB4F1FD0C88BFBCF5E06F1ED8D8
:10090000BEF1004F08BF5FEA500E50F1000041EB0E
:10091000045170BD06F0004646EA010140EA0200BB
:1009200081EA0301B4EB5C04C2BFD4EB0C0541EADD
:10093000045170BD41F480114FF0000E013C00F3F2
:10094000AB8014F1360FDEBF002001F0004170BD16
:10095000C4F10004203C35DA0C341BDC04F114042F
:10096000C4F1200500FA05F320FA04F001FA05F2BB
:1009700040EA020001F0004221F0004110EBD37088
:1009800021FA04F642EB06015EEA430E08BF20EAB4
:10099000D37070BDC4F10C04C4F1200500FA04F357
:1009A00020FA05F001FA04F240EA020001F00041E9
:1009B00010EBD37041F100015EEA430E08BF20EA5C
:1009C000D37070BDC4F1200500FA05F24EEA020EA4
:1009D00020FA04F301FA05F243EA020321FA04F0D3
:1009E00001F0004121FA04F220EA020000EBD3708A
:1009F0005EEA430E08BF20EAD37070BD94F0000F8A
:100A00000FD101F00046400041EB010111F4801FBD
:100A100008BF013CF7D041EA060195F0000F18BF6E
:100A2000704703F00046520043EB030313F4801FAA
:100A300008BF013DF7D043EA0603704794EA0C0F64
:100A40000CEA135518BF95EA0C0F0CD050EA41067A
:100A500018BF52EA4306D1D181EA030101F00041F7
:100A60004FF0000070BD50EA410606BF104619461F
:100A700052EA430619D094EA0C0F02D150EA01362B
:100A800013D195EA0C0F05D152EA03361CBF10466C
:100A900019460AD181EA030101F0004141F0FE410B
:100AA00041F470014FF0000070BD41F0FE4141F48F
:100AB000780170BD70B54FF0FF0C4CF4E06C1CEA8F
:100AC00011541DBF1CEA135594EA0C0F95EA0C0F44
:100AD00000F0A7F8A4EB050481EA030E52EA0335FF
:100AE0004FEA013100F088804FEA03334FF0805520
:100AF00045EA131343EA12634FEA022245EA11154D
:100B000045EA10654FEA00260EF000419D4208BFFD
:100B1000964244F1FD0404F5407402D25B084FEAAA
:100B20003202B61A65EB03055B084FEA32024FF456
:100B300080104FF4002CB6EB020E75EB030E22BFB3
:100B4000B61A754640EA0C005B084FEA3202B6EB73
:100B5000020E75EB030E22BFB61A754640EA5C0022
:100B60005B084FEA3202B6EB020E75EB030E22BFB2
:100B7000B61A754640EA9C005B084FEA3202B6EBB3
:100B8000020E75EB030E22BFB61A754640EADC0072
:100B900055EA060E18D04FEA051545EA16754FEAD4
:100BA00006164FEAC30343EA52734FEAC2025FEAF2
:100BB0001C1CC0D111F4801F0BD141EA00014FF081
:100BC00000004FF0004CB6E711F4801F04BF014352
:100BD0000020B4F1FD0C88BFBCF5E06F3FF6AFAE6E
:100BE000B5EB030C04BFB6EB020C5FEA500C50F1FE
:100BF000000041EB045170BD0EF0004E4EEA113181
:100C000014EB5C04C2BFD4EB0C0541EA045170BD87
:100C100041F480114FF0000E013C90E645EA060ECB
:100C20008DE60CEA135594EA0C0F08BF95EA0C0FF9
:100C30003FF43BAF94EA0C0F0AD150EA01347FF441
:100C400034AF95EA0C0F7FF425AF104619462CE718
:100C500095EA0C0F06D152EA03353FF4FDAE10467B
:100C6000194622E750EA410618BF52EA43067FF4CC
:100C7000C5AE50EA41047FF40DAF52EA43057FF45C
:100C8000EBAE12E780F0004002E000BF81F00041CF
:100C900042001FBF5FEA410392EA030F7FEA226C22
:100CA0007FEA236C6AD04FEA1262D2EB1363C1BFB2
:100CB000D218414048404140B8BF5B42192B88BF21
:100CC000704710F0004F40F4000020F07F4018BF44
:100CD000404211F0004F41F4000121F07F4118BF64
:100CE000494292EA030F3FD0A2F1010241FA03FC0C
:100CF00010EB0C00C3F1200301FA03F100F00043F4
:100D000002D5494260EB4000B0F5000F13D3B0F1BB
:100D1000807F06D340084FEA310102F10102FE2A2A
:100D200051D2B1F1004F40EBC25008BF20F001009A
:100D300040EA03007047490040EB0000013A28BF39
:100D4000B0F5000FEDD2B0FA80FCACF1080CB2EBBC
:100D50000C0200FA0CF0AABF00EBC250524218433A
:100D6000BCBFD0401843704792F0000F81F40001DF
:100D700006BF80F400000132013BB5E74FEA4103B2
:100D80007FEA226C18BF7FEA236C21D092EA030F1E
:100D900004D092F0000F08BF0846704790EA010F98
:100DA0001CBF0020704712F07F4F04D1400028BFC5
:100DB00040F00040704712F100723CBF00F50000A7
:100DC000704700F0004343F0FE4040F400007047DD
:100DD0007FEA226216BF08467FEA23630146420289
:100DE00006BF5FEA412390EA010F40F4800070479C
:100DF0004FF0000304E000BF10F0004348BF404242
:100E00005FEA000C08BF704743F0964301464FF07D
:100E100000001CE050EA010208BF70474FF00003D9
:100E20000AE000BF50EA010208BF704711F000431A
:100E300002D5404261EB41015FEA010C02BF8446EA
:100E40000146002043F0B64308BFA3F18053A3F549
:100E50000003BCFA8CF2083AA3EBC25310DB01FA90
:100E600002FC634400FA02FCC2F12002BCF1004F14
:100E700020FA02F243EB020008BF20F001007047A5
:100E800002F1200201FA02FCC2F1200250EA4C00F9
:100E900021FA02F243EB020008BF20EADC7070473F
:100EA0004FEA4002B2F1FE4F0FD34FF09E03B3EB77
:100EB00012620DD94FEA002343F0004310F0004FB7
:100EC00023FA02F018BF404270474FF0000070470D
:100ED00012F1610F01D1420205D110F0004008BFAC
:100EE0006FF0004070474FF00000704753B94AB9A7
:100EF000002908BF00281CBF4FF0FF314FF0FF3022
:100F000000F00CB8ADF1080C6DE904CE00F068F902
:100F1000DDF804E0DDE9022304B07047704700BF4C
:100F20004FF0FF3C06E000BF4FF0010C02E000BFB5
:100F30004FF0010C4DF804CD4FEA410C7FEA6C5C98
:100F40004FEA430C18BF7FEA6C5C1BD001B050EA3B
:100F5000410C0CBF52EA430C91EA030F02BF90EA26
:100F6000020F0020704710F1000F91EA030F58BFE5
:100F7000994208BF90422CBFD8176FEAE37040F047
:100F8000010070474FEA410C7FEA6C5C02D150EAE5
:100F9000013C07D14FEA430C7FEA6C5CD6D152EAA0
:100FA000033CD3D05DF8040B704700BF8446104665
:100FB00062468C461946634600E000BF01B5FFF764
:100FC000B7FF002848BF10F1000F01BD4DF808ED34
:100FD000FFF7F4FF0CBF012000205DF808FB00BF05
:100FE0004DF808EDFFF7EAFF34BF012000205DF85F
:100FF00008FB00BF4DF808EDFFF7E0FF94BF0120AC
:1010000000205DF808FB00BF4DF808EDFFF7CEFFAC
:1010100094BF012000205DF808FB00BF4DF808EDEB
:10102000FFF7C4FF34BF012000205DF808FB00BFBC
:10103000844641EA000313F003036DD1403A41D3E3
:1010400051F8043B40F8043B51F8043B40F8043BA2
:1010500051F8043B40F8043B51F8043B40F8043B92
:1010600051F8043B40F8043B51F8043B40F8043B82
:1010700051F8043B40F8043B51F8043B40F8043B72
:1010800051F8043B40F8043B51F8043B40F8043B62
:1010900051F8043B40F8043B51F8043B40F8043B52
:1010A00051F8043B40F8043B51F8043B40F8043B42
:1010B00051F8043B40F8043B51F8043B40F8043B32
:1010C000403ABDD2303211D351F8043B40F8043BD2
:1010D00051F8043B40F8043B51F8043B40F8043B12
:1010E00051F8043B40F8043B103AEDD20C3205D3E2
:1010F00051F8043B40F8043B043AF9D2043208D0DA
:10110000D2071CBF11F8013B00F8013B01D30B884B
:1011100003806046704700BF082A13D38B078DD029
:1011200010F003038AD0C3F10403D21ADB071CBFFB
:1011300011F8013B00F8013B80D331F8023B20F865
:10114000023B7BE7043AD9D3013A11F8013B00F89E
:10115000013BF9D20B7803704B7843708B78837026
:10116000604670474FEA410C7FEA6C5C02D150EA5E
:10117000013C0AD14FEA430C7FEA6C5C02D152EA8F
:10118000033C02D14FF0000070474FF00100704760
:101190004FEA410212F5001215D211D56FF478739F
:1011A000B3EB625212D94FEAC12343F0004343EA42
:1011B000505311F0004F23FA02F018BF404270471D
:1011C0004FF00000704750EA013005D111F00040A7
:1011D00008BF6FF0004070474FF00000704700BF3D
:1011E0002DE9F04786468C460846089E154674460B
:1011F0001946002B40F0C2808542B2FA82F245D9EE
:101200004AB1C2F1200300FA02FC2EFA03F3954022
:1012100043EA0C0C94404FEA154EA8B2BCFBFEF812
:10122000230C0EFB18CC08FB00F943EA0C4399454C
:1012300028D9EB1808F1FF3704D2994502D9A8F153
:1012400002072B44A3EB0903A4B2B3FBFEFC0EFB85
:101250001C330CFB00F044EA0344A04214D92C19BF
:101260000CF1FF3304D2A04202D9ACF102032C44AA
:10127000241A43EA07401EB1D4400023346073604F
:10128000BDE8F0874746DDE76346F1E792BB431BC5
:1012900001214FEA154EAFB2B3FBFEFC200C0EFB52
:1012A0001C330CFB07F840EA0343984562D9EB185E
:1012B0000CF1FF3004D2984502D9ACF102002B4466
:1012C000A3EB0803A4B2B3FBFEFC0EFB1C330CFB28
:1012D00007F744EA0344A7424ED92C190CF1FF3317
:1012E00004D2A74202D9ACF102032C44E41B43EA26
:1012F0000040C0E7C2F1200320FA03F1954090407E
:101300002EFA03F303434FEA154EAFB2B1FBFEFCD6
:101310000EFB1C10190C0CFB07F841EA0041884534
:1013200004FA02F422D969180CF1FF3004D288457E
:1013300002D9ACF102002944A1EB08019BB2B1FB38
:10134000FEFC0EFB1C110CFB07F743EA01439F4216
:101350000ED9EB180CF1FF3104D29F4202D9ACF147
:1013600002012B44DB1B41EA004192E76046E3E7C0
:101370006146F7E76046A3E76346B7E7834206D9CD
:1013800016B9002108467BE7C6E900E0F9E7B3FAA1
:1013900083F78FB9834201D3724508D8BEEB0204AC
:1013A00060EB030301209C461EB9002168E7384624
:1013B000FAE7C6E9004CF8E7C7F1200CBB4022FA77
:1013C0000CF41C432EFA0CF120FA0CF3B840014344
:1013D0004FEA14490EFA07F5B3FBF9F81FFA84FE39
:1013E00009FB18300B0C08FB0EFA43EA00439A4540
:1013F00002FA07F240D9E31808F1FF3004D29A4507
:1014000002D9A8F102002344A3EB0A0389B2B3FB7B
:10141000F9F809FB183308FB0EFE41EA03418E453B
:101420002CD9611808F1FF3304D28E4502D9A8F1F6
:101430000203214443EA0040A0FB0298A1EB0E0105
:101440004145CE46434602D306D14D4504D2B9EBC1
:10145000020E68EB04030138002EA6D0B5EB0E0295
:1014600061EB030101FA0CFC22FA07F34CEA0303D7
:10147000F940C6E9003198E74046C5E74346D9E759
:101480002DE9F04F016C9FB016461F46CDE9046769
:101490002B9D039049B1426C4A600123934004465E
:1014A0008B600CF049F800232364B7F10009B4BF46
:1014B000012300232B60764BBCBF29F00049CDF8F7
:1014C000149033EA090300F0AA80DDE90434002215
:1014D000184621460023CDE90801FFF777FD804635
:1014E00068B12A9A012313602C9B13B12C9A694B83
:1014F0001360694B0A930A981FB0BDE8F08F1CABCC
:1015000001931DAB00930398DDE908230CF048FB21
:101510005FEA1955824640F09880DDE91C85454414
:1015200005F23243202B40F38383C3F1400309FAD1
:1015300003F905F2124326FA03F349EA0300FFF721
:1015400015F90123013DA1F1F8711193534B0022CC
:10155000FEF7CEFF48A3D3E90023FFF781F948A3A4
:10156000D3E90023FEF7C6FF064628460F46FFF7DD
:101570000DF945A3D3E90023FFF772F902460B46A4
:1015800030463946FEF7B6FF06460F46FFF700FE27
:1015900000228346002330463946FFF721FD00280C
:1015A00040F01A83A8EB0508BBF1160F08F1FF34D1
:1015B00000F28B813A4D05EBCB05D5E90023DDE93F
:1015C0000801FFF70DFD002870D00023002C0BF15F
:1015D000FF3B1093C0F27E8100230B93BBF1000F01
:1015E0006ADA0B9BA3EB0B030B93CBF10003CDE962
:1015F0000EB3289B092B4FF0000B65D8052B40F349
:101600001C83043B28930025289B023B032B00F2FC
:101610002386DFE813F060045D04540438042A9A3A
:10162000C9F3130942F20F7359EA060913601CD17A
:101630002C9B002B00F02B861A4B0A9308332C9A14
:101640000A9813601FB0BDE8F08FDDE90812C2F3FD
:101650001303084643F07F51CDF84480A5F2FF35CF
:10166000DDF8708041F4401170E72C9B002B40F0B6
:10167000E7830D4B0A933EE761436F63A787D23F31
:10168000B3C8608B288AC63FFB799F501344D33F71
:101690000000F07F2D2101082C2101080000F83FF7
:1016A000E8190108502101085C210108B8F1000F78
:1016B00040F3608410900B9000230F93289BCDF88B
:1016C00038B0092B5C4499D90023CDE92833012592
:1016D0004FF0FF330C950693039B00215964069B42
:1016E000189303980BF002FF0A90002800F0BD85C4
:1016F000039B0A9A1A64069B0E2B00F21581002D9B
:1017000000F012810E9A002A40F33B84B24D02F0A1
:101710000F0305EBC303D3E9008913461511DA055E
:1017200040F1FA83AD4BDDE90801D3E90823FFF767
:10173000C1F9CDE9120105F00F0503277DB1A74ED0
:10174000EB0708D540464946D6E90023FFF788F85D
:101750000137804689466D1006F10806F0D14246F1
:101760004B46DDE91201FFF7A5F980468946109B3B
:1017700043B19B4B002240464946FFF731FC00280D
:1017800040F0F1843846FFF701F842464B46FFF738
:1017900067F8944B0022FEF7ADFE069B0646A1F1CA
:1017A0005077002B00F0A9800E9B1993069B129393
:1017B0000A9B894D49464046CDE914675E1CFFF7F8
:1017C000E7FC129905EBC10353E902120746CDE984
:1017D0001612FEF7DBFF02460B4640464946FEF76F
:1017E00087FE89460C993037DDE916238046FFB223
:1017F000002900F053847C490020FFF75BF9DDE904
:101800001423FEF775FE0A9D02460B46CDE914230C
:101810002F7042464B46FFF701FC002840F09784AA
:10182000CDE91AB4CDF858A0129DDDE914AB00271C
:101830002AE00137AF4280F2DE846C4B50465946B5
:101840000022FFF70DF8694B002282468B46404686
:101850004946FFF705F889468046FFF799FC04469C
:10186000FEF794FF02460B4640464946FEF740FE0F
:10187000303406F8014B52465B4680468946FFF7F6
:10188000AFFB002840F0B48442464B465449002048
:10189000FEF72EFE52465B46FFF7A2FB0028C8D09B
:1018A000199BDDF858A00A9A374603F1010802E0B7
:1018B000974200F07C843E4617F8013D392BF7D063
:1018C0000133DBB23B70454675E10123002C1093D8
:1018D000BFF682AEC8F101030B9300247EE63846C2
:1018E000FEF754FF42464B46FEF7BAFF3D4B00223F
:1018F000FEF700FE0646A1F150773D4B40464946B3
:101900000022FEF7F5FD32463B4680468946FFF74A
:1019100085FB002840F05A8440464946324607F18C
:101920000043FFF75DFB28BB1D9B002BC0F292809C
:101930000E9A0E2A00F38E80274D0E9B05EBC305F1
:10194000D5E90034CDE90434299B002B19DA069B34
:10195000002B16DC0ED1264B0022DDE90401FEF738
:101960007FFF02460B46DDE90801FFF743FB002835
:1019700000F02C844FF000090A9E4F46299BDD435E
:1019800025E2DDE90445DDE9088922462B4640468B
:101990004946FFF78FF8FFF7FBFB0646FEF7F6FE1A
:1019A00022462B46FEF75CFF0A9F0B46024649463D
:1019B0004046FEF79DFD06F1300307F8013B069B0C
:1019C000012B00F012830125CDF818A09946DDE91E
:1019D00004ABA8462CE000BFE8190108C0190108B3
:1019E0000000F03F00001C400000E03F00002440E9
:1019F0000000144052465B4620462946FFF75AF83D
:101A0000FFF7C6FB0646FEF7C1FE52465B46FEF7F1
:101A100027FF08F101080B46024629462046FEF73B
:101A200067FD06F13003C84507F8013B00F0DB8293
:101A3000B94B0022FEF714FF0022002304460D4696
:101A4000FFF7C4FA0028D5D00E9DDDF818A00135A7
:101A50003E46B0E00C9A002A40F0D28000230F9D51
:101A60000B9E0C931F4656B1002C08DDA6420B9A24
:101A70003346A8BF2346D21A0B92F61AE41A0F9BDC
:101A800053B10C9B13B1002D40F0E88251460F9AE0
:101A900003980BF0E1FE8246039801210BF0F8FD5C
:101AA0008146BBF1000F40F0B681289B012B40F32B
:101AB000CC810120204410F01F0000F09A80C0F17A
:101AC0002003042B40F3DA810B9BC0F11C0003447C
:101AD0000B93064404440B9B002B05DD51460398F1
:101AE0001A460BF013FF8246002C05DD4946039889
:101AF00022460BF00BFF8146109B002B40F07081BB
:101B0000069B002B40F348810C9B002B40F0A480E7
:101B10000E9D0135DDF82880069CDDF80CB001260D
:101B200007E0514600230A2258460BF00FFD01360C
:101B30008246494650460BF0F3FAA64200F13003C4
:101B400008F8013BEDDB069A002AC8BF16460A9A40
:101B5000D8BF012602EB060B002451460122039850
:101B600004930BF0D3FE494682460BF047FF002852
:101B700040F3E3810A9A02E05A4500F0E9815E46AB
:101B80000BF1FF3B16F8013C392BF5D001338BF8F4
:101B90000030DDF80C80494640460BF0CDFC57B1D3
:101BA0002CB1BC4203D0214640460BF0C5FC039843
:101BB00039460BF0C1FC039851460BF0BDFC0023E5
:101BC00033702A9B1D602C9B002B3FF494AC0A9829
:101BD0001E601FB0BDE8F08F5846FEF7D7FD3246B5
:101BE0003B46FFF7F3F900287FF4DCAC0BF1FF3B39
:101BF000D8E41C230B9A1A440B921E441C446AE737
:101C0000289A012A40F3A981069A0F9B551EAB42E0
:101C1000C0F26B81002AA3EB050580F2DD820B9BED
:101C2000069A9E1A039801210BF032FD07461AE727
:101C3000C3F1200306FA03F081E40125E4E4394608
:101C4000002303980A220BF081FC189B002B074607
:101C500040F3EF820E950693002E00F33F81BBF117
:101C6000000F40F0DF81B8460A9E069C731E1C449C
:101C7000049B0C9403F00103039C0F9349465046C8
:101C80000BF04EFA3946834650460BF0B7FE4246FB
:101C90004946054620460BF0D1FEC26801460BF1CD
:101CA0003003002A3AD1089050460B930BF0A6FE61
:101CB0000899069020460BF03FFC069A0B9B002AE1
:101CC0005AD1289A1AB90F9A002A00F09A82002D48
:101CD00045DB0C9AB346B2420BF8013B00F0B981E8
:101CE000514600230A2220460BF030FC474582462D
:101CF00039464FF000034FF00A02204636D00BF071
:101D000025FC4146074600230A2220460BF01EFC14
:101D10005E468046B2E700BF000024400398069369
:101D20000BF00AFC002D069B06DB049A289902F0B2
:101D300001020D432A432AD15146012203980493FC
:101D40000BF0E4FD494682460BF058FE0028049B48
:101D500040F3E880392B00F02F820BF131030E9D08
:101D600006F8013B3C460135474612E70BF0EEFB17
:101D70005E460746804681E7002DC0F27D822899A5
:101D80000D430F990D4300F07782002AA1DD392B16
:101D900000F012820133E2E7289B022B7FF7B4AEFA
:101DA000069B002B40F01D814946052203980BF04D
:101DB000CDFB0146814650460BF020FE002840F343
:101DC00010810A9E0E9D312306F8013B01350398D0
:101DD000494601350BF0B0FB002F7FF4E8AEEAE690
:101DE000494650460BF00AFE0028BFF689AE514620
:101DF000002303980A220BF0A9FB0E9B5D1E0C9B8F
:101E00008246002B7FF41BAF189B002B40F3FF8111
:101E10000E9D06937EE601465A4603980BF01CFD84
:101E2000289B012B81466CDD4FF0000BD9F8103058
:101E300009EB830318690BF0D9FBC0F1200039E6E8
:101E4000924B0A930333FFF7FABB049B002B7FF4FA
:101E500030AEDDE90412C2F31303002B7FF429AE88
:101E60008B4B134023B10B9B01330B9301340123A4
:101E7000BBF1000F40F0AE819B461AE63FF42BAE5B
:101E8000C0F13C03B6E601230C93299B0E9A134440
:101E900018930133012B1E460693B8BF0126172E57
:101EA00040F3D581012204235B0003F11400B0420A
:101EB000114602F10102F7D9039B596411E4012391
:101EC0000C93299B002B33DD189306931E46E6E7FF
:101ED00000230C93D9E700230C93F2E739460398CB
:101EE00032460BF013FD0746B9E60F9B069A0F9595
:101EF000EB1A9B440B9B1E46134414440B93002582
:101F000090E6049B002B8FD1DDE90401C1F313039C
:101F10000A46002B88D1A3E7DDE908230227CDE993
:101F200012230BE47FF41BAFDA077FF518AF11E73C
:101F3000012329930693FFF7CFBB03D1049BDB0753
:101F40003FF518AE5E461BF8013D302BFAD020E677
:101F50000A9A3123013513701BE6119A002A00F00A
:101F6000F98003F233430B9A0F9D16461A441C4422
:101F70000B9257E6C8F1010304460B931090FFF74C
:101F80009BBB00F0EB800E9B424D5E4206F00F03C0
:101F900005EBC303D3E90023DDE90801FEF760FC8C
:101FA0003511CDE9120100F04D813B4E002302278F
:101FB00080468946E80709D5D6E9002340464946C8
:101FC000FEF74EFC01378046894601236D1006F16D
:101FD0000806EFD1002B7FF4CAABDDE91289FFF7C9
:101FE000C6BB0A9ECAE4DDF818A00E9D02460B4649
:101FF000FEF780FA02460B46CDE906230135DDE9FE
:102000000423A846FFF70AF840B9DDE90423DDE917
:102010000601FEF7DBFF18B1F10701D50A9A4AE481
:102020003E46C8E5796803980BF060FA054600283B
:1020300000F026813B6902339A0007F10C010C3055
:10204000FEF7F6FF0398294601220BF05FFC80465D
:102050000AE60E9D3C46013547467EE5DDF80C80DC
:1020600039462A4640460BF0F7FB524601460746E2
:1020700040460BF03BFB5146824640460BF05CFA73
:102080000F9B5B1B0F933FF407ADFFE45C2101083E
:102090000000F07FE8190108C0190108DDE914010A
:1020A000FEF7DEFB0A9B1F70129B012BCDE90C0192
:1020B00000F0C680129F0A9BCDF844B01F447C4BB1
:1020C000002240464946FEF7CBFB89468046FFF793
:1020D0005FF88346FEF75AFB0BF1300B02460B46C6
:1020E00040464946FEF704FA06F801BBB74280466F
:1020F0008946E4D1DDF844B06E4B0022DDE90C01E5
:10210000FEF7F8F902460B4640464946FEF786FFC1
:10211000002867D1DDE90C2366490020FEF7E8F9C5
:1021200002460B4640464946FEF75AFF48B91D9BFA
:10213000002BFFF693AC0E9B0E2B3FF78FACFFF7F7
:10214000FCBB3E46013F16F8013C302BF9D0199DEF
:10215000013530E51C9BC3F1360304E7DDE908894E
:102160000227FFF704BB069B002B3FF4B8AB189B7C
:10217000002B7FF7D9AB0E9A1293013A4C4B199270
:10218000404600224946FEF76BFB80468946781C94
:10219000FEF7FCFA42464B46FEF762FB464B002236
:1021A000FEF7A8F90646A1F15077FFF701BB08F149
:1021B00001083123FFF786BB0E9D0A9AB3463923E7
:1021C0003C460BF8013B01354746D8E44FF0000987
:1021D0004F46F6E59B4629E60B9B1E4613441444E6
:1021E0000B931FE5199B0A9A03F10108FFF763BBE4
:1021F000DDF858A0ABE7DDE91AB4DDF858A0FFF729
:1022000093BB392BD8D0002D3FF7A7ADA7E5289B6E
:10221000022B0ADC189B069349460E9D0AF080FFAC
:102220000A9A00F1300313708DE4189B06930E9503
:10223000B6E5289B022BF8DC189B0E9506930BE560
:10224000374659E7DDE912890227FFF790BA039B69
:1022500000215964FFF745BA039B00255D642946B8
:1022600018460BF043F90A90A8B9144B1448002201
:102270004FF4D5710BF0AEFD002A7FF770AD5BE532
:102280000E4B0F482A4640F2EA210BF0A3FD0D4BFE
:102290000A93FFF730B9039B0A9A1A644FF0FF3391
:1022A0000122299518930C920693FFF73DBB00BFBE
:1022B000000024400000E03F00001C4060210108B5
:1022C0007421010850210108014806F08DBE00BFAD
:1022D000880E002008B5054C20680DF0FFFB00219A
:1022E0004FF4FA6007F04CFFF6E700BF080F00203C
:1022F00008B5054C20680DF05DFC00214FF4FA6034
:1023000007F03EFFF6E700BF0C0F00202DE9F04F6D
:1023100089B00024654B664D66490293032223462B
:102320002046CDE900440DF086FB284600F00CF96C
:10233000034660B9604A5F490090CDE9010201227D
:102340000DF079FB4FF0FF3009B0BDE8F08F5B4F27
:102350005B4EE968DFF86C91DFF86C81DFF86CA107
:10236000DFF86CB1384600F001FC3760594F294660
:10237000384600F083FAC9F80070574F29463846AE
:1023800000F0EAFAC8F80070544F2946384600F0C9
:10239000EBFA534A5349544BCAF80020C2E90017DC
:1023A000524A31681A605248524BCBF80070C2E969
:1023B0000001C2E90244D9F80010D8F800204E4FBD
:1023C00018460DF0DDFB4B4B3B604C4B326818461A
:1023D00029460DF07DFB4A4A484B3068136000F0F7
:1023E00085FB40B9474B02930023CDE900333149C7
:1023F00001221846A4E7D9F8000000F0E3F900280C
:10240000F0D0D8F8000000F041FA0028EAD0DBF85C
:1024100000000DF04CFC0028E4D0DAF80010386819
:102420000DF0BBFB304B386819680DF0B6FB364930
:10243000364806F049FD364A306823464FF480712D
:1024400000F0F6FA002600270525CDE90667CDE95C
:102450000245CDE900442F4B2F4904944FF400620C
:102460002E4806F01BFF2E492C4806F031FE2D4B5E
:102470002D490094CDE90667CDE90354CDE9014427
:102480004FF48062294806F009FF2949274806F0E1
:102490001FFE284B07490094CDE9014320462346FF
:1024A00003220DF0C8FA20464EE700BFB82201080B
:1024B000280F00206C190108CC220108000F002011
:1024C000240F0020200F00201C0F0020140F0020DC
:1024D000180F0020F40E0020E80E0020DC0E002073
:1024E000D40E0020B81A0108100F0020C40E0020DE
:1024F000001B0108A80E00200C0F0020980E0020E1
:10250000080F0020EF22010839250008880E00205E
:10251000C9220008F1220008C01700207809002015
:1025200010230108D522000880130020B8080020DD
:102530001E2301082F230108024B186808B100F080
:1025400065BA7047180F00204A4A4B494B4BF0B50B
:1025500042604B4A82604B4AC260036000F1140241
:10256000044603C985B082E8030018460EF0D3FD87
:1025700068B9454B02930023CDE90033434901225A
:1025800018460DF067FA0025284605B0F0BD6068D2
:102590000EF0C1FD0028ECD0A0680EF0BCFD0028B4
:1025A000E7D0E0680EF0B7FD0028E2D060690EF0D9
:1025B000B2FD05460028DCD06069217E638B03F004
:1025C0003002302AD0E9016ED0F810C00ED1304967
:1025D000304A314840F2D3330DF09FFC2F480DF0C4
:1025E0009CFC40F2D3312B480DF08EFC03F0060228
:1025F000042A09D12A49274A274840F2DA330DF044
:102600008CFC40F2DA31EEE736680127DA0707FA88
:1026100001F754BF43F4B01383F4D013374223F4CB
:1026200080120CD11F491B4A1B4840F2ED330DF0BC
:1026300074FC1D480DF071FC40F2ED31D3E7DCF87D
:102640000060DB074CBF3E43BE43CCF80060DEF8C1
:102650000030984758B1154B029300230390CDE901
:1026600000330A49012218460DF0F4F98BE70123E3
:10267000237789E728150108A01901083C150108EE
:102680005015010864150108542301086419010854
:10269000B323010882230108EC230108092401085F
:1026A0004624010879240108B7240108C924010837
:1026B00010B50346007F0A4620B35869197E0469A5
:1026C000012303FA01F143681B6819420ED10F4937
:1026D0000F4A10484FF4CB630DF01FFC0E480DF06D
:1026E0001CFC0B484FF4CB610DF00EFC2368194223
:1026F00018BF82F0010232B18368DB689847B0FAF4
:1027000080F0400910BD83681B69F7E77924010850
:1027100082230108EC230108B7240108F0B5057AEB
:102720008DB00E4665B3234A118892788DF8162035
:102730004268ADF81410106805ABA8228DF813207C
:1027400009930DF1130203230692002401220A9338
:10275000072307928DF820408DF82C3083680222E1
:102760009F6806A95C23B84770B1134B0390CDE96D
:102770000143124900942346022220460DF082F9BB
:10278000002528460DB0F0BD9DF815309DF81620A7
:102790009DF814001B0243EA02431843FEF72CFB8A
:1027A0004FF06651FDF7ECFD0549FDF7E9FD30609E
:1027B000E7E700BFB819010803250108541901080B
:1027C0000000C842F0B58FB04268002301240646DD
:1027D0008DF81A3010688DF828300F220DF11A0389
:1027E000CDE90B348DF81B2007230DF11B02089255
:1027F00009948DF83430836802229D6808A95C230F
:10280000A8479DF81A30054608B9B12B0ED0CDE97E
:102810000353174B02930023CDE9003315490122DE
:1028200018460DF02FF900200FB0F0BD736818683E
:1028300041F21003ADF81C3007AB08930223099353
:102840008DF82830836822469F6808A95C23B84722
:1028500058B1094B0390CDE90153064900952B4629
:10286000224628460DF00EF9DDE734722046DBE7FC
:102870001B250108541901084A250108024AC0E92C
:102880000021002202727047D01A01081FB5436868
:10289000044658680EF03FFC0346207238B9054ADA
:1028A00005490090CDE9010201220DF002F9207ADC
:1028B00004B010BD80250108041901082DE9F0417C
:1028C000057A8CB00E463DB3436858680DF113038A
:1028D00006930123079305AB0024099302270723DE
:1028E000ADF814408DF813408DF820400A978DF80C
:1028F0002C3083683A46D3F8088006A94023C047A5
:1029000078B1104B0390CDE901430F490094234661
:102910003A4620460DF0CDF8002528460CB0BDE81B
:10292000F081BDF8140040BA80B2FEF761FA0749A1
:10293000FDF726FD0649FDF723FD0649FDF720FDBD
:102940003060EAE79E250108041901086F12833AF6
:102950004DE34D3A00606A47024AC0E90021002277
:1029600002727047E81A0108024AC0E900210022F9
:1029700002727047181B010870B5037A86B00446CE
:102980000E46A3B100250D22294602A8019508F0A4
:10299000C3FD3046FEF784FA064A0346112101A81A
:1029A00008F02AFE01AA294620460DF0C2F906B019
:1029B00070BD00BFC225010830B5037A87B0044658
:1029C0000D469BB100210D2202A8019108F0A4FD43
:1029D0002846FEF765FA064A0346112101A808F0C9
:1029E0000BFE01AA012120460DF0A3F907B030BD6E
:1029F000D2250108014A01210DF09BB9DF2501080C
:102A0000014A01210DF095B9EF25010810B5064ADC
:102A1000044600210DF08DF92046044ABDE810401F
:102A200001210DF086B900BFFF250108102601081D
:102A300030B540680D4689B011461A46B0B1A9B10B
:102A400040F2FF730693002405AB0794059502F04E
:102A50006FFE00280DDA084B0390CDE901430749CA
:102A600000942346012220460DF07DF9002009B094
:102A700030BD0120FBE700BF2D2601085C190108CD
:102A8000F0B5476897B00E4615461C462FB322B3E3
:102A9000082B22D84422002105A808F03DFD22463B
:102AA000294606A804968DF81440FEF7C1FA0024C2
:102AB000CDE900444FF47A72002304A9384602F0AD
:102AC000D1FD68B1074B0390CDE90143064900945D
:102AD0002346022220460DF046F9002017B0F0BD33
:102AE0000120FBE74A2601085C1901087FB506466C
:102AF000406868B9194B02930023CDE900331849A7
:102B0000012218460DF02FF90025284604B070BDAB
:102B10000EF001FB05460028ECD0706883680421A4
:102B2000DB689847044658B10E4B02930023CDE969
:102B3000003303900A49012218460DF014F9E3E727
:102B4000706883685B6898470028DED0064B039066
:102B5000CDE9014300942346ECE700BF5E2601085F
:102B60005C190108732601088B260108014AC0E997
:102B700000217047401B0108B2F5802F2DE9F0417C
:102B80000ED33C493C4A3D4840F2EB130DF0C5F9E9
:102B90003B480DF0C2F940F2EB1137480DF0B4F9A3
:102BA000042A0CD83749344A34484FF4F9730DF0ED
:102BB000B4F935480DF0B1F94FF4F971EDE7043A85
:102BC000CD1D8E1825F0070526F00706761B172E5B
:102BD0004FEAD6070CD82D49274A284840F2FB1364
:102BE0000DF09BF928480DF098F940F2FB11D4E75D
:102BF000B7FA87F4C4F12002C4F12404A400073416
:102C0000E408631C4FF00008BB420560AF60C5F8E4
:102C10000C800CD91E49184A18484FF403730DF064
:102C20007CF919480DF079F94FF40371B5E7414685
:102C3000920005F1100008F06FFC630043F00103FF
:102C40006B8005EBC4023B1B5900A5F80080518046
:102C5000AA1925F83440A2F80280AB5305EBC7034C
:102C600021465A8842F001025A802846BDE8F041C8
:102C70000DF0A1B884270108B6260108EC2301084D
:102C80009A270108B1270108D2270108EB2701087C
:102C9000142801082DE9F04F91B08407009302F049
:102CA00004030293C2F3C20303F10103DDF8688059
:102CB000039205460E46059340F0F581041D30B1A0
:102CC000072909D86FF01B0011B0BDE8F08F01F0A3
:102CD0000706341DC6F10806009B4FF00009013BB2
:102CE0004FF0040B0193CDF810904F464B464FF038
:102CF000FF32DA460DB1009921600598002800F3F3
:102D0000D78098480099814203D397488142C0F008
:102D1000CF800399A4EB050E89074FEA9E0040F18E
:102D2000E2804FF0000CCCE07A285AD84B280CD81F
:102D3000472856D829282AD8252851D051D82028C4
:102D400077D023384342434173E04C382E2848D88B
:102D5000DFE800F06F474747474747474747474740
:102D600049474747474747474759474949595959A5
:102D70006F496C476F471849184747807D49474757
:102D800049477D00002000234FF0040B39E02A382A
:102D9000C0B2012101FA00F010EA0E0F49D110F083
:102DA000625C30D110EA010343D06046013C5C44D0
:102DB000B4FBFBF40BFB04F4002D60D0AAEB050C74
:102DC000A444B4453FF67EAF00286AD1BAF1040F9F
:102DD00045D158F8040B206004344FF0040A28E071
:102DE000013A002325E0019B13F8013C6C2B33D101
:102DF000019B13F8023C00206C2B0346C4D14FF01A
:102E0000080BDA46D2E708F1070828F0070807346C
:102E1000F8E802AB24F0070435B106982044B0422C
:102E20003FF650AFC4E900AB083400234FF0080B65
:102E3000DA46019911F8010F0191002800F0BB80DA
:102E4000002B7FF471AF2528F3D1013201234FF01D
:102E5000040BEDE7184696E700200346A6E7BAF113
:102E6000080F40F09A8008F1070828F00708F8E8F2
:102E70000201C4E9000108344FF0080AD9E780B91B
:102E8000BAF1040F02D108F10408A5E7BAF1080F5E
:102E900040F0838008F1070828F0070808F10808C7
:102EA000E9E705990139059158F8041B009121E7DC
:102EB000039988074AD5A4EB050E4FEA9E004FF010
:102EC000010CBEF5007F1ED32849294A29484FF43A
:102ED0001F730DF022F828480DF01FF84FF41F71F2
:102EE00023480DF011F80F2F0FD8002D48D007F10F
:102EF00040010DEB010C0CF8200C0CF8102C049880
:102F00000130049021E00F2F0CD91849184A1948B4
:102F100040F281230DF001F818480CF0FEFF40F25A
:102F20008121DDE7CDB107F140010DEB010EC0B20B
:102F30000EF8200C0EF8102CBCF1000FDFD060F062
:102F40007F000EF8200C09F101090137C5F10801D5
:102F5000043406914FF6DA7E6BE7BCF1000F0FD018
:102F60000136F2E778130108344E0108772401088E
:102F70003F280108EC2301086D2801088E2801086C
:102F8000029802360028E0D10098CDE90632FDF71C
:102F900037F9DDE906320644D7E7444A4449454853
:102FA00040F2C6230CF0B9FF514643480CF0B5FF80
:102FB00040F2C62194E7631BB3F5806F0CD33C4904
:102FC0003A4A3C4840F2D2230CF0A7FF3B480CF0B1
:102FD000A4FF40F2D22183E71DB9A6F10804E0184E
:102FE00072E6029A28609B082B709DF81030C2B1DF
:102FF000EB7085F80290B9F1000F05D008A8002207
:10300000C5F1010C97420ED1C5F101030DF1200865
:103010004FF0000A01930DF1300B574512D1601BA0
:1030200052E66B70E5E710F8013B190608D504EB92
:103030000C0EB64503F07F033FF644AE04F8013BA7
:103040000132DFE7B9F1000F03D098F90020002A20
:1030500017DB029BD3B11AF80B2004F8012B0022D6
:10306000019B98182044B0423FF62CAE98F800001F
:1030700004F8010B009903922046FDF7D9FF039A4B
:1030800014440AF1010A08F10108C6E798F8002083
:1030900055F822300093029B45F822300098FDF746
:1030A000AFF8421CDCE76FF00D000DE63F28010889
:1030B00077240108EC230108A8280108BD2801088D
:1030C000014B1860704700BF9806002030B587B0EC
:1030D0000025CDE903010446009503A9054805959F
:1030E00000F06EF8DDE904309842B8BF255407B00F
:1030F00030BD00BF6BFE0008F0B5094E0168024606
:103100000A2700200B4601311C78355D6D0701D47C
:103110001360F0BD07FB0043A3F13000F2E700BFEE
:10312000E91F01082DE9F84F15469A46D378234A3E
:1031300012F803B06F2B81460F460BF0030B2BD018
:1031400026D8582B0CBF10260A26DDF828803246D8
:10315000002348463946FDF7C9FE092A08F1FF3821
:10316000D4B21ED83034B145E4B277F1000788F804
:10317000004001D3D04511D82B789B0605D5082EE9
:1031800015D1AB7843F00803AB704046BDE8F88F2B
:1031900003F0F703702BD5E70826D6E781460F46E4
:1031A000D5E7BBF1010F0CBF37345734DBE7102EE6
:1031B000EBD1AB7843F01003E6E700BFE91F01084D
:1031C0002DE9F04F97B08A46039016461C4600251D
:1031D000307808B9284656E325280AD0039B514683
:1031E00098470028C0F24F83731C01350493049E56
:1031F000EEE71822002110A808F08EF97378252B2D
:1032000000F0A3800023711C98469E469C461846F9
:103210000F4611F8012B2B2A00F0C68000F2BD806A
:10322000202A00F0C480232A00F0C4802BB19DF82E
:10323000483043F040038DF84830B8F1000F05D016
:103240009DF8483043F020038DF84830BEF1000F60
:1032500005D09DF8483043F010038DF84830BCF19C
:10326000000F05D09DF8483043F008038DF8483032
:1032700028B19DF8483043F004038DF848309DF89C
:10328000483003F04401442903D16FF386138DF8CD
:1032900048309DF84830099743F080032A2A8DF87A
:1032A000483040F08C809DF8493043F001038DF8A0
:1032B00049307B1C1A782E2A9DF849200CBF012129
:1032C000002161F341028DF849200CD15A1C09926A
:1032D0005A782A2A40F083809DF8492042F004025F
:1032E0008DF8492002331A786C2A00F0A48000F28D
:1032F0008680682A00F08C806A2A00F0A5804C2A1B
:1033000000F0AA801A4612F8013B0492782B9DF82F
:1033100049208DF84B3000F217816D2B00F2A98007
:10332000692B00F21181572B00F2BE80412B03D094
:10333000453B022B00F208819DF84A30042262F3DB
:1033400002038DF84A300123CAE08DF84B30B31CDC
:1033500004939DF84930D90740F1FD8054F8048B5F
:10336000B8F1000F07DA9DF8482042F004028DF80A
:103370004820C8F100085A0740F1F68054F804BB11
:10338000BBF1000F80F2F5809DF849306FF34103E7
:103390008DF849304FF0FF3BEBE02D2A0DD0302A5D
:1033A0007FF444AF012333E74FF0010C30E74FF0D7
:1033B000010E2DE74FF001082AE7012028E709A8B0
:1033C000FFF79AFE099BBB423FF474AF9DF848207B
:1033D0001390C00F60F341028DF848206AE709A8F6
:1033E000FFF78AFE9DF848301490C3F3400242EA8A
:1033F000D07262F341038DF84830099B73E7742A59
:1034000026D07A2A7FF47EAF9DF8492006210CE071
:103410005A78682A9DF8492006D1012161F3C60235
:103420008DF8492002336DE7022161F3C6028DF861
:103430004920013366E75A786C2A9DF8492001D16A
:103440000421EBE70321F0E79DF849200521ECE793
:103450009DF849200721E8E7BDF8482022F4F04212
:1034600022F0020242F4804242F00202ADF848200B
:10347000DFE76E3BD9B201238B4040F282410B4221
:1034800038D113F0240F52D1DF075DD59DF84A30B3
:10349000032161F302038DF84A3002F07803A3F1AF
:1034A0004000434243411BE0A3F15801C9B201204F
:1034B00000FA01F111F4624F7FF43EAF40F60107CC
:1034C00039421DD111F4043F3ED09DF84A3060F3DB
:1034D000020302F07802402A8DF84A3034D00023EB
:1034E0009DF84820C2F340010B4363F341028DF87D
:1034F00048202EE79DF84A30022161F30203E8E7F5
:103500009DF84A10022002F0780260F30201402A7E
:103510008DF84A1002BF9DF8481041F001018DF866
:103520004810632BDBD1131E18BF0123D8E79DF889
:103530004A30032161F3020312F0780F8DF84A300C
:1035400014BF01230023CBE79DF8483043F001036B
:103550008DF84830C3E79DF94820002AB4BFDDF854
:103560004C804FF0FF3806E79F077FF513AFDDF87B
:1035700050B09DF849100023CDE913339DF84A302F
:1035800003F00703012BC1F3C30132D1CB1E042B7F
:1035900004D8DFE803F020454520200023680129F6
:1035A0004FEAE372CDE910321BD19DF94030DA17B2
:1035B000CDE9103204349DF8483013F003074FD0A2
:1035C000049B0398324651460CF087FC0028C0F259
:1035D0005A8105440BE654F8043BDA17CDE9103262
:1035E000E9E70229E6D11AB243F3C033CDE910234B
:1035F000E0E7022B24D1CB1E042B04D8DFE803F034
:10360000181010181800012954F8043B4FF000025C
:1036100014D00229CDE91032CDD19BB21093CAE764
:10362000073424F00704F4E80223CDE91023C2E7AD
:1036300054F8043B109300231193BCE7DBB2CDE7B1
:10364000042B08D1073424F00704D4E900230834FC
:10365000CDE91023AFE7032BADD154F8043BDDE7F0
:103660009DF84B0078283FF6C2AD62281ED8252869
:1036700050D058287FF4BBAD0DF13E030093DDE937
:1036800010010AAB12AAFFF74DFDBBF1000F8146F6
:1036900080F2C280B9F1000F3FF4A9AD0DF13E06F2
:1036A000A6EB0903002F7BD0013379E0633815289E
:1036B0003FF69DAD01A252F820F000BF8F37000801
:1036C000ED370008EF310008EF310008EF31000856
:1036D000EF310008ED370008EF310008EF31000846
:1036E000EF310008EF3100083B38000813380008BC
:1036F0004D370008EF310008EF310008253700088A
:10370000EF31000813380008EF310008EF310008EE
:1037100013380008039B514698470028C0F2B38035
:10372000013564E5BBF1000FDDF840900ADB594636
:10373000484607F0D9FFB9F1000F3FF458AD09EB47
:10374000000620E04846FCF75BFDF8E710980028EB
:1037500000F087800DF13E060AAB009612AA002108
:10376000FFF7E0FCBDF84A3003F0EF0343F4F04309
:1037700043F01003BBF1000F8146ADF84A304ADA3E
:1037800000283FF434ADA6EB0903002708E0109BA6
:103790008DF8283000270DF129060DF128090123A5
:1037A0009DF84A1011F01002069260D00233139A6D
:1037B000059213444A0644BF14995B18B8F1000FF0
:1037C0006EDDA8EB03089DF848305807C3F3800B63
:1037D00066D459065AD53FB1039B5146384698479F
:1037E000002850DB01355F46302350E01E075CBFE8
:1037F000C3F300135F01DDE9102348BF2B27002B23
:10380000BFF63AAF524263EB4303CDE910232D27B5
:1038100032E7002730E700279DF848100DF13E03FE
:10382000A3EB09036FF386119B458DF848107FF6D3
:1038300031AFABEB030313932CE7109B07293FF643
:10384000D6ACDFE801F00C04060C08080C0C1D7067
:10385000CDE41D80CBE4EA17C3E90052C7E41D6044
:10386000C5E4314E0746A6F10509052398E7080788
:1038700048BF01339BE7184607935146039B98477F
:103880000028079B04DA17B0BDE8F08F2023C34659
:10389000594600290BF1FF3BEDDC45446D1AD84633
:1038A00037B1039B5146384698470028EBDB01357A
:1038B0009DF84A30DA0601D41B0706D5039B514612
:1038C000302098470028DEDB0135069B3BB19DF890
:1038D0004B00039B514698470028D4DB0135059FD8
:1038E0002F4406E0039B5146302098470028CADB4E
:1038F00001357B1B002BF5DC039833464A465146C5
:103900000CF0EBFA0028BEDB0544A844A8EB050345
:10391000002B7FF76CAC039B514620209847002872
:10392000B1DB0135F2E700BFEA280108034A53681A
:1039300023F0020353600020704700BF002004E022
:10394000134B1A6842F400721A601A6842F48062DB
:103950001A601A6842F480721A600E4B0E4A1A609E
:103960000E4A536843F0010353600D4B9A6D42F0C9
:1039700080529A659B6D0B4A82B003F0805301938D
:10398000019B9368002043F48043936002B070472A
:1039900000200240D40600200024F400002004E0AF
:1039A00000100240007000401FB5D0E90123C1683B
:1039B000029164215943B1FBF2F1CDE900210446A3
:1039C00001680648D21A0CF064FAD4E906230448C8
:1039D00004B0BDE810400CF05CBA00BFEB28010851
:1039E0002B290108F0B595B0D0F8AC6005460F461C
:1039F0000DF01AFC044608B1037833B91A4A2B4675
:103A00000B2101A80CF052FA01AC694628460DF0D2
:103A10001BFC024628B1154821460CF03AFA002357
:103A20000093009BCDE90A460EA9F61A28460C968B
:103A30000DF011FC80B904A80DF017FC78B90E98B0
:103A40000F9D6424A0FB0401DDE9042304FB0511A0
:103A5000FDF74CFA0D9002E004A80DF006FC0AA850
:103A6000B84715B0F0BD00BF50290108532901081F
:103A70007FB501460E4806F0FBFD05AA0D484FF440
:103A800000610DF0D5FB024670B9059B6421C3F5BA
:103A900000604143C90A02914FF40061CDE9000181
:103AA000054906480CF0F5F907B05DF804FB00BFC6
:103AB000E5390008802400207B2901087F290108BE
:103AC00008B504480CF0E5F9BDE808400248FFF7E6
:103AD000CFBF00BFB5290108A939000838B5044C8B
:103AE0000025FFF7EDFF2046294606F049FBF8E7E1
:103AF000C02709002DE9F84FDFF8F8A03E4FAAEBE8
:103B000007038F2B814688460BD93C493C4A3D48E8
:103B100040F23F130CF001FA40F23F1138480CF02C
:103B2000F3F939480CF011FA0646002834D13C4626
:103B300005464FF0010B544527D93449304A3148E6
:103B40004FF4A6730CF0E9F931480CF0E6F94FF4A4
:103B5000A671E3E7237B6BB12368DB680BB12046DA
:103B6000984723681B6943B9636804221968204693
:103B700000F00AF901361034DDE7204698470028A6
:103B8000F2D00BFA06F31D43F4E7E3D3B9F1000FCB
:103B900002D04FF0010A0DB9BDE8F88FA94695FA99
:103BA000A5F4B4FA84F40AFA04F3260107EB04142A
:103BB0006FEA030B25EA0305237B5BB1BB591B6945
:103BC0009BB93E44042273682046196809EA0B0930
:103BD00000F0DAF8002DE2D1B8F1000F03D0642034
:103BE000002106F0CDFA4D46D5E72046984700283B
:103BF000F0D1E6E79C1901088C190108032A010895
:103C0000D6290108EC230108500F0020332A0108AF
:103C1000542A0108014B53F820007047541B010837
:103C200008B5034608462BB1044A136000F006FBB2
:103C3000002008BD6FF01500FBE700BF9C060020C8
:103C4000054A064800231370054A1360054A4FF4DD
:103C50007A711360FFF7E4BF6C1300203BFF00088C
:103C6000480F00204C0F002070B5134D297809BB78
:103C70000120FFF73FFF114C114EB44217D91149F3
:103C8000114A12484FF4DC730CF047F910480CF05D
:103C900044F90D484FF4DC710CF036F963685B7938
:103CA0001BB1236820469B6898471034E5E7F5D39D
:103CB00001232B7070BD00BF6C1300208C1901080C
:103CC0009C190108332A0108D6290108EC230108B0
:103CD000542A010810B5044608480CF036F95CB1C6
:103CE000BFF35B8F064B53E8001F013943E8001216
:103CF000002AF8D1BFF35B8F10BD00BF480F002032
:103D00004C0F002070B5124B124C1B68124E05462A
:103D10009847A860B44218D91049114A114840F296
:103D2000F3130CF0FAF810480CF0F7F80C4840F2D6
:103D3000F3110CF0E9F863685B7923B12368294635
:103D40001B68204698471034E4E7F4D370BD00BFE9
:103D50009C0600208C1901089C190108332A0108CF
:103D6000D6290108EC230108542A0108044A054B0E
:103D70009B1AB1EBD30F34BF52F8310000207047CB
:103D8000E41801088C1901080E4BC31A1B110133EA
:103D900010B5DBB248B90C490C480D4ADF230CF0D2
:103DA000BCF80B48DF210CF0AFF84468237143687E
:103DB0009A7143681960436801225A71BDE8104046
:103DC0000CF0E5B88C190108F72A0108EC2301086A
:103DD000BF2A01082DE9F04F87B004AFD7E90EA93B
:103DE0003D6B04460E4693469846BAF1000F2BD021
:103DF000C7F80490CDF8009010217A6B534600204C
:103E0000FEF748FF011E0BDA2849294A294840F2EB
:103E100065130CF082F840F2651125480CF074F837
:103E2000B1F5006F11DB40F2FF730393224B029355
:103E30000023CDE900332149022218460CF0C3F8D3
:103E40000C37BD46BDE8F08F514604F007040BF077
:103E5000070BE40044EA8B1444EA412444EA055485
:103E600017350D4425F00705ADEB050D04ADBAF18E
:103E7000000F13D0CDF800907A6B534605F1100077
:103E8000FEF708FF002809DA0849094A094840F204
:103E900085130CF042F840F28511BEE743462246F6
:103EA000314628460CF076F8CAE700BF432B0108DC
:103EB000172B0108EC2301084D2B01082C190108D0
:103EC000406820B1034BC01A40F3CF0070474FF059
:103ED000FF307047E41801080EB403B503AB014688
:103EE00053F8042B044801930CF0A7F802B05DF8D6
:103EF00004EB03B0704700BFE7FF0008CA0605D413
:103F00008B064CBF02490349FFF7E6BF704700BF6D
:103F1000A5470108852B01082DE9F04F89B09A4685
:103F2000149B06939DF84CB0159B0593169B179E0A
:103F3000049304460D469046BBF1000F00F0AD809F
:103F4000BBF1040F0BD9A449A44AA54840F262234F
:103F50000BF0E3FF40F26221A0480BF0D5FF06F41E
:103F6000807307930CF014F806F00209024600284B
:103F70003FD09C492046FFF7AFFF0746B9F1000F3D
:103F800008D016F0440F36D197492A462046FFF74D
:103F9000A3FF074406F0010353B1944B944953F82F
:103FA0002B20944B2046002A08BF1A46FFF794FFA7
:103FB00006F48073002B4AD006F00803002B64D16E
:103FC000B8F1000F67D08C4942462046FFF784FFC6
:103FD0000546069B3D44002B6ED1049B002B40F010
:103FE0008380F30700F1F18031462046FFF786FF1A
:103FF000E5E00746C2E7814B18680028C9D0804B2E
:104000004FF47A791B68B5FBF3F54FF46161B5FBAA
:10401000F0F300FB135509FB05F54FF03C0CB3FB27
:10402000F1F201FB1231B5FBF0FEB1FBFCF300FB3A
:104030001E550CFB131109FB05F50091B5FBF0F5BE
:104040007049CDE901E52046FFF746FFA1E706F0FC
:104050000803EBB16C4B6D4953F82B202046FFF75A
:104060003BFF0546B8F1000F05D0634942462046A4
:10407000FFF732FF0544BAF1000FAAD06449524657
:104080002046FFF729FF0544A3E74FF0000AE1E7C8
:1040900006F00805E6E745469BE7BAF1010F069BE7
:1040A00006D1DBB9049B002B00F0898000251BE0C2
:1040B000002BF7D0574812E05748069B5749224635
:1040C0000BF0A0FE00280CDA5549444A44484FF44E
:1040D0002F730BF022FF4FF42F713DE74E485D46E2
:1040E000EBE7049B002B66D0DFF83881DFF83891CE
:1040F000049F3146102F204628BF1027FFF7FEFEF1
:104100004FF0000A554543DC059B49461A78204686
:10411000FFF7E2FE4FF0010A1AF0070F03D1414604
:104120002046FFF7D9FE574539D9059B494613F874
:104130000A202046FFF7D0FE0AF1010ABAF1100F5B
:10414000EAD13A4920464FF0000AFFF7C5FE524631
:10415000059B9A5C364B995C11F0970F08BF2E2295
:1041600034492046FFF7B8FE0AF1010ABAF1100FF0
:104170001AD01AF0070F03D141462046FFF7ACFED4
:1041800057455246E4D841462046FFF7A5FEEBE7E7
:1041900041462046FFF7A0FE0AF1010AB2E7264990
:1041A0002046FFF799FEC7E7059B3B440593049B18
:1041B000DB1B04939CD1BBF1000F7FF412AF2046B0
:1041C00009B0BDE8F04F0BF03FBF0A4A084920464E
:1041D000FFF782FE08E700BFBC2B01088D2B01080A
:1041E000EC230108C82B0108CC2B0108641B010833
:1041F000F12B0108882B0108F42B0108580F00202F
:10420000540F0020D52B0108781B0108F82B01085A
:10421000FE2B010803000108E7FF00083B0001082E
:10422000032C01081F2601080C2C0108122C010880
:10423000E91F0108142C01081D260108074A002166
:104240000123904206D8064A01B901231360054BA9
:104250001860704740085B000121F2E740420F0000
:10426000540F0020580F0020F8B5074F0D460446A4
:104270004618B44201D12846F8BD14F8011BBB68AA
:1042800001485B689847F4E70015010810B54368DA
:104290001C6809480CF03FFF48B908490848094A1A
:1042A00099230BF03AFE074899210BF02DFE236865
:1042B0005B685C6010BD00BF00150108752C01082B
:1042C000EC230108372C0108014B036000207047E4
:1042D000C01B010870B5064686B00D46002938D0CF
:1042E0008B6805934B6804930B6803930024244B5D
:1042F00024490293012223462046CDE900440BF0D5
:1043000002FF6B6905932B690493EB6803931E4BC3
:104310001C490094CDE901430122234620460BF0BD
:10432000F2FEEB690393194B16490094CDE9014362
:104330000122234620460BF0E6FEAB690393144BA3
:1043400010490094CDE901430122234620460BF099
:10435000DAFE012E0DD1EFF30583103B03930D4BD5
:1043600002930023CDE900330649324618460BF08C
:10437000CAFE2946304606B0BDE8704003F0FABFD9
:10438000A92C01084C190108D82C0108072D010897
:10439000162D0108442D010808B5034B1B689847EA
:1043A000BDE8084000F006B8A806002030BFFFF7BF
:1043B000FDBF00BF074A936893F90E10002907DB81
:1043C000D26993421FBF044A536843F0805353603D
:1043D000704700BF880C002000ED00E0F0B585B00C
:1043E0000024434B0293CDE90044234607460E4682
:1043F0000122404920460BF09AFE3F4B9B6ADB04AA
:1044000065D53E4B3B490094CDE901432046234608
:1044100001220BF08CFE1720374B9B6A1D050AD535
:10442000374B029300231846CDE90033314901226E
:104430000BF07DFE1820304DAB6A9C051FD5002483
:10444000304B0293012223462046CDE900442949FE
:104450000BF06DFEAB6BAA6A10040FD503932A4BC9
:1044600024490094CDE901430122234620460BF064
:104470005EFE1FB1AB6A23F40043AB6219201E4BF2
:104480009B6A59050AD5214B029300231846CDE9B2
:104490000033184901220BF04AFE1A20164A936A8B
:1044A00013F4807315D01A4B029300231846CDE9FC
:1044B0000033104901220BF03AFE1B200E4A936A8A
:1044C00043F47F4393620023337005B0F0BD1620A0
:1044D000A2E7926A9204F1D50E4A06490093CDE90B
:1044E0000132184601220BF022FE1C20E6E700BF35
:1044F000572D01084C19010800ED00E06D2D010851
:104500007E2D0108912D0108AA2D0108BF2D01085B
:10451000DA2D0108F22D01081FB50024374B029354
:1045200001222346CDE90044354920460BF0FFFD2A
:10453000344B9B6A9A015ED5334B31490094CDE9E7
:1045400001432046234601220BF0F1FD1E202D4B96
:104550009B6ADB010AD52D4B029300231846CDE957
:104560000033274901220BF0E2FD1F20254B9B6AF7
:104570001C030AD5264B029300231846CDE90033CD
:104580001F4901220BF0D3FD21201E4B9B6A5903CA
:104590000AD5204B029300231846CDE90033184971
:1045A00001220BF0C4FD2220164B9B6A9A030AD508
:1045B000194B029300231846CDE90033104901221C
:1045C0000BF0B5FD23200F4B9B6ADB030AD5134B81
:1045D000029300231846CDE90033094901220BF06C
:1045E000A6FD2420074A936A6FEA03436FEA134348
:1045F000936204B010BD1D20A9E700BF212E010861
:104600004C19010800ED00E0392E01084C2E01087C
:10461000662E0108842E0108A92E0108C32E010868
:104620002DE9F04385B00024564B0293CDE90044B8
:1046300023468046894620465349164601220BF000
:1046400076FD524B9B6AD80640D5514B0094CDE97C
:104650000143204623464C4901220BF068FD1124FA
:104660004A4B9B6A19070AD54A4B02930023CDE9AE
:1046700000334549012218460BF059FD1224434DE1
:10468000AB6A9A0724D50024434B0293CDE900443A
:1046900023463D49012220460BF049FD6F6BAB6A72
:1046A0001B0659D53D4B38490397CDE9014300948A
:1046B0002346012220460BF03AFDB9F1000F03D04A
:1046C000AB6A23F08003AB62132403E01024C7E736
:1046D0006FF015072D4B9B6AD8070AD5304B029314
:1046E0000023CDE900332849012218460BF01FFDB5
:1046F0001424264B9B6A99060AD52A4B0293002361
:10470000CDE900332049012218460BF010FD152495
:104710001E4DAB6ADA0602D4AB6A9B070AD56B68FA
:10472000180507D54146384600F0B8FAB8B180F30D
:1047300009880224154B9A6A920642BF5A6A22F4EB
:1047400000525A629A6A42F0FF029A62204600239F
:10475000337005B0BDE8F0836FF01507B4E7AB6ABE
:10476000D906E7D51049114A114840F25D130BF004
:10477000D4FB10480BF0D1FB0C4840F25D110BF05C
:10478000C3FB00BFEE2E01084C19010800ED00E04C
:10479000042F01087E2D0108372F01084F2F010833
:1047A000652F0108F22D0108B62F0108842F01089A
:1047B000EC230108003001082DE9F041894B044643
:1047C000586890B0C0F30806002383F31188BFF344
:1047D0006F8F02F07F45B5F17F4F0CD102F00C05D1
:1047E000082D17D1804A81490093CDE9013218463E
:1047F00001220BF09CFC7E497E4A7F484FF48B637C
:104800000BF08BFB7D480BF088FB4FF48B617948F4
:104810000BF07AFB120746BF0C461D460125002C03
:10482000E9D04FF00008F31E8DF81F80092B00F22D
:10483000BF80DFE803F005B3B796BDBDBDBDBDBB0E
:104840006F4B6A49674FCDF80080CDE901830023A3
:10485000012218460BF06BFC8DF81F80FE6A16F0E3
:10486000020605D0674BCDF80080CDE9018306E054
:10487000FB6A002B0BDA644B0096CDE90163002341
:104880005A49012218460BF052FC002230E0FB6A24
:104890005B0076D55D4B55490096CDE90163012259
:1048A000334630460BF043FC7B69A26943F48073C6
:1048B0007B61BFF34F8FBFF36F8F7B6932F8022CA0
:1048C00023F480737B61BFF34F8FBFF36F8F4DF67F
:1048D00002739A422CD1236803934D4B43490096AF
:1048E000CDE901630122334630460BF020FC2268FB
:1048F0009DF81F30CBB908AE04F12007206861682D
:10490000334603C30834BC421E46F7D10F9B002D2B
:1049100062D0C3F3080121B96FEA53236FEA43233E
:104920000F9308A91046FFF7D5FC10B0BDE8F08141
:10493000BB6ADBB23BB10DF11F0201212046FFF73C
:104940006FFE0246D4E7BB6A13F47F4F05D00DF12A
:104950001F010120FFF742FDF3E7BB6AB3F5803F7B
:1049600002D3FFF7D9FDECE72A49224A224840F258
:104970002A330BF0D2FA28480BF0CFFA40F22A3152
:1049800045E724491B4A1C4840F22E330BF0C5FA78
:1049900022480BF0C2FA40F22E3138E70DF11F0227
:1049A0000021CBE70DF11F010020D3E71C4B5AE794
:1049B0001C4A1D4B0D4910F4F87F18BF1346103EDA
:1049C000CDE90336194B02930023CDE900330122D0
:1049D00018460BF0ACFB58E723F4FF7323F00103F8
:1049E0009EE700BF00ED00E0513001084C190108BE
:1049F0007C300108842F0108EC2301088F30010866
:104A0000CD300108E43001080531010813310108F7
:104A100032310108772401084E3101087231010852
:104A2000A23101083830010823300108C6310108DD
:104A3000024A536943F010035361704700ED00E0F0
:104A4000EFF30880EFF3098101B57246FFF7B4FE7A
:104A500001BD00BF102080F311880B484FF0AA0160
:104A60004FF404620CF092FB07484FF404614018C5
:104A700080F30988EFF314800221084380F314883F
:104A8000BFF36F8F00F0CAF840240020084B9B68EA
:104A900083420BD1EFF3058343B1064B5A6842F0D2
:104AA00080525A605A6A22F400425A6205F0A6BB4C
:104AB000880C002000ED00E00A4A93686FF00A01BC
:104AC000C3F8BC100849C3F8B8004B6843F08053E2
:104AD0004B60002383F31188BFF36F8F9368D3F883
:104AE000BC007047880C002000ED00E010B50446C3
:104AF000EFF31183102383F31288BFF36F8F0A4BF8
:104B0000D8699860094B4FF000625A600022D0F8D3
:104B1000B830C0F8B82083F31188BFF36F8F00F06E
:104B200027F9204610BD00BF880C002000ED00E0F2
:104B300001B50CF08EFBBDE801400E498A684FF0CC
:104B400040001044EFF3098C80E8F01F7446704673
:104B5000FFF7CCFFA64607498A6802F1400090E8BB
:104B6000F01F8CF3098801B504F0DEFBBDE80140BD
:104B700070470000880C00201EF0040F0CBFEFF3FC
:104B80000880EFF30980816911F8021C0229FFD027
:104B900001B50BF0C8FA01BD40B2002807DB044A9A
:104BA0004109012300F01F00834042F82130704783
:104BB00000E100E038B54B1C0F2B04460D460FD921
:104BC000114A1249124858230BF0A7F911482946F7
:104BD0000F2322460BF0A1F90B4858210BF094F952
:104BE00040B20028ACBF00F160400B4A4FEA03130B
:104BF000B8BF00F00F00DBB2AABF00F5614013544C
:104C000080F8003338BD00BFD931010810320108E7
:104C1000EC2301082B32010814ED00E00F4A08B51F
:104C20000F4B22F07F029A60BFF34F8FBFF36F8F5D
:104C3000D3F8882022F47002C3F88820EFF314839D
:104C400023F0040383F31488BFF36F8F03F0ACFCED
:104C500005F08AFD00F062F803F0F8FC000000089F
:104C600000ED00E042F8203C009B42F81C3C0A4961
:104C7000019B42F8183C029B42F8143C21F00101D0
:104C80004FF0807342F8043C42F8081C0023203A9D
:104C90000266C0F8B8307047C7FE00080A4A0346EB
:104CA000906878B113F1160FD0F8A80005D0A0F1E4
:104CB00040029A4205D8834203D2814228BF002095
:104CC00070470020704700BF880C002008B50D4BCE
:104CD000044698600E46154604F026FB204600F078
:104CE00047F82C4686F309884FF00000064B98479A
:104CF00020464FF000014FF000024FF00003034C3C
:104D0000204700BF880C002057010108C7FE00089B
:104D1000014B10221A61704700ED00E004480023A7
:104D20001021C2180133662B82F80013F9D17047A5
:104D300000E100E008B5EFF30583064A103B02EB03
:104D4000C30152F8330049688847BDE80840FFF7BF
:104D500031BB00BF78150108024B034A034801210B
:104D600000F098B80000022000000020C01B0108DD
:104D7000D0F8A820054B403A1A60054A4021C3E903
:104D800001121846012100F0ABB800BF800F0020CF
:104D900000000B151FB5144AD2F89030C3F3072357
:104DA000013B98420FD9114B029300230390CDE9A8
:104DB000003318460E4901220BF0F1F96FF015008F
:104DC00005B05DF804FBC2F898000B6823F01F03E0
:104DD000034343F01003C2F89C308B6843F0010397
:104DE000C2F8A030ECE700BF00ED00E06F32010830
:104DF00044190108F0B50E4689B01F460446002547
:104E0000B54212DA606838B3BFB1431E18420FD002
:104E1000134B02930023CDE900331249039501227D
:104E200018460BF0BCF96FF01502104609B0F0BD42
:104E30001F28EDD921680B42EAD1236805930BF0B6
:104E40009EF9A36805A90343D0B20793FFF7A2FF19
:104E500010F1160FE7D0421C01350C34D0E700BF2B
:104E60009532010844190108044B0522C3F8942027
:104E7000BFF34F8FBFF36F8F704700BF00ED00E0AF
:104E8000BFF35F8F024B0022C3F89420704700BF2E
:104E900000ED00E038B50D4D01232A780C46FFF7F0
:104EA000A9FF287016300FD1094A0A490A484FF461
:104EB000B4730BF032F8094821460BF02EF8044881
:104EC0004FF4B4710BF020F838BD00BF6E13002012
:104ED000B832010877240108EC230108E732010801
:104EE00010B5144A002312780C46FFF783FF10F127
:104EF000160F08D0104A0021D2F89030C3F30723D0
:104F0000984210DB10BD0D4A0D490E4840F2871340
:104F10000BF003F80C4821460AF0FFFF074840F267
:104F200087110AF0F1FFC2F89800C2F8A010013012
:104F3000E2E700BF6E13002000ED00E0B832010888
:104F400077240108EC230108133301082DE9F04F01
:104F50007B4C7C49D4F890300D68C3F307239D4205
:104F600085B013D9784A7949794840F29F130AF0FD
:104F7000D4FFD4F8902077482946C2F307220AF0DC
:104F8000CCFF40F29F1170480AF0BEFFFFF778FF98
:104F900049680022954201F10C012DD16E4C6F4FF2
:104FA00025706846FFF790F9DFF8B481DFF8B49117
:104FB00006460025AE4232D1237861490020D1F85F
:104FC0009020C2F307229342C0F2AF80FFF74CFF5C
:104FD000D1F89030C3F30723082B00F0AC8062496E
:104FE000594A5B4840F20F230AF097FF5F480AF0E6
:104FF00094FF40F20F21C6E7C4F8982051F80C3C0A
:1050000023F01F03134343F01003C4F89C3051F8FE
:10501000043C43F00103C4F8A0300132BAE7009A1F
:1050200002EB05132901D3F80CA00AEA0700B0F53A
:10503000000F60D00AD8B0F5001F38D0B0F5800F4F
:105040004ED0B0F5801F12D00135B3E7B0F1807FAC
:105050005CD0B0F1007FF7D19868D3F804A0525823
:105060000BF08DF8CDE901A240F480200BE09868A8
:10507000D3F804A052580BF082F8CDE901A240F019
:10508000885040F430200390207801A9FFF782FE79
:10509000002846DA2D492C4A2D4840F2C9130AF05F
:1050A0003CFF33480AF039FF40F2C9116BE79868BA
:1050B000D3F804B052580BF062F81AF0010F40EA2E
:1050C0000800CDE901B20390DED02A491E4A2048EB
:1050D0006D230AF022FF28480AF01FFF6D2152E7D6
:1050E0009868D3F804A052580BF049F8CDE901A212
:1050F00040EA0900C7E79868D3F804A052580BF0BB
:105100003EF8CDE901A240F08270BCE79868D3F880
:1051100004A052580BF033F8CDE901A240F088709A
:10512000B1E72378013323708EE7C1F89830C1F8D6
:10513000A000013343E7002005B0BDE8F08F00BFB9
:1051400000ED00E0CC1B0108B8320108772401080B
:10515000EC230108403301086E1300200000F0FF2B
:105160000000081100000207F3330108433401086E
:10517000C9330108743301089A33010808B50B4B91
:10518000C3F1005303F50033B3F5005F0CD20849B7
:10519000084A094889230AF0C0FE08480AF0BDFE03
:1051A000044889210AF0B0FE002008BD803A0020A2
:1051B000A334010873340108EC230108EC3401081E
:1051C000014B1860704700BFB0060020F8B5084FCB
:1051D00006460D460024AC4208DA3B6898470A2888
:1051E000305504F1010401D00D28F4D12046F8BD5A
:1051F000AC060020F8B50A4F0D46461EC0F101046A
:10520000A3199D4201DC2846F8BD73780A2B02D110
:105210003B680D2098473B6816F8010F9847EFE769
:10522000B006002010B5074C2368C2180648C0F12C
:10523000005101F500318A423ABF2260C0184FF098
:10524000FF3010BD8C0F0020803A002010B50446BE
:1052500058B91149114A124840F28B130AF05DFE09
:1052600040F28B110D480AF04FFE142005F088FE25
:10527000206060B90B49094A094840F293130AF0CB
:105280004CFE09480AF049FE40F29311EAE7BDE8F6
:1052900010400BF08EBF00BF743501087334010855
:1052A000EC23010873350108AF35010808B558B97A
:1052B00007490848084A40F2A9130AF02EFE06489A
:1052C00040F2A9110AF020FEBDE8084005F060BEDA
:1052D00074350108EC2301087334010810B558B97E
:1052E00009490A480A4A40F2BB130AF016FE084868
:1052F00040F2BB110AF008FE4FF0FF32BDE810404B
:105300004FF0FF3303F050BA74350108EC23010865
:105310007334010808B558B907490848084A40F2EB
:10532000D7130AF0FAFD064840F2D7110AF0ECFD57
:10533000BDE8084003F008BB74350108EC23010800
:105340007334010808B505480AF0A3FD002383F370
:105350001188BFF36F8F0423184602DFD23501088E
:105360002DE9F0410F4E104F054600244FF0010883
:105370002B7853FA84F01F280DDC726908FA00F3C9
:1053800033EA020207D1736157F830301BB107EBE3
:10539000C002516898476A780134E3B29A42E7D272
:1053A000BDE8F08100040140900F0020044B184438
:1053B00000230133994200F8012BFADC704700BF4B
:1053C0005808002010B4064B064902460C681856CF
:1053D0000123934023430B6010BCFFF7DDBB00BFEC
:1053E00058080020000401401F2806DC0349012260
:1053F0000B68824023EA02030B60704700040140FF
:1054000003292AD8DFE801F0020E141F134B0122F2
:105410009968824021EA02019960D96821EA020272
:10542000DA6070470D4B0122996882401143F3E71F
:105430000A4B0122D96882401143D960996821EA58
:1054400002029A607047012303FA00F0034B9A6846
:1054500002439A60DA681043D86070470004014044
:1054600030B50A4B53F830408C4204D103EBC005F1
:105470006D68954205D034B943F8301003EBC00392
:105480005A60002030BD6FF00F00FBE7900F002046
:10549000034B002243F8302003EBC0035A607047EF
:1054A000900F00202DE9F04F5D881F469B88013545
:1054B00087B01D44FB88BDF844901D44109B88466E
:1054C0009246002B00F0C480B9F57A7F80F0C0804E
:1054D000836805A99B6A9847002840F0BC80B9F111
:1054E000000F0AD15D4B109A9A4239D85C4B40F2BA
:1054F0006B399A4288BF4FF44879059B0093109B03
:105500005D43009BB3FBF5F5BAF808309D4238BF08
:105510001D46109B03FB05FB6FF0004301933B8985
:10552000AB4220DA0198B8F80630B8F804205B08DE
:10553000934228BF1346A8F80030BAF800209342DF
:1055400003D93A889A4228BF1A466FF0004398421E
:10555000A8F8002008BF6FF0850007B0BDE8F08F05
:1055600040F2EE29C9E7009BB3FBFBF00BFB1033C5
:105570003BBB81B27B88B7F804E003934FF47A76A3
:1055800000FB09F2B2FBF6F2BAF80660BAF804C002
:1055900002968A1A92B20EEB0304B242BAF80230B3
:1055A000A4B212D9FE88964228BF16464A1E921B04
:1055B00092B294420BD20E1BFA88013EB6B2B242AE
:1055C00010D2109B01359B44A9E7029EEEE70CEB3D
:1055D0000304A4B2944232D9091B029A01398EB253
:1055E000B242EED8B3EB540F4FEA540203D2039BFE
:1055F000934228BF1346E21A92B2964521D2A4EBF9
:105600000E039BB272464FF47A7104FB01140199A8
:10561000B4FBF0F4A14534BFA4EB0900A9EB0400EE
:105620008842CED2A8F80230A8F80420A8F8066074
:10563000A8F8085000283FF476AF0190C1E714465F
:10564000D0E7944582BFA4EB0C039BB26246DAE735
:105650006FF0150081E76FF004007EE700350C0065
:1056600020A107002DE9F04305468FB01E46D5F86E
:105670000890DDE9163017460C46F1B10A68497901
:10568000C90706D5B2F1005F1CD3244B1D210820A9
:1056900005E0B2F5006F15D3214B0B210320CDE9B6
:1056A0000331204B02930023CDE90502CDE90033FD
:1056B0001D49012218460AF01AFE6FF015000FB0BE
:1056C000BDE8F083E3B90DF12408194601224046F4
:1056D0000BF076FD154B0093CDF80480D9F81490AB
:1056E0003A46334621462846C8470028E7D14FF0BE
:1056F000FF324FF0FF33404603F00EFA0D98DEE71D
:10570000CDE91630D9F814E03A463346214628460A
:10571000F4460FB0BDE8F043604700BF073601080C
:105720001036010819360108E4180108E7020108DB
:1057300070B586688AB0F9B1F3B11D7A1C6815F0AE
:10574000010F5D681CD0B4F1005F02D2B5F1005FBB
:1057500020D3134A1D210823CDE90735CDE90534AF
:10576000104B02930023CDE90321CDE900330E490C
:10577000012218460AF0BBFD6FF015000AB070BD9B
:10578000B4F5006F02D2B5F5006F03D3074A0B21C1
:105790000323E1E7B469A4460AB0BDE8704060475E
:1057A0000736010846360108E418010810360108DA
:1057B00073B514461E4682683032074D8368AC428A
:1057C00003F13A0305D8CDE90046FFF76BFE02B0BE
:1057D00070BD6FF01500FAE740420F0073B5144634
:1057E0001E4682684832074D8368AC4203F152037B
:1057F00005D8CDE90046FFF755FE02B070BD6FF049
:105800001500FAE700127A0030B543689B6987B04B
:105810001B680D469847044658B1074B0293002376
:10582000CDE90350CDE900330449012218460AF0BE
:10583000AAFD204607B030BD93360108EC180108D8
:1058400030B543689B6987B05B680D46984704464E
:1058500058B1074B02930023CDE90350CDE9003343
:105860000449012218460AF08EFD204607B030BDDB
:10587000B6360108EC1801082DE9F04F9DB004463A
:105880000493436891468B46482200210AA8D3F826
:105890001C8005F041FE07AA49462046FFF7B4FFE9
:1058A000F0B9DFF898A1079D6B0619D0C5F305255F
:1058B00005EBC5010BEBC10189B2082308AA2046FC
:1058C00005910AF04EFD059968B15D4B02930023E6
:1058D000CDE9003303905B49012218460AF053FDDD
:1058E0001DB0BDE8F08F9DF82630C3F303008DF89E
:1058F0002C009DF82300870642BF9DF82D6046F0DE
:1059000002068DF82D609E0642BF9DF82D6046F080
:1059100004068DF82D60DF0603F00F0248BF9DF8E6
:105920002D309DF8277044BF43F008038DF82D30CB
:10593000060642BF9DF82D3043F010038DF82D3040
:10594000400607F07F0724D5089BC3F31C030A9386
:105950009DF82D3043F001038DF82D301AF80230F8
:10596000402B5FD89DF82D6016F0020617D1B3B119
:105970000333083103F4FE730CAA89B220460AF0FF
:10598000F0FC60B1304B0390CDE9016300963346E3
:10599000A1E7BDF82230C3F38A030A93DEE79DF83E
:1059A0002D3013F0010F3BB22BD098F80E20974208
:1059B0000BD32649264A274840F2F9230AF0ADFACC
:1059C00040F2F92122480AF09FFAD8F8082002EBA9
:1059D000C30152F833304A6813B10AA920469847E8
:1059E00004992A462046FFF72BFF00287FF478AF62
:1059F00007AA49462046FFF707FF00283FF453AFA8
:105A00006EE798F80D20974209D31349104A1148C0
:105A100040F2FE230AF081FA40F2FE21D2E7D8F8E4
:105A20000420D4E70D4B02930023CDE90033054950
:105A3000012218460AF0A7FCD2E700BF673D010823
:105A4000DA360108EC18010801370108503701085F
:105A500026370108EC230108683701088037010860
:105A60002DE9F3410669103605464FF0FF324FF03D
:105A7000FF3330460AF096FC01AA18212846FFF7AA
:105A8000C3FE044648BB019A182122F010022846A2
:105A90000192FFF7D5FE0446F8B902F09DFA01AA7B
:105AA000074618212846FFF7AFFE0446A8B9DFF8DD
:105AB0004C80019B1B0710D502F08EFAC01B40459D
:105AC00012D9019A182142F0100228460192FFF7DC
