:020000040800F2
:10000000401700201928000855200008052800087E
:100010000528000805280008052800080000000041
:100020000000000000000000000000002929000876
:100030000528000800000000F52800089158000875
:10004000192B0008192B0008192B0008192B000880
:10005000192B0008192B0008192B0008192B000870
:10006000192B0008192B0008192B0008192B000860
:10007000192B0008192B0008192B0008192B000850
:10008000192B0008192B0008192B0008192B000840
:10009000192B0008192B0008192B0008192B000830
:1000A000192B0008192B0008192B0008192B000820
:1000B000192B0008192B0008192B0008192B000810
:1000C000192B0008192B0008192B0008192B000800
:1000D000192B0008192B0008192B0008192B0008F0
:1000E000192B0008192B0008192B0008192B0008E0
:1000F000192B0008192B0008192B0008192B0008D0
:10010000192B0008192B0008192B0008192B0008BF
:10011000192B0008192B0008192B0008192B0008AF
:10012000192B0008192B0008192B0008192B00089F
:10013000192B0008192B0008192B0008192B00088F
:10014000192B0008192B0008192B0008192B00087F
:10015000192B0008192B0008192B0008192B00086F
:10016000192B0008192B0008192B0008192B00085F
:10017000192B0008192B0008192B0008192B00084F
:10018000192B0008192B0008192B0008192B00083F
:10019000192B0008192B0008192B0008192B00082F
:1001A000192B0008192B0008192B0008192B00081F
:1001B000192B0008192B0008192B0008192B00080F
:1001C000192B0008192B0008192B0008192B0008FF
:0801D000192B0008192B00088F
:1001D800FFFFFFFFFFFFFFFFFFFFFFFFFFFFFFFF27
:1001E800FFFFFFFFFFFFFFFFFFFFFFFFFFFFFFFF17
:0801F800FFFFFFFFFFFFFFFF07
:1002000090F800F06DE9024520F007016FF0000C56
:1002100010F0070491F820F040F049804FF00004FE
:100220006FF00700D1E9002391F840F000F10800D9
:1002300082FA4CF2A4FA8CF283FA4CF3A2FA8CF311
:100240004BBBD1E9022382FA4CF200F10800A4FA78
:100250008CF283FA4CF3A2FA8CF3E3B9D1E90423CC
:1002600082FA4CF200F10800A4FA8CF283FA4CF303
:10027000A2FA8CF37BB9D1E9062301F1200182FABD
:100280004CF200F10800A4FA8CF283FA4CF3A2FAC3
:100290008CF3002BC6D0002A04BF04301A4612BAD1
:1002A000B2FA82F2FDE8024500EBD2007047D1E9D4
:1002B000002304F00305C4F100004FEAC50514F063
:1002C000040F91F840F00CFA05F562EA05021CBF34
:1002D00063EA050362464FF00004A9E753B94AB93F
:1002E000002908BF00281CBF4FF0FF314FF0FF303E
:1002F00000F00CB8ADF1080C6DE904CE00F0A2F8E6
:10030000DDF804E0DDE9022304B07047704700BF68
:10031000844641EA000313F003036DD1403A41D310
:1003200051F8043B40F8043B51F8043B40F8043BCF
:1003300051F8043B40F8043B51F8043B40F8043BBF
:1003400051F8043B40F8043B51F8043B40F8043BAF
:1003500051F8043B40F8043B51F8043B40F8043B9F
:1003600051F8043B40F8043B51F8043B40F8043B8F
:1003700051F8043B40F8043B51F8043B40F8043B7F
:1003800051F8043B40F8043B51F8043B40F8043B6F
:1003900051F8043B40F8043B51F8043B40F8043B5F
:1003A000403ABDD2303211D351F8043B40F8043BFF
:1003B00051F8043B40F8043B51F8043B40F8043B3F
:1003C00051F8043B40F8043B103AEDD20C3205D30F
:1003D00051F8043B40F8043B043AF9D2043208D007
:1003E000D2071CBF11F8013B00F8013B01D30B8879
:1003F00003806046704700BF082A13D38B078DD057
:1004000010F003038AD0C3F10403D21ADB071CBF28
:1004100011F8013B00F8013B80D331F8023B20F892
:10042000023B7BE7043AD9D3013A11F8013B00F8CB
:10043000013BF9D20B7803704B7843708B78837053
:10044000604670472DE9F04786468C460846089E70
:10045000154674461946002B40F0C2808542B2FA18
:1004600082F245D94AB1C2F1200300FA02FC2EFA09
:1004700003F3954043EA0C0C94404FEA154EA8B2A2
:10048000BCFBFEF8230C0EFB18CC08FB00F943EA7A
:100490000C43994528D9EB1808F1FF3704D2994548
:1004A00002D9A8F102072B44A3EB0903A4B2B3FBC2
:1004B000FEFC0EFB1C330CFB00F044EA0344A0429C
:1004C00014D92C190CF1FF3304D2A04202D9ACF19B
:1004D00002032C44241A43EA07401EB1D4400023EF
:1004E00034607360BDE8F0874746DDE76346F1E7B7
:1004F00092BB431B01214FEA154EAFB2B3FBFEFC8A
:10050000200C0EFB1C330CFB07F840EA0343984514
:1005100062D9EB180CF1FF3004D2984502D9ACF146
:1005200002002B44A3EB0803A4B2B3FBFEFC0EFBBA
:100530001C330CFB07F744EA0344A7424ED92C199D
:100540000CF1FF3304D2A74202D9ACF102032C44D0
:10055000E41B43EA0040C0E7C2F1200320FA03F1A4
:10056000954090402EFA03F303434FEA154EAFB285
:10057000B1FBFEFC0EFB1C10190C0CFB07F841EA4A
:100580000041884504FA02F422D969180CF1FF30C1
:1005900004D2884502D9ACF102002944A1EB08013C
:1005A0009BB2B1FBFEFC0EFB1C110CFB07F743EAF0
:1005B00001439F420ED9EB180CF1FF3104D29F4248
:1005C00002D9ACF102012B44DB1B41EA004192E766
:1005D0006046E3E76146F7E76046A3E76346B7E7AF
:1005E000834206D916B9002108467BE7C6E900E038
:1005F000F9E7B3FA83F78FB9834201D3724508D87C
:10060000BEEB020460EB030301209C461EB90021EF
:1006100068E73846FAE7C6E9004CF8E7C7F1200C6E
:10062000BB4022FA0CF41C432EFA0CF120FA0CF316
:10063000B84001434FEA14490EFA07F5B3FBF9F845
:100640001FFA84FE09FB18300B0C08FB0EFA43EA74
:1006500000439A4502FA07F240D9E31808F1FF3047
:1006600004D29A4502D9A8F102002344A3EB0A035D
:1006700089B2B3FBF9F809FB183308FB0EFE41EA17
:1006800003418E452CD9611808F1FF3304D28E4501
:1006900002D9A8F10203214443EA0040A0FB0298DA
:1006A000A1EB0E014145CE46434602D306D14D454E
:1006B00004D2B9EB020E68EB04030138002EA6D079
:1006C000B5EB0E0261EB030101FA0CFC22FA07F311
:1006D0004CEA0303F940C6E9003198E74046C5E714
:1006E0004346D9E770B5B2F5802F1FD20346042ADE
:1006F0002CD9043AC81D20F007000A4422F0070252
:10070000121AD508172A31D9186085600023C360F2
:10071000B5FA85F1C1F1200EC1F124018900CE1D89
:10072000F1084B1CAB4231D8002345E0344C40F279
:10073000EB1322463349344808F06BF9334808F08C
:1007400068F940F2EB11204608F05AF92C4C4FF4AE
:10075000F97322462E492C4808F05BF92D4808F021
:1007600058F94FF4F971204608F04AF9244C40F248
:10077000FB1322462849244808F04BF9254808F085
:1007800048F940F2FB11204608F03AF91C4C4FF4AE
:100790000373224621491C4808F03BF91D4808F024
:1007A00038F94FF40371204608F02AF903F1040CDC
:1007B000002440F82C4001337345F7DB4C00A4B211
:1007C00044804FF0000CA0F800C044F001044480C5
:1007D0006B1A4FEA430E26F00704A51C20F805E02B
:1007E000015322F00704951C20F805C0024403536E
:1007F000538843F00103538007F0DAFE70BD00BF59
:1008000004A70008F8A700083CA7000810A80008E3
:1008100028A800084CA8000868A8000894A80008A8
:100820002DE9F04F91B005920393134602F00402B4
:100830000092C3F3C20210F00303019340F07082F0
:1008400080468A460132041D002850D0B8F1000FBE
:1008500005D0A4EB08030433534500F26482039BE4
:100860005D1E019B04930693029300264FF0FF3B0D
:100870000427B946B8F1000F01D0039B2360531E33
:100880000793002A40F36181059B13F0020229D0EF
:100890000120A4EB08018B081AB1B1F5007F80F0AC
:1008A0006881029A0F2A00F27481B8F1000F00F0FB
:1008B0008481DBB2029901F140026A4402F8103CE3
:1008C00002F820BC002800F0748163F07F0301F17E
:1008D00040026A4402F8103C049B01330493029BDB
:1008E0000133029304340022CC4640463DE001F03F
:1008F000070A5444CAF1080AA8E7002634E0002693
:1009000032E0002630E00827BC462DE025292BD117
:100910000BF1010B01260427BC4625E04729EED840
:100920002A2914D32A39C9B24FF0010E0EFA01F167
:100930004FF6DA7E11EA0E0F16D111F0625F40F029
:10094000C28011F0010F40F08D8000260CE02529B7
:1009500003D10BF1FF3B002606E001D9002603E09E
:10096000202901D02329CCD11D466B1C6978002990
:1009700000F04E81002EC9D07A29BED84C29CDD3A3
:100980004C392E2962D80FF2080E5EF821F000BF14
:10099000690900084D0A00084D0A00084D0A0008C0
:1009A0004D0A00084D0A00084D0A00084D0A0008CB
:1009B0004D0A00084D0A00084D0A00084D0A0008BB
:1009C0005D0A00084D0A00084D0A00084D0A00089B
:1009D0004D0A00084D0A00084D0A00084D0A00089B
:1009E0004D0A0008C70A00084D0A00085D0A000801
:1009F0005D0A0008C70A0008C70A0008C70A0008FD
:100A0000690900085D0A0008070900084D0A000886
:100A1000690900084D0A0008230B00085D0A000858
:100A2000230B00084D0A00084D0A00082B0B000894
:100A3000570A00085D0A00084D0A00084D0A000820
:100A40005D0A00084D0A0008510A000800268BE7DD
:100A50000427BC4688E70427BC4685E729786C292B
:100A600025D000263C44013CB4FBF7F407FB04F41A
:100A7000254620B1211A6144514500F25781002AD0
:100A800058D1BCF1040F00F0A980BCF1080F40F070
:100A9000AD801A99073121F0070101F108051A9577
:100AA000D1E9008908B1C4E9008908345CE713F88A
:100AB000021C6C2903D000260427BC46D2E700267E
:100AC0000827BC46CEE729784C291AD01A99073155
:100AD00021F0070101F108061A96D1E900670734F1
:100AE00024F0070440B1211A0831514513D8297860
:100AF0004C2913D0C4E90067083400260827BC46F7
:100B000032E71A99073121F0070101F108061A9618
:100B1000D1E90067E3E76FF01B00FEE0C4E900677E
:100B2000EAE700260427BC469CE732460026042755
:100B3000BC4697E72C46E14680461A9A111D1A9149
:100B400012680392079A1D4694E67D4B039A9A42D7
:100B500004D37C4B9A420AD3002300E00023002BED
:100B60007FF492AE059B03F00202002091E6012380
:100B7000F5E7754C4FF41F7322467449744807F02B
:100B800048FF744807F045FF4FF41F71204607F0F7
:100B900037FF6D4C40F2812322466C496C4807F0C8
:100BA00038FF6D4807F035FF40F28121204607F0FD
:100BB00027FF069B0133069391E610B10AF1010A63
:100BC0008DE6009B13B10AF1020A88E60398FFF74D
:100BD00017FB00EB0A0303F1020A80E61A990D1DC8
:100BE0001A95096800B121600434BDE6E146564C0F
:100BF00040F2C62322465549554807F00AFF4946A8
:100C0000564807F006FF40F2C621204607F0F8FEDE
:100C10008046231AB3F5806F13D210B3002202600E
:100C20009B080370009B03B3069BC370049B88F86A
:100C300002309BBB019DDDF80890DDF810B0039FEA
:100C40004DE0414C40F2D22322464049404807F053
:100C5000E0FE434807F0DDFE40F2D221204607F0D7
:100C6000CFFE5344A3F1080057E0069B4370DDE735
:100C700001339842DED903F140026A4412F8101C95
:100C800012F9102C002AF3DA01F07F01A4EB08021C
:100C9000013252454DD804F8011BE9E7019B029847
:100CA000E7E7009B43B305F140036B4413F8203C96
:100CB00004F8013B019EA4EB080333440133534580
:100CC0003AD805F140036B4413F8103C04F8013B9B
:100CD000324639462046FFF71BFB34440135A9450F
:100CE00019D9BBF1000FDCD005F140036B4413F9B7
:100CF000103C002BD5DAF1E705F140036B4413F803
:100D0000103C58F82370002248F823203846FFF79B
:100D100077FA461CCFE7A4EB080011B0BDE8F08FCE
:100D20006FF00D00F9E76FF01B00F6E76FF01B00A6
:100D3000F3E76FF01B00F0E76FF01B00EDE700BF7B
:100D40005CA1000854D10008C0A800083CAB000812
:100D50003CA7000808A900082CA9000848A9000819
:100D600060A90008014B1860704700BF0000002018
:100D700084460268002006E000EB8000013203EBAD
:100D80004003A3F1300013780349C95C11F0040F4C
:100D9000F2D1CCF80020704751D0000884460846B4
:100DA000012226E09CF8003043F004038CF8003068
:100DB000F2B101301CE09CF8003043F008038CF8DD
:100DC0000030F5E79CF8003043F010038CF8003059
:100DD000EEE79CF8003043F020038CF80030E7E7A2
:100DE0009CF8003043F040038CF80030E0E700222C
:100DF00042B30378203B102BF9D801A151F823F01E
:100E0000C50D0008EF0D0008EF0D0008D30D000818
:100E1000EF0D0008EF0D0008EF0D0008EF0D0008C2
:100E2000EF0D0008EF0D0008EF0D0008B70D0008EA
:100E3000EF0D0008A50D0008EF0D0008EF0D0008EC
:100E4000E10D00089CF8003003F04403442B00D06F
:100E500070479CF800306FF386138CF80030F7E78A
:100E60002DE9F84F05460C46934699460A9ED078E0
:100E7000254B13F800A00AF0030A07F075FD07469A
:100E800014E0BAF1010F20D0D2B25732D2B2327090
:100E90003A46434628462146FFF720FABD4274F100
:100EA000000416D34E4514D905460C464FF00008F1
:100EB0003A46434628462146FFF710FA013E092AE2
:100EC000DFD8D2B23032D2B2E1E7D2B23732D2B2C8
:100ED000DDE79BF8003013F0200F03D0082F04D07B
:100EE000102F09D03046BDE8F88F9BF8023043F050
:100EF00008038BF80230F5E79BF8023043F010034B
:100F00008BF80230EEE700BF51D000082DE9F04F1A
:100F100091B006460D4691460393002499F80000CF
:100F2000002800F0B982252808D02946B0470028BB
:100F3000C0F2B382013409F10109EFE70023049301
:100F400005930693079308930993494606A807F06B
:100F5000E9FC02909DF8193013F0010F00F0978022
:100F6000039B1A1D03921F68002FC0F288809DF812
:100F7000193013F0040F00F09C80039B1A1D03929C
:100F8000D3F800A0BAF1000FC0F28A8000230793C3
:100F900008939DF81A3003F007039DF81910C1F368
:100FA000C301012B00F08E80022B00F0D380042BB4
:100FB00000F02481032B00F03B819DF8188018F08D
:100FC000030B40F03B819DF81B30253B532B00F277
:100FD000CA81DFE813F04001C801C801C801C80197
:100FE000C801C801C801C801C801C801C801C801B9
:100FF000C801C801C801C801C801C801C801C801A9
:10100000C801C801C801C801C801C801C801C80198
:10101000C801C801C801C801C801C801C801C80188
:10102000C801C801C801C801C801C801C801C80178
:10103000C801C801C801C801C801C8019D01C80193
:10104000C801C801C801C801C801C801C801C80158
:10105000C8017A018301C801C801C801C801830120
:10106000C801C801C801C801BD019D015E01C801D8
:10107000C8014D01C8019D01C801C8019D019DF82D
:10108000183043F004038DF818307F426FE79DF964
:101090001830002B02DB4FF0FF3768E7079F66E749
:1010A0009DF819306FF341038DF819304FF0FF3A76
:1010B0006CE713F0020F02D0DDF820A066E74FF0D6
:1010C000FF3A63E7CB1E042B04D8DFE803F00B1DC7
:1010D00029353500039B1A1D03921B68DA17049308
:1010E000059206E0039B1A1D03921B68DA1704930E
:1010F0000592012928D002297FF45FAFBDF9103095
:10110000DA170493059258E7039B073323F007038C
:1011100003F108020392D3E90023CDE90423E8E7B1
:10112000039B073323F0070303F108020392D3E97B
:101130000023CDE90423DCE7039B1A1D03921B68FF
:10114000DA1704930592D4E79DF91030DA17049367
:10115000059232E7CB1E042B04D8DFE803F00B1F07
:1011600035414100039B1A1D03921B680493002321
:1011700005931EE09DF81B30632B07D0039B1A1DBF
:1011800003921B6804930023059312E0039B1A1D2E
:1011900003921B680493002305930AE0039B073323
:1011A00023F0070303F108020392D3E90023CDE9FA
:1011B000042301291CD002297FF4FFAEBDF81030B2
:1011C000049300230593F8E6039B073323F00703FA
:1011D00003F108020392D3E90023CDE90423E8E7F1
:1011E000039B1A1D03921B68049300230593E0E7F9
:1011F0009DF81030049300230593DEE608290BD0F8
:10120000039B073323F0070303F108020392D3E99A
:101210000023CDE90423D0E6039B073323F0070323
:1012200003F108020392D3E90023CDE90423C4E6C5
:10123000039B1A1D03921B680493BEE6029F3B4664
:101240004A462946304607F0C3FB0028C0F22581F4
:101250000444B94662E629462520B0470028C0F27A
:101260001C810134D8460DF13E0A4FF000097FE0A1
:10127000DDF81090BAF1000F06DA4846FEF7C0FF1D
:1012800009EB000AD84673E05146484607F056F984
:10129000F6E7049828B9D846DFF804A2AAF10509B0
:1012A00066E00DF13E0300930AAB06AA0021FFF7AA
:1012B000D7FD81469DF81A3043F010038DF81A309F
:1012C00078238DF81B30D8462DE0049B8DF828300C
:1012D000D8460DF1290A0DF1280949E018F0080F48
:1012E00005D118F0100804D04FF0200801E04FF0AD
:1012F0002B08049A059B002B02DB0492059308E05F
:10130000524263EB4303049205934FF02D0800E033
:10131000D8460DF13E0300930AAB06AADDE90401AD
:10132000FFF79EFD8146BAF1000F50DB0DF13E0341
:10133000A3EB09039DF818206FF386128DF818208F
:101340009A4547D9AAEB030307930DF13E0A0FE034
:101350002246049906A807F01CFBD8460DF13E0A68
:101360004FF0000904E0D8460DF13E0A4FF00009A5
:10137000B9F1000F00F08D80AAEB0902B8F1000F5F
:1013800000D001329DF81A1011F0100F25D0023252
:10139000079B134411F0400F01D0089A1344002F0B
:1013A00031DDFF1A9DF8183013F0040F2BD113F024
:1013B000400F17D0B8F1000F17D029464046B0476C
:1013C00000286ADB0134D8464FF0300B0FE00DF1F6
:1013D0003E0ACDE70DF13E0ACAE711F0080FD7D05B
:1013E0000132D5E74FF0200B01E04FF0300B3B46C8
:1013F0005F1E002B07DD29465846B04700284CDB0E
:1014000001343B46F4E7B8F1000F05D029464046C9
:10141000B047002841DB01349DF81A30C3F30012B5
:10142000C3F3C0031A4305D029463020B047002833
:1014300033DB01349DF81A3013F0100F06D0294623
:101440009DF81B00B047002827DB0134079B03F100
:10145000FF38002B07DD29463020B04700281CDB71
:1014600001344346F3E753464A462946304607F0DF
:10147000AFFA002811DB0444002F07DD29462020A5
:10148000B047002809DB0134013FF5E7DDF808909B
:1014900044E5DDF8089041E5204611B0BDE8F08F45
:1014A00091A90008034A536843F0020353600020E7
:1014B000704700BF002004E082B0134B1A6842F46A
:1014C00000721A601A6842F480621A601A6842F464
:1014D00080721A600D4B0E4A1A600E4A536843F030
:1014E000010353600C4B9A6D42F080529A659B6DDC
:1014F00003F080530193019B084A936843F48043AF
:101500009360002002B07047002002404800002095
:101510000024F400002004E00010024000700040AD
:1015200010B143685879704710B5064C40F2331338
:1015300022460549054807F06CFA40F2331120466F
:1015400007F05EFA94A90008CCA900083CA700089F
:1015500010B520B10268D26802B1904710BD054CA9
:101560008B2322460449054807F053FA8B21204675
:1015700007F046FA94A90008CCA900083CA7000887
:1015800010B520B10268126962B1904710BD064CD7
:101590009E2322460549064807F03BFA9E21204635
:1015A00007F02EFA0020F1E794A90008CCA9000862
:1015B0003CA7000810B518B102689268904710BDAA
:1015C000054CD02322460549054807F022FAD021D0
:1015D000204607F015FA00BF94A90008CCA900081E
:1015E0003CA7000810B520B171B10268126890479D
:1015F00010BD0B4CB22322460A490B4807F009FAEA
:10160000B221204607F0FCF9054CB32322460749D6
:10161000054807F0FEF9B321204607F0F1F900BFB5
:1016200094A90008CCA900083CA70008E4A9000878
:1016300038B50546144C00E01034144B9C4212D8C7
:10164000124B9C421FD22046FFF76AFF0028F3D0BE
:101650002946204607F0EEF90028EDD0294620461D
:10166000FFF7C0FFE8E70A4C40F2F31322460949AE
:10167000094807F0CEF9094807F0CBF940F2F31119
:10168000204607F0BDF938BDB0A60008C0A6000886
:10169000F8A9000828AA00083CA700084CAA0008DE
:1016A00008B508F047FD0022431819D213440D4A2B
:1016B000A2FB03CE2EF0030C0CEB9E0CA3EB0C0351
:1016C000C01A61F100014FF0CC3300FB03F302FBC1
:1016D0000133A0FB02021344400840EAC37008BD76
:1016E0000122E3E7CDCCCCCC2DE9F04107460546FD
:1016F000EDB195FAA5F6B6FA86F60E4C04EB061493
:101700000123B3406FEA030825EA0305237B002B7E
:10171000EED02046FFF734FF0028E9D107EA08079A
:10172000636804221968204600F068F9E0E738464B
:10173000BDE8F081B0A600082DE9F041314B324AF6
:101740009B1A8F2B12D880460F46304BBFF35B8F0E
:1017500053E8006F721C43E800210029F8D1BFF361
:101760005B8F002E4AD1284C002514E0284C40F213
:101770003F1322462749284807F04BF940F23F1112
:10178000204607F03DF9636804221968204600F0FE
:1017900035F9013510341B4B9C4211D8194B9C4232
:1017A0001ED2237B002BF4D02046FFF7D1FE20462B
:1017B000FFF7E6FE0028E6D00123AB401E43E8E732
:1017C000134C4FF4A67322461449134807F021F92D
:1017D000134807F01EF94FF4A671204607F010F9E0
:1017E000B8F1000F0BD056B13046FFF77DFF06462B
:1017F000002FF8D00A2007F024F9F4E7002630463D
:10180000BDE8F081C0A60008B0A600086C02002068
:10181000F8A900086CAA00083CA7000828AA00083C
:101820004CAA0008014B53F8200070479CAA0008FE
:1018300048B108B5054A1060054B1960084600F02C
:101840004FFB002008BD6FF015007047040000201A
:101850006002002008B50023054A1370054A136092
:10186000054A13604FF47A710448FFF7E1FF08BDA1
:10187000710500206402002068020020A116000803
:10188000174B1B7803B1704710B500210120FFF7FB
:1018900053FF144C00E01034134B9C420BD8124BF6
:1018A0009C4218D22046FFF73BFE0028F3D020468A
:1018B000FFF780FEEFE70D4C4FF4DC7322460C4936
:1018C0000C4807F0A6F80C4807F0A3F84FF4DC71B9
:1018D000204607F095F8024B01221A7010BD00BF98
:1018E00071050020B0A60008C0A60008F8A90008ED
:1018F00028AA00083CA700084CAA0008014B0122B6
:101900001A707047700500200D4BBFF35B8F53E8D2
:10191000001F013143E80012002AF8D1BFF35B8FAA
:1019200000B97047074BBFF35B8F53E8001F0139C5
:1019300043E80012002AF8D1BFF35B8FF1E700BF44
:10194000640200206802002010B50446044B1B68A6
:101950009847A0602146034807F06EF810BD00BF0D
:10196000040000207000002010B143681971704716
:1019700010B5054CDF2322460449054807F049F815
:10198000DF21204607F03CF894A90008CCA9000804
:101990003CA7000828B142681160436801225A71CF
:1019A000704710B5064C4FF48C7322460549064823
:1019B00007F02FF84FF48C71204607F021F800BF94
:1019C00094A90008CCA900083CA700080248034BD2
:1019D000C01AC008704700BFB0A6000830A60008B3
:1019E00010B50C46FFF7F2FFA04203D9024B53F8A3
:1019F000340010BD0020FCE730A6000870B5044696
:101A00000D461646074BC31A1B110133D9B2FFF717
:101A1000ABFF63689E7129462046FFF7BBFFFFF7C7
:101A20006DFF70BDB0A600082DE9F04F87B004AF80
:101A300081460D4690461E46D7F830B0D7F838A0FC
:101A4000BAF1000F28D0FB6B7B60009353467A6B92
:101A500010210020FEF7E4FE002810DBB0F5006F37
:101A60001BD340F2FF7303932B4B02930020019092
:101A7000009003460222294907F022F83BE0284C57
:101A800040F2651322462749274806F0C2FF40F27C
:101A90006511204606F0B4FF0020014600EB0B0361
:101AA000173300246FF300046FF341046FF38204D3
:101AB00069F3C50468F3881460F353246BF31F546F
:101AC00023F00703ADEB030D0DF110086B4613F186
:101AD00020000AD0BAF1000F07D0FB6B00935346E9
:101AE0007A6BFEF79DFE002809DB33462246294625
:101AF000404606F0CEFF0C37BD46BDE8F08F084CDF
:101B000040F2851322460749074806F082FF40F25B
:101B10008511204606F074FF40AB000868A6000857
:101B200008AB000834AB00083CA70008406820B1AF
:101B3000034BC01A40F3CF0070474FF0FF3070479F
:101B400030A600080EB400B584B0014605AB53F8CA
:101B5000042B0393002000900348FFF7D7F904B04B
:101B60005DF804EB03B07047DF8A000830B585B03C
:101B700011F0440F05D01A4B1C6834B9002005B091
:101B800030BD1849FFF7DEFFF9E7174B1968B2FBC4
:101B9000F1F1B1FBF4FC154AA2FB0C32D20A4FF46E
:101BA000616E0EFB12CE124BA3FB0E535B0904FBBE
:101BB0001C114FF47A7C0CFB01F1B1FBF4F504FB32
:101BC00015110CFB01F1B1FBF4F102910195C3EB8E
:101BD0000311AEEB810100910649FFF7B3FFCEE799
:101BE0007402002078AB000870020020C5B3A291F7
:101BF0008988888884AB000861B108B52AB1064A93
:101C000052F8232012B9054A00E0044A0449FFF7BC
:101C100099FF08BD704700BF48AC0008A0AB0008A2
:101C2000A8AB00082DE9F04105461746069EDDF8F1
:101C30001C8081B900242EB1324611492846FFF795
:101C400081FF0444B8F1000F14D06FB1099B042B3D
:101C500013D00C4909E00C4B099A53F822200B4988
:101C6000FFF770FF0446E6E7064942462846FFF7BD
:101C700069FF04442046BDE8F0810549F5E700BF4F
:101C8000C0AB0008B0AB00085CAC0008B8AB000803
:101C9000ACAB00082DE9F04F87B0049205939DF896
:101CA0004C60042E30D805460C4601F0020B01F0C2
:101CB000010AC1F3C00801F4807906F0E8FE02468B
:101CC00078B31C492846FFF73DFF0746BBF1000FDC
:101CD00029D132465146284606F036FFB9F1000FA9
:101CE00001D0002311930396129B0293119B019341
:101CF000109B00930023049A41462846FFF792FF69
:101D0000384407B0BDE8F08F0B4C40F26223224606
:101D10000A490B4806F07DFE40F26221204606F09B
:101D20006FFE0027D2E7059A21462846FFF71EFFDF
:101D30000744CEE700AC0008C4AB0008F4AB0008D1
:101D40003CA7000811F0100F0BD108B511F0200FBF
:101D500003D00449FFF7F6FE08BD0349FFF7F2FE82
:101D6000FAE77047BCB4000804AC00082DE9F04164
:101D700005460F46164698460699FFF7E3FF0024EE
:101D8000444505DA24492846FFF7DCFE0134F7E72D
:101D9000002409E020492846FFF7D4FE0BE01F4944
:101DA0002846FFF7CFFE01340F2C0CDC002C02DD9F
:101DB00014F0070FEED0B442F1D23A5D184928462C
:101DC000FFF7C0FEEFE717492846FFF7BBFE0024E8
:101DD00009E011492846FFF7B5FE0BE012492846F5
:101DE000FFF7B0FE01340F2C13DC002C02DD14F0E1
:101DF000070FEED0B44207D23A5D0C4B9B5C13F058
:101E0000970FEBD12E22E9E703492846FFF79AFE08
:101E1000E8E7BDE8F08100BFBCAB000810AC0008EB
:101E200008AC000814AC000818AC000851D0000839
:101E30002DE9F04184B004469DF82C500C9F0E9E75
:101E4000A5B9012B20D020484FF0000837B13B4600
:101E500022461E4906F0BFFB002819DB2EBB6DBBD6
:101E6000204606F0A4FE04B0BDE8F08103950A9870
:101E70000290019300920B4600220F992046FFF733
:101E800009FF80461248E1E711484FF00008DDE7FE
:101E9000104C4FF42F7322460F49104806F0B9FD3D
:101EA0004FF42F71204606F0ABFD0F9B0093434685
:101EB00032460D99204606F05FFED0E72A460F997C
:101EC000204606F04DFECBE7FD8A0008398B00085E
:101ED000DF8A0008C4AB00081CAC00083CA700085F
:101EE000074B01221A6004E04008054A13685B00B2
:101EF0001360044B9842F7D8034B1860704700BF3B
:101F00007002002040420F007402002070B50646A7
:101F10000D46002405E0315D044883685B689847FE
:101F20000134AC42F7D3284670BD00BFC4A20008FC
:101F300010B543681C68094807F096FF18B123687C
:101F40005B685C6010BD064C992322460549064833
:101F500006F05FFD9921204606F052FDC4A200085C
:101F600070AC0008B0AC00083CA70008014B03604F
:101F70000020704720AD000870B586B005460368A4
:101F8000426881681C4E0591049203931B4B029397
:101F9000002401940094234601223146204606F095
:101FA00064FEEB682A696969059104920393144BF6
:101FB000029301940094234601223146204606F004
:101FC00054FEEB6903930F4B029301940094234654
:101FD00001223146204606F048FEAB6903930A4BC6
:101FE000029301940094234601223146204606F0D4
:101FF0003CFE06B070BD00BF90A6000820AD0008F2
:1020000050AD000880AD000890AD000830B585B037
:1020100004460D4611B10846FFF7AEFF012C05D06E
:102020002946204603F0BEFF05B030BDEFF305831F
:10203000103B0393054B0293002001900090034650
:102040000122034906F011FEEAE700BFC0AD000817
:1020500090A6000808B5034B1B68984700F008F8E5
:1020600008BD00BF1000002030BFFFF7FDBF00BF5C
:10207000074B9B6893F90E20002A08DB044A52693B
:10208000934204D0034A536843F08053536070472F
:102090002C05002000ED00E081690D4B5A6942F4E7
:1020A00080725A61BFF34F8FBFF36F8F31F8021CFC
:1020B0005A6922F480725A61BFF34F8FBFF36F8F5A
:1020C0004DF60273994201D00020704701207047FD
:1020D00000ED00E010B584B000241C7002F07F44D5
:1020E000B4F17F4F19D102F00C04082C05D012F086
:1020F000080F0FD0084604B010BD094B029300240E
:1021000001940094234601220649204606F0C4FDAE
:102110002046F0E701221A70EDE70020EBE700BF50
:10212000D4AD000890A60008F0B585B005460F466E
:1021300014464C4B0293002001900090034601226C
:10214000494906F0A9FD494B9B6A13F4805F26D1EB
:102150001626464B9B6A13F4006F2CD1434B9B6AA7
:1021600013F4007F33D1414B9B6A13F4806F55D138
:102170003E4B9B6A13F4807F5CD13C4B9B6A13F40B
:10218000005F63D1394A936A43F47F43936201212C
:10219000284606F07FFD2070304605B0F0BD344B78
:1021A0000293002001900090034601222E4906F080
:1021B00073FD1726CDE72F4B02930020019000906E
:1021C00003460122284906F067FD1826C6E72A4B78
:1021D000029300200190009003460122224906F05C
:1021E0005BFD224B9A6B9B6A13F4004F01D11926B9
:1021F000B9E70392214B029300200190009003461F
:102200000122194906F048FD37B1184A936A23F4B0
:10221000004393621926A6E71926A4E7184B0293F8
:10222000002001900090034601220F4906F034FD82
:102230001A269DE7134B029300200190009003465D
:102240000122094906F028FD1B269BE70E4B02934D
:1022500000200190009003460122034906F01CFD76
:102260001C268FE700AE000890A6000800ED00E0F5
:1022700018AE00082CAE000840AE00085CAE0008A6
:1022800074AE000890AE0008A8AE000800B585B096
:102290003D4B0293002001900090034601223B49F0
:1022A00006F0FAFC3A4B9B6A13F0007F23D11D2005
:1022B000374B9B6A13F0807F29D1354B9B6A13F40F
:1022C000002F30D1324B9B6A13F4802F37D1304B23
:1022D0009B6A13F4003F3ED12D4B9B6A13F4803F61
:1022E00045D12B4A936A6FEA03436FEA1343936223
:1022F00005B05DF804FB274B02930020019000908D
:1023000003460122214906F0C7FC1E20D0E7224BDC
:102310000293002001900090034601221B4906F021
:10232000BBFC1F20C9E71D4B0293002001900090C9
:1023300003460122154906F0AFFC2120C2E7184BE5
:102340000293002001900090034601220F4906F0FD
:10235000A3FC2220BBE7134B0293002001900090C6
:1023600003460122094906F097FC2320B4E70E4BEF
:10237000029300200190009003460122034906F0D9
:102380008BFC2420ADE700BFD8AE000890A6000863
:1023900000ED00E0F0AE000804AF000820AF000838
:1023A00040AF000868AF000884AF000800B585B0F2
:1023B00000200870054B0293019000900346012213
:1023C000034906F069FC05B05DF804FBB0AF0008F6
:1023D00090A6000800B587B00F2910DC094B103912
:1023E00004910393084B0293002001900090034650
:1023F0000122064906F050FC07B05DF804FB044BCF
:10240000EDE700BFD4AF000808B0000890A60008B0
:10241000ECAF00082DE9F04184B004460F461546A4
:10242000624B029300200190009003460122604914
:1024300006F032FC5F4B9B6A13F0100F3DD1102663
:102440005C4B9B6A13F0080F43D15A4B9B6A13F005
:10245000020F4AD16FF01508564B9B6A13F0010F1B
:102460006ED1544B9B6A13F0200F75D1514B9B6A70
:1024700013F0100F04D14F4B9B6A13F0020F04D0DE
:102480004C4B5B6813F4006F72D14A4B9B6A13F09C
:10249000200F04D0474A536A23F400535362454A3D
:1024A000936A43F0FF0393620121204606F0F2FB9A
:1024B0002870304604B0BDE8F0813F4B0293002005
:1024C0000190009003460122394906F0E5FB1126F0
:1024D000B6E73A4B02930020019000900346012298
:1024E000334906F0D9FB1226AFE7354B02930020A3
:1024F00001900090034601222D4906F0CDFB2D4BA3
:10250000D3F834809B6A13F0800F03D16FF0150865
:102510001326A1E7CDF80C802A4B029300200190EE
:10252000009003460122224906F0B6FB37B1214A4A
:10253000936A23F08003936213268DE713268BE7BB
:10254000214B02930020019000900346012218497C
:1025500006F0A2FB142684E71C4B02930020019096
:10256000009003460122124906F096FB15267DE7EE
:102570002146404600F072FAA0B90E4B9B6A13F058
:10258000100F82D0124C40F25D13224611491248BE
:1025900006F03FFA114806F03CFA40F25D11204681
:1025A00006F02EFA80F3098802266EE71CB00008B8
:1025B00090A6000800ED00E034B000082CAE000842
:1025C00068B0000880B0000898B00008A8AE000805
:1025D000B8B00008ECB000083CA7000838B100080B
:1025E00070B584B006460D46484B02930024019412
:1025F0000094234601224649204606F04DFB2C70EC
:10260000444BDC6A14F002042AD1424BDB6A002BF3
:1026100034DB404BDB6A13F0804F66D03E4B0293B5
:1026200000200190009003460122394906F034FB56
:102630003046FFF731FD60BB364B9B6A13F0FF0F4E
:1026400035D1344B9B6A13F47F4F37D1314B9B6AA2
:10265000B3F5803F39D33046FFF718FE04460AE051
:102660002E4B029300240194009423460122284912
:10267000204606F011FB204604B070BD284B0293A3
:1026800000200190009003460122214906F004FB3E
:10269000F1E733680393234B0293002001900090ED
:1026A000034601221A4906F0F7FA3468E3E72A469E
:1026B00001213046FFF7AEFE0446DCE72A46012141
:1026C0003046FFF731FD0446D5E7174C40F22A3378
:1026D00022461649164806F09CF9164806F099F964
:1026E00040F22A31204606F08BF90F4C40F22E338F
:1026F00022460E490E4806F08CF90F4806F089F97B
:1027000040F22E31204606F07BF900BF5CB1000894
:1027100090A6000800ED00E0A8B1000874B1000820
:1027200098B10008C8B10008B8B000083CAB000878
:102730003CA70008E4B1000808B2000830B58BB02F
:10274000274B5D68C5F30805002383F31188BFF3A9
:102750006F8F0DF12603FFF7BDFC58B104460DF154
:102760002702294606F0A7FA05469DF827308BB1C7
:102770000BB030BD1B4C4FF48B6322461A491B48EB
:1027800006F047F91A4806F044F94FF48B612046E9
:1027900006F036F90DF1040C20686168A268E36860
:1027A000ACE80F0020696169A269E369ACE80F0039
:1027B0009DF826304BB1089BC3F308025AB96FEA63
:1027C00053236FEA4323089305E0089B23F4FF7328
:1027D00023F00103089301A92846FFF717FCC7E778
:1027E00000ED00E0B8B0000838B200083CA70008CF
:1027F0004CB20008024A536943F01003536170471A
:1028000000ED00E0EFF30880EFF3098101B57246B7
:10281000FFF794FF01BD00BF102080F311880B4823
:102820004FF0AA014FF4046207F05DFB07484FF434
:102830000461401880F30988EFF3148002210843F3
:1028400080F31488BFF36F8F00F0C4F88005002078
:1028500008B50A4B9B68834202D005F09DF908BD7C
:10286000EFF30583002BF8D0054B5A6842F08052F5
:102870005A605A6A22F400425A62EEE72C050020A0
:1028800000ED00E0094A936858676FF00A01996704
:1028900007494B6843F080534B60002383F3118852
:1028A000BFF36F8F9368986F704700BF2C050020AF
:1028B00000ED00E010B50446EFF31183102383F31D
:1028C0001288BFF36F8F094B58699860084B4FF01F
:1028D00000625A60436F0022426783F31188BFF39E
:1028E0006F8F00F037F9204610BD00BF2C05002087
:1028F00000ED00E00B498A684FF030001044EFF320
:10290000098C80E8F01F74467046FFF7D3FFA64697
:1029100004498A6802F1300090E8F01F8CF30988BE
:10292000704700002C0500201EF0040F0CBFEFF3D1
:102930000880EFF30980816911F8021C0229FFD099
:1029400001B506F0A1F901BD002807DB00F01F0268
:10295000400901239340024A42F82030704700BFEB
:1029600000E100E0002808DB0901C9B200F1604085
:1029700000F5614080F80013704700F00F00090176
:10298000C9B2014B1954704714ED00E070B505460B
:102990000C4601310F2903D840B2FFF7E3FF70BDA9
:1029A000084E582332460849084806F032F80F23EB
:1029B0002A462146064806F02CF85821304606F0F3
:1029C0001FF800BF8CB20008C4B200083CA7000882
:1029D000E0B2000808B50F4B0F4A22F07F029A6060
:1029E000BFF34F8FBFF36F8FD3F8882022F47002AC
:1029F000C3F88820EFF3148323F0040383F31488CF
:102A0000BFF36F8F03F018FC05F088FA00F06AF846
:102A100003F070FC00ED00E00000000810B4A2F12B
:102A200020040D4942F8081C21F0010142F8081C5D
:102A300042F8203C019B42F81C3C029B42F8183CA7
:102A4000039B42F8143C4FF0807342F8043C046549
:102A50000023436710BC70475F8600080E4B9B68DD
:102A6000A3B110F1160F0AD05A6EA2F1400C8445A2
:102A70000ED882420ED98A4206D8002070475A6E7C
:102A80008A4201D800207047586E70470020704776
:102A900000207047002070472C05002008B50E4626
:102AA00015460A4B986000F055F82C4686F30988C5
:102AB0004FF00000064B984720464FF000014FF0C2
:102AC00000024FF00003034C204700BF2C050020FC
:102AD000178D00085F860008014B10221A617047AD
:102AE00000ED00E0002206E003F00F03094919445D
:102AF00010230B760132652A0ADC53B2002BF3DB7C
:102B000003F1604303F56143102183F80013F1E7FB
:102B1000704700BFFCEC00E008B5EFF30583103B05
:102B2000044A02EBC301496852F833008847FFF7B3
:102B30009FFA08BD00A3000808B5034B034A012112
:102B4000034800F0BFF908BD00000220000000208B
:102B500020B3000808B5436E403B0548036040239E
:102B60004360044B8360012100F0CEF908BD00BF33
:102B7000A002002000000B15084AC2F898000B685C
:102B800023F01F03034343F01003C2F89C308B680B
:102B900043F00103C2F8A030704700BF00ED00E031
:102BA00010B584B004460D4BD3F89030C3F307231F
:102BB000013B984204D8FFF7DFFF204604B010BD68
:102BC0000390074B029300200190009003460122DE
:102BD000044906F0C5F86FF01500EFE700ED00E0DE
:102BE00030B3000888A600082DE9F04385B0804680
:102BF0000F4699461646002509E02146F0B206F038
:102C0000BEF8064610F1160F1ED001360135BD4242
:102C10001ADA05EB450408EB84046268002AF5D053
:102C2000B9F1000FE9D0204606F089F80028E4D178
:102C30000395074B0293019000900346012205493A
:102C400006F08EF86FF01506304605B0BDE8F0834B
:102C500058B3000888A6000810B5034C0123227859
:102C6000FFF7C2FF207010BD7205002008B50023D9
:102C70000B4A1278FFF7B8FF10F1160F0FD002467B
:102C800006E0084BC3F898200021C3F8A0100132D9
:102C9000044BD3F89030C3F307239342F1DC08BD13
:102CA0007205002000ED00E0F0B585B0054603A8F0
:102CB000FFF75CF90646002425E0B3F5801F21D11B
:102CC000506851F80C109368202B67D9B3F1004F6E
:102CD00066D8013BB3FA83F3C3F11F035B0003F033
:102CE0003E0343F0885343F4302300900191029354
:102CF00069462878FFF754FF0028C0F2BE802B7881
:102D000001332B700134B44280F0BA804FEA041CC6
:102D1000039901EB0412D068030D1B05B3F5000FF6
:102D200071D01ED8B3F5001F3CD0B3F5800FC4D1CD
:102D3000506851F80C109368202B60D9B3F1004F04
:102D40005FD8013BB3FA83F3C3F11F035B0003F0C9
:102D50003E0343F0E06343F400330090019102939B
:102D6000C6E7B3F1807F69D0B3F1007FCAD1506864
:102D700051F80C109368202B7BD9B3F1004F7AD80F
:102D8000013BB3FA83F3C3F11F035B0003F03E037F
:102D900043F48023009001910293A9E70823A0E760
:102DA0003E239EE7576851F80C109368202B22D9D8
:102DB000B3F1004F21D8013BB3FA83F3C3F11F03F2
:102DC0005B0003F03E0343F0885343F40023009775
:102DD0000191029310F0010F8AD02B4C6D232246F3
:102DE0002A492B4805F015FE2A4805F012FE6D21F0
:102DF000204605F005FE0823E5E73E23E3E7082328
:102E0000A7E73E23A5E7506851F80C109368202BE4
:102E100010D9B3F1004F0FD8013BB3FA83F3C3F1DC
:102E20001F035B0003F03E0343F0827300900191A7
:102E300002935DE70823F7E73E23F5E7506851F872
:102E40000C109368202B10D9B3F1004F0FD8013B21
:102E5000B3FA83F3C3F11F035B0003F03E0343F0B7
:102E6000887300900191029342E70823F7E73E231D
:102E7000F5E708238CE73E238AE76FF0150000E0B2
:102E8000002005B0F0BD00BF7CB30008ACB3000863
:102E90003CA70008D4B30008044B0522C3F89420D3
:102EA000BFF34F8FBFF36F8F704700BF00ED00E09F
:102EB000BFF35F8F024B0022C3F89420704700BF1E
:102EC00000ED00E038B50C46FFF7C6FE10F1160F16
:102ED00000D038BD084D4FF4B4732A46074908485E
:102EE00005F097FD2146074805F093FD4FF4B471B6
:102EF000284605F085FD00BF7CB300083CAB000808
:102F00003CA7000804B4000838B50C46FFF7AEFE35
:102F100010F1160F00D038BD084D40F287132A4635
:102F20000749084805F075FD2146074805F071FD81
:102F300040F28711284605F063FD00BF7CB300080E
:102F40003CAB00083CA7000830B4000838B5394B4A
:102F50001D68394BD3F89030C3F307239D4203D843
:102F6000FFF7A6FF00241FE0344C40F29F132246D7
:102F70003349344805F04DFD2F4BD3F89020C2F370
:102F800007222946304805F044FD40F29F112046B3
:102F900005F036FD274B5B6804EB440103EB810130
:102FA0002046FFF7E9FD0134A542F3D82748057014
:102FB000FFF77AFE10F1160F02D0244B1A7816E0B4
:102FC0001E4C40F2C91322461D491E4805F021FD42
:102FD0001F4805F01EFD40F2C911204605F010FD06
:102FE000154BC3F898200021C3F8A0100132124BF2
:102FF000D3F89030C3F307239A42F1DBFFF74CFF7D
:103000000D4BD3F89030C3F30723082B01D10020D8
:1030100038BD0A4C40F20F2322460E49094805F0FC
:10302000F8FC0D4805F0F5FC40F20F21204605F0B4
:10303000E7FC00BF34B5000800ED00E07CB30008F9
:103040003CAB00083CA7000860B4000872050020F3
:1030500094B40008C0B4000810B500080C4BC3F1CC
:10306000005303F50033B3F5005F01D30020704730
:1030700010B5084C892322460749084805F0C9FCC9
:10308000074805F0C6FC8921204605F0B9FC00BFC1
:103090008017002064B5000894B500083CA700081C
:1030A000E0B50008014B1860704700BF1400002015
:1030B00038B50546002401E00134E4B26B78A34240
:1030C00016D3287820441F28F6DC01238340094AC0
:1030D000526933EA0202EFD1064A5361064B53F8B4
:1030E0003020002AE8D003EBC00359689047E3E79B
:1030F00038BD00BF00040140AC020020002399420B
:103100000ADD10B400EB030C044C04F80C2001336E
:103110009942F7DC10BC7047704700BF18000020D0
:1031200008B50246054B185601239340044A11681E
:103130000B43136005F0E4FD08BD00BF180000203C
:10314000000401401F2806DC0122824002490B686E
:1031500023EA02030B6070470004014003292ED8C4
:10316000DFE801F0020E192401228240144B996815
:1031700021EA02019960D96821EA0202DA60704707
:10318000012282400E4B996811439960D96821EA67
:103190000202DA60704701228240094BD96811436C
:1031A000D960996821EA02029A607047012383403E
:1031B000034A916819439160D1680B43D36070470B
:1031C0000004014010B40D4B53F830308B4209D04D
:1031D0008BB90A4B43F8301003EBC0035A60002050
:1031E00010BC7047054C04EBC00CDCF80440944262
:1031F000EED10020F4E76FF00F00F1E7AC02002001
:10320000034B002243F8302003EBC0035A607047A1
:10321000AC0200202DE9F041069CB4F804C065889A
:10322000AC441FFA8CFC9D885E883544ADB286B2F2
:1032300001FB00FE364FA7FB0E7ECEF38F1EA6EBE2
:103240000E0E1FFA8EFEDF88774541D2B4F8068055
:10325000F04528BFF046A6EB080E1FFA8EFE0EF1D1
:10326000FF3E1FFA8EFEF44534D2A6EB0C081FFA7F
:1032700088F808F1FF381FFA88F8E588454540D3FB
:10328000A2F806804FEA5C05B3F802E0BEEB5C0FE3
:1032900004D2B4F802E0AE4528BFAE46A2F802E080
:1032A000ACEB0E0E1FFA8EFEA2F804E0A488A64531
:1032B0001DD99480ACEB040454804FF47A730CFB5A
:1032C0000333B3FBF0F0814219D2401ABDE8F0811C
:1032D000B846C0E7754508D9761BB6B2013E1FFA5D
:1032E00086F8474510D8AC46CAE7F446C8E79B883D
:1032F0009E45E2D29380ACEB03035380DDE7081ACE
:10330000E4E76FF08500E1E76FF08500DEE700BFDE
:10331000D34D6210074B984205D8074B984205D908
:103320004FF44870704740F2EE20704740F26B3027
:10333000704700BF00350C0020A1070070B582B0B7
:1033400014461D4682688368064EB44207D8303260
:103350003A330195009405F07DFD02B070BD6FF029
:103360001500FAE740420F0070B582B014461D46C2
:1033700082688368064EB44207D8483252330195BA
:10338000009405F067FD02B070BD6FF01500FAE71C
:1033900000127A002DE9F04786B00646894690462D
:1033A000D0F804A0DAF81C500769002404940594AE
:1033B0001968224661F31C0204925A68234662F39C
:1033C0001C0305939DF81730022262F387138DF8D2
:1033D000173010374FF0FF324FF0FF33384603F00D
:1033E00015F800E00134AB7BA34205DDAB6853F870
:1033F0003430002BF6D101E06FF01B0414F11C0FE8
:103400002AD014F0010F35D002229DF8133062F358
:1034100047138DF81330BAF8341001EBC401736808
:103420009B69D3F80CA0082304AA89B23046D04780
:10343000064608BB384603F001F9AB7B9C4228DA0C
:10344000AB6843F83490AB6803EBC403C3F8048063
:10345000204606B0BDE8F087144B0293002001908F
:10346000009003460222124905F0F8FD384603F0A9
:10347000E5F8EDE70122C8E703900E4B0293002028
:103480000190009003460122094905F0E7FD34460A
:10349000DEE7094C40F28A4322460849084805F015
:1034A000B8FA40F28A41204605F0AAFAB0B6000800
:1034B00038A60008D0B60008FCB6000828B70008F7
:1034C0003CA7000830B587B00C4643689B691B6871
:1034D0009847054610B9284607B030BD04900394BC
:1034E000054B0293002001900090034601220349FE
:1034F00005F0B4FDEFE700BF44B7000838A60008A8
:1035000030B587B00C4643689B695B6898470546B1
:1035100010B9284607B030BD04900394054B0293C0
:1035200000200190009003460122034905F096FD1A
:10353000EFE700BF68B7000838A600082DE9F04F94
:1035400089B00546D0F80480D8F81C70D0F81090E7
:1035500005AAF421FFF7B6FF002842D1059C14F01C
:103560003F0F3ED0C4F30424B8F83C1001EBC40173
:103570006B689B699E68082306AA89B22846B047F3
:1035800020BB9DF81F602246F8212846FFF7B8FFB0
:1035900038BB3B7B9E4227D23B6803EBC60253F805
:1035A00036A0D2F804B0002443F8364009F12400D4
:1035B00003F0E0F85A4621462846D04705AAF421F0
:1035C0002846FFF77FFF0028C8D00AE003900D4B84
:1035D0000293002001900090034601220A4905F061
:1035E0003DFD09B0BDE8F08F084C4FF40A73224648
:1035F0000749084805F00DFA4FF40A71204605F016
:10360000FFF900BF8CB7000838A60008FCB6000818
:10361000B4B700083CA700082DE9F04F9BB0064660
:10362000894617469A464368D3F81C8048220021F1
:1036300006A804F031FF05AA39463046FFF742FFDD
:1036400000283FD01BB0BDE8F08F0390764B02936B
:1036500000200190009003460122744905F0FEFC11
:10366000F0E79DF81D1041F010018DF81D1069E084
:10367000BDF86220C2F38A02069278E09DF81D3000
:1036800013F0010F00F0AB8098F80E309B4580F0EE
:103690009980D8F8083003EBCB0253F83B305268DE
:1036A00013B106A930469847224651463046FFF7E7
:1036B00027FF0028C6D105AA39463046FFF702FF8A
:1036C0000028BFD1059C14F07F0FBBD0C4F30524A4
:1036D00004EBC40509EBC505ADB273689B69D3F86B
:1036E00008B0082318AA29463046D8470028ACD18C
:1036F0009DF86630C3F3030203F00F038DF81C201E
:103700009DF8632012F0200F05D09DF81D1041F0A8
:1037100002018DF81D109DF8661011F0200F05D0E4
:103720009DF81D0040F004008DF81D0011F0100FF1
:1037300005D09DF81D1041F008018DF81D1012F004
:10374000800F8ED1BDF86410ADF81E109DF867B0E3
:103750000BF07F0B12F0400F8AD0189AC2F31C02B4
:1037600006929DF81D2042F001028DF81D200F2BBE
:1037700028BF0F232E4AD35C402B49D89DF81D202B
:1037800012F0020F7FF47AAF002B3FF477AF05F110
:103790000801033372689269956803F4FE7308AAFE
:1037A00089B23046A84700283FF468AF0390214B08
:1037B0000293002001900090034601221B4905F06E
:1037C0004DFC3FE71C4C40F2F92322461B491C48A4
:1037D00005F01FF940F2F921204605F011F998F89B
:1037E0000D309B4507D2D8F8043003EBCB0253F8D9
:1037F0003B30526854E7104C40F2FE2322461149F8
:103800000F4805F006F940F2FE21204605F0F8F8D1
:103810000D4B0293002001900090034601220349C2
:1038200005F01CFC40E700BFCCB7000838A6000834
:10383000D4BD0008F4B70008FCB600081CB80008A6
:103840003CA7000834B800084CB80008F0B583B0B5
:103850000446056910354FF0FF324FF0FF3328461C
:1038600002F0D4FD01AA18212046FFF72BFE0646E0
:1038700028B1284602F0E2FE304603B0F0BD019ABE
:1038800022F01002019218212046FFF739FE064669
:103890000028EED102F04EF9074601AA1821204671
:1038A000FFF710FE06460028E3D1019B13F0080F36
:1038B000DFD002F03FF9C01B0C4B984208D801AA98
:1038C00018212046FFF7FEFD06460028EDD0D0E780
:1038D000019A42F01002019218212046FFF710FED3
:1038E00006460028C5D16FF00A06C2E7406603010C
:1038F00070B505692B793BBB06460C4610354FF079
:10390000FF324FF0FF33284602F080FD2288013A53
:10391000A388013B1B0203F47F4343EA4263E2882E
:10392000013A02F07F02134321890139084A02EA71
:1039300001421A431C213046FFF7E2FD04462846A7
:1039400002F07CFE204670BD6FF00F04FAE700BF66
:103950000000FF01F0B585B0476806693379002B98
:1039600033D10446386828B183681B6831689847AA
:10397000054660B94FF47A720023204605F083FBB8
:10398000054680B901233371284605B0F0BD039088
:103990000F4B0293002001900090034601220D4935
:1039A00005F05CFBF0E70C4B0293002001900090C7
:1039B00003460122074905F051FB386810B18368BE
:1039C0005B6898476FF00405DEE76FF07705DBE78B
:1039D00060B8000838A600088CB800082DE9F0414E
:1039E00086B00D46066907291AD804463379002B9C
:1039F00066D106F110084FF0FF324FF0FF3340461A
:103A000002F004FD05AA18212046FFF75BFD0746DA
:103A1000A0B1404602F012FE384606B0BDE8F08183
:103A20000391294B0293002001900090034601224C
:103A3000264905F013FB6FF08507EDE704AA102176
:103A40002046FFF73FFD07460028E2D115F0010FA1
:103A500027D0059B43F080030593049B43F010039C
:103A6000049315F0020F21D0059B43F0200305932A
:103A700015F0040F1FD0059B43F440730593059A7E
:103A800018212046FFF73CFD07460028C1D1049AC3
:103A900010212046FFF734FD07460028B9D13560D4
:103AA000B7E7059B23F080030593DAE7059B23F036
:103AB00020030593DCE7059B23F440730593DEE7C1
:103AC0006FF00F07A8E700BFA8B8000838A60008E5
:103AD00030B587B00446456805AA5021FFF7F2FCCF
:103AE00008B307B030BDA823A422E98E2046FFF713
:103AF00093FD26E0B823B422298F2046FFF78CFDE2
:103B000023E01B4B0293002001900090034601220A
:103B1000184905F0A3FA1CE005AA50212046FFF73A
:103B2000D1FC0028DDD1059A12F09902D9D050219C
:103B30002046FFF7E5FC0028D3D1059B13F0010FC9
:103B4000D1D1059B13F0100FD4D1059B13F0080FB2
:103B5000D7D1059B13F0800FDED0074B02930020D6
:103B60000190009003460122024905F077FAD3E75D
:103B7000C4B8000838A60008DCB8000830B587B023
:103B80000446056905AA5021FFF79CFC50B307B015
:103B900030BD204605F0A5FB32E02046FFF7CEFC05
:103BA00032E0254B02930020019000900346012251
:103BB000224905F053FA05F1240002F0DBFD27E06D
:103BC0001F4B0293002001900090034601221B49E5
:103BD00005F044FA20E005AA50212046FFF772FCC8
:103BE0000028D4D1174A059B1A40D0D05021204636
:103BF000FFF786FC0028CAD1059B13F0607FC8D16F
:103C0000059B13F4805FC8D1059B13F4004FC8D106
:103C1000059B13F0005FD3D1059B13F4003FDAD06E
:103C2000094B0293002001900090034601220349B2
:103C300005F014FACFE700BFF4B8000838A6000872
:103C40000CB900080090823B28B900082DE9F04F1C
:103C50008DB00746884691460693D0F804A0DAF85E
:103C60001C50066909790B460F2928BF0F23AE4A5D
:103C700012F803B000230A930B9398F80530C3F3AE
:103C800040009DF82B2060F345128DF82B20D2B216
:103C900063F386128DF82B209DF82E2061F303022A
:103CA0008DF82E20C3F3C001D2B261F304128DF857
:103CB0002E20C3F38001D2B261F345128DF82E207D
:103CC000D2B242F080028DF82E200F2B37D8326806
:103CD00012F0040F02D113F00C0F3ED1BBF1400FD4
:103CE00048D813F0040F64D098F804300F2B52D842
:103CF0003379002B00F00E8109A9384605F0BDF993
:103D00000446002840F0D080099B13F0800F40F05B
:103D1000048106F12403184607934A46069B02F0E5
:103D200087FD0446002840F0FB8006F134094FF07F
:103D3000FF324FF0FF33484602F068FB4CE003933C
:103D40007A4B0293002001900090034601227849AB
:103D500005F084F96FF08504A6E0764B029300200D
:103D60000190009003460122714905F077F96FF048
:103D7000850499E040230493CDF80CB06E4B029378
:103D800000200190009003460122694905F066F980
:103D90006FF0150488E00393684B029300200190B4
:103DA000009003460122624905F058F96FF01504AE
:103DB0007AE098F80430082B9AD90393604B029369
:103DC00000200190009003460122594905F046F970
:103DD0006FF0150468E001342B7BA34206DD2B68ED
:103DE000264653F83430002BF5D101E04FF0FF3672
:103DF0008DF82F6098F8053013F0010F58D0D8F8DF
:103E000000200A9B62F31C030A93BAF83E1006EBEB
:103E1000C603DB009BB2069319447B689B69DC6890
:103E200008230AAA89B23846A0470446002848D188
:103E300098F8053013F0020F17D1BBF1000F14D022
:103E4000BAF83E300699194489B208310BF10303E0
:103E50007A689269D46803F4FE7308F1080289B2A3
:103E60003846A0470446002837D12B7B9E4240D2DB
:103E70002B68169A43F836202B6803EBC603179A73
:103E80005A600122B240D0213846FFF739FB044680
:103E900000283BD02B68002243F83620484602F029
:103EA000CDFB079802F066FC20460DB0BDE8F08F10
:103EB000D8F80020BDF82A3062F38C03ADF82A3020
:103EC000A3E703901F4B029300200190009003464C
:103ED0000122174905F0C2F8E0E703901A4B02935C
:103EE00000200190009003460122114905F0B6F828
:103EF000D4E7164C40F2044322461549154804F015
:103F000088FD40F20441204604F07AFD484602F064
:103F100095FBC9E76FF07204C6E76FF07104C3E761
:103F20006FF00A04C0E700BFD4BD000844B9000820
:103F300038A6000868B9000894B90008C4B9000898
:103F4000E8B900080CBA000838BA0008FCB6000846
:103F500060BA00083CA700082DE9F04786B0064685
:103F600089469046D0F804A0DAF81C50076900246E
:103F700005945968BDF8142061F30A02ADF81420C5
:103F80001A68BDF8163062F30A03ADF816309DF8D2
:103F90001730022262F387138DF8173010374FF075
:103FA000FF324FF0FF33384602F030FA00E00134C0
:103FB0006B7BA34205DD6B6853F83430002BF6D1E0
:103FC00001E06FF01B0414F11C0F2AD014F0010F54
:103FD00035D002229DF8173062F3C5038DF81730F3
:103FE000BAF8321001EB840173689B69D3F80CA016
:103FF000042305AA89B23046D047064608BB384696
:1040000002F01CFB6B7B9C4228DA6B6843F834900F
:104010006B6803EBC403C3F80480204606B0BDE818
:10402000F087154B02930020019000900346022276
:10403000124905F013F8384602F000FBEDE70122C3
:10404000C8E703900E4B02930020019000900346B6
:1040500001220A4905F002F83446DEE7094C40F235
:10406000564322460849094804F0D3FC40F2564121
:10407000204604F0C5FC00BF78BA000838A6000846
:10408000D0B60008FCB6000898BA00083CA70008A3
:1040900030B585B04468E4691D7A012D09D815F062
:1040A000010F14D0FFF776F9002812DB637B184468
:1040B0000FE00395084B0293002001900090034607
:1040C0000122064904F0CAFF6FF0850001E0FFF706
:1040D00043FF05B030BD00BFB4BA000838A60008E1
:1040E0002DE9F04184B0D0F80480D8F81C7006693E
:1040F0000C1E30DB054610364FF0FF324FF0FF3319
:10410000304602F083F97B7BA3423FDCE31ABA7BA3
:104110009A422CDDBA68002142F83310BA6802EBEB
:10412000C3025160B8F8341001EBC3016B689B699E
:104130001B69082289B22846984700283AD0039084
:10414000254B029300200190009003460122234951
:1041500004F084FF2EE00394214B02930020019091
:104160000090034601221D4904F078FF25E00393E7
:104170001B4B029300200190009003460122174937
:1041800004F06CFF304602F059FA16E07B6800221A
:1041900043F834207B6803EBC4035A60B8F832104C
:1041A00001EB84016B689B691B69042289B2284674
:1041B000984728B9304602F041FA04B0BDE8F081D2
:1041C0000390084B029300200190009003460122C7
:1041D000024904F043FFEDE7F4BA000838A60008EE
:1041E000D8BA000820BB00082DE9F04385B0446828
:1041F000E56907693B79002B4BD006464FF47A728C
:10420000002304F08EFF804660B9206820B18368E7
:104210005B689847044690B9304605F0BFF8002423
:104220003C712BE01C4B0293002001900090034650
:1042300001221A4904F012FF6FF004080BE003900A
:10424000174B02930020019000900346012213496E
:1042500004F004FFA046404605B0BDE8F08300210D
:1042600043F834102B6813445A686FF072013046DB
:10427000C84707F1240002F07DFA01342B7B9C42F1
:10428000E9D22B68E20053F83490B9F1000FE6D17F
:10429000F3E76FF07708DEE74CBB000838A60008AC
:1042A00068BB0008F0B58DB04568EE69076900236A
:1042B00009930A93ADF82C3006930793ADF820309C
:1042C000AB691A68002A51D004465A68002A5AD0AD
:1042D0009A68002A64D0DA68002A6ED01B69002B25
:1042E00078D0002E00F08380327BEB8D9A4200F272
:1042F0008B80727B6B8C9A4200F29380B27BAB8C8A
:104300009A4200F29B8007F1100005F00BFE07F1C6
:10431000340005F007FE07F12400317B0A4605F062
:1043200008FE286820B105F09FFD002800F093806A
:104330002046FFF78BFA002840F099804FF47A72FC
:104340000023204604F0EDFE002840F09D8020462A
:1043500005F024F805AA18212046FFF7B3F8034614
:10436000002800F09E8018460DB0F0BDAC4C40F225
:1043700065532246AB49AC4804F04BFB40F2655113
:10438000204604F03DFBA64C40F266532246A74966
:10439000A54804F03EFB40F26651204604F030FB95
:1043A0009F4C40F267532246A1499F4804F031FBDD
:1043B00040F26751204604F023FB994C4FF4AD6363
:1043C00022469C49984804F024FB4FF4AD612046F6
:1043D00004F016FB924C40F26953224696499248EB
:1043E00004F017FB40F26951204604F009FB8C4CA5
:1043F00040F26A53224691498B4804F00AFB40F28E
:104400006A51204604F0FCFA854C40F26C53224677
:104410008B49854804F0FDFA40F26C51204604F0C7
:10442000EFFA7F4C40F26D53224686497E4804F0F5
:10443000F0FA40F26D51204604F0E2FA784C40F276
:104440006E5322468049784804F0E3FA40F26E51F8
:10445000204604F0D5FA7D4B02930190009003466C
:1044600001227B4904F0FAFD6FF012037BE7794BE0
:10447000029300200190009003460122744904F049
:10448000EDFD6FF004036EE7734B02930020019083
:104490000090034601226E4904F0E0FD6FF0040332
:1044A00061E7059A22F46972059218212046FFF708
:1044B00027F8034600287FF456AF05AA10212046AE
:1044C000FFF700F8034600287FF44DAF059A22F06D
:1044D0001002059210212046FFF712F8034600282B
:1044E0007FF441AF05AA80212046FEF7EBFF03468B
:1044F00000287FF438AF059A42F02803059342F074
:104500002B02059280212046FEF7FAFF0346002881
:104510007FF429AFEA682B8A09A92046FEF70EFF2F
:1045200010F1160F46D06A696B8A06A92046FEF77D
:104530001BFF10F1160F4AD009A9204604F068FDB0
:10454000002851D106A9204604F073FD002859D156
:10455000424A059254212046FEF7D2FF0346002826
:104560007FF401AF9922059258212046FEF7C8FF3B
:10457000034600287FF4F7AE032205925C21204613
:10458000FEF7BEFF034600287FF4EDAE4FF0FF328A
:104590000592E0212046FEF7B3FF034600287FF492
:1045A000E2AE63689B691B692A6C0021204698472C
:1045B0000346D8E62A4B0293002001900090034660
:1045C0000122234904F04AFD6FF00403CBE6254B9A
:1045D0000293002001900090034601221C4904F040
:1045E0003DFD6FF00403BEE603901F4B02930020D5
:1045F0000190009003460122154904F02FFD6FF051
:104600001203B0E60390194B029300200190009032
:10461000034601220E4904F021FD6FF01203A2E6C9
:10462000FCB60008B0BB00083CA70008D8BB0008D7
:1046300000BC000828BC000850BC000878BC00087A
:104640009CBC0008C4BC0008F0BC00081CBD0008ED
:1046500038A6000894BB00084CBB00089990820360
:1046600038BD00085CBD000888BD0008A8BD000872
:1046700010B584B00C464FF0407001F069FB38B1C2
:104680000E4AD2F800257AB92060002004B010BD8F
:104690000B4B02930190009003460122094904F05C
:1046A0009DFE6FF00400F1E7044AD2F800255200A5
:1046B000B0FBF2F323600020E8E700BF0060004099
:1046C000F0BD000840A6000810B50B1810F0030F4D
:1046D00016D1940811F0030F22D112F0030F33D03A
:1046E0001C4C40F2B95322461B491C4804F091F976
:1046F0001B4804F08EF940F2B951204604F080F9CD
:10470000144C40F2B75322461649144804F081F97C
:10471000154804F07EF940F2B751204604F070F9D4
:104720000C4C4FF4B763224610490C4804F071F961
:104730000F4804F06EF94FF4B761204604F060F9B9
:10474000002143F8041B1446621E002CF8D10020FF
:1047500010BD00BF08BE0008ACBE00083CA70008A2
:10476000BCBE000844BE000854BE000874BE000869
:1047700088BE000810B59C460B1810F0030F1AD124
:104780004FEA9C0411F0030F25D112F0030F32D130
:104790001CF0030F44D0254C40F297532246244985
:1047A000244804F036F9244804F033F940F29751D4
:1047B000204604F025F91D4C40F2945322461F492F
:1047C0001C4804F026F91E4804F023F940F29451E5
:1047D000204604F015F9154C40F29553224619492C
:1047E000144804F016F9184804F013F940F29551F2
:1047F000204604F005F90D4C40F296532246134929
:104800000C4804F006F9124804F003F940F29651FE
:10481000204604F0F5F852F8040B43F8040B0C465C
:10482000611E002CF7D1002010BD00BF08BE00089B
:10483000ACBE00083CA70008BCBE000844BE00088F
:1048400054BE000874BE000888BE0008DCBE000824
:10485000FCBE000810B59C460B1810F0030F1AD1CF
:104860004FEA9C0411F0030F25D112F0030F32D14F
:104870001CF0030F44D0254C40F26E5322462449CD
:10488000244804F0C6F8244804F0C3F840F26E51FE
:10489000204604F0B5F81D4C40F26B5322461F49E8
:1048A0001C4804F0B6F81E4804F0B3F840F26B510F
:1048B000204604F0A5F8154C40F26C5322461949E5
:1048C000144804F0A6F8184804F0A3F840F26C511C
:1048D000204604F095F80D4C40F26D5322461349E2
:1048E0000C4804F096F8124804F093F840F26D5129
:1048F000204604F085F853F8040B42F8040B0C46EC
:10490000611E002CF7D1002010BD00BF08BE0008BA
:10491000ACBE00083CA70008BCBE000844BE0008AE
:1049200054BE000874BE000888BE00081CBF000802
:104930003CBF0008F82845D8A8282ED3A0F1A8032A
:10494000502B3FD8DFE803F0403E3E3E443E3E3E23
:10495000443E3E3E643E3E3E503E3E3E443E3E3E33
:104960003E3E3E3E3E3E3E3E443E3E3E523E3E3E4D
:10497000543E3E3E563E3E3E583E3E3E5A3E3E3EF3
:104980005C3E3E3E5E3E3E3E3E3E3E3E3E3E3E3E09
:10499000443E3E3E603E3E3E6200842818D011D325
:1049A000A4280FD888280ED3A0F1880292B2012340
:1049B0009340194A13420BD113F4807F2AD113F08C
:1049C000805F03D1704770479420704790207047F4
:1049D00010B5124CCB2322461149124804F019F8A5
:1049E000CB21204604F00CF89C207047C82070476B
:1049F000CC207047D0207047D4207047D820704713
:104A0000DC207047E0207047E4207047E8207047C2
:104A1000982070478420D5E7010011015CBF000891
:104A20003CAB00083CA7000870B584B0064643685C
:104A30005D6C1D4805F018FA002831D0AB68012BD9
:104A40000AD9E9680831184B9B689B698BB1002231
:104A500015489847041E0EDB134883681B68E968F5
:104A60009847041E02DB2B7E83B90024204604B045
:104A700070BD6FF057040D4B029300200190009021
:104A8000034601220A4904F0A9FCEFE7304604F08E
:104A900085FC2B7E5B08074AC2F800350024E5E759
:104AA0006FF01204E2E700BFFCA1000890BF00080D
:104AB00040A600080060004070B586B00546436817
:104AC0005E6C0021706904F04DFD041E11DB284668
:104AD000FFF7AAFF041E18DB284604F05FFC05AAB6
:104AE00080212846FEF7EEFC0446D0B1204606B0F1
:104AF00070BD03941A4B029300200190009003466E
:104B00000122184904F06AFCF0E70394164B029363
:104B100000200190009003460122124904F05EFC3F
:104B2000E4E7059A42F0016242F4402205928021B6
:104B30002846FEF7E5FC04460028D7D14FF08072E6
:104B4000C0212846FEF7DCFC04460028CED12846CA
:104B5000FFF7A8FB04460028C8D133699847C5E78A
:104B6000BCBF000840A60008DCBF0008104B1B6853
:104B700013F4806F0ED10E4A136843F480731360F0
:104B800001E0012B06D00A4B1B6813F48063F8D0B8
:104B90000123F6E7064A936823F0030343F0010379
:104BA0009360034B9B6803F00C03042BF9D170470F
:104BB000001002401B4B1A6822F480221A601A6807
:104BC00042F480321A6001E0012A06D0154B1A68BF
:104BD00012F40032F8D00122F6E71249D1F89430ED
:104BE00043F00103C1F8943001E0012B07D00D4BD5
:104BF000D3F8943013F00203F7D01346F5E70949D0
:104C0000D1F8982042F00102C1F8982001E0012A71
:104C100007D0044AD2F8982012F00202F7D01A46C0
:104C2000F5E770470010024010B51C4B9B6803F07D
:104C30000C030C2B1FD0194C236823F080732360C6
:104C4000E36823F0605323F4003343F06053E360E0
:104C5000E36843F48033E360E36823F4C003E36074
:104C6000E36843F48013E36000F018F9236843F02D
:104C70008073236009E0FFF779FF084A936823F007
:104C8000F0039360D7E7012B06D0044B1B6813F0A9
:104C90000073F8D00123F6E710BD00BF00100240FA
:104CA00039B133B1B0FBF1F002FB00F0B0FBF3F02F
:104CB000704710B5054C5B2322460549054803F0B3
:104CC000A8FE5B21204603F09BFE00BF30C1000818
:104CD00074C100083CA7000870B50C461546444B4B
:104CE0001E680121304604F04DFC2368082B79D062
:104CF000013B5F2B79D8DFE803F03C5D6065716DA7
:104D000068783F49537878787878787878787878C0
:104D10007878787878787878787878787878787813
:104D20007878787878787878787878787878787803
:104D300078787878787878787878787878787878F3
:104D400078307878783078787833787878787878B8
:104D5000783678787836787878392E60002046E092
:104D60002E60002043E02860002040E02860002002
:104D70003DE02E6000203AE000F08CF80723552239
:104D80000621FFF78DFF2860002030E000F082F858
:104D9000022355220621FFF783FF2860002026E02A
:104DA00000F078F8022355220621FFF779FF2860EA
:104DB00000201CE00020286019E04FF4FA432B602B
:104DC000002014E00020286011E004F0DEFB2860E1
:104DD00000200CE0074B2B60002008E0064B2B6006
:104DE000002004E06FF0850001E06FF0850070BDE9
:104DF0004800002000366E01006CDC0238B500F07F
:104E00006DF8204C204604F044FC00F0E3FE1E4BFD
:104E10009B68C3F303131D4AD35C03F01F0320FAFE
:104E200003F5137803F01F031C41A54222D3FFF7BB
:104E3000C1FEFFF7F9FE144B9A6822F0F0029A6067
:104E40009A6842F003029A600F4B9B6803F00C03D0
:104E50000C2BF9D1A54211D20D4B0A4A1A600A4B0C
:104E60009A6822F4E0629A609A6822F460529A602A
:104E7000002038BD204600F099FFD8E7204600F01A
:104E800095FFE9E780FE210A001002403CC70008B8
:104E9000480000200048704700366E0108B50C4AF3
:104EA000D2F8803023F48073C2F8803004F0F2FB33
:104EB000084AD168084B0B4040F4AA4040F050002B
:104EC0000343D360D36843F08073D36008BD00BF51
:104ED00000700040001002400C80FFF982B0064BC9
:104EE0009A6D42F080529A659B6D03F08053019356
:104EF000019B02B0704700BF0010024010B504468D
:104F00000A2806D0E1B2064883685B6898472046C5
:104F100010BD034883685B680D219847F2E700BF26
:104F2000C4A2000810B5044C2046FEF7BBF820468A
:104F3000FBF718FF10BD00BFFD4E000808B505487F
:104F400004F092FF18B1FFF7EDFF002008BD6FF0ED
:104F50001200FBE7C4A2000808B5436831B1074856
:104F60008268126803F10C01904708BD034882680B
:104F7000526803F10C019047F7E700BFFCA100085D
:104F800001F0030C0CF102020B4B53F822200B0C26
:104F900022EA114193FAA3F35BB1B3FA83F303F06E
:104FA0001F03984001430CF1020C034A42F82C10F5
:104FB00070472023F3E700BF0000014070B582B0C6
:104FC00004460D460A4A6B4692E8030083E8030054
:104FD00008488268126819469047064610B1304664
:104FE00002B070BD2946204604F0CBFCF7E700BFB5
:104FF000C0A60008FCA1000800F003030233084A21
:1050000052F82320030C02EA104093FAA3F32BB1C9
:10501000B3FA83F303F01F03D84070472023F9E766
:105020000000014070B569B1044616460D464B6854
:10503000B3B1036813B304F042FB50BBFEB96FF089
:10504000150022E0164C3A2322461649164803F072
:10505000E0FC164803F0DDFC3A21204603F0D0FCCA
:105060000F4C3B23224612490F4803F0D2FC114853
:1050700003F0CFFC3B21204603F0C2FC32B1236891
:105080002B602560636843B1002070BD6FF0150090
:10509000FBE7002EF3D10020F7E765600020F4E77E
:1050A000B8C10008F4C100083CA7000800C200080D
:1050B00010C2000824C2000870B50E4615460168EB
:1050C00021B10C68ACB1A1B90C4612E00C4610E05D
:1050D000114C5D2322461149114803F09AFC1148F6
:1050E00003F097FC5D21204603F08AFC234621460D
:1050F0001C4681B18A682A4004D04B68002BE7D057
:1051000030469847002CF1D02368002BEFD0002CBC
:10511000EDD12346EBE770BDB8C100083CC20008E2
:105120003CA7000824C20008F8B50C4611464768A1
:105130000269B1F5001F15D01D46B1F5800F36D0BC
:105140001E492046FEF73EF8064698BBB5F1806F33
:1051500029D0B5F1C06F28D0B5F1007F15D06FF020
:1051600015061EE0204604F023FCBB68984201D0DF
:10517000002616E02046FDF7E5FF2046FEF740F842
:1051800000212046FDF7EAFFF2E702252146B86834
:10519000FFF714FF29462046FDF7E0FF2046FDF704
:1051A000BFFF3046F8BD0125F0E70325EEE76FF0BD
:1051B0008506F6E76FF00F06F3E700BFEB990008EE
:1051C00010B5044603695860074804F04DFE38B135
:1051D00001212046FFF7C0FE002800DB002010BDA3
:1051E0006FF01200FBE700BFFCA10008FF2817D8F2
:1051F000F8B504460D46164603090B4A52F82370CB
:105200005FB1384604F030FE38B133462A4604F028
:105210000F01384604F0F3FBF8BD6FF01200FBE716
:105220006FF01500704700BFBCC30008F8B5064614
:105230000F460024254616E002F01F0110292ED04B
:1052400011291DD0F1B1530A1B0103F4F873C2F305
:10525000431002F01F0229461843FFF7C7FF00283A
:1052600020DB0134E4B2BC421BD206EBC40356F887
:10527000342012F0100FDFD15D6845F02005E2E721
:105280005D68E0E7084C4FF48873224607490848F8
:1052900003F0BFFB4FF48871204603F0B1FB3025CB
:1052A000D1E70020F8BD00BF70C30008A4C3000808
:1052B0003CA70008EBB170B504461E46002592B22B
:1052C0000C4B33F812202B4608462946FBF706F80C
:1052D0000346090241EA13611B027208981832461C
:1052E0002B4641F10001FAF7F9FFC0F31300E0602B
:1052F00070BD70478CC60008012913D002290AD05E
:1053000011B14FF40050704702680A4B9A420BD01B
:105310004FF4805070470268064B9A4206D04FF413
:105320004050704700207047002070474FF40050F5
:10533000704700BF0080004008B5024A04F047FCF7
:1053400008BD00BF2F9C000800B583B08DF8071082
:10535000034A0DF1070104F04DFC03B05DF804FBB6
:10536000359C000830B585B0456804691248206056
:1053700004F07AFD48B1206883681B68E9689847A3
:10538000044670B9204605B030BD0C4B0293019025
:105390000090034601220A4904F089FC6FF01204D0
:1053A000F0E7084B02930020019000900346012291
:1053B000034904F07CFCE5E7FCA1000824C40008D4
:1053C000A8A6000844C4000838B51C460025094BAF
:1053D00033F812202B46FAF781FF090241EA1061E7
:1053E00000026308181822462B4641F10001FAF723
:1053F00075FF38BD8CC600082DE9F04188B007461E
:105400000E464368D3F8008002691068D968836843
:10541000DB68E3B107AA9847002818DB424B9845A0
:1054200020D0D8F8003023F40043C8F80030079BA0
:1054300036B103EB5603B3FBF6F39BB2C8F80C305E
:10544000D8F80C300F2B61D908B0BDE8F081374B8C
:10545000029300200190009003460122344904F099
:1054600026FCF1E700240B2C0DD833462246079882
:105470000021FFF7A9FFA0F540722E4DAA4202D9E4
:105480000134E4B2EFE70C2C24D0D8F82C3023F010
:105490000F032343C8F82C30334622460799404671
:1054A000FFF708FFD8F80C30B3F5407F20D3D8F8C9
:1054B0000C20214B9A42C7D9204CBF2322462049B9
:1054C000204803F0A6FA204803F0A3FABF212046A3
:1054D00003F096FA3B68049603931C4B029300205A
:1054E0000190009003460122114904F0E0FBABE774
:1054F000124CBB2322461649124803F08AFA15487B
:1055000003F087FABB21204603F07AFA0B4CD12333
:10551000224611490B4803F07CFA104803F079FA4F
:10552000D121204603F06CFA0080004064C40008DA
:10553000A8A60008FFFC0F00FEFF0F00ACC4000887
:1055400010C500083CA7000830C5000894C4000836
:10555000DCC40008F8C4000848C5000860C500089D
:105560002DE9F84F06460C46406805683369D3F8C4
:1055700004A00F79012F15D0022F16D14FF4806BA4
:1055800094F805904946FFF7B7FE034694F8068065
:10559000B8F1020F0CD0B8F1040F0FD0002F57D183
:1055A00000200DE04FF4C06BEAE74FF0000BE7E797
:1055B0000FB1002004E04FF0805001E04FF4805024
:1055C000FA1ED2B2012A64D917B1B8F1040F63D020
:1055D000B3F5805F41D0B3F5405F40D0002B3AD0A7
:1055E000032399455BD1594604F08FFA804559D180
:1055F000E379D3B1012B34D0032B56D12E4B9D42EE
:1056000013D0A3F574439D420FD003F580639D42F0
:105610000BD003F580639D4207D003F580639D4264
:1056200003D003F540539D4242D12B6823F0010380
:105630002B602146304604F059FB2B6843F00103F0
:105640002B6094E803008AE803000020BDE8F88F8F
:105650004FF48050B4E70123C3E70023C1E70223DE
:10566000BFE7154A9542E0D0A2F574429542DCD0DE
:1056700002F580629542D8D002F580629542D4D07E
:1056800002F580629542D0D002F540529542B3D1E6
:10569000CBE76FF08500D9E76FF08500D6E76FF0B4
:1056A0008500D3E76FF08500D0E76FF08500CDE788
:1056B0006FF08500CAE700BF00380140F0B585B043
:1056C000064645682C6803695F68236823F0010378
:1056D0002360686804F0C8FB002865D0A968686882
:1056E00004F0FCF954E8003F43F00C0344E80032B6
:1056F000002AF7D13946304604F0F8FA2B7D1BB169
:10570000A36843F00803A3606B7D1BB1636843F497
:1057100000436360AB7D1BB1636843F48033636017
:10572000EB7D1BB1636843F4003363602B7E83B36E
:10573000334B9C4213D0A3F574439C420FD003F526
:1057400080639C420BD003F580639C4207D003F535
:1057500080639C4203D003F540539C4230D1736870
:105760001A68936843F4804393606A7E236823F049
:10577000787343EA42532360AA7E236823F4F81324
:1057800043EA02432360EB7E1BB1A36843F400436A
:10579000A3602B7F1BB1236843F000532360236871
:1057A00043F0010323601BE0164B0293019000902D
:1057B00003460122144904F07AFA6FF012001DE04A
:1057C00033680393114B029300200190009003462D
:1057D00001220D4904F06BFA6FF015000EE033B9A9
:1057E000E36913F40013FAD00123F8E72AB9E26958
:1057F00012F48002FAD01A46F8E7002005B0F0BD96
:105800000038014074C50008A8A6000890C500082B
:105810004FF0E023996918699A6909B90C4B196826
:105820000AB90B4B1A6810F4803F01D1914208D29B
:1058300008490B680648006803440B604FF0E023FA
:105840001B69034B1B689B1A024A10681844704777
:1058500024050020200500200A4B102283F8232075
:10586000094B44F268221A600020084B18604FF080
:10587000E02344F267225A6198611A6942F00702F4
:105880001A61704700ED00E024050020200500208B
:1058900010B5FFF7BDFF11480368114A516814683D
:1058A0001B1941F1000113605160002202600D4993
:1058B0000A68981A0C4BA3FB0030800B44F2682353
:1058C00000FB03F3D2184B6843F100030A604B60FE
:1058D00002F08EFCFCF7CCFB10BD00BF20050020C1
:1058E000B8000020B0000020A548B9F6F8B500299E
:1058F00053D0B0F1FF3F45D0544B1C68012854DD14
:1059000040F2DA339842A8BF1846461EEFF31185DD
:10591000102383F31288BFF36F8F4D4802F0CCFA47
:10592000002844D04A4802F0F1FAFFF771FF4FF027
:10593000E0239F69474A13685168C31841F1000189
:10594000136051600021444A1160444A11685A1A98
:105950003CD444F2682000FB062202F58442673200
:105960003F4EA6FB0262920BC91A00FB021140F2E5
:1059700026438B4238BF0B463A4A914248D9334BB3
:105980001A6027E04FF0E022136923F0010313614E
:105990002E4B4FF07F421A6039E02C4B1C68B0F15F
:1059A000FF3FABD140F2D930AAE70026AEE72E4C3C
:1059B000882322462D492E4803F02BF824492D48F0
:1059C00003F027F88821204603F01AF81F4B40F215
:1059D00026421A604FF0E02399691C4A1268013A86
:1059E0005A6100229A618F4215D2641A3C44194AC6
:1059F000136851681B1941F100011360516014488C
:105A000002F06AFA88B185F31188BFF36F8FF8BD91
:105A10000E4A1360DEE77F1A0E4A13685168DB19DD
:105A200041F1000113605160E9E70F4C40F231137E
:105A3000224611490E4802F0ECFF05490F4802F0DA
:105A4000E8FF40F23111204602F0DAFF2405002081
:105A500028050020B800002020050020B00000200C
:105A6000A548B9F62882FF00A4C60008D4C60008DD
:105A70003CA70008ECC6000804C700081CC70008C3
:105A800070B5EFF31186102383F31288BFF36F8F85
:105A90001E4802F011FAC0B11C4D284602F036FA39
:105AA0001B4B1C681B4B1B68E41AFFF7B1FE044438
:105AB000284602F011FAB8B186F31188BFF36F8F50
:105AC000154BA3FB0430800B70BD144C8823224679
