:020000040800F2
:10000000402D0020992B0008DD240008852B0008D6
:10001000852B0008852B0008852B000800000000B8
:10002000000000000000000000000000BD2C0008DF
:10003000852B000800000000752C000839590008C5
:10004000792E0008792E0008792E0008792E0008F4
:10005000792E0008792E0008792E0008792E0008E4
:10006000792E0008792E0008792E0008792E0008D4
:10007000792E0008792E0008792E0008792E0008C4
:10008000792E0008792E0008792E0008792E0008B4
:10009000792E0008792E0008792E0008792E0008A4
:1000A000792E0008792E0008792E0008792E000894
:1000B000792E0008792E0008792E0008792E000884
:1000C000792E0008792E0008792E0008792E000874
:1000D000792E0008792E0008792E0008792E000864
:1000E000792E0008792E0008792E0008792E000854
:1000F000792E0008792E0008792E0008792E000844
:10010000792E0008792E0008792E0008792E000833
:10011000792E0008792E0008792E0008792E000823
:10012000792E0008792E0008792E0008792E000813
:10013000792E0008792E0008792E0008792E000803
:10014000792E0008792E0008792E0008792E0008F3
:10015000792E0008792E0008792E0008792E0008E3
:10016000792E0008792E0008792E0008792E0008D3
:10017000792E0008792E0008792E0008792E0008C3
:10018000792E0008792E0008792E0008792E0008B3
:10019000792E0008792E0008792E0008792E0008A3
:1001A000792E0008792E0008792E0008792E000893
:1001B000792E0008792E0008792E0008792E000883
:1001C000792E0008792E0008792E0008792E000873
:0801D000792E0008792E0008C9
:1001D800FFFFFFFFFFFFFFFFFFFFFFFFFFFFFFFF27
:1001E800FFFFFFFFFFFFFFFFFFFFFFFFFFFFFFFF17
:0801F800FFFFFFFFFFFFFFFF07
:1002000090F800F06DE9024520F007016FF0000C56
:1002100010F0070491F820F040F049804FF00004FE
:100220006FF00700D1E9002391F840F000F10800D9
:1002300082FA4CF2A4FA8CF283FA4CF3A2FA8CF311
:100240004BBBD1E9022382FA4CF200F10800A4FA78
:100250008CF283FA4CF3A2FA8CF3E3B9D1E90423CC
:1002600082FA4CF200F10800A4FA8CF283FA4CF303
:10027000A2FA8CF37BB9D1E9062301F1200182FABD
:100280004CF200F10800A4FA8CF283FA4CF3A2FAC3
:100290008CF3002BC6D0002A04BF04301A4612BAD1
:1002A000B2FA82F2FDE8024500EBD2007047D1E9D4
:1002B000002304F00305C4F100004FEAC50514F063
:1002C000040F91F840F00CFA05F562EA05021CBF34
:1002D00063EA050362464FF00004A9E74FF0FF3CD4
:1002E00006E000BF4FF0010C02E000BF4FF0010C30
:1002F0004DF804CD4FEA40024FEA41037FEA226CF9
:1003000018BF7FEA236C11D001B052EA530C18BF1A
:1003100090EA010F58BFB2EB030088BFC81738BF7F
:100320006FEAE17018BF40F0010070477FEA226C6D
:1003300002D15FEA402C05D17FEA236CE4D15FEA69
:10034000412CE1D05DF8040B704700BF844608469D
:100350006146FFE70FB5FFF7C9FF002848BF10F15E
:10036000000F0FBD4DF808EDFFF7F4FF0CBF0120A3
:1003700000205DF808FB00BF4DF808EDFFF7EAFF2D
:1003800034BF012000205DF808FB00BF4DF808EDE8
:10039000FFF7E0FF94BF012000205DF808FB00BFDD
:1003A0004DF808EDFFF7D2FF94BF012000205DF863
:1003B00008FB00BF4DF808EDFFF7C8FF34BF012070
:1003C00000205DF808FB00BF53B94AB9002908BFF7
:1003D00000281CBF4FF0FF314FF0FF3000F00CB889
:1003E000ADF1080C6DE904CE00F0A2F8DDF804E0F0
:1003F000DDE9022304B07047704700BF844641EA3C
:10040000000313F003036DD1403A41D351F8043B8C
:1004100040F8043B51F8043B40F8043B51F8043BDE
:1004200040F8043B51F8043B40F8043B51F8043BCE
:1004300040F8043B51F8043B40F8043B51F8043BBE
:1004400040F8043B51F8043B40F8043B51F8043BAE
:1004500040F8043B51F8043B40F8043B51F8043B9E
:1004600040F8043B51F8043B40F8043B51F8043B8E
:1004700040F8043B51F8043B40F8043B51F8043B7E
:1004800040F8043B51F8043B40F8043B403ABDD2ED
:10049000303211D351F8043B40F8043B51F8043B8F
:1004A00040F8043B51F8043B40F8043B51F8043B4E
:1004B00040F8043B103AEDD20C3205D351F8043B1E
:1004C00040F8043B043AF9D2043208D0D2071CBFEA
:1004D00011F8013B00F8013B01D30B880380604613
:1004E000704700BF082A13D38B078DD010F0030389
:1004F0008AD0C3F10403D21ADB071CBF11F8013BF9
:1005000000F8013B80D331F8023B20F8023B7BE747
:10051000043AD9D3013A11F8013B00F8013BF9D272
:100520000B7803704B7843708B788370604670470C
:100530002DE9F04786468C460846089E15467446C7
:100540001946002B40F0C2808542B2FA82F245D9AA
:100550004AB1C2F1200300FA02FC2EFA03F39540DF
:1005600043EA0C0C94404FEA154EA8B2BCFBFEF8CF
:10057000230C0EFB18CC08FB00F943EA0C43994509
:1005800028D9EB1808F1FF3704D2994502D9A8F110
:1005900002072B44A3EB0903A4B2B3FBFEFC0EFB42
:1005A0001C330CFB00F044EA0344A04214D92C197C
:1005B0000CF1FF3304D2A04202D9ACF102032C4467
:1005C000241A43EA07401EB1D4400023346073600C
:1005D000BDE8F0874746DDE76346F1E792BB431B82
:1005E00001214FEA154EAFB2B3FBFEFC200C0EFB0F
:1005F0001C330CFB07F840EA0343984562D9EB181B
:100600000CF1FF3004D2984502D9ACF102002B4422
:10061000A3EB0803A4B2B3FBFEFC0EFB1C330CFBE4
:1006200007F744EA0344A7424ED92C190CF1FF33D3
:1006300004D2A74202D9ACF102032C44E41B43EAE2
:100640000040C0E7C2F1200320FA03F1954090403A
:100650002EFA03F303434FEA154EAFB2B1FBFEFC93
:100660000EFB1C10190C0CFB07F841EA00418845F1
:1006700004FA02F422D969180CF1FF3004D288453B
:1006800002D9ACF102002944A1EB08019BB2B1FBF5
:10069000FEFC0EFB1C110CFB07F743EA01439F42D3
:1006A0000ED9EB180CF1FF3104D29F4202D9ACF104
:1006B00002012B44DB1B41EA004192E76046E3E77D
:1006C0006146F7E76046A3E76346B7E7834206D98A
:1006D00016B9002108467BE7C6E900E0F9E7B3FA5E
:1006E00083F78FB9834201D3724508D8BEEB020469
:1006F00060EB030301209C461EB9002168E73846E1
:10070000FAE7C6E9004CF8E7C7F1200CBB4022FA33
:100710000CF41C432EFA0CF120FA0CF3B840014300
:100720004FEA14490EFA07F5B3FBF9F81FFA84FEF5
:1007300009FB18300B0C08FB0EFA43EA00439A45FC
:1007400002FA07F240D9E31808F1FF3004D29A45C3
:1007500002D9A8F102002344A3EB0A0389B2B3FB38
:10076000F9F809FB183308FB0EFE41EA03418E45F8
:100770002CD9611808F1FF3304D28E4502D9A8F1B3
:100780000203214443EA0040A0FB0298A1EB0E01C2
:100790004145CE46434602D306D14D4504D2B9EB7E
:1007A000020E68EB04030138002EA6D0B5EB0E0252
:1007B00061EB030101FA0CFC22FA07F34CEA030394
:1007C000F940C6E9003198E74046C5E74346D9E716
:1007D00037B50B4B0D7918680023CDE9003307318D
:1007E0006A46DCB2A54206D9013311F8014F02F87E
:1007F000014B082BF5D1694608F004F903B030BD70
:10080000880B0020014B186808F012B9880B0020F3
:10081000014B186808F00FB9880B002008B5054C8B
:10082000206808F035F900214FF4FA6007F024F849
:10083000F6E700BF880B002037B50B4B0D79186821
:100840000023CDE9003307316A46DCB2A54206D960
:10085000013311F8014F02F8014B082BF5D169461D
:1008600008F0DBF803B030BD880B00202DE9F04123
:1008700088B00024384B394E39490293032223466D
:100880002046CDE9004408F078F8304600F088F8BA
:10089000034660B9334A32490093CDE9013201225F
:1008A00008F06BF84FF0FF3008B0BDE8F0812E4F34
:1008B000DFF8B88031682E4D384600F0F9F93A4635
:1008C000314640462F6008F08EF82A4B2868C3F85E
:1008D000008000F0ADF9034608B9274ADBE723465C
:1008E000264A28684FF4407100F044F92346244A10
:1008F000286840F2013100F03DF92346214A28687A
:100900004FF4007100F036F91F4A2868234640F280
:10091000012100F02FF900220023CDE90623052351
:10092000CDE90243CDE90044184B194904944FF432
:100930000062184806F02EF81749164805F044FFE3
:10094000164B07490094CDE9014320462346032274
:1009500008F013F82046A7E736A70008900B002000
:1009600024A200084EA70008800B0020600B002086
:100970008C0B0020880B002071A70008D10700080D
:100980003908000805080008110800081D080008BB
:10099000000F0020300700208FA70008A2A7000842
:1009A000F0B54049404A0346044603C943F8042BC6
:1009B00085B083E80300104609F072F868B93B4B34
:1009C00002930023CDE9003339490122184607F08C
:1009D000E3FF0025284605B0F0BD606809F060F827
:1009E00005460028EBD06068217A638903F0300265
:1009F000302AD0E9016ED0F810C00ED12D492E4A10
:100A00002E4840F2D33308F067F92D4808F064F916
:100A100040F2D331284808F056F903F00602042AC0
:100A200009D12849244A254840F2DA3308F054F91C
:100A300040F2DA31EEE736680127DA0707FA01F704
:100A400054BF43F4B01383F4D013374223F480121D
:100A50000CD11D49184A194840F2ED3308F03CF911
:100A60001A4808F039F940F2ED31D3E7DCF80060BC
:100A7000DB074CBF3E43BE43CCF80060DEF80030DD
:100A8000984758B1124B029300230390CDE90033ED
:100A900007490122184607F07FFF9AE701232373D5
:100AA00098E700BF4CA20008449E0008CFA70008AA
:100AB0001CA2000832A8000801A800086BA80008C2
:100AC00088A80008C5A80008F8A8000836A90008EA
:100AD00048A9000810B50346007B0A4620B35868B1
:100AE000197A0469012303FA01F143681B6819426A
:100AF0000ED10F490F4A10484FF4CB6308F0ECF8C1
:100B00000E4808F0E9F80B484FF4CB6108F0DBF829
:100B10002368194218BF82F0010232B18368DB6892
:100B20009847B0FA80F0400910BD83681B69F7E769
:100B3000F8A8000801A800086BA8000836A900085A
:100B400038B50B790C465BB108492068FFF732FCD9
:100B500030B1257B25B10649A068FFF70DFC10B91F
:100B6000657B05B9A57B284638BD00BF00208044C1
:100B70000000704230B540680D4689B011461A46F3
:100B8000B0B1A9B140F2FF730693002405AB0794FE
:100B9000059502F0EDFD00280DDA084B0390CDE934
:100BA00001430749009423460122204607F0B3FF82
:100BB000002009B030BD0120FBE700BF82A900087A
:100BC00014A20008F0B5476897B00E4615461C46BB
:100BD0002FB322B3082B22D84422002105A807F006
:100BE000C9FC2246294606A804968DF81440FFF752
:100BF00005FC0024CDE900444FF47A72002304A9D7
:100C0000384602F04FFD68B1074B0390CDE9014330
:100C10000649009423460222204607F07CFF00206C
:100C200017B0F0BD0120FBE79FA9000814A200083F
:100C30007FB50646406868B9194B02930023CDE999
:100C4000003318490122184607F065FF00252846A1
:100C500004B070BD08F024FF05460028ECD0706891
:100C600083680421DB689847044658B10E4B029311
:100C70000023CDE9003303900A490122184607F00A
:100C80004AFFE3E7706883685B6898470028DED016
:100C9000064B0390CDE9014300942346ECE700BFE7
:100CA000B3A9000814A20008C8A90008E0A9000818
:100CB000014AC0E90021704764A20008B2F5802F04
:100CC0002DE9F0410ED33C493C4A3D4840F2EB133C
:100CD00008F002F83B4807F0FFFF40F2EB113748FD
:100CE00007F0F1FF042A0CD83749344A34484FF44E
:100CF000F97307F0F1FF354807F0EEFF4FF4F97193
:100D0000EDE7043ACD1D8E1825F0070526F00706FD
:100D1000761B172E4FEAD6070CD82D49274A2848AC
:100D200040F2FB1307F0D8FF284807F0D5FF40F248
:100D3000FB11D4E7B7FA87F4C4F12002C4F124040C
:100D4000A4000734E408631C4FF00008BB420560B0
:100D5000AF60C5F80C800CD91E49184A18484FF4EA
:100D6000037307F0B9FF194807F0B6FF4FF403719A
:100D7000B5E74146920005F1100007F0FBFB630068
:100D800043F001036B8005EBC4023B1B5900A5F83F
:100D900000805180AA1925F83440A2F80280AB5394
:100DA00005EBC70321465A8842F001025A802846C3
:100DB000BDE8F04107F0DEBEDDAA00080FAA00087A
:100DC0006BA80008F3AA00080AAB00082BAB0008C8
:100DD00044AB00086DAB00082DE9F04F91B08407DB
:100DE000009302F004030293C2F3C20303F1010370
:100DF000DDF86880039205460E46059340F0F581C4
:100E0000041D30B1072909D86FF01B0011B0BDE8EF
:100E1000F08F01F00706341DC6F10806009B4FF065
:100E20000009013B4FF0040B0193CDF810904F46A1
:100E30004B464FF0FF32DA460DB10099216005981C
:100E4000002800F3D78098480099814203D397483F
:100E50008142C0F0CF800399A4EB050E89074FEAC9
:100E60009E0040F1E2804FF0000CCCE07A285AD886
:100E70004B280CD8472856D829282AD8252851D0BD
:100E800051D8202877D023384342434173E04C386F
:100E90002E2848D8DFE800F06F47474747474747C5
:100EA00047474747494747474747474747594749BC
:100EB000495959596F496C476F4718491847478036
:100EC0007D49474749477D00002000234FF0040B30
:100ED00039E02A38C0B2012101FA00F010EA0E0F01
:100EE00049D110F0625C30D110EA010343D0604672
:100EF000013C5C44B4FBFBF40BFB04F4002D60D01C
:100F0000AAEB050CA444B4453FF67EAF00286AD195
:100F1000BAF1040F45D158F8040B206004344FF0A7
:100F2000040A28E0013A002325E0019B13F8013C64
:100F30006C2B33D1019B13F8023C00206C2B034631
:100F4000C4D14FF0080BDA46D2E708F1070828F0C1
:100F500007080734F8E802AB24F0070435B1069817
:100F60002044B0423FF650AFC4E900AB0834002340
:100F70004FF0080BDA46019911F8010F0191002892
:100F800000F0BB80002B7FF471AF2528F3D1013234
:100F900001234FF0040BEDE7184696E700200346C7
:100FA000A6E7BAF1080F40F09A8008F1070828F088
:100FB0000708F8E80201C4E9000108344FF0080A04
:100FC000D9E780B9BAF1040F02D108F10408A5E706
:100FD000BAF1080F40F0838008F1070828F00708ED
:100FE00008F10808E9E705990139059158F8041B4B
:100FF000009121E7039988074AD5A4EB050E4FEA33
:101000009E004FF0010CBEF5007F1ED32849294AEF
:1010100029484FF41F7307F05FFE284807F05CFE75
:101020004FF41F71234807F04EFE0F2F0FD8002DED
:1010300048D007F140010DEB010C0CF8200C0CF826
:10104000102C04980130049021E00F2F0CD918497E
:10105000184A194840F2812307F03EFE184807F06D
:101060003BFE40F28121DDE7CDB107F140010DEB00
:10107000010EC0B20EF8200C0EF8102CBCF1000FBF
:10108000DFD060F07F000EF8200C09F10109013774
:10109000C5F10801043406914FF6DA7E6BE7BCF126
:1010A000000F0FD00136F2E7B49C000828CF0008EB
:1010B000F6A8000898AB00086BA80008C6AB0008AB
:1010C000E7AB0008029802360028E0D10098CDE98D
:1010D0000632FFF795F8DDE906320644D7E7444AC1
:1010E0004449454840F2C62307F0F6FD51464348BF
:1010F00007F0F2FD40F2C62194E7631BB3F5806F61
:101100000CD33C493A4A3C4840F2D22307F0E4FD74
:101110003B4807F0E1FD40F2D22183E71DB9A6F17B
:101120000804E01872E6029A28609B082B709DF86C
:101130001030C2B1EB7085F80290B9F1000F05D004
:1011400008A80022C5F1010C97420ED1C5F1010398
:101150000DF120084FF0000A01930DF1300B5745B7
:1011600012D1601B52E66B70E5E710F8013B1906DF
:1011700008D504EB0C0EB64503F07F033FF644AEF2
:1011800004F8013B0132DFE7B9F1000F03D098F911
:101190000020002A17DB029BD3B11AF80B2004F8B9
:1011A000012B0022019B98182044B0423FF62CAE40
:1011B00098F8000004F8010B009903922046FFF70D
:1011C0001DF9039A14440AF1010A08F10108C6E75F
:1011D00098F8002055F822300093029B45F8223001
:1011E0000098FFF70DF8421CDCE76FF00D000DE6EC
:1011F00098AB0008F6A800086BA8000801AC00082E
:1012000016AC0008014B1860704700BF980600201C
:1012100030B587B00025CDE903010446009503A948
:101220000548059500F06EF8DDE904309842B8BF36
:10123000255407B030BD00BF298C0008F0B5094E19
:10124000016802460A2700200B4601311C78355DF3
:101250006D0701D41360F0BD07FB0043A3F130001C
:10126000F2E700BF1DA600082DE9F84F15469A4683
:10127000D378234A12F803B06F2B81460F460BF048
:10128000030B2BD026D8582B0CBF10260A26DDF8CE
:1012900028803246002348463946FFF795F8092A48
:1012A00008F1FF38D4B21ED83034B145E4B277F13A
:1012B000000788F8004001D3D04511D82B789B0651
:1012C00005D5082E15D1AB7843F00803AB70404626
:1012D000BDE8F88F03F0F703702BD5E70826D6E7B3
:1012E00081460F46D5E7BBF1010F0CBF37345734A9
:1012F000DBE7102EEBD1AB7843F01003E6E700BF3D
:101300001DA600082DE9F04F97B08A4603901646B7
:101310001C460025307808B9284656E325280AD00F
:10132000039B514698470028C0F24F83731C013538
:101330000493049EEEE71822002110A807F01AF982
:101340007378252B00F0A3800023711C98469E46DD
:101350009C4618460F4611F8012B2B2A00F0C68038
:1013600000F2BD80202A00F0C480232A00F0C4804F
:101370002BB19DF8483043F040038DF84830B8F168
:10138000000F05D09DF8483043F020038DF8483019
:10139000BEF1000F05D09DF8483043F010038DF8E2
:1013A0004830BCF1000F05D09DF8483043F00803E9
:1013B0008DF8483028B19DF8483043F004038DF88B
:1013C00048309DF8483003F04401442903D16FF3BD
:1013D00086138DF848309DF84830099743F0800314
:1013E0002A2A8DF8483040F08C809DF8493043F02F
:1013F00001038DF849307B1C1A782E2A9DF849206C
:101400000CBF0121002161F341028DF849200CD16C
:101410005A1C09925A782A2A40F083809DF8492064
:1014200042F004028DF8492002331A786C2A00F049
:10143000A48000F28680682A00F08C806A2A00F07E
:10144000A5804C2A00F0AA801A4612F8013B0492AB
:10145000782B9DF849208DF84B3000F217816D2BC9
:1014600000F2A980692B00F21181572B00F2BE8097
:10147000412B03D0453B022B00F208819DF84A30F6
:10148000042262F302038DF84A300123CAE08DF88A
:101490004B30B31C04939DF84930D90740F1FD80CF
:1014A00054F8048BB8F1000F07DA9DF8482042F099
:1014B00004028DF84820C8F100085A0740F1F68070
:1014C00054F804BBBBF1000F80F2F5809DF8493061
:1014D0006FF341038DF849304FF0FF3BEBE02D2ACD
:1014E0000DD0302A7FF444AF012333E74FF0010CD5
:1014F00030E74FF0010E2DE74FF001082AE70120F9
:1015000028E709A8FFF79AFE099BBB423FF474AF96
:101510009DF848201390C00F60F341028DF84820D9
:101520006AE709A8FFF78AFE9DF848301490C3F3D4
:10153000400242EAD07262F341038DF84830099BC1
:1015400073E7742A26D07A2A7FF47EAF9DF849206B
:1015500006210CE05A78682A9DF8492006D101211D
:1015600061F3C6028DF8492002336DE7022161F371
:10157000C6028DF84920013366E75A786C2A9DF837
:10158000492001D10421EBE70321F0E79DF8492030
:101590000521ECE79DF849200721E8E7BDF8482040
:1015A00022F4F04222F0020242F4804242F00202AF
:1015B000ADF84820DFE76E3BD9B201238B4040F203
:1015C00082410B4238D113F0240F52D1DF075DD591
:1015D0009DF84A30032161F302038DF84A3002F08E
:1015E0007803A3F14000434243411BE0A3F15801BB
:1015F000C9B2012000FA01F111F4624F7FF43EAF4D
:1016000040F6010739421DD111F4043F3ED09DF848
:101610004A3060F3020302F07802402A8DF84A3023
:1016200034D000239DF84820C2F340010B4363F3FC
:1016300041028DF848202EE79DF84A30022161F3DF
:101640000203E8E79DF84A10022002F0780260F3F6
:101650000201402A8DF84A1002BF9DF8481041F05F
:1016600001018DF84810632BDBD1131E18BF012335
:10167000D8E79DF84A30032161F3020312F0780F96
:101680008DF84A3014BF01230023CBE79DF8483082
:1016900043F001038DF84830C3E79DF94820002A44
:1016A000B4BFDDF84C804FF0FF3806E79F077FF5A9
:1016B00013AFDDF850B09DF849100023CDE9133386
:1016C0009DF84A3003F00703012BC1F3C30132D167
:1016D000CB1E042B04D8DFE803F020454520200072
:1016E000236801294FEAE372CDE910321BD19DF93D
:1016F0004030DA17CDE9103204349DF8483013F049
:1017000003074FD0049B03983246514607F0C4FAB2
:101710000028C0F25A8105440BE654F8043BDA175E
:10172000CDE91032E9E70229E6D11AB243F3C0331A
:10173000CDE91023E0E7022B24D1CB1E042B04D8E3
:10174000DFE803F0181010181800012954F8043BC2
:101750004FF0000214D00229CDE91032CDD19BB256
:101760001093CAE7073424F00704F4E80223CDE914
:101770001023C2E754F8043B109300231193BCE7F5
:10178000DBB2CDE7042B08D1073424F00704D4E9F9
:1017900000230834CDE91023AFE7032BADD154F873
:1017A000043BDDE79DF84B0078283FF6C2AD622888
:1017B0001ED8252850D058287FF4BBAD0DF13E032C
:1017C0000093DDE910010AAB12AAFFF74DFDBBF152
:1017D000000F814680F2C280B9F1000F3FF4A9AD3D
:1017E0000DF13E06A6EB0903002F7BD0013379E013
:1017F000633815283FF69DAD01A252F820F000BFD6
:10180000D3180008311900083313000833130008F7
:10181000331300083313000831190008331300088C
:101820003313000833130008331300087F1900082E
:1018300057190008911800083313000833130008E3
:1018400069180008331300085719000833130008FB
:101850003313000857190008039B51469847002886
:10186000C0F2B380013564E5BBF1000FDDF84090B4
:101870000ADB5946484606F021FFB9F1000F3FF454
:1018800058AD09EB000620E04846FEF7B9FCF8E742
:101890001098002800F087800DF13E060AAB0096F4
:1018A00012AA0021FFF7E0FCBDF84A3003F0EF0375
:1018B00043F4F04343F01003BBF1000F8146ADF851
:1018C0004A304ADA00283FF434ADA6EB090300277A
:1018D00008E0109B8DF8283000270DF129060DF146
:1018E000280901239DF84A1011F01002069260D0D9
:1018F0000233139A059213444A0644BF14995B18A5
:10190000B8F1000F6EDDA8EB03089DF848305807CA
:10191000C3F3800B66D459065AD53FB1039B514699
:1019200038469847002850DB01355F46302350E0A9
:101930001E075CBFC3F300135F01DDE9102348BF3E
:101940002B27002BBFF63AAF524263EB4303CDE99E
:1019500010232D2732E7002730E700279DF8481095
:101960000DF13E03A3EB09036FF386119B458DF840
:1019700048107FF631AFABEB030313932CE7109BBA
:1019800007293FF6D6ACDFE801F00C04060C080886
:101990000C0C1D70CDE41D80CBE4EA17C3E90052A6
:1019A000C7E41D60C5E4314E0746A6F105090523CD
:1019B00098E7080748BF01339BE71846079351464D
:1019C000039B98470028079B04DA17B0BDE8F08F07
:1019D0002023C346594600290BF1FF3BEDDC45446B
:1019E0006D1AD84637B1039B5146384698470028B0
:1019F000EBDB01359DF84A30DA0601D41B0706D52A
:101A0000039B5146302098470028DEDB0135069BBA
:101A10003BB19DF84B00039B514698470028D4DB0F
:101A20000135059F2F4406E0039B5146302098471F
:101A30000028CADB01357B1B002BF5DC03983346FD
:101A40004A46514607F028F90028BEDB0544A84461
:101A5000A8EB0503002B7FF76CAC039B51462020BD
:101A600098470028B1DB0135F2E700BF43AC00081E
:101A7000034A536823F0020353600020704700BFFD
:101A8000002004E0134B1A6842F400721A601A68CE
:101A900042F480621A601A6842F480721A600E4B37
:101AA0000E4A1A600E4A536843F0010353600D4B0F
:101AB0009A6D42F080529A659B6D0B4A82B003F09A
:101AC00080530193019B9368002043F4804393600B
:101AD00002B0704700200240D00600200024F4002D
:101AE000002004E000100240007000401FB5D0E963
:101AF0000123C168029164215943B1FBF2F1CDE9A0
:101B00000021044601680648D21A07F0A1F8D4E97A
:101B10000623044804B0BDE8104007F099B800BFA0
:101B200044AC000884AC0008F0B595B0D0F8AC60C7
:101B300005460F4608F015F8044608B1037833B996
:101B40001A4A2B460B2101A807F08FF801AC694611
:101B5000284608F016F8024628B11548214607F035
:101B600077F800230093009BCDE90A460EA9F61AE8
:101B700028460C9608F00CF880B904A808F012F872
:101B800078B90E980F9D6424A0FB0401DDE90423BD
:101B900004FB0511FEF718FC0D9002E004A808F004
:101BA00001F80AA8B84715B0F0BD00BFA9AC0008FD
:101BB000ACAC00087FB501460E4806F065F805AAF2
:101BC0000D484FF4006107F0D0FF024670B9059B45
:101BD0006421C3F500604143C90A02914FF40061DA
:101BE000CDE900010549064807F032F807B05DF875
:101BF00004FB00BF291B0008C01B0020D4AC000858
:101C0000D8AC000808B5044807F022F8BDE8084041
:101C10000248FFF7CFBF00BF0EAD0008ED1A000865
:101C200038B5044C0025FFF7EDFF2046294605F0A6
:101C300023FEF8E7C02709002DE9F84FDFF8F8A0E8
:101C40003E4FAAEB07038F2B814688460BD93C49B0
:101C50003C4A3D4840F23F1307F03EF840F23F1146
:101C6000384807F030F8394807F04EF806460028A3
:101C700034D13C4605464FF0010B544527D9344931
:101C8000304A31484FF4A67307F026F8314807F080
:101C900023F84FF4A671E3E7237B6BB12368DB687D
:101CA0000BB12046984723681B6943B96368042237
:101CB0001968204600F00AF901361034DDE72046A5
:101CC00098470028F2D00BFA06F31D43F4E7E3D35C
:101CD000B9F1000F02D04FF0010A0DB9BDE8F88F3D
:101CE000A94695FAA5F4B4FA84F40AFA04F3260195
:101CF00007EB04146FEA030B25EA0305237B5BB1B2
:101D0000BB591B699BB93E4404227368204619687D
:101D100009EA0B0900F0DAF8002DE2D1B8F1000F62
:101D200003D06420002105F0A7FD4D46D5E72046ED
:101D300098470028F0D1E6E74CA200083CA2000832
:101D40005CAD00082FAD00086BA80008A80B0020B0
:101D50008CAD0008ADAD0008014B53F82000704772
:101D600078A2000808B5034608462BB1044A136060
:101D700000F006FB002008BD6FF01500FBE700BF78
:101D80009C060020054A064800231370054A13608C
:101D9000054A4FF47A711360FFF7E4BFC00E0020CC
:101DA000F98C0008A00B0020A40B002070B5134D87
:101DB000297809BB0120FFF73FFF114C114EB442B7
:101DC00017D91149114A12484FF4DC7306F084FF09
:101DD000104806F081FF0D484FF4DC7106F073FFE8
:101DE00063685B791BB1236820469B689847103471
:101DF000E5E7F5D301232B7070BD00BFC00E0020B6
:101E00003CA200084CA200088CAD00082FAD0008D1
:101E10006BA80008ADAD000810B50446084806F0F0
:101E200073FF5CB1BFF35B8F064B53E8001F0139B2
:101E300043E80012002AF8D1BFF35B8F10BD00BF4A
:101E4000A00B0020A40B002070B5124B124C1B6895
:101E5000124E05469847A860B44218D91049114A55
:101E6000114840F2F31306F037FF104806F034FF34
:101E70000C4840F2F31106F026FF63685B7923B14A
:101E8000236829461B68204698471034E4E7F4D3BA
:101E900070BD00BF9C0600203CA200084CA20008B8
:101EA0008CAD00082FAD00086BA80008ADAD000890
:101EB000044A054B9B1AB1EBD30F34BF52F83100E3
:101EC00000207047C4A100083CA200080E4BC31AB2
:101ED0001B11013310B5DBB248B90C490C480D4A4F
:101EE000DF2306F0F9FE0B48DF2106F0ECFE446824
:101EF000237143689A7143681960436801225A71DB
:101F0000BDE8104006F022BF3CA2000850AE000819
:101F10006BA8000818AE00082DE9F04F87B004AF99
:101F2000D7E90EA93D6B04460E4693469846BAF192
:101F3000000F2BD0C7F80490CDF8009010217A6BD9
:101F400053460020FEF748FF011E0BDA2849294AB4
:101F5000294840F2651306F0BFFE40F2651125489E
:101F600006F0B1FEB1F5006F11DB40F2FF73039391
:101F7000224B02930023CDE9003321490222184667
:101F800006F000FF0C37BD46BDE8F08F514604F067
:101F900007040BF0070BE40044EA8B1444EA4124E5
:101FA00044EA055417350D4425F00705ADEB050D42
:101FB00004ADBAF1000F13D0CDF800907A6B534600
:101FC00005F11000FEF708FF002809DA0849094A60
:101FD000094840F2851306F07FFE40F28511BEE706
:101FE000434622463146284606F0B3FECAE700BF04
:101FF0009CAE000870AE00086BA80008A6AE0008F2
:10200000E4A10008406820B1034BC01A40F3CF00A0
:1020100070474FF0FF307047C4A100080EB403B5FD
:1020200003AB014653F8042B0448019306F0E4FE89
:1020300002B05DF804EB03B0704700BFA58D000847
:10204000CA0605D48B064CBF02490349FFF7E6BF19
:10205000704700BF4FC90008DEAE00082DE9F04F01
:1020600089B09A46149B06939DF84CB0159B059336
:10207000169B179E049304460D469046BBF1000F35
:1020800000F0AD80BBF1040F0BD9A449A44AA548C8
:1020900040F2622306F020FE40F26221A04806F0E2
:1020A00012FE06F48073079306F051FE06F0020953
:1020B000024600283FD09C492046FFF7AFFF074665
:1020C000B9F1000F08D016F0440F36D197492A46CF
:1020D0002046FFF7A3FF074406F0010353B1944BDA
:1020E000944953F82B20944B2046002A08BF1A46E7
:1020F000FFF794FF06F48073002B4AD006F0080324
:10210000002B64D1B8F1000F67D08C4942462046BD
:10211000FFF784FF0546069B3D44002B6ED1049BD0
:10212000002B40F08380F30700F1F1803146204618
:10213000FFF786FFE5E00746C2E7814B18680028F5
:10214000C9D0804B4FF47A791B68B5FBF3F54FF497
:102150006161B5FBF0F300FB135509FB05F54FF08A
:102160003C0CB3FBF1F201FB1231B5FBF0FEB1FB0D
:10217000FCF300FB1E550CFB131109FB05F5009148
:10218000B5FBF0F57049CDE901E52046FFF746FFC4
:10219000A1E706F00803EBB16C4B6D4953F82B2017
:1021A0002046FFF73BFF0546B8F1000F05D0634915
:1021B00042462046FFF732FF0544BAF1000FAAD08D
:1021C000644952462046FFF729FF0544A3E74FF034
:1021D000000AE1E706F00805E6E745469BE7BAF1A5
:1021E000010F069B06D1DBB9049B002B00F0898010
:1021F00000251BE0002BF7D0574812E05748069BFC
:102200005749224606F0DDFC00280CDA5549444ABD
:1022100044484FF42F7306F05FFD4FF42F713DE7F4
:102220004E485D46EBE7049B002B66D0DFF8388113
:10223000DFF83891049F3146102F204628BF102721
:10224000FFF7FEFE4FF0000A554543DC059B49466B
:102250001A782046FFF7E2FE4FF0010A1AF0070F46
:1022600003D141462046FFF7D9FE574539D9059B92
:10227000494613F80A202046FFF7D0FE0AF1010A6A
:10228000BAF1100FEAD13A4920464FF0000AFFF7A1
:10229000C5FE5246059B9A5C364B995C11F0970F30
:1022A00008BF2E2234492046FFF7B8FE0AF1010A82
:1022B000BAF1100F1AD01AF0070F03D14146204689
:1022C000FFF7ACFE57455246E4D841462046FFF79B
:1022D000A5FEEBE741462046FFF7A0FE0AF1010A02
:1022E000B2E726492046FFF799FEC7E7059B3B4426
:1022F0000593049BDB1B04939CD1BBF1000F7FF47F
:1023000012AF204609B0BDE8F04F06F07CBD0A4A86
:1023100008492046FFF782FE08E700BF15AF000816
:10232000E6AE00086BA8000821AF000825AF000842
:1023300088A200084AAF0008E1AE00084DAF0008CF
:10234000B00B0020AC0B00202EAF00089CA20008B0
:1023500051AF000857AF0008C18D0008A58D0008D7
:10236000F98D00085CAF00086DAF000865AF00088C
:102370006FAF00081DA6000871AF00086BAF000822
:10238000074A00210123904206D8064A01B90123D9
:102390001360054B1860704740085B000121F2E7AD
:1023A00040420F00AC0B0020B00B0020F8B5074FE7
:1023B0000D4604464618B44201D12846F8BD14F82B
:1023C000011BBB6801485B689847F4E71C9E000846
:1023D00010B543681C68094807F062FB48B9084912
:1023E0000848094A992306F077FC0748992106F026
:1023F0006AFC23685B685C6010BD00BF1C9E00081F
:10240000D2AF00086BA8000894AF0008014B03602E
:1024100000207047E4A2000870B5064686B00D465D
:10242000002938D08B6805934B6804930B6803939D
:102430000024244B24490293012223462046CDE95F
:10244000004406F03FFD6B6905932B690493EB682C
:1024500003931E4B1C490094CDE9014301222346FE
:10246000204606F02FFDEB690393194B16490094A3
:10247000CDE9014301222346204606F023FDAB6946
:102480000393144B10490094CDE9014301222346E4
:10249000204606F017FD012E0DD1EFF30583103B0A
:1024A00003930D4B02930023CDE9003306493246D6
:1024B000184606F007FD2946304606B0BDE87040D4
:1024C00003F036BD06B0000804A2000835B00008CD
:1024D00064B0000873B00008A1B0000808B5034B51
:1024E0001B689847BDE8084000F006B8A806002021
:1024F00030BFFFF7FDBF00BF074A936893F90E1086
:10250000002907DBD26993421FBF044A536843F096
:1025100080535360704700BF400A002000ED00E088
:10252000F0B585B00024434B0293CDE90044234627
:1025300007460E4601224049204606F0D7FC3F4B95
:102540009B6ADB0465D53E4B3B490094CDE90143D2
:1025500020462346012206F0C9FC1720374B9B6A10
:102560001D050AD5374B029300231846CDE90033E9
:102570003149012206F0BAFC1820304DAB6A9C05A7
:102580001FD50024304B0293012223462046CDE97B
:102590000044294906F0AAFCAB6BAA6A10040FD5C7
:1025A00003932A4B24490094CDE901430122234699
:1025B000204606F09BFC1FB1AB6A23F40043AB62DC
:1025C00019201E4B9B6A59050AD5214B0293002303
:1025D0001846CDE900331849012206F087FC1A207D
:1025E000164A936A13F4807315D01A4B0293002392
:1025F0001846CDE900331049012206F077FC1B2074
:102600000E4A936A43F47F4393620023337005B00C
:10261000F0BD1620A2E7926A9204F1D50E4A06494F
:102620000093CDE901321846012206F05FFC1C2020
:10263000E6E700BFB4B0000804A2000800ED00E027
:10264000CAB00008DBB00008EEB0000807B100080F
:102650001CB1000837B100084FB100081FB50024B5
:10266000374B029301222346CDE9004435492046E9
:1026700006F03CFC344B9B6A9A015ED5334B3149E2
:102680000094CDE9014320462346012206F02EFCAA
:102690001E202D4B9B6ADB010AD52D4B0293002394
:1026A0001846CDE900332749012206F01FFC1F2000
:1026B000254B9B6A1C030AD5264B02930023184620
:1026C000CDE900331F49012206F010FC21201E4BEA
:1026D0009B6A59030AD5204B029300231846CDE983
:1026E00000331849012206F001FC2220164B9B6A98
:1026F0009A030AD5194B029300231846CDE90033FB
:102700001049012206F0F2FB23200F4B9B6ADB03EA
:102710000AD5134B029300231846CDE9003309492B
:10272000012206F0E3FB2420074A936A6FEA034381
:102730006FEA1343936204B010BD1D20A9E700BFE8
:102740007EB1000804A2000800ED00E096B1000888
:10275000A9B10008C3B10008E1B1000806B2000841
:1027600020B200082DE9F04385B00024564B0293B7
:10277000CDE9004423468046894620465349164603
:10278000012206F0B3FB524B9B6AD80640D5514B51
:102790000094CDE90143204623464C49012206F02E
:1027A000A5FB11244A4B9B6A19070AD54A4B029391
:1027B0000023CDE9003345490122184606F096FB77
:1027C0001224434DAB6A9A0724D50024434B02934D
:1027D000CDE9004423463D490122204606F086FB10
:1027E0006F6BAB6A1B0659D53D4B38490397CDE952
:1027F0000143009423460122204606F077FBB9F1FD
:10280000000F03D0AB6A23F08003AB62132403E014
:102810001024C7E76FF015072D4B9B6AD8070AD520
:10282000304B02930023CDE900332849012218469A
:1028300006F05CFB1424264B9B6A99060AD52A4BAA
:1028400002930023CDE9003320490122184606F007
:102850004DFB15241E4DAB6ADA0602D4AB6A9B070A
:102860000AD56B68180507D54146384600F0B8FA16
:10287000B8B180F309880224154B9A6A920642BFC8
:102880005A6A22F400525A629A6A42F0FF029A622D
:1028900020460023337005B0BDE8F0836FF01507C4
:1028A000B4E7AB6AD906E7D51049114A114840F29E
:1028B0005D1306F011FA104806F00EFA0C4840F2CB
:1028C0005D1106F000FA00BF4BB2000804A2000838
:1028D00000ED00E061B20008DBB0000894B200082F
:1028E000ACB20008C2B200084FB1000813B3000830
:1028F000E1B200086BA800085DB300082DE9F041C3
:10290000894B0446586890B0C0F30806002383F34F
:102910001188BFF36F8F02F07F45B5F17F4F0CD167
:1029200002F00C05082D17D1804A81490093CDE9AA
:1029300001321846012206F0D9FA7E497E4A7F48C4
:102940004FF48B6306F0C8F97D4806F0C5F94FF4E3
:102950008B61794806F0B7F9120746BF0C461D4651
:102960000125002CE9D04FF00008F31E8DF81F80E0
:10297000092B00F2BF80DFE803F005B3B796BDBDB9
:10298000BDBDBDBB6F4B6A49674FCDF80080CDE937
:10299000018300230122184606F0A8FA8DF81F8053
:1029A000FE6A16F0020605D0674BCDF80080CDE92F
:1029B000018306E0FB6A002B0BDA644B0096CDE93D
:1029C000016300235A490122184606F08FFA0022BB
:1029D00030E0FB6A5B0076D55D4B55490096CDE94A
:1029E000016301223346304606F080FA7B69A26912
:1029F00043F480737B61BFF34F8FBFF36F8F7B69AD
:102A000032F8022C23F480737B61BFF34F8FBFF346
:102A10006F8F4DF602739A422CD1236803934D4B6E
:102A200043490096CDE9016301223346304606F062
:102A30005DFA22689DF81F30CBB908AE04F120077B
:102A400020686168334603C30834BC421E46F7D190
:102A50000F9B002D62D0C3F3080121B96FEA532305
:102A60006FEA43230F9308A91046FFF7D5FC10B077
:102A7000BDE8F081BB6ADBB23BB10DF11F02012161
:102A80002046FFF76FFE0246D4E7BB6A13F47F4F80
:102A900005D00DF11F010120FFF742FDF3E7BB6AEE
:102AA000B3F5803F02D3FFF7D9FDECE72A49224A6C
:102AB000224840F22A3306F00FF9284806F00CF9B4
:102AC00040F22A3145E724491B4A1C4840F22E3384
:102AD00006F002F9224806F0FFF840F22E3138E7FE
:102AE0000DF11F020021CBE70DF11F010020D3E7FC
:102AF0001C4B5AE71C4A1D4B0D4910F4F87F18BFB8
:102B00001346103ECDE90336194B02930023CDE95D
:102B100000330122184606F0E9F958E723F4FF7361
:102B200023F001039EE700BF00ED00E0AEB3000814
:102B300004A20008D9B30008E1B200086BA800089D
:102B4000ECB300082AB4000841B4000862B40008DD
:102B500070B400088FB40008F6A80008ABB40008F1
:102B6000CFB40008FFB4000895B3000880B3000894
:102B700023B50008024A536943F0100353617047BC
:102B800000ED00E0EFF30880EFF3098101B5724634
:102B9000FFF7B4FE01BD00BF102080F311880B4881
:102BA0004FF0AA014FF4046206F0B5FF07484FF456
:102BB0000461401880F30988EFF314800221084370
:102BC00080F31488BFF36F8F00F0CAF8801B0020D9
:102BD000084B9B6883420BD1EFF3058343B1064B4F
:102BE0005A6842F080525A605A6A22F400425A628D
:102BF00004F080BE400A002000ED00E00A4A93681D
:102C00006FF00A01C3F8BC100849C3F8B8004B685C
:102C100043F080534B60002383F31188BFF36F8F21
:102C20009368D3F8BC007047400A002000ED00E034
:102C300010B50446EFF31183102383F31288BFF31A
:102C40006F8F0A4BD8699860094B4FF000625A6049
:102C50000022D0F8B830C0F8B82083F31188BFF351
:102C60006F8F00F027F9204610BD00BF400A0020FA
:102C700000ED00E001B506F089FFBDE801400E4916
:102C80008A684FF040001044EFF3098C80E8F01F91
:102C900074467046FFF7CCFFA64607498A6802F1E2
:102CA000400090E8F01F8CF3098801B503F0B8FEEE
:102CB000BDE8014070470000400A00201EF0040FEC
:102CC0000CBFEFF30880EFF30980816911F8021C53
:102CD0000229FFD001B506F005F901BD40B2002878
:102CE00007DB044A4109012300F01F00834042F83A
:102CF0002130704700E100E038B54B1C0F2B044633
:102D00000D460FD9114A12491248582305F0E4FF25
:102D1000114829460F23224605F0DEFF0B485821B3
:102D200005F0D1FF40B20028ACBF00F160400B4A73
:102D30004FEA0313B8BF00F00F00DBB2AABF00F5E3
:102D40006140135480F8003338BD00BF36B5000829
:102D50006DB500086BA8000888B5000814ED00E008
:102D60000F4A08B50F4B22F07F029A60BFF34F8FD6
:102D7000BFF36F8FD3F8882022F47002C3F8882045
:102D8000EFF3148323F0040383F31488BFF36F8FEE
:102D900003F0E8F904F0F4FF00F062F803F034FA0D
:102DA0000000000800ED00E042F8203C009B42F8E3
:102DB0001C3C0A49019B42F8183C029B42F8143C17
:102DC00021F001014FF0807342F8043C42F8081CE6
:102DD0000023203A0266C0F8B8307047858C00089E
:102DE0000A4A0346906878B113F1160FD0F8A8008C
:102DF00005D0A0F140029A4205D8834203D2814215
:102E000028BF002070470020704700BF400A002004
:102E100008B50D4B044698600E46154603F000FEBB
:102E2000204600F047F82C4686F309884FF0000052
:102E3000064B984720464FF000014FF000024FF03C
:102E40000003034C204700BF400A0020158F0008F4
:102E5000858C0008014B10221A61704700ED00E0DC
:102E6000044800231021C2180133662B82F8001396
:102E7000F9D1704700E100E008B5EFF30583064A99
:102E8000103B02EBC30152F8330049688847BDE8A4
:102E90000840FFF731BB00BF589E0008024B034AB1
:102EA0000348012100F098B8000002200000002033
:102EB000E4A20008D0F8A820054B403A1A60054A61
:102EC0004021C3E901121846012100F0ABB800BF50
:102ED000D80B002000000B151FB5144AD2F8903013
:102EE000C3F30723013B98420FD9114B02930023F0
:102EF0000390CDE9003318460E49012206F02EF862
:102F00006FF0150005B05DF804FBC2F898000B687F
:102F100023F01F03034343F01003C2F89C308B6877
:102F200043F00103C2F8A030ECE700BF00ED00E081
:102F3000CCB50008FCA10008F0B50E4689B01F46CC
:102F400004460025B54212DA606838B3BFB1431EAB
:102F500018420FD0134B02930023CDE900331249DE
:102F600003950122184605F0F9FF6FF0150210468F
:102F700009B0F0BD1F28EDD921680B42EAD12368C2
:102F8000059305F0DBFFA36805A90343D0B20793BF
:102F9000FFF7A2FF10F1160FE7D0421C01350C34E9
:102FA000D0E700BFF2B50008FCA10008044B0522E1
:102FB000C3F89420BFF34F8FBFF36F8F704700BFEC
:102FC00000ED00E0BFF35F8F024B0022C3F89420B6
:102FD000704700BF00ED00E038B50D4D01232A78A1
:102FE0000C46FFF7A9FF287016300FD1094A0A498D
:102FF0000A484FF4B47305F06FFE0948214605F006
:103000006BFE04484FF4B47105F05DFE38BD00BF9F
:10301000C20E002015B60008F6A800086BA800082C
:1030200044B6000810B5144A002312780C46FFF786
:1030300083FF10F1160F08D0104A0021D2F890300B
:10304000C3F30723984210DB10BD0D4A0D490E480B
:1030500040F2871305F040FE0C48214605F03CFE87
:10306000074840F2871105F02EFEC2F89800C2F81A
:10307000A0100130E2E700BFC20E002000ED00E02A
:1030800015B60008F6A800086BA8000870B600087E
:103090002DE9F04F7B4C7C49D4F890300D68C3F398
:1030A00007239D4285B013D9784A7949794840F27F
:1030B0009F1305F011FED4F8902077482946C2F3FB
:1030C000072205F009FE40F29F11704805F0FBFD54
:1030D000FFF778FF49680022954201F10C012DD1DC
:1030E0006E4C6F4F25706846FFF790F9DFF8B4819A
:1030F000DFF8B49106460025AE4232D1237861490B
:103100000020D1F89020C2F307229342C0F2AF8092
:10311000FFF74CFFD1F89030C3F30723082B00F0E2
:10312000AC806249594A5B4840F20F2305F0D4FD58
:103130005F4805F0D1FD40F20F21C6E7C4F89820A2
:1031400051F80C3C23F01F03134343F01003C4F861
:103150009C3051F8043C43F00103C4F8A030013224
:10316000BAE7009A02EB05132901D3F80CA00AEA8A
:103170000700B0F5000F60D00AD8B0F5001F38D0B6
:10318000B0F5800F4ED0B0F5801F12D00135B3E7F7
:10319000B0F1807F5CD0B0F1007FF7D19868D3F8B0
:1031A00004A0525805F0CAFECDE901A240F48020E7
:1031B0000BE09868D3F804A0525805F0BFFECDE9A3
:1031C00001A240F0885040F430200390207801A9FB
:1031D000FFF782FE002846DA2D492C4A2D4840F29E
:1031E000C91305F079FD334805F076FD40F2C911A9
:1031F0006BE79868D3F804B0525805F09FFE1AF0B8
:10320000010F40EA0800CDE901B20390DED02A495F
:103210001E4A20486D2305F05FFD284805F05CFD3F
:103220006D2152E79868D3F804A0525805F086FE45
:10323000CDE901A240EA0900C7E79868D3F804A0E5
:10324000525805F07BFECDE901A240F08270BCE748
:103250009868D3F804A0525805F070FECDE901A299
:1032600040F08870B1E72378013323708EE7C1F80E
:103270009830C1F8A000013343E7002005B0BDE855
:10328000F08F00BF00ED00E0F0A2000815B60008C6
:10329000F6A800086BA800089DB60008C20E002022
:1032A0000000F0FF000008110000020750B70008FE
:1032B000A0B7000826B70008D1B60008F7B6000886
:1032C00008B50B4BC3F1005303F50033B3F5005FB2
:1032D0000CD20849084A0948892305F0FDFC084832
:1032E00005F0FAFC0448892105F0EDFC002008BD3A
:1032F000802D002000B80008D0B700086BA8000897
:1033000049B80008014B1860704700BFAC060020A8
:1033100010B5074C2368C2180648C0F1005101F5EA
:1033200000318A423ABF2260C0184FF0FF3010BD12
:10333000E40B0020802D002010B558B909490A4837
:103340000A4A40F2BB1305F0C7FC084840F2BB1123
:1033500005F0B9FC4FF0FF32BDE810404FF0FF33ED
:1033600003F000B8D1B800086BA80008D0B7000877
:1033700008B558B907490848084A40F2D71305F07C
:10338000ABFC064840F2D71105F09DFCBDE80840B3
:1033900003F0B8B8D1B800086BA80008D0B700088F
:1033A0002DE9F0410F4E104F054600244FF0010863
:1033B0002B7853FA84F01F280DDC726908FA00F3A9
:1033C00033EA020207D1736157F830301BB107EBC3
:1033D000C002516898476A780134E3B29A42E7D252
:1033E000BDE8F08100040140E80B0020044B1844C4
:1033F00000230133994200F8012BFADC704700BF2B
:10340000E806002010B4064B064902460C68185620
:103410000123934023430B6010BCFFF75FBC00BF48
:10342000E8060020000401401F2806DC03490122B1
:103430000B68824023EA02030B60704700040140DE
:1034400003292AD8DFE801F0020E141F134B0122D2
:103450009968824021EA02019960D96821EA020252
:10346000DA6070470D4B0122996882401143F3E7FF
:103470000A4B0122D96882401143D960996821EA38
:1034800002029A607047012303FA00F0034B9A6826
:1034900002439A60DA681043D86070470004014024
:1034A00030B50A4B53F830408C4204D103EBC005D1
:1034B0006D68954205D034B943F8301003EBC00372
:1034C0005A60002030BD6FF00F00FBE7E80B0020D2
:1034D000034B002243F8302003EBC0035A607047CF
:1034E000E80B00202DE9F04F5D881F469B880135D1
:1034F00087B01D44FB88BDF844901D44109B88464E
:103500009246002B00F0C480B9F57A7F80F0C0802D
:10351000836805A99B6A9847002840F0BC80B9F1F0
:10352000000F0AD15D4B109A9A4239D85C4B40F299
:103530006B399A4288BF4FF44879059B0093109BE2
:103540005D43009BB3FBF5F5BAF808309D4238BFE8
:103550001D46109B03FB05FB6FF0004301933B8965
:10356000AB4220DA0198B8F80630B8F804205B08BE
:10357000934228BF1346A8F80030BAF800209342BF
:1035800003D93A889A4228BF1A466FF000439842FE
:10359000A8F8002008BF6FF0850007B0BDE8F08FE5
:1035A00040F2EE29C9E7009BB3FBFBF00BFB1033A5
:1035B0003BBB81B27B88B7F804E003934FF47A7683
:1035C00000FB09F2B2FBF6F2BAF80660BAF804C0E2
:1035D00002968A1A92B20EEB0304B242BAF8023093
:1035E000A4B212D9FE88964228BF16464A1E921BE4
:1035F00092B294420BD20E1BFA88013EB6B2B2428E
:1036000010D2109B01359B44A9E7029EEEE70CEB1C
:103610000304A4B2944232D9091B029A01398EB232
:10362000B242EED8B3EB540F4FEA540203D2039BDD
:10363000934228BF1346E21A92B2964521D2A4EBD8
:103640000E039BB272464FF47A7104FB0114019988
:10365000B4FBF0F4A14534BFA4EB0900A9EB0400CE
:103660008842CED2A8F80230A8F80420A8F8066054
:10367000A8F8085000283FF476AF0190C1E714463F
:10368000D0E7944582BFA4EB0C039BB26246DAE715
:103690006FF0150081E76FF004007EE700350C0045
:1036A00020A107002DE9F04305468FB01E46D5F84E
:1036B0000890DDE9163017460C46F1B10A684979E1
:1036C000C90706D5B2F1005F1CD3244B1D21082089
:1036D00005E0B2F5006F15D3214B0B210320CDE996
:1036E0000331204B02930023CDE90502CDE90033DD
:1036F0001D490122184605F0C0FC6FF015000FB0FF
:10370000BDE8F083E3B90DF12408194601224046D3
:1037100006F01BFA154B0093CDF80480D9F81490ED
:103720003A46334621462846C8470028E7D14FF09D
:10373000FF324FF0FF33404602F0CCFF0D98DEE73A
:10374000CDE91630D9F814E03A46334621462846EA
:10375000F4460FB0BDE8F043604700BF38B9000839
:1037600041B900084AB90008C4A1000873900008D4
:1037700070B586688AB0F9B1F3B11D7A1C6815F08E
:10378000010F5D681CD0B4F1005F02D2B5F1005F9B
:1037900020D3134A1D210823CDE90735CDE905348F
:1037A000104B02930023CDE90321CDE900330E49EC
:1037B0000122184605F061FC6FF015000AB070BDDB
:1037C000B4F5006F02D2B5F5006F03D3074A0B21A1
:1037D0000323E1E7B469A4460AB0BDE8704060473E
:1037E00038B9000877B90008C4A1000841B9000839
:1037F00073B514461E4682683032074D8368AC426A
:1038000003F13A0305D8CDE90046FFF76BFE02B09D
:1038100070BD6FF01500FAE740420F0073B5144613
:103820001E4682684832074D8368AC4203F152035A
:1038300005D8CDE90046FFF755FE02B070BD6FF028
:103840001500FAE700127A0030B543689B6987B02B
:103850001B680D469847044658B1074B0293002356
:10386000CDE90350CDE9003304490122184605F0A3
:1038700050FC204607B030BDC4B90008CCA10008F8
:1038800030B543689B6987B05B680D46984704462E
:1038900058B1074B02930023CDE90350CDE9003323
:1038A00004490122184605F034FC204607B030BD1B
:1038B000E7B90008CCA100082DE9F04F9DB00446FF
:1038C0000493436891468B46482200210AA8D3F806
:1038D0001C8004F04FFE07AA49462046FFF7B4FFBC
:1038E000F0B9DFF898A1079D6B0619D0C5F305253F
:1038F00005EBC5010BEBC10189B2082308AA2046DC
:10390000059105F0F4FB059968B15D4B0293002326
:10391000CDE9003303905B490122184605F0F9FB1D
:103920001DB0BDE8F08F9DF82630C3F303008DF87D
:103930002C009DF82300870642BF9DF82D6046F0BD
:1039400002068DF82D609E0642BF9DF82D6046F060
:1039500004068DF82D60DF0603F00F0248BF9DF8C6
:103960002D309DF8277044BF43F008038DF82D30AB
:10397000060642BF9DF82D3043F010038DF82D3020
:10398000400607F07F0724D5089BC3F31C030A9366
:103990009DF82D3043F001038DF82D301AF80230D8
:1039A000402B5FD89DF82D6016F0020617D1B3B1F9
:1039B0000333083103F4FE730CAA89B2204605F0E4
:1039C00096FB60B1304B0390CDE90163009633461E
:1039D000A1E7BDF82230C3F38A030A93DEE79DF81E
:1039E0002D3013F0010F3BB22BD098F80E209742E8
:1039F0000BD32649264A274840F2F92305F06CF9F3
:103A000040F2F921224805F05EF9D8F8082002EBCF
:103A1000C30152F833304A6813B10AA920469847C7
:103A200004992A462046FFF72BFF00287FF478AF41
:103A300007AA49462046FFF707FF00283FF453AF87
:103A40006EE798F80D20974209D31349104A1148A0
:103A500040F2FE2305F040F940F2FE21D2E7D8F80B
:103A60000420D4E70D4B02930023CDE90033054930
:103A70000122184605F04DFBD2E700BF98C00008B0
:103A80000BBA0008CCA1000832BA000881BA0008BD
:103A900057BA00086BA8000899BA0008B1BA000824
:103AA0002DE9F3410669103605464FF0FF324FF01D
:103AB000FF33304605F03CFB01AA18212846FFF7EA
:103AC000C3FE044648BB019A182122F01002284682
:103AD0000192FFF7D5FE0446F8B902F05BF801AA9F
:103AE000074618212846FFF7AFFE0446A8B9DFF8BD
:103AF0004C80019B1B0710D502F04CF8C01B4045C1
:103B000012D9019A182142F0100228460192FFF7BB
:103B1000B7FE041E08BF6FF00A04304605F00AFB2A
:103B2000204602B0BDE8F08101AA18212846FFF71F
:103B30008BFE0028DDD00446EFE700BF406603019E
:103B400070B50469237905460E462BBB10344FF03F
:103B5000FF324FF0FF33204605F0EAFAF38832884F
:103B60003189013B013A03F07F0343EA4263B288A3
:103B7000013A120202F47F421343094A013902EA70
:103B8000014228461A431C21FFF77AFE05462046CB
:103B900005F0D0FA284670BD6FF00F05FAE700BFB8
:103BA0000000FF012DE9F04FD0F81080D0F804A0FC
:103BB00098F8046087B00546002E76D1DAF8000048
:103BC000A8B18368D8F800101B689847044670B104
:103BD000374B0390CDE90163364900963346012205
:103BE000304605F096FA204607B0BDE8F08F2E6902
:103BF00010364FF0FF3230464FF0FF3305F098FAA1
:103C000005AA18212846FFF71FFEA8B1304605F087
:103C100091FA294B029300231846CDE90033254938
:103C2000012205F076FADAF8000010B183685B68CB
:103C300098476FF00404D6E7059A182122F0010294
:103C400028460592FFF71CFE0028DFD106F00FF88A
:103C500005AA0746894628461821FFF7F5FD0446C0
:103C60000028D3D140F2E93B059BDB0708D430465E
:103C700005F060FA002CCCD1012388F80430B2E7BB
:103C800005F0F5FFC01B61EB0901584571F100011A
:103C900008DA05AA18212846FFF7D6FD0028E3D048
:103CA0000446E4E76FF00A04E1E76FF077049AE76F
:103CB000C2BA0008CCA10008ECBA00082DE9F04116
:103CC0000729066986B080460D4610D92E4B02930F
:103CD00000230391CDE900332C490122184605F059
:103CE00018FA6FF08504204606B0BDE8F0813379FC
:103CF000002B46D106F110074FF0FF324FF0FF3393
:103D0000384605F015FA04AA18214046FFF79CFD35
:103D10000446002831D105AA10214046FFF794FD42
:103D2000044650BB049BE80745BF43F0800304935F
:103D300023F08003059B58BF0493049A44BF43F0CB
:103D400010030593A9074CBF42F0200222F0200285
:103D50006B074CBF42F4407222F440721821404677
:103D60000492FFF78DFD044638B9059A10214046AC
:103D7000FFF786FD044600B93560384605F0DAF9EC
:103D8000B1E76FF00F04AEE706BB0008CCA1000856
:103D90002DE9F04186B005AA502145680446FFF799
:103DA00053FD00283ED1214F214EDFF88880059A2F
:103DB00012F0990236D050212046FFF761FD88BBF2
:103DC000059BD80705D5E98EA823A4222046FFF736
:103DD00073FD059BD90605D5298FB823B42220464B
:103DE000FFF76AFD059B1A0708D50023CDE90033CC
:103DF000029701223146184605F08BF9059B1B06F8
:103E000009D50023CDE90033CDF8088001223146E1
:103E1000184605F07EF905AA50212046FFF714FD4B
:103E20000028C4D006B0BDE8F08100BF1FBB000869
:103E3000CCA1000835BB00082DE9F04F8DB008AAD1
:103E40005021D0F810900446FFF7FEFC002840F007
:103E5000A180754E089A324000F09C805021204687
:103E6000FFF70EFD002840F09580089B13F0607F5F
:103E700034D02769636809AA0DF11F012046D7E9EC
:103E800002ABD3F81C8005F0F4F938BB9DF81F5045
:103E9000BAF1000F04D0099A5B4629462046D04764
:103EA000032D1BD14FF0FF32D4212046FFF7E8FC51
:103EB000054698B98246243798F80C309D426CD359
:103EC0000AAA18212046FFF7BFFC38B90A9A182120
:103ED00022F0010220460A92FFF7D2FC089BDD0483
:103EE00025D56768D4F810A0D7F81C8009AAF4215A
:103EF0002046FFF7A9FCD0B9099DA80617D0B98FB5
:103F0000C5F3042501EBC50108230AAA89B220469E
:103F100005F0EDF8002857D0444B0293002303909E
:103F2000CDE9003342490122184605F0F2F8089B1A
:103F300019040DD53F4B02930023CDE900333C49D2
:103F40000122184605F0E5F809F1240002F06AFBA9
:103F5000089B9A0009D5384B02930023CDE9003322
:103F600033490122184605F0D4F8089B9B0309D574
:103F7000324B02930023CDE900332D49012218462C
:103F800005F0C7F808AA50212046FFF75DFC00287D
:103F90003FF460AF0DB0BDE8F08FD8F8003053F8B3
:103FA00035B0EA00BBF1000F0CD043F835A0D8F8CB
:103FB000003013446FF071015A682046D8473846E4
:103FC00002F030FB013577E72A46F82120469DF8BC
:103FD0002FB0FFF755FC05460028A8D198F80C3003
:103FE0005B450BD816491748174A4FF40A7304F07B
:103FF00073FE15484FF40A7104F065FED8F80010FE
:1040000001EBCB030FFA8BF05A6851F830B00592F0
:1040100041F830500AF1240002F004FB059A2946C9
:104020002046D84762E700BF0090823B4BBB0008A8
:10403000CCA1000886BB00089BBB0008B6BB0008EB
:1040400071BB00086BA8000857BA00082DE9F04FB3
:10405000074606699A4643680879D3F81C908FB0E2
:104060000F2815460793984A034628BF0F23884612
:1040700012F803B04A799101C2F3400401F0400103
:1040800041EA44110023CDE90C338DF8331000F0E0
:104090000F01C2F3C00461F07F0141EA0411C2F3D1
:1040A000800441EA44110F2A8DF836100FD903928B
:1040B000864A87490093CDE901321846012205F06E
:1040C00028F86FF0850420460FB0BDE8F08F336804
:1040D00013F004030CD112F00C0F09D07D4A7C4977
:1040E0000093CDE901321846012205F012F8E8E705
:1040F000BBF1400F0FD94023CDE903B3764B0293B8
:104100000023CDE9003372490122184605F001F879
:104110006FF01504D7E712F004030DD00F2811D962
:104120006E4B029303900023CDE9003368490122CE
:10413000184604F0EEFFEBE7082803D9684A03901D
:104140000292F1E73379002B00F0B4800BAA4421EE
:104150003846FFF779FB04460028B4D10B9B1A06BA
:1041600000F1AB8006F1240309932A46534606F179
:10417000240002F0AFFA0446002840F0A180343653
:104180004FF0FF334FF0FF32304604F0D1FF99F883
:104190000C30A34237DC4FF0FF3598F80530D8F8E3
:1041A00000208DF83750DB074BBF0C9BBDF8323039
:1041B00062F31C0362F38C034CBF0C93ADF83230F6
:1041C00005EBC503DB009BB20893079BD98F089BC7
:1041D00019440CAA082389B2384604F08FFF04461C
:1041E000D0B1404B02930023CDE90033039038490E
:1041F0000122184604F08DFF304604F09BFF099819
:1042000002F010FA5FE7D9F8002052F83420254672
:10421000002AC2D00134BCE798F805A01AF0020ABF
:104220001BD1BBF1000F18D0079A0899D28F083222
:1042300011440BF1030303F4FE7308F1080289B281
:10424000384604F05BFF044638B1274B0390CDE9B4
:1042500001A3CDF800A05346C9E799F80C309D4260
:104260000BD322492248234A40F2044304F034FD90
:10427000204840F2044104F026FDD9F80030189A95
:1042800043F83520D9F80030EA001344199A5A60EF
:104290000122AA40D0213846FFF7F2FA044628B19D
:1042A000D9F80030002243F83520A5E7304604F065
:1042B00041FF08E76FF0720405E76FF0710402E751
:1042C0006FF00A04FFE600BF98C00008D1BB0008E9
:1042D000CCA10008F4BB00081FBC00084FBC0008BC
:1042E00071BC000893BC0008BDBC0008E5BC000818
:1042F0006BA8000857BA00082DE9F04F89461968E5
:104300005B68D0F804B00669DBF81C709246384A46
:10431000C3F30A0302EA014287B043F000431343A8
:104320001036059305464FF0FF334FF0FF3230460D
:1043300004F0FEFE7B7B0024A3420FDC2D4B029396
:1043400000231846CDE900332B49022204F0E1FE98
:10435000304604F0EFFE6FF01B0545E07A6852F836
:104360003480B8F1000F1DD00134E5E7304604F089
:10437000E1FE7B7B9C420BDB20492148214A40F235
:10438000564304F0A9FC1F4840F2564104F09BFC40
:104390007B6843F834907B6803EBC4032546C3F87D
:1043A00004A021E09DF8172004F00103013363F31A
:1043B000C5028DF81720BBF8321001EB84012846A6
:1043C000042305AA89B204F099FE05460028CDD041
:1043D0000D4B09490395CDE90183CDF80080434693
:1043E0000122404604F095FE284607B0BDE8F08F54
:1043F0000000FF0740BD0008CCA1000827BD000851
:104400006BA8000857BA0008FBBC00082DE9F04F64
:104410001C7AD0F804B089B0012CDBF81C5005914F
:10442000064692469C4610D94B4B02930023CDE999
:1044300000334A4903940122184604F06AFE6FF0E3
:104440008506304609B0BDE8F08F002C55D0002419
:10445000CDF81B40069BDCF800208DF81F4062F36E
:104460001C030693DCF80430079A076923F06043C5
:1044700002F0005243F000431343103707934FF00C
:10448000FF324FF0FF33384604F052FEAB7B9C42C4
:104490000FDB334B029300231846CDE900332F493D
:1044A000022204F036FE384604F044FE6FF01B068C
:1044B000C7E7AA6852F83480B8F1000F22D001345F
:1044C000E5E7384604F036FEAB7B9C420BDB254922
:1044D0002548264A40F28A4304F0FEFB234840F276
:1044E0008A4104F0F0FBAB68059A43F83420AB68CE
:1044F0004B442646C3F804A02BE009B0BDE8F04FBA
:10450000FFF7FABE9DF81B20BBF8341004F001033E
:10451000013363F3471201EBC4018DF81B203046D1
:10452000082306AA89B204F0E9FD4FEAC409064649
:104530000028C6D00E4B09490396CDE90183CDF87A
:10454000008043460122404604F0E3FD002EFFF6C2
:1045500078AF6B7B1E4474E760BD0008CCA10008F7
:104560009DBD000884BD00086BA8000857BA00086C
:10457000FBBC00082DE9F043D0F804900769D9F896
:104580001C600C1E85B005460DDA314B02930023EA
:10459000CDE900332F4903940122184604F0B9FDF8
:1045A00005B0BDE8F08310374FF0FF334FF0FF3216
:1045B000384604F0BDFD737BA3422BDCB27BE31ACB
:1045C0009A424FF0000410DC0393214B0094CDE994
:1045D000014323461F490122184604F09AFD38463C
:1045E00005B0BDE8F04304F0A5BDB26842F8334021
:1045F000B26802EBC30228465460B9F8341001EBEC
:10460000C301082289B204F080FD0028E7D0124BD4
:104610000390DBE773684FF0000843F83480736859
:1046200003EBC4030422C3F80480B9F8321001EB91
:10463000840189B2284604F068FD0028CFD0074BDA
:104640000390CDE90183CDF800804346C2E700BF67
:10465000BDBD0008CCA10008D8BD000804BE0008FC
:104660002DE9FF47076945683B79D5F81C80064668
:10467000002B4CD04FF47A72002304F05DFD044609
:1046800078B1244B02930023CDE900332249012263
:10469000184604F03EFD6FF00404204604B0BDE867
:1046A000F087286888B183685B689847054660B1E1
:1046B0001A4B0390CDE90143009423462046164946
:1046C000012204F026FD2C46E7E70025304604F0E1
:1046D00009FEA9463D71243798F80C309D42DCD282
:1046E000D8F8003053F835A0EA00BAF1000F0CD02A
:1046F00043F83590D8F8003013446FF072015A68CF
:104700003046D047384601F08DFF0135E4E76FF0C1
:104710007704C2E730BE0008CCA100084ABE0008FA
:10472000F0B500238DB04668ADF82030CDE90633F2
:10473000CDE90933ADF82C30B369F4691A6807691B
:1047400005465AB9A649A74AA74840F2655304F05E
:10475000C3FA40F26551A34804F0B5FA5A684AB961
:10476000A249A04AA04840F2665304F0B5FA40F2CC
:104770006651F0E79A684AB99D499A4A9A4840F2C8
:10478000675304F0A9FA40F26751E4E7DA684AB9DE
:104790009849944A94484FF4AD6304F09DFA4FF45D
:1047A000AD61D8E71B694BB993498E4A8E4840F2F8
:1047B000695304F091FA40F26951CCE74CB98F4942
:1047C000884A894840F26A5304F086FA40F26A51F6
:1047D000C1E7227BF38D9A4209D98949814A8248EF
:1047E00040F26C5304F078FA40F26C51B3E7627B0C
:1047F000738C9A4209D983497A4A7B4840F26D53B7
:1048000004F06AFA40F26D51A5E7A27BB38C9A429C
:1048100009D97D49734A744840F26E5304F05CFA3A
:1048200040F26E5197E707F1100005F087F907F1A4
:10483000340005F083F9227B114607F1240005F0CE
:1048400084F9306870B105F02BF9034650B96F4A0E
:104850006F490090CDE90102012204F05AFC6FF08B
:1048600012041DE02846FFF71BF9044628B1694BE6
:1048700002930023CDE900330BE04FF47A7200235A
:10488000284604F059FC70B1634B0094CDE9014314
:1048900023465F490122184604F03BFC6FF00404F4
:1048A00020460DB0F0BD284604F01CFD05AA1821D5
:1048B0002846FEF7C9FF04460028F1D1059A1821C1
:1048C00022F4697228460592FEF7DAFF04460028B2
:1048D000E6D105AA10212846FEF7B6FF04460028B7
:1048E000DED1059A102122F0100228460592FEF72B
:1048F000C7FF04460028D3D105AA80212846FEF729
:10490000A3FF04460028CBD1059A802142F02B0258
:1049100028460592FEF7B4FF04460028C0D1F2688D
:10492000338A06A92846FEF763FF163001D13B4BB8
:10493000ABE77269738A09A92846FEF76FFF163044
:1049400001D1374B94E706A9284604F0A6FB04469C
:1049500058B1344B02930023CDE9003303902C4926
:104960000122184604F0D5FB79E709A9284604F08E
:10497000A7FB30B12C4B0390CDE9014300942346B3
:10498000EDE72A4A059254212846FEF779FF0446AE
:10499000002885D19922582128460592FEF770FFFC
:1049A000044600287FF47CAF03225C212846059250
:1049B000FEF766FF044600287FF472AF4FF0FF3227
:1049C000E02128460592FEF75BFF044600287FF4AD
:1049D00067AF0146326C284604F097FB04465FE758
:1049E0008FBE000857BA00086BA80008B4BE0008C4
:1049F000DABE000800BF000827BF00084EBF00084D
:104A00006FBF000897BF0008C0BF0008E9BF0008DB
:104A1000CCA1000875BE000830BE000803C0000825
:104A200025C0000851C000086FC00008999082039B
:104A300010B543685B6C5C680B19A4074FEA9200E1
:104A40000ED01B491B4A1C4840F2B75304F044F9EE
:104A50001A4804F041F940F2B751164804F033F90E
:104A600089070CD01649134A13484FF4B76304F072
:104A700033F9144804F030F94FF4B761EDE712F060
:104A8000030205D103EB800199420ED1002010BD35
:104A90000D49084A084840F2B95304F01DF90B4883
:104AA00004F01AF940F2B951D7E743F8042BEBE7C9
:104AB000EAC00008B1C000086BA80008FAC00008EE
:104AC00019C100082BC100084CC100085BC10008D7
:104AD00038B54068406C45684C19AD074FEA930003
:104AE0000ED02449244A254840F2945304F0F4F8A7
:104AF000234804F0F1F840F294511F4804F0E3F821
:104B00008D070CD01F491C4A1C4840F2955304F0F5
:104B1000E3F81D4804F0E0F840F29551EDE7910705
:104B20000CD01A49144A154840F2965304F0D4F8B0
:104B3000174804F0D1F840F29651DEE79B0708D100
:104B400002EB8003A11A934202EB01000ED1002078
:104B500038BD1049084A094840F2975304F0BCF8A0
:104B60000D4804F0B9F840F29751C6E752F8044BEB
:104B70000460E8E7EAC00008B1C000086BA80008BC
:104B8000FAC0000819C100082BC1000879C100084B
:104B900098C100084CC100085BC1000838B54068E6
:104BA000406C45684C19AD074FEA93000ED024497C
:104BB000244A254840F26B5304F08EF8234804F051
:104BC0008BF840F26B511F4804F07DF88D070CD034
:104BD0001F491C4A1C4840F26C5304F07DF81D48E4
:104BE00004F07AF840F26C51EDE791070CD01A49C5
:104BF000144A154840F26D5304F06EF8174804F05B
:104C00006BF840F26D51DEE79B0708D102EB8003A1
:104C1000A11A934202EB01000ED1002038BD1049C9
:104C2000084A094840F26E5304F056F80D4804F063
:104C300053F840F26E51C6E7006842F8040BE8E70B
:104C4000EAC00008B1C000086BA80008FAC000085C
:104C500019C100082BC10008B5C10008D4C1000863
:104C60004CC100085BC10008D02808B546D02FD839
:104C7000A82845D011D8842819D0A0F188039BB268
:104C80001C2B09D8284901229A400A420FD11C2B1B
:104C900038D0082B08BF842008BDB82834D010D8DD
:104CA000B42833D0F8D8AC2801D0B028F4D11F49AB
:104CB0001F48204ACB2304F00FF81E48CB2104F0F4
:104CC00002F8CC2824D0E7D8BC28F0D0C828EDE7DB
:104CD000E0281FD007D8D8281ED0DC281ED0D42822
:104CE00008BFD020D8E7F4281AD003D8E42819D078
:104CF000F028DBE7F82808BFE820CDE7CC20CBE799
:104D00009420C9E79020C7E79C20C5E79820C3E717
:104D1000C820C1E7DC20BFE7D420BDE7D820BBE72F
:104D2000E420B9E7E020B7E701001101F6A8000888
:104D30006BA80008F1C100081FB54FF040700C4689
:104D400001F022F8034658B90C4A0090CDE901025F
:104D50000B49012204F079FB6FF0040004B010BD90
:104D6000084AD2F8001511B923600020F6E7D2F8FE
:104D700000255200B0FBF2F3F6E700BF22C20008A4
:104D8000D4A10008006000402DE9F04143685E6C4A
:104D900086B0054605AA7069002104F0D5FC041E02
:104DA00007DB059B00221979186800F0E5FA041E5C
:104DB0000EDA3A4B039402930023CDE900333849CD
:104DC0000122184604F041FB204606B0BDE8F08100
:104DD0006B685F6C334C204604F062FE002859D0AB
:104DE000BB68F968D4F80880012B18D9D8F81830B6
:104DF00008318BB1204600229847041E0FDA2A4B57
:104E000002930023CDE9003325490122184604F01E
:104E10001CFB264B0394CEE76FF05704EFE7D8F85E
:104E20000030F9681F489847041EF2DB3B7E3BB117
:104E3000284604F057FA3B7E1D4A5B08C2F800354D
:104E4000284604F04FFA05AA80212846FEF7FCFC0C
:104E500004460028B8D1059A42F0016242F440228B
:104E6000802128460592FEF70BFD04460028ABD1B1
:104E70004FF08072C0212846FEF702FD044600284C
:104E8000A2D12846FFF74CFC044600289CD1336988
:104E9000984799E76FF01204BBE700BF38C20008DB
:104EA000D4A10008549D000856C2000880C2000822
:104EB0000060004010B5214B18680B68082B1446A1
:104EC00016D00B2B0BD89BB1013B0A2B10D8DFE877
:104ED00003F017162E163331160F1A252500582BFE
:104EE0000ED008D84C2B0BD0502B09D0482B07D014
:104EF0006FF0850006E05C2B02D0602BF7E7002006
:104F00002060002010BD00F0C1F80623B0FBF3F0D4
:104F1000552358430723B0FBF3F0F1E700F0B6F850
:104F20000623B0FBF3F0552358434008E8E74FF45D
:104F3000FA40E5E70248E3E70248E1E7D00600204F
:104F400000366E01006CDC02F8B54C4F4C4C00F0A2
:104F5000BBF8384604F006FB00F066FEA368494A39
:104F6000C3F303131578D35C05F01F0503F01F038B
:104F700020FA03F647FA05F5AE4202D2284600F0C1
:104F800031FF236823F480232360236843F48033B4
:104F9000236023689A03FCD5D4F8943043F00103CE
:104FA000C4F89430D4F894309B07FBD5D4F89830EB
:104FB00043F00103C4F89830D4F898309807FBD533
:104FC000A36803F00C030C2B18D12368590506D4F1
:104FD000236843F48073236023685A05FCD5A368D3
:104FE00023F0030343F00103A360A36803F00C0361
:104FF000042BFAD1A36823F0F003A360236823F005
:1050000080732360E36823F0605323F4003343F09C
:105010006053E360E36843F48033E360E36823F4C0
:10502000C003E360E36843F48013E36000F032F808
:10503000236843F08073236023689B01FCD5A36839
:1050400023F0F003A360A36843F00303A360A36805
:1050500003F00C030C2BFAD1AE4202D3284600F029
:10506000C1FE094B1F60A36823F4E063A360A3683B
:1050700023F46053A3600020F8BD00BF80FE210A26
:105080000010024042C60008D006002000487047C9
:1050900000366E010A4AD2F8803023F48073C2F8D9
:1050A000803002F5D032074BD1680B4043F4AA435D
:1050B00043F05303D360D36843F08073D3607047E9
:1050C000007000400C80FFF9064B9A6D42F0805250
:1050D0009A659B6D82B003F080530193019B02B0EF
:1050E000704700BF0010024008B5074804F0D8FC24
:1050F00038B10648FEF706F90448FCF783F80020AB
:1051000008BD6FF01200FBE71C9E0008115100085B
:105110000A2838B5074D044604D1AB680D215B68F9
:1051200028469847AB6803485B68E1B29847204639
:1051300038BD00BF1C9E000810B5036961B9204945
:10514000204A21483A2303F0C7FD204803F0C4FD5C
:105150003A211C4803F0B7FD486850B91C49194A68
:1051600019483B2303F0B8FD1A4803F0B5FD3B2175
:10517000EFE79868F8B1884219D1DC680868986050
:10518000A14200D1D860002008602AB19A680A6064
:10519000DA68996002B9D960002010E0814206D136
:1051A00008682060D8688142EDD1DC60EBE70446F6
:1051B00000680028F2D1002AE8D16FF0150010BD78
:1051C00003C30008C7C200086BA800080CC300088E
:1051D0001BC300082DC3000838B503690446586096
:1051E000084D284604F05CFC40B16168AB680C31A6
:1051F0001B682846984700EAE07038BD6FF012003F
:10520000FBE700BF549D000870B5D1E9016119B1F9
:1052100001250C68854001B970BD8A682A4010D00C
:105220004B6863B90A490B4A0B485D2303F054FDF0
:105230000A4803F051FD07485D2103F044FD304664
:1052400098471CB1236821461C46E4E72346FAE749
:1052500044C30008C7C200086BA800082DC300089B
:1052600073B50C461146B1F5001F456802691E462C
:1052700028D104F0030304339B000F229A4042EA32
:10528000940202F003030233374951F82310130C40
:1052900093FAA3F3B3FA83F301EA124203F01F0374
:1052A00022FA03F3AA689A4209D12046FEF7BCF815
:1052B0002046FEF70DF900212046FEF7C1F8002038
:1052C00002B070BDB1F5800F44D028492046FEF7EA
:1052D000E7F8002841D1B6F1806F37D0B6F1C06F42
:1052E00036D0B6F1007F3BD10226214AAD6892E864
:1052F00003006B4683E803001E4882681946126863
:105300009047D8B904F0030304339B000F21994060
:1053100041EA940101F003039B0003F1804303F58C
:1053200080330A0C986892FAA2F2B2FA82F202F082
:105330001F0220EA114195400D439D6020463146F1
:10534000FEF77EF82046FEF75DF8B8E70126CCE7C9
:105350000326CAE76FF08500B2E76FF00F00AFE7F2
:105360006FF01500ACE700BF0000014009520008D3
:1053700054A20008549D00082DE9F047264F04462A
:1053800000EBC1060025B44201D1002014E02068E2
:10539000C30600F01F0811D4656845F02005C0F36E
:1053A000481AC0F344200F2832D857F82090B9F19A
:1053B000000F1CD16FF01200BDE8F087B8F1100F9C
:1053C00013D0B8F1110F01D16568E8E7B8F1000F0B
:1053D000E5D112491248134A4FF4887303F07CFC5C
:1053E00010484FF4887103F06EFC3025D7E748462B
:1053F00004F056FB0028DDD043462A460AF00F0190
:10540000484604F08CF9002804F10804BBDAD3E71D
:105410006FF01500D0E700BFF0A40008E5C3000856
:105420006BA80008B2C30008012912D0022907D0D6
:1054300089B90068094BC01A18BF012000037047E2
:105440000068064B984214BF4FF440504FF4005090
:105450007047002070474FF40050704700800040B4
:1054600070B51D46094B002633F812203346FAF773
:10547000ABFF090241EA10616C08000220182A46BD
:10548000334641F10001FAF79FFF70BD1EA70008E7
:105490002DE9F04102694368064610681D680C4614
:1054A000D9688368DB6888B063B9474B02930023EF
:1054B000CDE9003345490122184604F0D2F908B07D
:1054C000BDE8F08107AA98470028EEDB404B9D42DB
:1054D0005FD1079FDFF8FC8000252346AAB238463B
:1054E0000021FFF7BDFFA0F54070404510D9013500
:1054F0000C2DF2D1049433680393374B02930023AD
:10550000CDE9003331490122184604F0AAF9D6E763
:105510002F4EF36A23F00F032B43F3628CB92C4B0D
:10552000DA68B2F5407F25D22C492D4A2D48BB239D
:1055300003F0D2FB2C4803F0CFFBBB21284803F03B
:10554000C2FB2A4B33F81520002319463846FAF7D8
:105550003BFF090241EA106163080002C0182246BD
:105560004FF0000341F10001FAF72EFFC0F31300E2
:10557000F060D4E7DA681E4B9A42A0D91D49184A58
:105580001848BF2303F0A8FB1B4803F0A5FBBF216D
:10559000D4E72B6823F400432B6034B1079B03EB63
:1055A0005403B3FBF4F39BB2EB60EB680F2B86D88C
:1055B00012490B4A0B48D12303F08EFB104803F02D
:1055C0008BFBD121BAE700BF0EC4000834A200084B
:1055D00000800040FFFC0F003CC4000882C40008AB
:1055E00053C400086BA800089BC400081EA700084D
:1055F000FEFF0F00B2C40008CFC40008E6C40008D4
:10560000FBC400082DE9F84306460A79406833696F
:1056100004685F68012A0D4658D0931ED3F1000834
:1056200048EB03084FEA88286979FFF7FDFE95F8F3
:105630000690B9F1020F03464BD0B9F1040F4CD0DC
:10564000002A54D0033A012A49D94FF48050B3F5C7
:10565000805F4ED0B3F5405F4DD0002B0CBF0123CF
:10566000032399423BD1414604F0B9F8814536D134
:10567000EB79C3B1012B40D1214B9C4213D0A3F550
:1056800074439C420FD003F580639C420BD003F51A
:1056900080639C4207D003F580639C4203D003F5EE
:1056A00040539C421BD1236823F001032360294609
:1056B000304604F05AF9236843F00103236095E86B
:1056C000030087E803000020BDE8F8834FF4C068BA
:1056D000AAE73AB94FF08050B9E7002AB5D06FF089
:1056E0008500F1E7033A012AF9D90020AFE7104617
:1056F000ADE70023B5E70223B3E7032BBCD0EEE709
:1057000000380140F0B504694568064662482060EB
:1057100087B004F0C5F9034650B9604A6049009368
:10572000CDE90132012204F09CF86FF012040DE083
:105730002068E96883681B689847044648B9286A66
:1057400005AA002104F000F8041E0FDA204607B075
:10575000F0BD544B02930023CDE9003350490122A0
:10576000184604F07EF8002CF0DBE8E7059B0022E9
:1057700019791868FFF700FE041EE7DB75683369C6
:105780002C685F68236823F001032360686804F0D5
:1057900087F9034608B9444AC0E7D5E9010183689F
:1057A000DB6803B1984754E8003F43F00C0344E83A
:1057B0000032002AF7D13946304604F0D6F82B7D66
:1057C0001BB1A36843F00803A3606B7D1BB1636842
:1057D00043F400436360AB7D1BB1636843F48033E3
:1057E0006360EB7D1BB1636843F4003363602B7E21
:1057F000002B3FD02D4B9C4222D0A3F574439C42FA
:105800001ED003F580639C421AD003F580639C424E
:1058100016D003F580639C4212D003F540539C429E
:105820000ED033680393224B02930023CDE900335B
:105830001B490122184604F014F86FF0150485E79F
:1058400073681A68936843F48043936023686A7EA0
:1058500023F0787343EA425323602368AA7E23F43B
:10586000F81343EA02432360EB7E1BB1A36843F4C1
:105870000043A3602B7F1BB1236843F000532360D8
:10588000236843F001032360E3699A02FCD5E369CE
:105890005B02FCD5002459E7549D00080FC50008A1
:1058A00034A200082EC500084EC50008003801408B
:1058B00069C5000810B54FF0E0230F499C691A69CB
:1058C00008689B690D4902F4803234B993B90346E4
:1058D0004AB90A681044C01A10BD002B08BF03461D
:1058E0000AB9A342F5D90A6802440A604FF0E022DF
:1058F0001269EEE70446F3E7600E00205C0E00201C
:105900000A4B102283F82320094B44F268221A60C4
:10591000084B002018604FF0E02344F267225A61E0
:1059200098611A6942F007021A61704700ED00E0C1
:10593000600E00205C0E002010B5FFF7BBFF104B7F
:105940001049D3E900420868001942F10002C3E996
:1059500000020D4A00230B60D2E9004144F26823A3
:10596000001BB0FBF3F043431B1941F10001C2E9F6
:10597000003102F079FBBDE81040FCF7BDBD00BF6F
:10598000B80800205C0E0020B00800202DE9F0418E
:10599000DFF82C8199B1421C0BD14FF0E022136942
:1059A00023F0010313614FF07F43C8F80030BDE8D6
:1059B000F081D8F80050012807DC00270BE0431CD9
:1059C000D8F80050F7D140F2D93040F2DA3398429B
:1059D000A8BF1846471EEFF31184102383F31288E3
:1059E000BFF36F8F374802F0CBF868B9364A3749B2
:1059F0003748882303F070F93249364803F06CF9D0
:105A00008821314803F05FF92E48334E02F0DCF86C
:105A1000FFF750FF4FF0E0239969D6E90023801883
:105A200043F10003C6E900032C4B00221A602C4B03
:105A30001A68831A3BD444F2682C0CFB073303F535
:105A400084436733B3FBFCF7131A0CFB073340F2B4
:105A50002642934238BF1346224A934228BF134638
:105A60004FF0E022C8F80030013B906953610023F9
:105A700093618142A1EB0003D6E9001238BF5B19A4
:105A80005B1842F100020F48C6E9003202F086F8C6
:105A900080B90D4A14490E4840F2311303F01CF945
:105AA0000849124803F018F940F23111A9E740F211
:105AB0002643D5E784F31188BFF36F8F77E700BFE4
:105AC000600E0020640E0020B6C50008E3C5000883
